{
  "_format": "hh-sol-artifact-1",
  "contractName": "Nft",
  "sourceName": "contracts/NFT.sol",
  "abi": [
    {
      "inputs": [
        {
          "internalType": "string",
          "name": "name",
          "type": "string"
        },
        {
          "internalType": "string",
          "name": "symbol",
          "type": "string"
        },
        {
          "internalType": "address",
          "name": "initialOwner",
          "type": "address"
        }
      ],
      "stateMutability": "nonpayable",
      "type": "constructor"
    },
    {
      "inputs": [
        {
          "internalType": "address",
          "name": "sender",
          "type": "address"
        },
        {
          "internalType": "uint256",
          "name": "tokenId",
          "type": "uint256"
        },
        {
          "internalType": "address",
          "name": "owner",
          "type": "address"
        }
      ],
      "name": "ERC721IncorrectOwner",
      "type": "error"
    },
    {
      "inputs": [
        {
          "internalType": "address",
          "name": "operator",
          "type": "address"
        },
        {
          "internalType": "uint256",
          "name": "tokenId",
          "type": "uint256"
        }
      ],
      "name": "ERC721InsufficientApproval",
      "type": "error"
    },
    {
      "inputs": [
        {
          "internalType": "address",
          "name": "approver",
          "type": "address"
        }
      ],
      "name": "ERC721InvalidApprover",
      "type": "error"
    },
    {
      "inputs": [
        {
          "internalType": "address",
          "name": "operator",
          "type": "address"
        }
      ],
      "name": "ERC721InvalidOperator",
      "type": "error"
    },
    {
      "inputs": [
        {
          "internalType": "address",
          "name": "owner",
          "type": "address"
        }
      ],
      "name": "ERC721InvalidOwner",
      "type": "error"
    },
    {
      "inputs": [
        {
          "internalType": "address",
          "name": "receiver",
          "type": "address"
        }
      ],
      "name": "ERC721InvalidReceiver",
      "type": "error"
    },
    {
      "inputs": [
        {
          "internalType": "address",
          "name": "sender",
          "type": "address"
        }
      ],
      "name": "ERC721InvalidSender",
      "type": "error"
    },
    {
      "inputs": [
        {
          "internalType": "uint256",
          "name": "tokenId",
          "type": "uint256"
        }
      ],
      "name": "ERC721NonexistentToken",
      "type": "error"
    },
    {
      "inputs": [
        {
          "internalType": "address",
          "name": "owner",
          "type": "address"
        }
      ],
      "name": "OwnableInvalidOwner",
      "type": "error"
    },
    {
      "inputs": [
        {
          "internalType": "address",
          "name": "account",
          "type": "address"
        }
      ],
      "name": "OwnableUnauthorizedAccount",
      "type": "error"
    },
    {
      "anonymous": false,
      "inputs": [
        {
          "indexed": true,
          "internalType": "address",
          "name": "owner",
          "type": "address"
        },
        {
          "indexed": true,
          "internalType": "address",
          "name": "approved",
          "type": "address"
        },
        {
          "indexed": true,
          "internalType": "uint256",
          "name": "tokenId",
          "type": "uint256"
        }
      ],
      "name": "Approval",
      "type": "event"
    },
    {
      "anonymous": false,
      "inputs": [
        {
          "indexed": true,
          "internalType": "address",
          "name": "owner",
          "type": "address"
        },
        {
          "indexed": true,
          "internalType": "address",
          "name": "operator",
          "type": "address"
        },
        {
          "indexed": false,
          "internalType": "bool",
          "name": "approved",
          "type": "bool"
        }
      ],
      "name": "ApprovalForAll",
      "type": "event"
    },
    {
      "anonymous": false,
      "inputs": [
        {
          "indexed": false,
          "internalType": "uint256",
          "name": "_fromTokenId",
          "type": "uint256"
        },
        {
          "indexed": false,
          "internalType": "uint256",
          "name": "_toTokenId",
          "type": "uint256"
        }
      ],
      "name": "BatchMetadataUpdate",
      "type": "event"
    },
    {
      "anonymous": false,
      "inputs": [
        {
          "indexed": false,
          "internalType": "uint256",
          "name": "_tokenId",
          "type": "uint256"
        }
      ],
      "name": "MetadataUpdate",
      "type": "event"
    },
    {
      "anonymous": false,
      "inputs": [
        {
          "indexed": true,
          "internalType": "address",
          "name": "previousOwner",
          "type": "address"
        },
        {
          "indexed": true,
          "internalType": "address",
          "name": "newOwner",
          "type": "address"
        }
      ],
      "name": "OwnershipTransferred",
      "type": "event"
    },
    {
      "anonymous": false,
      "inputs": [
        {
          "indexed": true,
          "internalType": "address",
          "name": "from",
          "type": "address"
        },
        {
          "indexed": true,
          "internalType": "address",
          "name": "to",
          "type": "address"
        },
        {
          "indexed": true,
          "internalType": "uint256",
          "name": "tokenId",
          "type": "uint256"
        }
      ],
      "name": "Transfer",
      "type": "event"
    },
    {
      "inputs": [
        {
          "internalType": "address",
          "name": "",
          "type": "address"
        }
      ],
      "name": "addressToEarnings",
      "outputs": [
        {
          "internalType": "uint256",
          "name": "",
          "type": "uint256"
        }
      ],
      "stateMutability": "view",
      "type": "function"
    },
    {
      "inputs": [
        {
          "internalType": "address",
          "name": "to",
          "type": "address"
        },
        {
          "internalType": "uint256",
          "name": "tokenId",
          "type": "uint256"
        }
      ],
      "name": "approve",
      "outputs": [],
      "stateMutability": "nonpayable",
      "type": "function"
    },
    {
      "inputs": [
        {
          "internalType": "address",
          "name": "owner",
          "type": "address"
        }
      ],
      "name": "balanceOf",
      "outputs": [
        {
          "internalType": "uint256",
          "name": "",
          "type": "uint256"
        }
      ],
      "stateMutability": "view",
      "type": "function"
    },
    {
      "inputs": [
        {
          "internalType": "uint256",
          "name": "tokenId",
          "type": "uint256"
        },
        {
          "internalType": "address",
          "name": "user",
          "type": "address"
        }
      ],
      "name": "checkAccess",
      "outputs": [
        {
          "internalType": "bool",
          "name": "",
          "type": "bool"
        }
      ],
      "stateMutability": "view",
      "type": "function"
    },
    {
      "inputs": [
        {
          "internalType": "uint256",
          "name": "tokenId",
          "type": "uint256"
        }
      ],
      "name": "getApproved",
      "outputs": [
        {
          "internalType": "address",
          "name": "",
          "type": "address"
        }
      ],
      "stateMutability": "view",
      "type": "function"
    },
    {
      "inputs": [
        {
          "internalType": "address",
          "name": "creator",
          "type": "address"
        }
      ],
      "name": "getCreatorEarnings",
      "outputs": [
        {
          "internalType": "uint256",
          "name": "",
          "type": "uint256"
        }
      ],
      "stateMutability": "view",
      "type": "function"
    },
    {
      "inputs": [],
      "name": "getNftFeed",
      "outputs": [
        {
          "internalType": "uint256[]",
          "name": "",
          "type": "uint256[]"
        }
      ],
      "stateMutability": "view",
      "type": "function"
    },
    {
      "inputs": [
        {
          "internalType": "uint256",
          "name": "",
          "type": "uint256"
        },
        {
          "internalType": "address",
          "name": "",
          "type": "address"
        }
      ],
      "name": "hasAccess",
      "outputs": [
        {
          "internalType": "bool",
          "name": "",
          "type": "bool"
        }
      ],
      "stateMutability": "view",
      "type": "function"
    },
    {
      "inputs": [
        {
          "internalType": "address",
          "name": "owner",
          "type": "address"
        },
        {
          "internalType": "address",
          "name": "operator",
          "type": "address"
        }
      ],
      "name": "isApprovedForAll",
      "outputs": [
        {
          "internalType": "bool",
          "name": "",
          "type": "bool"
        }
      ],
      "stateMutability": "view",
      "type": "function"
    },
    {
      "inputs": [
        {
          "internalType": "address",
          "name": "_to",
          "type": "address"
        },
        {
          "internalType": "uint256",
          "name": "tokenId",
          "type": "uint256"
        },
        {
          "internalType": "string",
          "name": "_uri",
          "type": "string"
        },
        {
          "internalType": "uint256",
          "name": "price",
          "type": "uint256"
        }
      ],
      "name": "mint",
      "outputs": [],
      "stateMutability": "nonpayable",
      "type": "function"
    },
    {
      "inputs": [],
      "name": "name",
      "outputs": [
        {
          "internalType": "string",
          "name": "",
          "type": "string"
        }
      ],
      "stateMutability": "view",
      "type": "function"
    },
    {
      "inputs": [
        {
          "internalType": "uint256",
          "name": "",
          "type": "uint256"
        }
      ],
      "name": "nftFeed",
      "outputs": [
        {
          "internalType": "uint256",
          "name": "",
          "type": "uint256"
        }
      ],
      "stateMutability": "view",
      "type": "function"
    },
    {
      "inputs": [
        {
          "internalType": "uint256",
          "name": "",
          "type": "uint256"
        }
      ],
      "name": "nfts",
      "outputs": [
        {
          "internalType": "uint256",
          "name": "tokenId",
          "type": "uint256"
        },
        {
          "internalType": "address",
          "name": "creator",
          "type": "address"
        },
        {
          "internalType": "string",
          "name": "tokenURI",
          "type": "string"
        },
        {
          "internalType": "uint256",
          "name": "price",
          "type": "uint256"
        }
      ],
      "stateMutability": "view",
      "type": "function"
    },
    {
      "inputs": [],
      "name": "owner",
      "outputs": [
        {
          "internalType": "address",
          "name": "",
          "type": "address"
        }
      ],
      "stateMutability": "view",
      "type": "function"
    },
    {
      "inputs": [
        {
          "internalType": "uint256",
          "name": "tokenId",
          "type": "uint256"
        }
      ],
      "name": "ownerOf",
      "outputs": [
        {
          "internalType": "address",
          "name": "",
          "type": "address"
        }
      ],
      "stateMutability": "view",
      "type": "function"
    },
    {
      "inputs": [
        {
          "internalType": "uint256",
          "name": "tokenId",
          "type": "uint256"
        }
      ],
      "name": "purchaseNFT",
      "outputs": [],
      "stateMutability": "payable",
      "type": "function"
    },
    {
      "inputs": [],
      "name": "renounceOwnership",
      "outputs": [],
      "stateMutability": "nonpayable",
      "type": "function"
    },
    {
      "inputs": [
        {
          "internalType": "address",
          "name": "from",
          "type": "address"
        },
        {
          "internalType": "address",
          "name": "to",
          "type": "address"
        },
        {
          "internalType": "uint256",
          "name": "tokenId",
          "type": "uint256"
        }
      ],
      "name": "safeTransferFrom",
      "outputs": [],
      "stateMutability": "nonpayable",
      "type": "function"
    },
    {
      "inputs": [
        {
          "internalType": "address",
          "name": "from",
          "type": "address"
        },
        {
          "internalType": "address",
          "name": "to",
          "type": "address"
        },
        {
          "internalType": "uint256",
          "name": "tokenId",
          "type": "uint256"
        },
        {
          "internalType": "bytes",
          "name": "data",
          "type": "bytes"
        }
      ],
      "name": "safeTransferFrom",
      "outputs": [],
      "stateMutability": "nonpayable",
      "type": "function"
    },
    {
      "inputs": [
        {
          "internalType": "address",
          "name": "operator",
          "type": "address"
        },
        {
          "internalType": "bool",
          "name": "approved",
          "type": "bool"
        }
      ],
      "name": "setApprovalForAll",
      "outputs": [],
      "stateMutability": "nonpayable",
      "type": "function"
    },
    {
      "inputs": [
        {
          "internalType": "bytes4",
          "name": "interfaceId",
          "type": "bytes4"
        }
      ],
      "name": "supportsInterface",
      "outputs": [
        {
          "internalType": "bool",
          "name": "",
          "type": "bool"
        }
      ],
      "stateMutability": "view",
      "type": "function"
    },
    {
      "inputs": [],
      "name": "symbol",
      "outputs": [
        {
          "internalType": "string",
          "name": "",
          "type": "string"
        }
      ],
      "stateMutability": "view",
      "type": "function"
    },
    {
      "inputs": [
        {
          "internalType": "uint256",
          "name": "tokenId",
          "type": "uint256"
        }
      ],
      "name": "tokenURI",
      "outputs": [
        {
          "internalType": "string",
          "name": "",
          "type": "string"
        }
      ],
      "stateMutability": "view",
      "type": "function"
    },
    {
      "inputs": [
        {
          "internalType": "address",
          "name": "from",
          "type": "address"
        },
        {
          "internalType": "address",
          "name": "to",
          "type": "address"
        },
        {
          "internalType": "uint256",
          "name": "tokenId",
          "type": "uint256"
        }
      ],
      "name": "transferFrom",
      "outputs": [],
      "stateMutability": "nonpayable",
      "type": "function"
    },
    {
      "inputs": [
        {
          "internalType": "address",
          "name": "newOwner",
          "type": "address"
        }
      ],
      "name": "transferOwnership",
      "outputs": [],
      "stateMutability": "nonpayable",
      "type": "function"
    }
  ],
  "bytecode": "0x608060405234801561001057600080fd5b5060405161389e38038061389e8339818101604052810190610032919061037a565b80838381600090816100449190610626565b5080600190816100549190610626565b505050600073ffffffffffffffffffffffffffffffffffffffff168173ffffffffffffffffffffffffffffffffffffffff16036100c95760006040517f1e4fbdf70000000000000000000000000000000000000000000000000000000081526004016100c09190610707565b60405180910390fd5b6100d8816100e160201b60201c565b50505050610722565b6000600760009054906101000a900473ffffffffffffffffffffffffffffffffffffffff16905081600760006101000a81548173ffffffffffffffffffffffffffffffffffffffff021916908373ffffffffffffffffffffffffffffffffffffffff1602179055508173ffffffffffffffffffffffffffffffffffffffff168173ffffffffffffffffffffffffffffffffffffffff167f8be0079c531659141344cd1fd0a4f28419497f9722a3daafe3b4186f6b6457e060405160405180910390a35050565b6000604051905090565b600080fd5b600080fd5b600080fd5b600080fd5b6000601f19601f8301169050919050565b7f4e487b7100000000000000000000000000000000000000000000000000000000600052604160045260246000fd5b61020e826101c5565b810181811067ffffffffffffffff8211171561022d5761022c6101d6565b5b80604052505050565b60006102406101a7565b905061024c8282610205565b919050565b600067ffffffffffffffff82111561026c5761026b6101d6565b5b610275826101c5565b9050602081019050919050565b60005b838110156102a0578082015181840152602081019050610285565b60008484015250505050565b60006102bf6102ba84610251565b610236565b9050828152602081018484840111156102db576102da6101c0565b5b6102e6848285610282565b509392505050565b600082601f830112610303576103026101bb565b5b81516103138482602086016102ac565b91505092915050565b600073ffffffffffffffffffffffffffffffffffffffff82169050919050565b60006103478261031c565b9050919050565b6103578161033c565b811461036257600080fd5b50565b6000815190506103748161034e565b92915050565b600080600060608486031215610393576103926101b1565b5b600084015167ffffffffffffffff8111156103b1576103b06101b6565b5b6103bd868287016102ee565b935050602084015167ffffffffffffffff8111156103de576103dd6101b6565b5b6103ea868287016102ee565b92505060406103fb86828701610365565b9150509250925092565b600081519050919050565b7f4e487b7100000000000000000000000000000000000000000000000000000000600052602260045260246000fd5b6000600282049050600182168061045757607f821691505b60208210810361046a57610469610410565b5b50919050565b60008190508160005260206000209050919050565b60006020601f8301049050919050565b600082821b905092915050565b6000600883026104d27fffffffffffffffffffffffffffffffffffffffffffffffffffffffffffffffff82610495565b6104dc8683610495565b95508019841693508086168417925050509392505050565b6000819050919050565b6000819050919050565b600061052361051e610519846104f4565b6104fe565b6104f4565b9050919050565b6000819050919050565b61053d83610508565b6105516105498261052a565b8484546104a2565b825550505050565b600090565b610566610559565b610571818484610534565b505050565b5b818110156105955761058a60008261055e565b600181019050610577565b5050565b601f8211156105da576105ab81610470565b6105b484610485565b810160208510156105c3578190505b6105d76105cf85610485565b830182610576565b50505b505050565b600082821c905092915050565b60006105fd600019846008026105df565b1980831691505092915050565b600061061683836105ec565b9150826002028217905092915050565b61062f82610405565b67ffffffffffffffff811115610648576106476101d6565b5b610652825461043f565b61065d828285610599565b600060209050601f831160018114610690576000841561067e578287015190505b610688858261060a565b8655506106f0565b601f19841661069e86610470565b60005b828110156106c6578489015182556001820191506020850194506020810190506106a1565b868310156106e357848901516106df601f8916826105ec565b8355505b6001600288020188555050505b505050505050565b6107018161033c565b82525050565b600060208201905061071c60008301846106f8565b92915050565b61316d806107316000396000f3fe6080604052600436106101665760003560e01c8063804396af116100d1578063b88d4fde1161008a578063d13c870311610064578063d13c870314610568578063dcb10a04146105a5578063e985e9c5146105e2578063f2fde38b1461061f57610166565b8063b88d4fde146104c5578063c87b56dd146104ee578063ced141981461052b57610166565b8063804396af146103a15780638684e124146103de5780638da5cb5b1461041b57806395d89b4114610446578063a22cb46514610471578063a91496411461049a57610166565b806323b872dd1161012357806323b872dd1461027e578063265aa621146102a757806342842e0e146102e75780636352211e1461031057806370a082311461034d578063715018a61461038a57610166565b806301ffc9a71461016b57806306fdde03146101a8578063081812fc146101d357806308a8d7aa14610210578063095ea7b314610239578063150bde0314610262575b600080fd5b34801561017757600080fd5b50610192600480360381019061018d91906122cf565b610648565b60405161019f9190612317565b60405180910390f35b3480156101b457600080fd5b506101bd6106a9565b6040516101ca91906123c2565b60405180910390f35b3480156101df57600080fd5b506101fa60048036038101906101f5919061241a565b61073b565b6040516102079190612488565b60405180910390f35b34801561021c57600080fd5b5061023760048036038101906102329190612534565b610757565b005b34801561024557600080fd5b50610260600480360381019061025b91906125bc565b610860565b005b61027c6004803603810190610277919061241a565b610876565b005b34801561028a57600080fd5b506102a560048036038101906102a091906125fc565b610ac4565b005b3480156102b357600080fd5b506102ce60048036038101906102c9919061241a565b610bc6565b6040516102de949392919061265e565b60405180910390f35b3480156102f357600080fd5b5061030e600480360381019061030991906125fc565b610c9e565b005b34801561031c57600080fd5b506103376004803603810190610332919061241a565b610cbe565b6040516103449190612488565b60405180910390f35b34801561035957600080fd5b50610374600480360381019061036f91906126aa565b610cd0565b60405161038191906126d7565b60405180910390f35b34801561039657600080fd5b5061039f610d8a565b005b3480156103ad57600080fd5b506103c860048036038101906103c391906126aa565b610d9e565b6040516103d591906126d7565b60405180910390f35b3480156103ea57600080fd5b506104056004803603810190610400919061241a565b610de7565b60405161041291906126d7565b60405180910390f35b34801561042757600080fd5b50610430610e0b565b60405161043d9190612488565b60405180910390f35b34801561045257600080fd5b5061045b610e35565b60405161046891906123c2565b60405180910390f35b34801561047d57600080fd5b506104986004803603810190610493919061271e565b610ec7565b005b3480156104a657600080fd5b506104af610edd565b6040516104bc919061281c565b60405180910390f35b3480156104d157600080fd5b506104ec60048036038101906104e7919061296e565b610f35565b005b3480156104fa57600080fd5b506105156004803603810190610510919061241a565b610f52565b60405161052291906123c2565b60405180910390f35b34801561053757600080fd5b50610552600480360381019061054d91906129f1565b611065565b60405161055f9190612317565b60405180910390f35b34801561057457600080fd5b5061058f600480360381019061058a91906129f1565b611094565b60405161059c9190612317565b60405180910390f35b3480156105b157600080fd5b506105cc60048036038101906105c791906126aa565b6110fc565b6040516105d991906126d7565b60405180910390f35b3480156105ee57600080fd5b5061060960048036038101906106049190612a31565b611114565b6040516106169190612317565b60405180910390f35b34801561062b57600080fd5b50610646600480360381019061064191906126aa565b6111a8565b005b6000634906490660e01b7bffffffffffffffffffffffffffffffffffffffffffffffffffffffff1916827bffffffffffffffffffffffffffffffffffffffffffffffffffffffff191614806106a257506106a18261122e565b5b9050919050565b6060600080546106b890612aa0565b80601f01602080910402602001604051908101604052809291908181526020018280546106e490612aa0565b80156107315780601f1061070657610100808354040283529160200191610731565b820191906000526020600020905b81548152906001019060200180831161071457829003601f168201915b5050505050905090565b600061074682611310565b5061075082611398565b9050919050565b61076185856113d5565b6107af8484848080601f016020809104026020016040519081016040528093929190818152602001838380828437600081840152601f19601f820116905080830192505050505050506114ce565b6000600a60008681526020019081526020016000209050848160000181905550338160010160006101000a81548173ffffffffffffffffffffffffffffffffffffffff021916908373ffffffffffffffffffffffffffffffffffffffff1602179055508383826002019182610825929190612c88565b508181600301819055506008859080600181540180825580915050600190039060005260206000200160009091909190915055505050505050565b610872828261086d61152a565b611532565b5050565b6000600a6000838152602001908152602001600020905080600301543410156108d4576040517f08c379a00000000000000000000000000000000000000000000000000000000081526004016108cb90612da4565b60405180910390fd5b6009600083815260200190815260200160002060003373ffffffffffffffffffffffffffffffffffffffff1673ffffffffffffffffffffffffffffffffffffffff16815260200190815260200160002060009054906101000a900460ff1615610972576040517f08c379a000000000000000000000000000000000000000000000000000000000815260040161096990612e10565b60405180910390fd5b60016009600084815260200190815260200160002060003373ffffffffffffffffffffffffffffffffffffffff1673ffffffffffffffffffffffffffffffffffffffff16815260200190815260200160002060006101000a81548160ff0219169083151502179055508060010160009054906101000a900473ffffffffffffffffffffffffffffffffffffffff1673ffffffffffffffffffffffffffffffffffffffff166108fc349081150290604051600060405180830381858888f19350505050158015610a45573d6000803e3d6000fd5b5034600b60008360010160009054906101000a900473ffffffffffffffffffffffffffffffffffffffff1673ffffffffffffffffffffffffffffffffffffffff1673ffffffffffffffffffffffffffffffffffffffff1681526020019081526020016000206000828254610ab99190612e5f565b925050819055505050565b600073ffffffffffffffffffffffffffffffffffffffff168273ffffffffffffffffffffffffffffffffffffffff1603610b365760006040517f64a0ae92000000000000000000000000000000000000000000000000000000008152600401610b2d9190612488565b60405180910390fd5b6000610b4a8383610b4561152a565b611544565b90508373ffffffffffffffffffffffffffffffffffffffff168173ffffffffffffffffffffffffffffffffffffffff1614610bc0578382826040517f64283d7b000000000000000000000000000000000000000000000000000000008152600401610bb793929190612e93565b60405180910390fd5b50505050565b600a6020528060005260406000206000915090508060000154908060010160009054906101000a900473ffffffffffffffffffffffffffffffffffffffff1690806002018054610c1590612aa0565b80601f0160208091040260200160405190810160405280929190818152602001828054610c4190612aa0565b8015610c8e5780601f10610c6357610100808354040283529160200191610c8e565b820191906000526020600020905b815481529060010190602001808311610c7157829003601f168201915b5050505050908060030154905084565b610cb983838360405180602001604052806000815250610f35565b505050565b6000610cc982611310565b9050919050565b60008073ffffffffffffffffffffffffffffffffffffffff168273ffffffffffffffffffffffffffffffffffffffff1603610d435760006040517f89c62b64000000000000000000000000000000000000000000000000000000008152600401610d3a9190612488565b60405180910390fd5b600360008373ffffffffffffffffffffffffffffffffffffffff1673ffffffffffffffffffffffffffffffffffffffff168152602001908152602001600020549050919050565b610d9261175e565b610d9c60006117e5565b565b6000600b60008373ffffffffffffffffffffffffffffffffffffffff1673ffffffffffffffffffffffffffffffffffffffff168152602001908152602001600020549050919050565b60088181548110610df757600080fd5b906000526020600020016000915090505481565b6000600760009054906101000a900473ffffffffffffffffffffffffffffffffffffffff16905090565b606060018054610e4490612aa0565b80601f0160208091040260200160405190810160405280929190818152602001828054610e7090612aa0565b8015610ebd5780601f10610e9257610100808354040283529160200191610ebd565b820191906000526020600020905b815481529060010190602001808311610ea057829003601f168201915b5050505050905090565b610ed9610ed261152a565b83836118ab565b5050565b60606008805480602002602001604051908101604052809291908181526020018280548015610f2b57602002820191906000526020600020905b815481526020019060010190808311610f17575b5050505050905090565b610f40848484610ac4565b610f4c84848484611a1a565b50505050565b6060610f5d82611310565b506000600660008481526020019081526020016000208054610f7e90612aa0565b80601f0160208091040260200160405190810160405280929190818152602001828054610faa90612aa0565b8015610ff75780601f10610fcc57610100808354040283529160200191610ff7565b820191906000526020600020905b815481529060010190602001808311610fda57829003601f168201915b505050505090506000611008611bd1565b9050600081510361101d578192505050611060565b60008251111561105257808260405160200161103a929190612f06565b60405160208183030381529060405292505050611060565b61105b84611be8565b925050505b919050565b60096020528160005260406000206020528060005260406000206000915091509054906101000a900460ff1681565b60006009600084815260200190815260200160002060008373ffffffffffffffffffffffffffffffffffffffff1673ffffffffffffffffffffffffffffffffffffffff16815260200190815260200160002060009054906101000a900460ff16905092915050565b600b6020528060005260406000206000915090505481565b6000600560008473ffffffffffffffffffffffffffffffffffffffff1673ffffffffffffffffffffffffffffffffffffffff16815260200190815260200160002060008373ffffffffffffffffffffffffffffffffffffffff1673ffffffffffffffffffffffffffffffffffffffff16815260200190815260200160002060009054906101000a900460ff16905092915050565b6111b061175e565b600073ffffffffffffffffffffffffffffffffffffffff168173ffffffffffffffffffffffffffffffffffffffff16036112225760006040517f1e4fbdf70000000000000000000000000000000000000000000000000000000081526004016112199190612488565b60405180910390fd5b61122b816117e5565b50565b60007f80ac58cd000000000000000000000000000000000000000000000000000000007bffffffffffffffffffffffffffffffffffffffffffffffffffffffff1916827bffffffffffffffffffffffffffffffffffffffffffffffffffffffff191614806112f957507f5b5e139f000000000000000000000000000000000000000000000000000000007bffffffffffffffffffffffffffffffffffffffffffffffffffffffff1916827bffffffffffffffffffffffffffffffffffffffffffffffffffffffff1916145b80611309575061130882611c51565b5b9050919050565b60008061131c83611cbb565b9050600073ffffffffffffffffffffffffffffffffffffffff168173ffffffffffffffffffffffffffffffffffffffff160361138f57826040517f7e27328900000000000000000000000000000000000000000000000000000000815260040161138691906126d7565b60405180910390fd5b80915050919050565b60006004600083815260200190815260200160002060009054906101000a900473ffffffffffffffffffffffffffffffffffffffff169050919050565b600073ffffffffffffffffffffffffffffffffffffffff168273ffffffffffffffffffffffffffffffffffffffff16036114475760006040517f64a0ae9200000000000000000000000000000000000000000000000000000000815260040161143e9190612488565b60405180910390fd5b600061145583836000611544565b9050600073ffffffffffffffffffffffffffffffffffffffff168173ffffffffffffffffffffffffffffffffffffffff16146114c95760006040517f73c6ac6e0000000000000000000000000000000000000000000000000000000081526004016114c09190612488565b60405180910390fd5b505050565b806006600084815260200190815260200160002090816114ee9190612f2a565b507ff8e1a15aba9398e019f0b49df1a4fde98ee17ae345cb5f6b5e2c27f5033e8ce78260405161151e91906126d7565b60405180910390a15050565b600033905090565b61153f8383836001611cf8565b505050565b60008061155084611cbb565b9050600073ffffffffffffffffffffffffffffffffffffffff168373ffffffffffffffffffffffffffffffffffffffff161461159257611591818486611ebd565b5b600073ffffffffffffffffffffffffffffffffffffffff168173ffffffffffffffffffffffffffffffffffffffff1614611623576115d4600085600080611cf8565b6001600360008373ffffffffffffffffffffffffffffffffffffffff1673ffffffffffffffffffffffffffffffffffffffff168152602001908152602001600020600082825403925050819055505b600073ffffffffffffffffffffffffffffffffffffffff168573ffffffffffffffffffffffffffffffffffffffff16146116a6576001600360008773ffffffffffffffffffffffffffffffffffffffff1673ffffffffffffffffffffffffffffffffffffffff168152602001908152602001600020600082825401925050819055505b846002600086815260200190815260200160002060006101000a81548173ffffffffffffffffffffffffffffffffffffffff021916908373ffffffffffffffffffffffffffffffffffffffff160217905550838573ffffffffffffffffffffffffffffffffffffffff168273ffffffffffffffffffffffffffffffffffffffff167fddf252ad1be2c89b69c2b068fc378daa952ba7f163c4a11628f55a4df523b3ef60405160405180910390a4809150509392505050565b61176661152a565b73ffffffffffffffffffffffffffffffffffffffff16611784610e0b565b73ffffffffffffffffffffffffffffffffffffffff16146117e3576117a761152a565b6040517f118cdaa70000000000000000000000000000000000000000000000000000000081526004016117da9190612488565b60405180910390fd5b565b6000600760009054906101000a900473ffffffffffffffffffffffffffffffffffffffff16905081600760006101000a81548173ffffffffffffffffffffffffffffffffffffffff021916908373ffffffffffffffffffffffffffffffffffffffff1602179055508173ffffffffffffffffffffffffffffffffffffffff168173ffffffffffffffffffffffffffffffffffffffff167f8be0079c531659141344cd1fd0a4f28419497f9722a3daafe3b4186f6b6457e060405160405180910390a35050565b600073ffffffffffffffffffffffffffffffffffffffff168273ffffffffffffffffffffffffffffffffffffffff160361191c57816040517f5b08ba180000000000000000000000000000000000000000000000000000000081526004016119139190612488565b60405180910390fd5b80600560008573ffffffffffffffffffffffffffffffffffffffff1673ffffffffffffffffffffffffffffffffffffffff16815260200190815260200160002060008473ffffffffffffffffffffffffffffffffffffffff1673ffffffffffffffffffffffffffffffffffffffff16815260200190815260200160002060006101000a81548160ff0219169083151502179055508173ffffffffffffffffffffffffffffffffffffffff168373ffffffffffffffffffffffffffffffffffffffff167f17307eab39ab6107e8899845ad3d59bd9653f200f220920489ca2b5937696c3183604051611a0d9190612317565b60405180910390a3505050565b60008373ffffffffffffffffffffffffffffffffffffffff163b1115611bcb578273ffffffffffffffffffffffffffffffffffffffff1663150b7a02611a5e61152a565b8685856040518563ffffffff1660e01b8152600401611a809493929190613051565b6020604051808303816000875af1925050508015611abc57506040513d601f19601f82011682018060405250810190611ab991906130b2565b60015b611b40573d8060008114611aec576040519150601f19603f3d011682016040523d82523d6000602084013e611af1565b606091505b506000815103611b3857836040517f64a0ae92000000000000000000000000000000000000000000000000000000008152600401611b2f9190612488565b60405180910390fd5b805181602001fd5b63150b7a0260e01b7bffffffffffffffffffffffffffffffffffffffffffffffffffffffff1916817bffffffffffffffffffffffffffffffffffffffffffffffffffffffff191614611bc957836040517f64a0ae92000000000000000000000000000000000000000000000000000000008152600401611bc09190612488565b60405180910390fd5b505b50505050565b606060405180602001604052806000815250905090565b6060611bf382611310565b506000611bfe611bd1565b90506000815111611c1e5760405180602001604052806000815250611c49565b80611c2884611f81565b604051602001611c39929190612f06565b6040516020818303038152906040525b915050919050565b60007f01ffc9a7000000000000000000000000000000000000000000000000000000007bffffffffffffffffffffffffffffffffffffffffffffffffffffffff1916827bffffffffffffffffffffffffffffffffffffffffffffffffffffffff1916149050919050565b60006002600083815260200190815260200160002060009054906101000a900473ffffffffffffffffffffffffffffffffffffffff169050919050565b8080611d315750600073ffffffffffffffffffffffffffffffffffffffff168273ffffffffffffffffffffffffffffffffffffffff1614155b15611e65576000611d4184611310565b9050600073ffffffffffffffffffffffffffffffffffffffff168373ffffffffffffffffffffffffffffffffffffffff1614158015611dac57508273ffffffffffffffffffffffffffffffffffffffff168173ffffffffffffffffffffffffffffffffffffffff1614155b8015611dbf5750611dbd8184611114565b155b15611e0157826040517fa9fbf51f000000000000000000000000000000000000000000000000000000008152600401611df89190612488565b60405180910390fd5b8115611e6357838573ffffffffffffffffffffffffffffffffffffffff168273ffffffffffffffffffffffffffffffffffffffff167f8c5be1e5ebec7d5bd14f71427d1e84f3dd0314c0f7b2291e5b200ac8c7c3b92560405160405180910390a45b505b836004600085815260200190815260200160002060006101000a81548173ffffffffffffffffffffffffffffffffffffffff021916908373ffffffffffffffffffffffffffffffffffffffff16021790555050505050565b611ec883838361204f565b611f7c57600073ffffffffffffffffffffffffffffffffffffffff168373ffffffffffffffffffffffffffffffffffffffff1603611f3d57806040517f7e273289000000000000000000000000000000000000000000000000000000008152600401611f3491906126d7565b60405180910390fd5b81816040517f177e802f000000000000000000000000000000000000000000000000000000008152600401611f739291906130df565b60405180910390fd5b505050565b606060006001611f9084612110565b01905060008167ffffffffffffffff811115611faf57611fae612843565b5b6040519080825280601f01601f191660200182016040528015611fe15781602001600182028036833780820191505090505b509050600082602001820190505b600115612044578080600190039150507f3031323334353637383961626364656600000000000000000000000000000000600a86061a8153600a858161203857612037613108565b5b04945060008503611fef575b819350505050919050565b60008073ffffffffffffffffffffffffffffffffffffffff168373ffffffffffffffffffffffffffffffffffffffff161415801561210757508273ffffffffffffffffffffffffffffffffffffffff168473ffffffffffffffffffffffffffffffffffffffff1614806120c857506120c78484611114565b5b8061210657508273ffffffffffffffffffffffffffffffffffffffff166120ee83611398565b73ffffffffffffffffffffffffffffffffffffffff16145b5b90509392505050565b600080600090507a184f03e93ff9f4daa797ed6e38ed64bf6a1f010000000000000000831061216e577a184f03e93ff9f4daa797ed6e38ed64bf6a1f010000000000000000838161216457612163613108565b5b0492506040810190505b6d04ee2d6d415b85acef810000000083106121ab576d04ee2d6d415b85acef810000000083816121a1576121a0613108565b5b0492506020810190505b662386f26fc1000083106121da57662386f26fc1000083816121d0576121cf613108565b5b0492506010810190505b6305f5e1008310612203576305f5e10083816121f9576121f8613108565b5b0492506008810190505b612710831061222857612710838161221e5761221d613108565b5b0492506004810190505b6064831061224b576064838161224157612240613108565b5b0492506002810190505b600a831061225a576001810190505b80915050919050565b6000604051905090565b600080fd5b600080fd5b60007fffffffff0000000000000000000000000000000000000000000000000000000082169050919050565b6122ac81612277565b81146122b757600080fd5b50565b6000813590506122c9816122a3565b92915050565b6000602082840312156122e5576122e461226d565b5b60006122f3848285016122ba565b91505092915050565b60008115159050919050565b612311816122fc565b82525050565b600060208201905061232c6000830184612308565b92915050565b600081519050919050565b600082825260208201905092915050565b60005b8381101561236c578082015181840152602081019050612351565b60008484015250505050565b6000601f19601f8301169050919050565b600061239482612332565b61239e818561233d565b93506123ae81856020860161234e565b6123b781612378565b840191505092915050565b600060208201905081810360008301526123dc8184612389565b905092915050565b6000819050919050565b6123f7816123e4565b811461240257600080fd5b50565b600081359050612414816123ee565b92915050565b6000602082840312156124305761242f61226d565b5b600061243e84828501612405565b91505092915050565b600073ffffffffffffffffffffffffffffffffffffffff82169050919050565b600061247282612447565b9050919050565b61248281612467565b82525050565b600060208201905061249d6000830184612479565b92915050565b6124ac81612467565b81146124b757600080fd5b50565b6000813590506124c9816124a3565b92915050565b600080fd5b600080fd5b600080fd5b60008083601f8401126124f4576124f36124cf565b5b8235905067ffffffffffffffff811115612511576125106124d4565b5b60208301915083600182028301111561252d5761252c6124d9565b5b9250929050565b6000806000806000608086880312156125505761254f61226d565b5b600061255e888289016124ba565b955050602061256f88828901612405565b945050604086013567ffffffffffffffff8111156125905761258f612272565b5b61259c888289016124de565b935093505060606125af88828901612405565b9150509295509295909350565b600080604083850312156125d3576125d261226d565b5b60006125e1858286016124ba565b92505060206125f285828601612405565b9150509250929050565b6000806000606084860312156126155761261461226d565b5b6000612623868287016124ba565b9350506020612634868287016124ba565b925050604061264586828701612405565b9150509250925092565b612658816123e4565b82525050565b6000608082019050612673600083018761264f565b6126806020830186612479565b81810360408301526126928185612389565b90506126a1606083018461264f565b95945050505050565b6000602082840312156126c0576126bf61226d565b5b60006126ce848285016124ba565b91505092915050565b60006020820190506126ec600083018461264f565b92915050565b6126fb816122fc565b811461270657600080fd5b50565b600081359050612718816126f2565b92915050565b600080604083850312156127355761273461226d565b5b6000612743858286016124ba565b925050602061275485828601612709565b9150509250929050565b600081519050919050565b600082825260208201905092915050565b6000819050602082019050919050565b612793816123e4565b82525050565b60006127a5838361278a565b60208301905092915050565b6000602082019050919050565b60006127c98261275e565b6127d38185612769565b93506127de8361277a565b8060005b8381101561280f5781516127f68882612799565b9750612801836127b1565b9250506001810190506127e2565b5085935050505092915050565b6000602082019050818103600083015261283681846127be565b905092915050565b600080fd5b7f4e487b7100000000000000000000000000000000000000000000000000000000600052604160045260246000fd5b61287b82612378565b810181811067ffffffffffffffff8211171561289a57612899612843565b5b80604052505050565b60006128ad612263565b90506128b98282612872565b919050565b600067ffffffffffffffff8211156128d9576128d8612843565b5b6128e282612378565b9050602081019050919050565b82818337600083830152505050565b600061291161290c846128be565b6128a3565b90508281526020810184848401111561292d5761292c61283e565b5b6129388482856128ef565b509392505050565b600082601f830112612955576129546124cf565b5b81356129658482602086016128fe565b91505092915050565b600080600080608085870312156129885761298761226d565b5b6000612996878288016124ba565b94505060206129a7878288016124ba565b93505060406129b887828801612405565b925050606085013567ffffffffffffffff8111156129d9576129d8612272565b5b6129e587828801612940565b91505092959194509250565b60008060408385031215612a0857612a0761226d565b5b6000612a1685828601612405565b9250506020612a27858286016124ba565b9150509250929050565b60008060408385031215612a4857612a4761226d565b5b6000612a56858286016124ba565b9250506020612a67858286016124ba565b9150509250929050565b7f4e487b7100000000000000000000000000000000000000000000000000000000600052602260045260246000fd5b60006002820490506001821680612ab857607f821691505b602082108103612acb57612aca612a71565b5b50919050565b600082905092915050565b60008190508160005260206000209050919050565b60006020601f8301049050919050565b600082821b905092915050565b600060088302612b3e7fffffffffffffffffffffffffffffffffffffffffffffffffffffffffffffffff82612b01565b612b488683612b01565b95508019841693508086168417925050509392505050565b6000819050919050565b6000612b85612b80612b7b846123e4565b612b60565b6123e4565b9050919050565b6000819050919050565b612b9f83612b6a565b612bb3612bab82612b8c565b848454612b0e565b825550505050565b600090565b612bc8612bbb565b612bd3818484612b96565b505050565b5b81811015612bf757612bec600082612bc0565b600181019050612bd9565b5050565b601f821115612c3c57612c0d81612adc565b612c1684612af1565b81016020851015612c25578190505b612c39612c3185612af1565b830182612bd8565b50505b505050565b600082821c905092915050565b6000612c5f60001984600802612c41565b1980831691505092915050565b6000612c788383612c4e565b9150826002028217905092915050565b612c928383612ad1565b67ffffffffffffffff811115612cab57612caa612843565b5b612cb58254612aa0565b612cc0828285612bfb565b6000601f831160018114612cef5760008415612cdd578287013590505b612ce78582612c6c565b865550612d4f565b601f198416612cfd86612adc565b60005b82811015612d2557848901358255600182019150602085019450602081019050612d00565b86831015612d425784890135612d3e601f891682612c4e565b8355505b6001600288020188555050505b50505050505050565b7f496e73756666696369656e742066756e64730000000000000000000000000000600082015250565b6000612d8e60128361233d565b9150612d9982612d58565b602082019050919050565b60006020820190508181036000830152612dbd81612d81565b9050919050565b7f416c726561647920707572636861736564000000000000000000000000000000600082015250565b6000612dfa60118361233d565b9150612e0582612dc4565b602082019050919050565b60006020820190508181036000830152612e2981612ded565b9050919050565b7f4e487b7100000000000000000000000000000000000000000000000000000000600052601160045260246000fd5b6000612e6a826123e4565b9150612e75836123e4565b9250828201905080821115612e8d57612e8c612e30565b5b92915050565b6000606082019050612ea86000830186612479565b612eb5602083018561264f565b612ec26040830184612479565b949350505050565b600081905092915050565b6000612ee082612332565b612eea8185612eca565b9350612efa81856020860161234e565b80840191505092915050565b6000612f128285612ed5565b9150612f1e8284612ed5565b91508190509392505050565b612f3382612332565b67ffffffffffffffff811115612f4c57612f4b612843565b5b612f568254612aa0565b612f61828285612bfb565b600060209050601f831160018114612f945760008415612f82578287015190505b612f8c8582612c6c565b865550612ff4565b601f198416612fa286612adc565b60005b82811015612fca57848901518255600182019150602085019450602081019050612fa5565b86831015612fe75784890151612fe3601f891682612c4e565b8355505b6001600288020188555050505b505050505050565b600081519050919050565b600082825260208201905092915050565b600061302382612ffc565b61302d8185613007565b935061303d81856020860161234e565b61304681612378565b840191505092915050565b60006080820190506130666000830187612479565b6130736020830186612479565b613080604083018561264f565b81810360608301526130928184613018565b905095945050505050565b6000815190506130ac816122a3565b92915050565b6000602082840312156130c8576130c761226d565b5b60006130d68482850161309d565b91505092915050565b60006040820190506130f46000830185612479565b613101602083018461264f565b9392505050565b7f4e487b7100000000000000000000000000000000000000000000000000000000600052601260045260246000fdfea264697066735822122033bdef678f79c11792cf4b4c4fd3fb69c25020fb3ec12bfddf7e5651187f7b4764736f6c634300081b0033",
  "linkReferences": {},
  "deployedLinkReferences": {}
}