{
  "_format": "hh-sol-artifact-1",
  "contractName": "Content",
  "sourceName": "contracts/Content.sol",
  "abi": [
    {
      "inputs": [
        {
          "internalType": "address",
          "name": "priceFeed",
          "type": "address"
        }
      ],
      "stateMutability": "nonpayable",
      "type": "constructor"
    },
    {
      "inputs": [],
      "name": "Content__ContentAlreadyPurchased",
      "type": "error"
    },
    {
      "inputs": [],
      "name": "Content__ContentPurchaseError",
      "type": "error"
    },
    {
      "inputs": [],
      "name": "Content__PriceMustNotBeZero",
      "type": "error"
    },
    {
      "inputs": [],
      "name": "Content__TransactionFailed",
      "type": "error"
    },
    {
      "anonymous": false,
      "inputs": [
        {
          "indexed": true,
          "internalType": "address",
          "name": "owner",
          "type": "address"
        },
        {
          "indexed": true,
          "internalType": "uint256",
          "name": "price",
          "type": "uint256"
        }
      ],
      "name": "ContentPriceSet",
      "type": "event"
    },
    {
      "inputs": [
        {
          "internalType": "address",
          "name": "",
          "type": "address"
        }
      ],
      "name": "addressToContent",
      "outputs": [
        {
          "internalType": "uint256",
          "name": "",
          "type": "uint256"
        }
      ],
      "stateMutability": "view",
      "type": "function"
    },
    {
      "inputs": [
        {
          "internalType": "address",
          "name": "",
          "type": "address"
        },
        {
          "internalType": "uint256",
          "name": "",
          "type": "uint256"
        }
      ],
      "name": "addressToContentToPrice",
      "outputs": [
        {
          "internalType": "uint256",
          "name": "",
          "type": "uint256"
        }
      ],
      "stateMutability": "view",
      "type": "function"
    },
    {
      "inputs": [
        {
          "internalType": "address",
          "name": "owner",
          "type": "address"
        },
        {
          "internalType": "uint256",
          "name": "content_id",
          "type": "uint256"
        }
      ],
      "name": "buyContent",
      "outputs": [],
      "stateMutability": "payable",
      "type": "function"
    },
    {
      "inputs": [
        {
          "internalType": "address",
          "name": "",
          "type": "address"
        }
      ],
      "name": "contentPurchased",
      "outputs": [
        {
          "internalType": "bool",
          "name": "",
          "type": "bool"
        }
      ],
      "stateMutability": "view",
      "type": "function"
    },
    {
      "inputs": [
        {
          "internalType": "address",
          "name": "user",
          "type": "address"
        }
      ],
      "name": "getContentAccess",
      "outputs": [
        {
          "internalType": "bool",
          "name": "",
          "type": "bool"
        }
      ],
      "stateMutability": "view",
      "type": "function"
    },
    {
      "inputs": [
        {
          "internalType": "address",
          "name": "user",
          "type": "address"
        }
      ],
      "name": "getContentId",
      "outputs": [
        {
          "internalType": "uint256",
          "name": "",
          "type": "uint256"
        }
      ],
      "stateMutability": "view",
      "type": "function"
    },
    {
      "inputs": [
        {
          "internalType": "address",
          "name": "owner",
          "type": "address"
        },
        {
          "internalType": "uint256",
          "name": "content_id",
          "type": "uint256"
        }
      ],
      "name": "getContentPrice",
      "outputs": [
        {
          "internalType": "uint256",
          "name": "",
          "type": "uint256"
        }
      ],
      "stateMutability": "view",
      "type": "function"
    },
    {
      "inputs": [
        {
          "internalType": "uint256",
          "name": "content_id",
          "type": "uint256"
        },
        {
          "internalType": "uint256",
          "name": "price",
          "type": "uint256"
        }
      ],
      "name": "setContentPrice",
      "outputs": [],
      "stateMutability": "nonpayable",
      "type": "function"
    }
  ],
  "bytecode": "0x608060405234801561001057600080fd5b50604051610db0380380610db0833981810160405281019061003291906100dc565b80600360006101000a81548173ffffffffffffffffffffffffffffffffffffffff021916908373ffffffffffffffffffffffffffffffffffffffff16021790555050610109565b600080fd5b600073ffffffffffffffffffffffffffffffffffffffff82169050919050565b60006100a98261007e565b9050919050565b6100b98161009e565b81146100c457600080fd5b50565b6000815190506100d6816100b0565b92915050565b6000602082840312156100f2576100f1610079565b5b6000610100848285016100c7565b91505092915050565b610c98806101186000396000f3fe60806040526004361061007b5760003560e01c806380c7d5e11161004e57806380c7d5e11461013f578063810b81451461017c578063d9af03ef146101b9578063df82498c146101f65761007b565b80631a8398d41461008057806353a6b9411461009c57806355eef303146100d9578063779f770714610116575b600080fd5b61009a600480360381019061009591906108be565b610233565b005b3480156100a857600080fd5b506100c360048036038101906100be91906108fe565b6104b1565b6040516100d09190610946565b60405180910390f35b3480156100e557600080fd5b5061010060048036038101906100fb91906108be565b6104d1565b60405161010d9190610970565b60405180910390f35b34801561012257600080fd5b5061013d6004803603810190610138919061098b565b61052b565b005b34801561014b57600080fd5b50610166600480360381019061016191906108fe565b610679565b6040516101739190610970565b60405180910390f35b34801561018857600080fd5b506101a3600480360381019061019e91906108be565b610691565b6040516101b09190610970565b60405180910390f35b3480156101c557600080fd5b506101e060048036038101906101db91906108fe565b6106b6565b6040516101ed9190610970565b60405180910390f35b34801561020257600080fd5b5061021d600480360381019061021891906108fe565b6106ff565b60405161022a9190610946565b60405180910390f35b60011515600160003373ffffffffffffffffffffffffffffffffffffffff1673ffffffffffffffffffffffffffffffffffffffff16815260200190815260200160002060009054906101000a900460ff161515036102bd576040517fab09bb1400000000000000000000000000000000000000000000000000000000815260040160405180910390fd5b6000808373ffffffffffffffffffffffffffffffffffffffff1673ffffffffffffffffffffffffffffffffffffffff168152602001908152602001600020600082815260200190815260200160002054610342600360009054906101000a900473ffffffffffffffffffffffffffffffffffffffff163461075590919063ffffffff16565b0361047b5760018060003373ffffffffffffffffffffffffffffffffffffffff1673ffffffffffffffffffffffffffffffffffffffff16815260200190815260200160002060006101000a81548160ff02191690831515021790555060008273ffffffffffffffffffffffffffffffffffffffff166103ec600360009054906101000a900473ffffffffffffffffffffffffffffffffffffffff163461075590919063ffffffff16565b6040516103f8906109fc565b60006040518083038185875af1925050503d8060008114610435576040519150601f19603f3d011682016040523d82523d6000602084013e61043a565b606091505b5050905080610475576040517f312585c900000000000000000000000000000000000000000000000000000000815260040160405180910390fd5b506104ad565b6040517ffb77229500000000000000000000000000000000000000000000000000000000815260040160405180910390fd5b5050565b60016020528060005260406000206000915054906101000a900460ff1681565b60008060008473ffffffffffffffffffffffffffffffffffffffff1673ffffffffffffffffffffffffffffffffffffffff168152602001908152602001600020600083815260200190815260200160002054905092915050565b60008111610565576040517f8209ab4f00000000000000000000000000000000000000000000000000000000815260040160405180910390fd5b61059a600360009054906101000a900473ffffffffffffffffffffffffffffffffffffffff168261075590919063ffffffff16565b6000803373ffffffffffffffffffffffffffffffffffffffff1673ffffffffffffffffffffffffffffffffffffffff16815260200190815260200160002060008481526020019081526020016000208190555081600260003373ffffffffffffffffffffffffffffffffffffffff1673ffffffffffffffffffffffffffffffffffffffff16815260200190815260200160002081905550803373ffffffffffffffffffffffffffffffffffffffff167f51991dac21fa3f9c470153885bded81e15400ea0307d507104bd32152aea965860405160405180910390a35050565b60026020528060005260406000206000915090505481565b6000602052816000526040600020602052806000526040600020600091509150505481565b6000600260008373ffffffffffffffffffffffffffffffffffffffff1673ffffffffffffffffffffffffffffffffffffffff168152602001908152602001600020549050919050565b6000600160008373ffffffffffffffffffffffffffffffffffffffff1673ffffffffffffffffffffffffffffffffffffffff16815260200190815260200160002060009054906101000a900460ff169050919050565b60008061076183610791565b90506000670de0b6b3a7640000858361077a9190610a40565b6107849190610ab1565b9050809250505092915050565b6000808273ffffffffffffffffffffffffffffffffffffffff1663feaf968c6040518163ffffffff1660e01b815260040160a060405180830381865afa1580156107df573d6000803e3d6000fd5b505050506040513d601f19601f820116820180604052508101906108039190610b6f565b505050915050670de0b6b3a76400008161081d9190610bea565b915050919050565b600080fd5b600073ffffffffffffffffffffffffffffffffffffffff82169050919050565b60006108558261082a565b9050919050565b6108658161084a565b811461087057600080fd5b50565b6000813590506108828161085c565b92915050565b6000819050919050565b61089b81610888565b81146108a657600080fd5b50565b6000813590506108b881610892565b92915050565b600080604083850312156108d5576108d4610825565b5b60006108e385828601610873565b92505060206108f4858286016108a9565b9150509250929050565b60006020828403121561091457610913610825565b5b600061092284828501610873565b91505092915050565b60008115159050919050565b6109408161092b565b82525050565b600060208201905061095b6000830184610937565b92915050565b61096a81610888565b82525050565b60006020820190506109856000830184610961565b92915050565b600080604083850312156109a2576109a1610825565b5b60006109b0858286016108a9565b92505060206109c1858286016108a9565b9150509250929050565b600081905092915050565b50565b60006109e66000836109cb565b91506109f1826109d6565b600082019050919050565b6000610a07826109d9565b9150819050919050565b7f4e487b7100000000000000000000000000000000000000000000000000000000600052601160045260246000fd5b6000610a4b82610888565b9150610a5683610888565b9250828202610a6481610888565b91508282048414831517610a7b57610a7a610a11565b5b5092915050565b7f4e487b7100000000000000000000000000000000000000000000000000000000600052601260045260246000fd5b6000610abc82610888565b9150610ac783610888565b925082610ad757610ad6610a82565b5b828204905092915050565b600069ffffffffffffffffffff82169050919050565b610b0181610ae2565b8114610b0c57600080fd5b50565b600081519050610b1e81610af8565b92915050565b6000819050919050565b610b3781610b24565b8114610b4257600080fd5b50565b600081519050610b5481610b2e565b92915050565b600081519050610b6981610892565b92915050565b600080600080600060a08688031215610b8b57610b8a610825565b5b6000610b9988828901610b0f565b9550506020610baa88828901610b45565b9450506040610bbb88828901610b5a565b9350506060610bcc88828901610b5a565b9250506080610bdd88828901610b0f565b9150509295509295909350565b6000610bf582610b24565b9150610c0083610b24565b9250828202610c0e81610b24565b91507f80000000000000000000000000000000000000000000000000000000000000008414600084121615610c4657610c45610a11565b5b8282058414831517610c5b57610c5a610a11565b5b509291505056fea264697066735822122096c6f5c2464e288c9cf7a4a40f1044422b3de01a52c8887a8064b1b2f54ea47564736f6c634300081b0033",
  "linkReferences": {},
  "deployedLinkReferences": {}
}