{
  "_format": "hh-sol-artifact-1",
  "contractName": "RewardToken",
  "sourceName": "contracts/RewardToken.sol",
  "abi": [
    {
      "inputs": [],
      "stateMutability": "nonpayable",
      "type": "constructor"
    },
    {
      "inputs": [
        {
          "internalType": "address",
          "name": "spender",
          "type": "address"
        },
        {
          "internalType": "uint256",
          "name": "allowance",
          "type": "uint256"
        },
        {
          "internalType": "uint256",
          "name": "needed",
          "type": "uint256"
        }
      ],
      "name": "ERC20InsufficientAllowance",
      "type": "error"
    },
    {
      "inputs": [
        {
          "internalType": "address",
          "name": "sender",
          "type": "address"
        },
        {
          "internalType": "uint256",
          "name": "balance",
          "type": "uint256"
        },
        {
          "internalType": "uint256",
          "name": "needed",
          "type": "uint256"
        }
      ],
      "name": "ERC20InsufficientBalance",
      "type": "error"
    },
    {
      "inputs": [
        {
          "internalType": "address",
          "name": "approver",
          "type": "address"
        }
      ],
      "name": "ERC20InvalidApprover",
      "type": "error"
    },
    {
      "inputs": [
        {
          "internalType": "address",
          "name": "receiver",
          "type": "address"
        }
      ],
      "name": "ERC20InvalidReceiver",
      "type": "error"
    },
    {
      "inputs": [
        {
          "internalType": "address",
          "name": "sender",
          "type": "address"
        }
      ],
      "name": "ERC20InvalidSender",
      "type": "error"
    },
    {
      "inputs": [
        {
          "internalType": "address",
          "name": "spender",
          "type": "address"
        }
      ],
      "name": "ERC20InvalidSpender",
      "type": "error"
    },
    {
      "anonymous": false,
      "inputs": [
        {
          "indexed": true,
          "internalType": "address",
          "name": "owner",
          "type": "address"
        },
        {
          "indexed": true,
          "internalType": "address",
          "name": "spender",
          "type": "address"
        },
        {
          "indexed": false,
          "internalType": "uint256",
          "name": "value",
          "type": "uint256"
        }
      ],
      "name": "Approval",
      "type": "event"
    },
    {
      "anonymous": false,
      "inputs": [
        {
          "indexed": true,
          "internalType": "address",
          "name": "from",
          "type": "address"
        },
        {
          "indexed": true,
          "internalType": "address",
          "name": "to",
          "type": "address"
        },
        {
          "indexed": true,
          "internalType": "uint256",
          "name": "amount",
          "type": "uint256"
        }
      ],
      "name": "Approve",
      "type": "event"
    },
    {
      "anonymous": false,
      "inputs": [
        {
          "indexed": true,
          "internalType": "address",
          "name": "user",
          "type": "address"
        },
        {
          "indexed": true,
          "internalType": "uint256",
          "name": "amount",
          "type": "uint256"
        }
      ],
      "name": "Rewarded",
      "type": "event"
    },
    {
      "anonymous": false,
      "inputs": [
        {
          "indexed": true,
          "internalType": "address",
          "name": "from",
          "type": "address"
        },
        {
          "indexed": true,
          "internalType": "address",
          "name": "to",
          "type": "address"
        },
        {
          "indexed": false,
          "internalType": "uint256",
          "name": "value",
          "type": "uint256"
        }
      ],
      "name": "Transfer",
      "type": "event"
    },
    {
      "anonymous": false,
      "inputs": [
        {
          "indexed": true,
          "internalType": "address",
          "name": "creator",
          "type": "address"
        },
        {
          "indexed": false,
          "internalType": "string",
          "name": "imgHash",
          "type": "string"
        },
        {
          "indexed": false,
          "internalType": "uint256",
          "name": "totalViews",
          "type": "uint256"
        }
      ],
      "name": "ViewsIncremented",
      "type": "event"
    },
    {
      "inputs": [
        {
          "internalType": "address",
          "name": "owner",
          "type": "address"
        },
        {
          "internalType": "address",
          "name": "spender",
          "type": "address"
        }
      ],
      "name": "allowance",
      "outputs": [
        {
          "internalType": "uint256",
          "name": "",
          "type": "uint256"
        }
      ],
      "stateMutability": "view",
      "type": "function"
    },
    {
      "inputs": [
        {
          "internalType": "address",
          "name": "spender",
          "type": "address"
        },
        {
          "internalType": "uint256",
          "name": "value",
          "type": "uint256"
        }
      ],
      "name": "approve",
      "outputs": [
        {
          "internalType": "bool",
          "name": "",
          "type": "bool"
        }
      ],
      "stateMutability": "nonpayable",
      "type": "function"
    },
    {
      "inputs": [
        {
          "internalType": "address",
          "name": "account",
          "type": "address"
        }
      ],
      "name": "balanceOf",
      "outputs": [
        {
          "internalType": "uint256",
          "name": "",
          "type": "uint256"
        }
      ],
      "stateMutability": "view",
      "type": "function"
    },
    {
      "inputs": [
        {
          "internalType": "address",
          "name": "_user",
          "type": "address"
        }
      ],
      "name": "checkRewardEligibility",
      "outputs": [
        {
          "internalType": "bool",
          "name": "",
          "type": "bool"
        }
      ],
      "stateMutability": "view",
      "type": "function"
    },
    {
      "inputs": [],
      "name": "decimals",
      "outputs": [
        {
          "internalType": "uint8",
          "name": "",
          "type": "uint8"
        }
      ],
      "stateMutability": "view",
      "type": "function"
    },
    {
      "inputs": [
        {
          "internalType": "address",
          "name": "creator",
          "type": "address"
        },
        {
          "internalType": "string",
          "name": "imgHash",
          "type": "string"
        }
      ],
      "name": "getViews",
      "outputs": [
        {
          "internalType": "uint256",
          "name": "",
          "type": "uint256"
        }
      ],
      "stateMutability": "view",
      "type": "function"
    },
    {
      "inputs": [
        {
          "internalType": "address",
          "name": "account",
          "type": "address"
        }
      ],
      "name": "getbalanceOf",
      "outputs": [
        {
          "internalType": "uint256",
          "name": "",
          "type": "uint256"
        }
      ],
      "stateMutability": "view",
      "type": "function"
    },
    {
      "inputs": [
        {
          "internalType": "address",
          "name": "creator",
          "type": "address"
        },
        {
          "internalType": "string",
          "name": "imgHash",
          "type": "string"
        }
      ],
      "name": "incrementViews",
      "outputs": [],
      "stateMutability": "nonpayable",
      "type": "function"
    },
    {
      "inputs": [
        {
          "internalType": "address",
          "name": "",
          "type": "address"
        }
      ],
      "name": "lastRewarded",
      "outputs": [
        {
          "internalType": "uint256",
          "name": "",
          "type": "uint256"
        }
      ],
      "stateMutability": "view",
      "type": "function"
    },
    {
      "inputs": [
        {
          "internalType": "address",
          "name": "",
          "type": "address"
        },
        {
          "internalType": "string",
          "name": "",
          "type": "string"
        }
      ],
      "name": "lastRewardedViews",
      "outputs": [
        {
          "internalType": "uint256",
          "name": "",
          "type": "uint256"
        }
      ],
      "stateMutability": "view",
      "type": "function"
    },
    {
      "inputs": [
        {
          "internalType": "address",
          "name": "to",
          "type": "address"
        },
        {
          "internalType": "uint256",
          "name": "amount",
          "type": "uint256"
        }
      ],
      "name": "mint",
      "outputs": [],
      "stateMutability": "nonpayable",
      "type": "function"
    },
    {
      "inputs": [],
      "name": "name",
      "outputs": [
        {
          "internalType": "string",
          "name": "",
          "type": "string"
        }
      ],
      "stateMutability": "view",
      "type": "function"
    },
    {
      "inputs": [
        {
          "internalType": "address",
          "name": "",
          "type": "address"
        },
        {
          "internalType": "string",
          "name": "",
          "type": "string"
        }
      ],
      "name": "nftViews",
      "outputs": [
        {
          "internalType": "uint256",
          "name": "",
          "type": "uint256"
        }
      ],
      "stateMutability": "view",
      "type": "function"
    },
    {
      "inputs": [],
      "name": "owner",
      "outputs": [
        {
          "internalType": "address",
          "name": "",
          "type": "address"
        }
      ],
      "stateMutability": "view",
      "type": "function"
    },
    {
      "inputs": [
        {
          "internalType": "uint256",
          "name": "amount",
          "type": "uint256"
        },
        {
          "internalType": "address",
          "name": "user",
          "type": "address"
        }
      ],
      "name": "reward",
      "outputs": [
        {
          "internalType": "bool",
          "name": "success",
          "type": "bool"
        }
      ],
      "stateMutability": "nonpayable",
      "type": "function"
    },
    {
      "inputs": [],
      "name": "rewardAmount",
      "outputs": [
        {
          "internalType": "uint256",
          "name": "",
          "type": "uint256"
        }
      ],
      "stateMutability": "view",
      "type": "function"
    },
    {
      "inputs": [],
      "name": "rewardInterval",
      "outputs": [
        {
          "internalType": "uint256",
          "name": "",
          "type": "uint256"
        }
      ],
      "stateMutability": "view",
      "type": "function"
    },
    {
      "inputs": [
        {
          "internalType": "address",
          "name": "_user",
          "type": "address"
        }
      ],
      "name": "rewardUser",
      "outputs": [
        {
          "internalType": "bool",
          "name": "success",
          "type": "bool"
        }
      ],
      "stateMutability": "nonpayable",
      "type": "function"
    },
    {
      "inputs": [],
      "name": "symbol",
      "outputs": [
        {
          "internalType": "string",
          "name": "",
          "type": "string"
        }
      ],
      "stateMutability": "view",
      "type": "function"
    },
    {
      "inputs": [],
      "name": "totalSupply",
      "outputs": [
        {
          "internalType": "uint256",
          "name": "",
          "type": "uint256"
        }
      ],
      "stateMutability": "view",
      "type": "function"
    },
    {
      "inputs": [
        {
          "internalType": "address",
          "name": "to",
          "type": "address"
        },
        {
          "internalType": "uint256",
          "name": "value",
          "type": "uint256"
        }
      ],
      "name": "transfer",
      "outputs": [
        {
          "internalType": "bool",
          "name": "",
          "type": "bool"
        }
      ],
      "stateMutability": "nonpayable",
      "type": "function"
    },
    {
      "inputs": [
        {
          "internalType": "address",
          "name": "from",
          "type": "address"
        },
        {
          "internalType": "address",
          "name": "to",
          "type": "address"
        },
        {
          "internalType": "uint256",
          "name": "value",
          "type": "uint256"
        }
      ],
      "name": "transferFrom",
      "outputs": [
        {
          "internalType": "bool",
          "name": "",
          "type": "bool"
        }
      ],
      "stateMutability": "nonpayable",
      "type": "function"
    }
  ],
  "bytecode": "0x6080604052678ac7230489e800006006556201518060075534801561002357600080fd5b506040518060400160405280600581526020017f4d617465580000000000000000000000000000000000000000000000000000008152506040518060400160405280600381526020017f4d54580000000000000000000000000000000000000000000000000000000000815250816003908161009f9190610612565b5080600490816100af9190610612565b5050506100cf336c0c9f2c9cd04674edea4000000061011560201b60201c565b33600560006101000a81548173ffffffffffffffffffffffffffffffffffffffff021916908373ffffffffffffffffffffffffffffffffffffffff160217905550610804565b600073ffffffffffffffffffffffffffffffffffffffff168273ffffffffffffffffffffffffffffffffffffffff16036101875760006040517fec442f0500000000000000000000000000000000000000000000000000000000815260040161017e9190610725565b60405180910390fd5b6101996000838361019d60201b60201c565b5050565b600073ffffffffffffffffffffffffffffffffffffffff168373ffffffffffffffffffffffffffffffffffffffff16036101ef5780600260008282546101e3919061076f565b925050819055506102c2565b60008060008573ffffffffffffffffffffffffffffffffffffffff1673ffffffffffffffffffffffffffffffffffffffff1681526020019081526020016000205490508181101561027b578381836040517fe450d38c000000000000000000000000000000000000000000000000000000008152600401610272939291906107b2565b60405180910390fd5b8181036000808673ffffffffffffffffffffffffffffffffffffffff1673ffffffffffffffffffffffffffffffffffffffff16815260200190815260200160002081905550505b600073ffffffffffffffffffffffffffffffffffffffff168273ffffffffffffffffffffffffffffffffffffffff160361030b5780600260008282540392505081905550610358565b806000808473ffffffffffffffffffffffffffffffffffffffff1673ffffffffffffffffffffffffffffffffffffffff168152602001908152602001600020600082825401925050819055505b8173ffffffffffffffffffffffffffffffffffffffff168373ffffffffffffffffffffffffffffffffffffffff167fddf252ad1be2c89b69c2b068fc378daa952ba7f163c4a11628f55a4df523b3ef836040516103b591906107e9565b60405180910390a3505050565b600081519050919050565b7f4e487b7100000000000000000000000000000000000000000000000000000000600052604160045260246000fd5b7f4e487b7100000000000000000000000000000000000000000000000000000000600052602260045260246000fd5b6000600282049050600182168061044357607f821691505b602082108103610456576104556103fc565b5b50919050565b60008190508160005260206000209050919050565b60006020601f8301049050919050565b600082821b905092915050565b6000600883026104be7fffffffffffffffffffffffffffffffffffffffffffffffffffffffffffffffff82610481565b6104c88683610481565b95508019841693508086168417925050509392505050565b6000819050919050565b6000819050919050565b600061050f61050a610505846104e0565b6104ea565b6104e0565b9050919050565b6000819050919050565b610529836104f4565b61053d61053582610516565b84845461048e565b825550505050565b600090565b610552610545565b61055d818484610520565b505050565b5b818110156105815761057660008261054a565b600181019050610563565b5050565b601f8211156105c6576105978161045c565b6105a084610471565b810160208510156105af578190505b6105c36105bb85610471565b830182610562565b50505b505050565b600082821c905092915050565b60006105e9600019846008026105cb565b1980831691505092915050565b600061060283836105d8565b9150826002028217905092915050565b61061b826103c2565b67ffffffffffffffff811115610634576106336103cd565b5b61063e825461042b565b610649828285610585565b600060209050601f83116001811461067c576000841561066a578287015190505b61067485826105f6565b8655506106dc565b601f19841661068a8661045c565b60005b828110156106b25784890151825560018201915060208501945060208101905061068d565b868310156106cf57848901516106cb601f8916826105d8565b8355505b6001600288020188555050505b505050505050565b600073ffffffffffffffffffffffffffffffffffffffff82169050919050565b600061070f826106e4565b9050919050565b61071f81610704565b82525050565b600060208201905061073a6000830184610716565b92915050565b7f4e487b7100000000000000000000000000000000000000000000000000000000600052601160045260246000fd5b600061077a826104e0565b9150610785836104e0565b925082820190508082111561079d5761079c610740565b5b92915050565b6107ac816104e0565b82525050565b60006060820190506107c76000830186610716565b6107d460208301856107a3565b6107e160408301846107a3565b949350505050565b60006020820190506107fe60008301846107a3565b92915050565b6120d6806108136000396000f3fe608060405234801561001057600080fd5b50600436106101425760003560e01c80638a02b9a8116100b8578063a9059cbb1161007c578063a9059cbb146103c5578063bec4de3f146103f5578063dd62ed3e14610413578063f7b2a7be14610443578063f934d6fa14610461578063fed816bf1461049157610142565b80638a02b9a81461030d5780638da5cb5b1461032957806395d89b411461034757806395f5412c14610365578063a6afd7db1461039557610142565b8063313ce5671161010a578063313ce5671461021357806340c10f191461023157806347e851fa1461024d578063675e4db91461027d57806370a08231146102ad57806371bb61f3146102dd57610142565b806306fdde0314610147578063095ea7b31461016557806318160ddd1461019557806323b872dd146101b357806326754a11146101e3575b600080fd5b61014f6104c1565b60405161015c919061182b565b60405180910390f35b61017f600480360381019061017a91906118f5565b610553565b60405161018c9190611950565b60405180910390f35b61019d610576565b6040516101aa919061197a565b60405180910390f35b6101cd60048036038101906101c89190611995565b610580565b6040516101da9190611950565b60405180910390f35b6101fd60048036038101906101f891906119e8565b6105af565b60405161020a9190611950565b60405180910390f35b61021b610608565b6040516102289190611a31565b60405180910390f35b61024b600480360381019061024691906118f5565b610611565b005b610267600480360381019061026291906119e8565b610679565b604051610274919061197a565b60405180910390f35b61029760048036038101906102929190611b81565b61068b565b6040516102a4919061197a565b60405180910390f35b6102c760048036038101906102c291906119e8565b6106c6565b6040516102d4919061197a565b60405180910390f35b6102f760048036038101906102f29190611bdd565b61070e565b6040516103049190611950565b60405180910390f35b61032760048036038101906103229190611b81565b610989565b005b610331610c3d565b60405161033e9190611c2c565b60405180910390f35b61034f610c63565b60405161035c919061182b565b60405180910390f35b61037f600480360381019061037a9190611b81565b610cf5565b60405161038c919061197a565b60405180910390f35b6103af60048036038101906103aa91906119e8565b610d5b565b6040516103bc9190611950565b60405180910390f35b6103df60048036038101906103da91906118f5565b611072565b6040516103ec9190611950565b60405180910390f35b6103fd611095565b60405161040a919061197a565b60405180910390f35b61042d60048036038101906104289190611c47565b61109b565b60405161043a919061197a565b60405180910390f35b61044b611122565b604051610458919061197a565b60405180910390f35b61047b600480360381019061047691906119e8565b611128565b604051610488919061197a565b60405180910390f35b6104ab60048036038101906104a69190611b81565b611140565b6040516104b8919061197a565b60405180910390f35b6060600380546104d090611cb6565b80601f01602080910402602001604051908101604052809291908181526020018280546104fc90611cb6565b80156105495780601f1061051e57610100808354040283529160200191610549565b820191906000526020600020905b81548152906001019060200180831161052c57829003601f168201915b5050505050905090565b60008061055e61117b565b905061056b818585611183565b600191505092915050565b6000600254905090565b60008061058b61117b565b9050610598858285611195565b6105a3858585611229565b60019150509392505050565b6000600754600860008473ffffffffffffffffffffffffffffffffffffffff1673ffffffffffffffffffffffffffffffffffffffff168152602001908152602001600020546105fe9190611d16565b4210159050919050565b60006012905090565b600560009054906101000a900473ffffffffffffffffffffffffffffffffffffffff1673ffffffffffffffffffffffffffffffffffffffff163373ffffffffffffffffffffffffffffffffffffffff161461066b57600080fd5b610675828261131d565b5050565b6000610684826106c6565b9050919050565b600960205281600052604060002081805160208101820180518482526020830160208501208183528095505050505050600091509150505481565b60008060008373ffffffffffffffffffffffffffffffffffffffff1673ffffffffffffffffffffffffffffffffffffffff168152602001908152602001600020549050919050565b6000808311610752576040517f08c379a000000000000000000000000000000000000000000000000000000000815260040161074990611dbc565b60405180910390fd5b600560009054906101000a900473ffffffffffffffffffffffffffffffffffffffff1673ffffffffffffffffffffffffffffffffffffffff163373ffffffffffffffffffffffffffffffffffffffff16146107e2576040517f08c379a00000000000000000000000000000000000000000000000000000000081526004016107d990611e28565b60405180910390fd5b8261080e600560009054906101000a900473ffffffffffffffffffffffffffffffffffffffff166106c6565b101561084f576040517f08c379a000000000000000000000000000000000000000000000000000000000815260040161084690611e94565b60405180910390fd5b6108598284611072565b506000610865836106c6565b905083816108739190611d16565b905060006108a2600560009054906101000a900473ffffffffffffffffffffffffffffffffffffffff166106c6565b905084816108b09190611eb4565b9050848473ffffffffffffffffffffffffffffffffffffffff167fb3b7a071186534c03b40695710096f289fd4ed6c1a374aff0bb648955e4fe56360405160405180910390a38373ffffffffffffffffffffffffffffffffffffffff16600560009054906101000a900473ffffffffffffffffffffffffffffffffffffffff1673ffffffffffffffffffffffffffffffffffffffff167fddf252ad1be2c89b69c2b068fc378daa952ba7f163c4a11628f55a4df523b3ef87604051610975919061197a565b60405180910390a360019250505092915050565b6001600960008473ffffffffffffffffffffffffffffffffffffffff1673ffffffffffffffffffffffffffffffffffffffff168152602001908152602001600020826040516109d89190611f24565b908152602001604051809103902060008282546109f59190611d16565b925050819055508173ffffffffffffffffffffffffffffffffffffffff167f3e3ca4d711a9ca31bba278d353ddf6c9240e963263d418923ceb128145ef28c782600960008673ffffffffffffffffffffffffffffffffffffffff1673ffffffffffffffffffffffffffffffffffffffff16815260200190815260200160002084604051610a829190611f24565b908152602001604051809103902054604051610a9f929190611f3b565b60405180910390a26064600a60008473ffffffffffffffffffffffffffffffffffffffff1673ffffffffffffffffffffffffffffffffffffffff16815260200190815260200160002082604051610af69190611f24565b908152602001604051809103902054600960008573ffffffffffffffffffffffffffffffffffffffff1673ffffffffffffffffffffffffffffffffffffffff16815260200190815260200160002083604051610b529190611f24565b908152602001604051809103902054610b6b9190611eb4565b10610c3957610b7c6006548361070e565b50600960008373ffffffffffffffffffffffffffffffffffffffff1673ffffffffffffffffffffffffffffffffffffffff16815260200190815260200160002081604051610bca9190611f24565b908152602001604051809103902054600a60008473ffffffffffffffffffffffffffffffffffffffff1673ffffffffffffffffffffffffffffffffffffffff16815260200190815260200160002082604051610c269190611f24565b9081526020016040518091039020819055505b5050565b600560009054906101000a900473ffffffffffffffffffffffffffffffffffffffff1681565b606060048054610c7290611cb6565b80601f0160208091040260200160405190810160405280929190818152602001828054610c9e90611cb6565b8015610ceb5780601f10610cc057610100808354040283529160200191610ceb565b820191906000526020600020905b815481529060010190602001808311610cce57829003601f168201915b5050505050905090565b6000600960008473ffffffffffffffffffffffffffffffffffffffff1673ffffffffffffffffffffffffffffffffffffffff16815260200190815260200160002082604051610d449190611f24565b908152602001604051809103902054905092915050565b6000600560009054906101000a900473ffffffffffffffffffffffffffffffffffffffff1673ffffffffffffffffffffffffffffffffffffffff163373ffffffffffffffffffffffffffffffffffffffff1614610ded576040517f08c379a0000000000000000000000000000000000000000000000000000000008152600401610de490611e28565b60405180910390fd5b600654610e1b600560009054906101000a900473ffffffffffffffffffffffffffffffffffffffff166106c6565b1015610e5c576040517f08c379a0000000000000000000000000000000000000000000000000000000008152600401610e5390611fdd565b60405180910390fd5b600754600860008473ffffffffffffffffffffffffffffffffffffffff1673ffffffffffffffffffffffffffffffffffffffff16815260200190815260200160002054610ea99190611d16565b421015610eeb576040517f08c379a0000000000000000000000000000000000000000000000000000000008152600401610ee290612049565b60405180910390fd5b610ef782600654611072565b506000610f03836106c6565b905060065481610f139190611d16565b90506000610f42600560009054906101000a900473ffffffffffffffffffffffffffffffffffffffff166106c6565b905060065481610f529190611eb4565b905042600860008673ffffffffffffffffffffffffffffffffffffffff1673ffffffffffffffffffffffffffffffffffffffff168152602001908152602001600020819055506006548473ffffffffffffffffffffffffffffffffffffffff167fb3b7a071186534c03b40695710096f289fd4ed6c1a374aff0bb648955e4fe56360405160405180910390a38373ffffffffffffffffffffffffffffffffffffffff16600560009054906101000a900473ffffffffffffffffffffffffffffffffffffffff1673ffffffffffffffffffffffffffffffffffffffff167fddf252ad1be2c89b69c2b068fc378daa952ba7f163c4a11628f55a4df523b3ef60065460405161105f919061197a565b60405180910390a3600192505050919050565b60008061107d61117b565b905061108a818585611229565b600191505092915050565b60075481565b6000600160008473ffffffffffffffffffffffffffffffffffffffff1673ffffffffffffffffffffffffffffffffffffffff16815260200190815260200160002060008373ffffffffffffffffffffffffffffffffffffffff1673ffffffffffffffffffffffffffffffffffffffff16815260200190815260200160002054905092915050565b60065481565b60086020528060005260406000206000915090505481565b600a60205281600052604060002081805160208101820180518482526020830160208501208183528095505050505050600091509150505481565b600033905090565b611190838383600161139f565b505050565b60006111a1848461109b565b90507fffffffffffffffffffffffffffffffffffffffffffffffffffffffffffffffff81146112235781811015611213578281836040517ffb8f41b200000000000000000000000000000000000000000000000000000000815260040161120a93929190612069565b60405180910390fd5b6112228484848403600061139f565b5b50505050565b600073ffffffffffffffffffffffffffffffffffffffff168373ffffffffffffffffffffffffffffffffffffffff160361129b5760006040517f96c6fd1e0000000000000000000000000000000000000000000000000000000081526004016112929190611c2c565b60405180910390fd5b600073ffffffffffffffffffffffffffffffffffffffff168273ffffffffffffffffffffffffffffffffffffffff160361130d5760006040517fec442f050000000000000000000000000000000000000000000000000000000081526004016113049190611c2c565b60405180910390fd5b611318838383611576565b505050565b600073ffffffffffffffffffffffffffffffffffffffff168273ffffffffffffffffffffffffffffffffffffffff160361138f5760006040517fec442f050000000000000000000000000000000000000000000000000000000081526004016113869190611c2c565b60405180910390fd5b61139b60008383611576565b5050565b600073ffffffffffffffffffffffffffffffffffffffff168473ffffffffffffffffffffffffffffffffffffffff16036114115760006040517fe602df050000000000000000000000000000000000000000000000000000000081526004016114089190611c2c565b60405180910390fd5b600073ffffffffffffffffffffffffffffffffffffffff168373ffffffffffffffffffffffffffffffffffffffff16036114835760006040517f94280d6200000000000000000000000000000000000000000000000000000000815260040161147a9190611c2c565b60405180910390fd5b81600160008673ffffffffffffffffffffffffffffffffffffffff1673ffffffffffffffffffffffffffffffffffffffff16815260200190815260200160002060008573ffffffffffffffffffffffffffffffffffffffff1673ffffffffffffffffffffffffffffffffffffffff168152602001908152602001600020819055508015611570578273ffffffffffffffffffffffffffffffffffffffff168473ffffffffffffffffffffffffffffffffffffffff167f8c5be1e5ebec7d5bd14f71427d1e84f3dd0314c0f7b2291e5b200ac8c7c3b92584604051611567919061197a565b60405180910390a35b50505050565b600073ffffffffffffffffffffffffffffffffffffffff168373ffffffffffffffffffffffffffffffffffffffff16036115c85780600260008282546115bc9190611d16565b9250508190555061169b565b60008060008573ffffffffffffffffffffffffffffffffffffffff1673ffffffffffffffffffffffffffffffffffffffff16815260200190815260200160002054905081811015611654578381836040517fe450d38c00000000000000000000000000000000000000000000000000000000815260040161164b93929190612069565b60405180910390fd5b8181036000808673ffffffffffffffffffffffffffffffffffffffff1673ffffffffffffffffffffffffffffffffffffffff16815260200190815260200160002081905550505b600073ffffffffffffffffffffffffffffffffffffffff168273ffffffffffffffffffffffffffffffffffffffff16036116e45780600260008282540392505081905550611731565b806000808473ffffffffffffffffffffffffffffffffffffffff1673ffffffffffffffffffffffffffffffffffffffff168152602001908152602001600020600082825401925050819055505b8173ffffffffffffffffffffffffffffffffffffffff168373ffffffffffffffffffffffffffffffffffffffff167fddf252ad1be2c89b69c2b068fc378daa952ba7f163c4a11628f55a4df523b3ef8360405161178e919061197a565b60405180910390a3505050565b600081519050919050565b600082825260208201905092915050565b60005b838110156117d55780820151818401526020810190506117ba565b60008484015250505050565b6000601f19601f8301169050919050565b60006117fd8261179b565b61180781856117a6565b93506118178185602086016117b7565b611820816117e1565b840191505092915050565b6000602082019050818103600083015261184581846117f2565b905092915050565b6000604051905090565b600080fd5b600080fd5b600073ffffffffffffffffffffffffffffffffffffffff82169050919050565b600061188c82611861565b9050919050565b61189c81611881565b81146118a757600080fd5b50565b6000813590506118b981611893565b92915050565b6000819050919050565b6118d2816118bf565b81146118dd57600080fd5b50565b6000813590506118ef816118c9565b92915050565b6000806040838503121561190c5761190b611857565b5b600061191a858286016118aa565b925050602061192b858286016118e0565b9150509250929050565b60008115159050919050565b61194a81611935565b82525050565b60006020820190506119656000830184611941565b92915050565b611974816118bf565b82525050565b600060208201905061198f600083018461196b565b92915050565b6000806000606084860312156119ae576119ad611857565b5b60006119bc868287016118aa565b93505060206119cd868287016118aa565b92505060406119de868287016118e0565b9150509250925092565b6000602082840312156119fe576119fd611857565b5b6000611a0c848285016118aa565b91505092915050565b600060ff82169050919050565b611a2b81611a15565b82525050565b6000602082019050611a466000830184611a22565b92915050565b600080fd5b600080fd5b7f4e487b7100000000000000000000000000000000000000000000000000000000600052604160045260246000fd5b611a8e826117e1565b810181811067ffffffffffffffff82111715611aad57611aac611a56565b5b80604052505050565b6000611ac061184d565b9050611acc8282611a85565b919050565b600067ffffffffffffffff821115611aec57611aeb611a56565b5b611af5826117e1565b9050602081019050919050565b82818337600083830152505050565b6000611b24611b1f84611ad1565b611ab6565b905082815260208101848484011115611b4057611b3f611a51565b5b611b4b848285611b02565b509392505050565b600082601f830112611b6857611b67611a4c565b5b8135611b78848260208601611b11565b91505092915050565b60008060408385031215611b9857611b97611857565b5b6000611ba6858286016118aa565b925050602083013567ffffffffffffffff811115611bc757611bc661185c565b5b611bd385828601611b53565b9150509250929050565b60008060408385031215611bf457611bf3611857565b5b6000611c02858286016118e0565b9250506020611c13858286016118aa565b9150509250929050565b611c2681611881565b82525050565b6000602082019050611c416000830184611c1d565b92915050565b60008060408385031215611c5e57611c5d611857565b5b6000611c6c858286016118aa565b9250506020611c7d858286016118aa565b9150509250929050565b7f4e487b7100000000000000000000000000000000000000000000000000000000600052602260045260246000fd5b60006002820490506001821680611cce57607f821691505b602082108103611ce157611ce0611c87565b5b50919050565b7f4e487b7100000000000000000000000000000000000000000000000000000000600052601160045260246000fd5b6000611d21826118bf565b9150611d2c836118bf565b9250828201905080821115611d4457611d43611ce7565b5b92915050565b7f52657761726420616d6f756e74206d757374206265206772656174657220746860008201527f616e203000000000000000000000000000000000000000000000000000000000602082015250565b6000611da66024836117a6565b9150611db182611d4a565b604082019050919050565b60006020820190508181036000830152611dd581611d99565b9050919050565b7f4f6e6c79206f776e65722063616e207265776172640000000000000000000000600082015250565b6000611e126015836117a6565b9150611e1d82611ddc565b602082019050919050565b60006020820190508181036000830152611e4181611e05565b9050919050565b7f696e73756666696369656e7420616d6f756e7400000000000000000000000000600082015250565b6000611e7e6013836117a6565b9150611e8982611e48565b602082019050919050565b60006020820190508181036000830152611ead81611e71565b9050919050565b6000611ebf826118bf565b9150611eca836118bf565b9250828203905081811115611ee257611ee1611ce7565b5b92915050565b600081905092915050565b6000611efe8261179b565b611f088185611ee8565b9350611f188185602086016117b7565b80840191505092915050565b6000611f308284611ef3565b915081905092915050565b60006040820190508181036000830152611f5581856117f2565b9050611f64602083018461196b565b9392505050565b7f496e73756666696369656e74207265776172642062616c616e636520666f722060008201527f746865206f776e65720000000000000000000000000000000000000000000000602082015250565b6000611fc76029836117a6565b9150611fd282611f6b565b604082019050919050565b60006020820190508181036000830152611ff681611fba565b9050919050565b7f52657761726420616c726561647920636c61696d656420746f64617900000000600082015250565b6000612033601c836117a6565b915061203e82611ffd565b602082019050919050565b6000602082019050818103600083015261206281612026565b9050919050565b600060608201905061207e6000830186611c1d565b61208b602083018561196b565b612098604083018461196b565b94935050505056fea2646970667358221220c563172a6ea163b8d616bdd907677e841e6f194741d16a2c794ae1c5ec3ecc1a64736f6c634300081b0033",
  "linkReferences": {},
  "deployedLinkReferences": {}
}