{
  "_format": "hh-sol-artifact-1",
  "contractName": "Content",
  "sourceName": "contracts/Content.sol",
  "abi": [
    {
      "inputs": [
        {
          "internalType": "address",
          "name": "priceFeed",
          "type": "address"
        },
        {
          "internalType": "address",
          "name": "nftContractAddress",
          "type": "address"
        }
      ],
      "stateMutability": "nonpayable",
      "type": "constructor"
    },
    {
      "inputs": [],
      "name": "Content__ContentAlreadyPurchased",
      "type": "error"
    },
    {
      "inputs": [],
      "name": "Content__ContentIdDoesNotExist",
      "type": "error"
    },
    {
      "inputs": [],
      "name": "Content__ContentPurchaseError",
      "type": "error"
    },
    {
      "inputs": [],
      "name": "Content__PriceMustNotBeZero",
      "type": "error"
    },
    {
      "inputs": [],
      "name": "Content__TransactionFailed",
      "type": "error"
    },
    {
      "anonymous": false,
      "inputs": [
        {
          "indexed": true,
          "internalType": "address",
          "name": "owner",
          "type": "address"
        },
        {
          "indexed": true,
          "internalType": "uint256",
          "name": "price",
          "type": "uint256"
        }
      ],
      "name": "ContentPriceSet",
      "type": "event"
    },
    {
      "inputs": [
        {
          "internalType": "address",
          "name": "",
          "type": "address"
        }
      ],
      "name": "addressToContent",
      "outputs": [
        {
          "internalType": "uint256",
          "name": "",
          "type": "uint256"
        }
      ],
      "stateMutability": "view",
      "type": "function"
    },
    {
      "inputs": [
        {
          "internalType": "address",
          "name": "",
          "type": "address"
        },
        {
          "internalType": "uint256",
          "name": "",
          "type": "uint256"
        }
      ],
      "name": "addressToContentToPrice",
      "outputs": [
        {
          "internalType": "uint256",
          "name": "",
          "type": "uint256"
        }
      ],
      "stateMutability": "view",
      "type": "function"
    },
    {
      "inputs": [
        {
          "internalType": "address",
          "name": "owner",
          "type": "address"
        },
        {
          "internalType": "uint256",
          "name": "content_id",
          "type": "uint256"
        }
      ],
      "name": "buyContent",
      "outputs": [],
      "stateMutability": "payable",
      "type": "function"
    },
    {
      "inputs": [
        {
          "internalType": "address",
          "name": "",
          "type": "address"
        }
      ],
      "name": "contentPurchased",
      "outputs": [
        {
          "internalType": "bool",
          "name": "",
          "type": "bool"
        }
      ],
      "stateMutability": "view",
      "type": "function"
    },
    {
      "inputs": [
        {
          "internalType": "address",
          "name": "user",
          "type": "address"
        }
      ],
      "name": "getContentAccess",
      "outputs": [
        {
          "internalType": "bool",
          "name": "",
          "type": "bool"
        }
      ],
      "stateMutability": "view",
      "type": "function"
    },
    {
      "inputs": [
        {
          "internalType": "address",
          "name": "user",
          "type": "address"
        }
      ],
      "name": "getContentId",
      "outputs": [
        {
          "internalType": "uint256",
          "name": "",
          "type": "uint256"
        }
      ],
      "stateMutability": "view",
      "type": "function"
    },
    {
      "inputs": [
        {
          "internalType": "address",
          "name": "owner",
          "type": "address"
        },
        {
          "internalType": "uint256",
          "name": "content_id",
          "type": "uint256"
        }
      ],
      "name": "getContentPrice",
      "outputs": [
        {
          "internalType": "uint256",
          "name": "",
          "type": "uint256"
        }
      ],
      "stateMutability": "view",
      "type": "function"
    },
    {
      "inputs": [],
      "name": "nftContract",
      "outputs": [
        {
          "internalType": "contract IERC721",
          "name": "",
          "type": "address"
        }
      ],
      "stateMutability": "view",
      "type": "function"
    },
    {
      "inputs": [
        {
          "internalType": "uint256",
          "name": "content_id",
          "type": "uint256"
        },
        {
          "internalType": "uint256",
          "name": "price",
          "type": "uint256"
        }
      ],
      "name": "setContentPrice",
      "outputs": [],
      "stateMutability": "nonpayable",
      "type": "function"
    },
    {
      "inputs": [
        {
          "internalType": "address",
          "name": "_nftContractAddress",
          "type": "address"
        }
      ],
      "name": "setNftContract",
      "outputs": [],
      "stateMutability": "nonpayable",
      "type": "function"
    }
  ],
  "bytecode": "0x608060405234801561001057600080fd5b506040516110933803806110938339818101604052810190610032919061011d565b81600460006101000a81548173ffffffffffffffffffffffffffffffffffffffff021916908373ffffffffffffffffffffffffffffffffffffffff160217905550806000806101000a81548173ffffffffffffffffffffffffffffffffffffffff021916908373ffffffffffffffffffffffffffffffffffffffff160217905550505061015d565b600080fd5b600073ffffffffffffffffffffffffffffffffffffffff82169050919050565b60006100ea826100bf565b9050919050565b6100fa816100df565b811461010557600080fd5b50565b600081519050610117816100f1565b92915050565b60008060408385031215610134576101336100ba565b5b600061014285828601610108565b925050602061015385828601610108565b9150509250929050565b610f278061016c6000396000f3fe6080604052600436106100915760003560e01c806380c7d5e11161005957806380c7d5e11461017e578063810b8145146101bb578063d56d229d146101f8578063d9af03ef14610223578063df82498c1461026057610091565b80631a8398d41461009657806352f5ad77146100b257806353a6b941146100db57806355eef30314610118578063779f770714610155575b600080fd5b6100b060048036038101906100ab9190610a91565b61029d565b005b3480156100be57600080fd5b506100d960048036038101906100d49190610ad1565b61061b565b005b3480156100e757600080fd5b5061010260048036038101906100fd9190610ad1565b61065e565b60405161010f9190610b19565b60405180910390f35b34801561012457600080fd5b5061013f600480360381019061013a9190610a91565b61067e565b60405161014c9190610b43565b60405180910390f35b34801561016157600080fd5b5061017c60048036038101906101779190610b5e565b6106d9565b005b34801561018a57600080fd5b506101a560048036038101906101a09190610ad1565b610828565b6040516101b29190610b43565b60405180910390f35b3480156101c757600080fd5b506101e260048036038101906101dd9190610a91565b610840565b6040516101ef9190610b43565b60405180910390f35b34801561020457600080fd5b5061020d610865565b60405161021a9190610bfd565b60405180910390f35b34801561022f57600080fd5b5061024a60048036038101906102459190610ad1565b610889565b6040516102579190610b43565b60405180910390f35b34801561026c57600080fd5b5061028760048036038101906102829190610ad1565b6108d2565b6040516102949190610b19565b60405180910390f35b8173ffffffffffffffffffffffffffffffffffffffff1660008054906101000a900473ffffffffffffffffffffffffffffffffffffffff1673ffffffffffffffffffffffffffffffffffffffff16636352211e836040518263ffffffff1660e01b815260040161030d9190610b43565b602060405180830381865afa15801561032a573d6000803e3d6000fd5b505050506040513d601f19601f8201168201806040525081019061034e9190610c2d565b73ffffffffffffffffffffffffffffffffffffffff161461039b576040517f6c8b88df00000000000000000000000000000000000000000000000000000000815260040160405180910390fd5b60011515600260003373ffffffffffffffffffffffffffffffffffffffff1673ffffffffffffffffffffffffffffffffffffffff16815260200190815260200160002060009054906101000a900460ff16151503610425576040517fab09bb1400000000000000000000000000000000000000000000000000000000815260040160405180910390fd5b600160008373ffffffffffffffffffffffffffffffffffffffff1673ffffffffffffffffffffffffffffffffffffffff1681526020019081526020016000206000828152602001908152602001600020546104ab600460009054906101000a900473ffffffffffffffffffffffffffffffffffffffff163461092890919063ffffffff16565b036105e5576001600260003373ffffffffffffffffffffffffffffffffffffffff1673ffffffffffffffffffffffffffffffffffffffff16815260200190815260200160002060006101000a81548160ff02191690831515021790555060008273ffffffffffffffffffffffffffffffffffffffff16610556600460009054906101000a900473ffffffffffffffffffffffffffffffffffffffff163461092890919063ffffffff16565b60405161056290610c8b565b60006040518083038185875af1925050503d806000811461059f576040519150601f19603f3d011682016040523d82523d6000602084013e6105a4565b606091505b50509050806105df576040517f312585c900000000000000000000000000000000000000000000000000000000815260040160405180910390fd5b50610617565b6040517ffb77229500000000000000000000000000000000000000000000000000000000815260040160405180910390fd5b5050565b806000806101000a81548173ffffffffffffffffffffffffffffffffffffffff021916908373ffffffffffffffffffffffffffffffffffffffff16021790555050565b60026020528060005260406000206000915054906101000a900460ff1681565b6000600160008473ffffffffffffffffffffffffffffffffffffffff1673ffffffffffffffffffffffffffffffffffffffff168152602001908152602001600020600083815260200190815260200160002054905092915050565b60008111610713576040517f8209ab4f00000000000000000000000000000000000000000000000000000000815260040160405180910390fd5b610748600460009054906101000a900473ffffffffffffffffffffffffffffffffffffffff168261092890919063ffffffff16565b600160003373ffffffffffffffffffffffffffffffffffffffff1673ffffffffffffffffffffffffffffffffffffffff16815260200190815260200160002060008481526020019081526020016000208190555081600360003373ffffffffffffffffffffffffffffffffffffffff1673ffffffffffffffffffffffffffffffffffffffff16815260200190815260200160002081905550803373ffffffffffffffffffffffffffffffffffffffff167f51991dac21fa3f9c470153885bded81e15400ea0307d507104bd32152aea965860405160405180910390a35050565b60036020528060005260406000206000915090505481565b6001602052816000526040600020602052806000526040600020600091509150505481565b60008054906101000a900473ffffffffffffffffffffffffffffffffffffffff1681565b6000600360008373ffffffffffffffffffffffffffffffffffffffff1673ffffffffffffffffffffffffffffffffffffffff168152602001908152602001600020549050919050565b6000600260008373ffffffffffffffffffffffffffffffffffffffff1673ffffffffffffffffffffffffffffffffffffffff16815260200190815260200160002060009054906101000a900460ff169050919050565b60008061093483610964565b90506000670de0b6b3a7640000858361094d9190610ccf565b6109579190610d40565b9050809250505092915050565b6000808273ffffffffffffffffffffffffffffffffffffffff1663feaf968c6040518163ffffffff1660e01b815260040160a060405180830381865afa1580156109b2573d6000803e3d6000fd5b505050506040513d601f19601f820116820180604052508101906109d69190610dfe565b505050915050670de0b6b3a7640000816109f09190610e79565b915050919050565b600080fd5b600073ffffffffffffffffffffffffffffffffffffffff82169050919050565b6000610a28826109fd565b9050919050565b610a3881610a1d565b8114610a4357600080fd5b50565b600081359050610a5581610a2f565b92915050565b6000819050919050565b610a6e81610a5b565b8114610a7957600080fd5b50565b600081359050610a8b81610a65565b92915050565b60008060408385031215610aa857610aa76109f8565b5b6000610ab685828601610a46565b9250506020610ac785828601610a7c565b9150509250929050565b600060208284031215610ae757610ae66109f8565b5b6000610af584828501610a46565b91505092915050565b60008115159050919050565b610b1381610afe565b82525050565b6000602082019050610b2e6000830184610b0a565b92915050565b610b3d81610a5b565b82525050565b6000602082019050610b586000830184610b34565b92915050565b60008060408385031215610b7557610b746109f8565b5b6000610b8385828601610a7c565b9250506020610b9485828601610a7c565b9150509250929050565b6000819050919050565b6000610bc3610bbe610bb9846109fd565b610b9e565b6109fd565b9050919050565b6000610bd582610ba8565b9050919050565b6000610be782610bca565b9050919050565b610bf781610bdc565b82525050565b6000602082019050610c126000830184610bee565b92915050565b600081519050610c2781610a2f565b92915050565b600060208284031215610c4357610c426109f8565b5b6000610c5184828501610c18565b91505092915050565b600081905092915050565b50565b6000610c75600083610c5a565b9150610c8082610c65565b600082019050919050565b6000610c9682610c68565b9150819050919050565b7f4e487b7100000000000000000000000000000000000000000000000000000000600052601160045260246000fd5b6000610cda82610a5b565b9150610ce583610a5b565b9250828202610cf381610a5b565b91508282048414831517610d0a57610d09610ca0565b5b5092915050565b7f4e487b7100000000000000000000000000000000000000000000000000000000600052601260045260246000fd5b6000610d4b82610a5b565b9150610d5683610a5b565b925082610d6657610d65610d11565b5b828204905092915050565b600069ffffffffffffffffffff82169050919050565b610d9081610d71565b8114610d9b57600080fd5b50565b600081519050610dad81610d87565b92915050565b6000819050919050565b610dc681610db3565b8114610dd157600080fd5b50565b600081519050610de381610dbd565b92915050565b600081519050610df881610a65565b92915050565b600080600080600060a08688031215610e1a57610e196109f8565b5b6000610e2888828901610d9e565b9550506020610e3988828901610dd4565b9450506040610e4a88828901610de9565b9350506060610e5b88828901610de9565b9250506080610e6c88828901610d9e565b9150509295509295909350565b6000610e8482610db3565b9150610e8f83610db3565b9250828202610e9d81610db3565b91507f80000000000000000000000000000000000000000000000000000000000000008414600084121615610ed557610ed4610ca0565b5b8282058414831517610eea57610ee9610ca0565b5b509291505056fea2646970667358221220473cd60ec302577a690a6577cad0b2835162c2c0c737cbb3bf4ff47cce655fc864736f6c634300081b0033",
  "linkReferences": {},
  "deployedLinkReferences": {}
}