{
  "_format": "hh-sol-artifact-1",
  "contractName": "Subscription",
  "sourceName": "contracts/Subscription.sol",
  "abi": [
    {
      "inputs": [
        {
          "internalType": "address",
          "name": "priceFeed",
          "type": "address"
        }
      ],
      "stateMutability": "nonpayable",
      "type": "constructor"
    },
    {
      "inputs": [],
      "name": "Subscription__AmountMustNotBeLessOrEqualToZero",
      "type": "error"
    },
    {
      "inputs": [],
      "name": "Subscription__MustPayCorrectAmount",
      "type": "error"
    },
    {
      "inputs": [],
      "name": "Subscription__NotSubscribed",
      "type": "error"
    },
    {
      "anonymous": false,
      "inputs": [
        {
          "indexed": true,
          "internalType": "address",
          "name": "user",
          "type": "address"
        },
        {
          "indexed": true,
          "internalType": "uint256",
          "name": "price",
          "type": "uint256"
        }
      ],
      "name": "Subscribed",
      "type": "event"
    },
    {
      "inputs": [],
      "name": "SUBSCRIPTION_PRICE",
      "outputs": [
        {
          "internalType": "uint256",
          "name": "",
          "type": "uint256"
        }
      ],
      "stateMutability": "view",
      "type": "function"
    },
    {
      "inputs": [],
      "name": "getEthPrice",
      "outputs": [
        {
          "internalType": "uint256",
          "name": "",
          "type": "uint256"
        }
      ],
      "stateMutability": "view",
      "type": "function"
    },
    {
      "inputs": [],
      "name": "getRequiredEthForSubscription",
      "outputs": [
        {
          "internalType": "uint256",
          "name": "",
          "type": "uint256"
        }
      ],
      "stateMutability": "view",
      "type": "function"
    },
    {
      "inputs": [
        {
          "internalType": "address",
          "name": "user",
          "type": "address"
        }
      ],
      "name": "getSubscriber",
      "outputs": [
        {
          "internalType": "bool",
          "name": "",
          "type": "bool"
        }
      ],
      "stateMutability": "view",
      "type": "function"
    },
    {
      "inputs": [],
      "name": "subscribe",
      "outputs": [],
      "stateMutability": "payable",
      "type": "function"
    },
    {
      "inputs": [
        {
          "internalType": "uint256",
          "name": "",
          "type": "uint256"
        }
      ],
      "name": "subscribers",
      "outputs": [
        {
          "internalType": "address",
          "name": "",
          "type": "address"
        }
      ],
      "stateMutability": "view",
      "type": "function"
    },
    {
      "inputs": [
        {
          "internalType": "address",
          "name": "",
          "type": "address"
        }
      ],
      "name": "subscriptions",
      "outputs": [
        {
          "internalType": "address",
          "name": "subscriber",
          "type": "address"
        },
        {
          "internalType": "bool",
          "name": "subscribed",
          "type": "bool"
        }
      ],
      "stateMutability": "view",
      "type": "function"
    }
  ],
  "bytecode": "0x608060405234801561001057600080fd5b50604051610ee0380380610ee08339818101604052810190610032919061011d565b80600360006101000a81548173ffffffffffffffffffffffffffffffffffffffff021916908373ffffffffffffffffffffffffffffffffffffffff16021790555033600160006101000a81548173ffffffffffffffffffffffffffffffffffffffff021916908373ffffffffffffffffffffffffffffffffffffffff1602179055505061014a565b600080fd5b600073ffffffffffffffffffffffffffffffffffffffff82169050919050565b60006100ea826100bf565b9050919050565b6100fa816100df565b811461010557600080fd5b50565b600081519050610117816100f1565b92915050565b600060208284031215610133576101326100ba565b5b600061014184828501610108565b91505092915050565b610d87806101596000396000f3fe6080604052600436106100705760003560e01c806367c9b0171161004e57806367c9b0171461011a5780636a890cb2146101455780638f449a0514610170578063f046395a1461017a57610070565b80630bc4f5e31461007557806359221a68146100a05780635abf3838146100dd575b600080fd5b34801561008157600080fd5b5061008a6101b8565b60405161009791906107d8565b60405180910390f35b3480156100ac57600080fd5b506100c760048036038101906100c29190610824565b6101f2565b6040516100d49190610892565b60405180910390f35b3480156100e957600080fd5b5061010460048036038101906100ff91906108d9565b610231565b6040516101119190610921565b60405180910390f35b34801561012657600080fd5b5061012f610289565b60405161013c91906107d8565b60405180910390f35b34801561015157600080fd5b5061015a61033a565b60405161016791906107d8565b60405180910390f35b610178610346565b005b34801561018657600080fd5b506101a1600480360381019061019c91906108d9565b61069e565b6040516101af92919061093c565b60405180910390f35b6000806101c3610289565b905080670de0b6b3a7640000674563918244f400006101e29190610994565b6101ec9190610a05565b91505090565b6002818154811061020257600080fd5b906000526020600020016000915054906101000a900473ffffffffffffffffffffffffffffffffffffffff1681565b60008060008373ffffffffffffffffffffffffffffffffffffffff1673ffffffffffffffffffffffffffffffffffffffff16815260200190815260200160002060000160149054906101000a900460ff169050919050565b600080600360009054906101000a900473ffffffffffffffffffffffffffffffffffffffff1673ffffffffffffffffffffffffffffffffffffffff1663feaf968c6040518163ffffffff1660e01b815260040160a060405180830381865afa1580156102f9573d6000803e3d6000fd5b505050506040513d601f19601f8201168201806040525081019061031d9190610ac3565b5050509150506402540be400816103349190610b3e565b91505090565b674563918244f4000081565b60003411610380576040517fec53cf9400000000000000000000000000000000000000000000000000000000815260040160405180910390fd5b674563918244f400006103be600360009054906101000a900473ffffffffffffffffffffffffffffffffffffffff16346106ef90919063ffffffff16565b10156103ff576040517f08c379a00000000000000000000000000000000000000000000000000000000081526004016103f690610c13565b60405180910390fd5b600015156000803373ffffffffffffffffffffffffffffffffffffffff1673ffffffffffffffffffffffffffffffffffffffff16815260200190815260200160002060000160149054906101000a900460ff16151514610494576040517f08c379a000000000000000000000000000000000000000000000000000000000815260040161048b90610c7f565b60405180910390fd5b6000600160009054906101000a900473ffffffffffffffffffffffffffffffffffffffff1673ffffffffffffffffffffffffffffffffffffffff16346040516104dc90610cd0565b60006040518083038185875af1925050503d8060008114610519576040519150601f19603f3d011682016040523d82523d6000602084013e61051e565b606091505b5050905080610562576040517f08c379a000000000000000000000000000000000000000000000000000000000815260040161055990610d31565b60405180910390fd5b60405180604001604052803373ffffffffffffffffffffffffffffffffffffffff168152602001600115158152506000803373ffffffffffffffffffffffffffffffffffffffff1673ffffffffffffffffffffffffffffffffffffffff16815260200190815260200160002060008201518160000160006101000a81548173ffffffffffffffffffffffffffffffffffffffff021916908373ffffffffffffffffffffffffffffffffffffffff16021790555060208201518160000160146101000a81548160ff0219169083151502179055509050506002339080600181540180825580915050600190039060005260206000200160009091909190916101000a81548173ffffffffffffffffffffffffffffffffffffffff021916908373ffffffffffffffffffffffffffffffffffffffff16021790555050565b60006020528060005260406000206000915090508060000160009054906101000a900473ffffffffffffffffffffffffffffffffffffffff16908060000160149054906101000a900460ff16905082565b6000806106fb8361072b565b90506000670de0b6b3a764000085836107149190610994565b61071e9190610a05565b9050809250505092915050565b6000808273ffffffffffffffffffffffffffffffffffffffff1663feaf968c6040518163ffffffff1660e01b815260040160a060405180830381865afa158015610779573d6000803e3d6000fd5b505050506040513d601f19601f8201168201806040525081019061079d9190610ac3565b505050915050670de0b6b3a7640000816107b79190610b3e565b915050919050565b6000819050919050565b6107d2816107bf565b82525050565b60006020820190506107ed60008301846107c9565b92915050565b600080fd5b610801816107bf565b811461080c57600080fd5b50565b60008135905061081e816107f8565b92915050565b60006020828403121561083a576108396107f3565b5b60006108488482850161080f565b91505092915050565b600073ffffffffffffffffffffffffffffffffffffffff82169050919050565b600061087c82610851565b9050919050565b61088c81610871565b82525050565b60006020820190506108a76000830184610883565b92915050565b6108b681610871565b81146108c157600080fd5b50565b6000813590506108d3816108ad565b92915050565b6000602082840312156108ef576108ee6107f3565b5b60006108fd848285016108c4565b91505092915050565b60008115159050919050565b61091b81610906565b82525050565b60006020820190506109366000830184610912565b92915050565b60006040820190506109516000830185610883565b61095e6020830184610912565b9392505050565b7f4e487b7100000000000000000000000000000000000000000000000000000000600052601160045260246000fd5b600061099f826107bf565b91506109aa836107bf565b92508282026109b8816107bf565b915082820484148315176109cf576109ce610965565b5b5092915050565b7f4e487b7100000000000000000000000000000000000000000000000000000000600052601260045260246000fd5b6000610a10826107bf565b9150610a1b836107bf565b925082610a2b57610a2a6109d6565b5b828204905092915050565b600069ffffffffffffffffffff82169050919050565b610a5581610a36565b8114610a6057600080fd5b50565b600081519050610a7281610a4c565b92915050565b6000819050919050565b610a8b81610a78565b8114610a9657600080fd5b50565b600081519050610aa881610a82565b92915050565b600081519050610abd816107f8565b92915050565b600080600080600060a08688031215610adf57610ade6107f3565b5b6000610aed88828901610a63565b9550506020610afe88828901610a99565b9450506040610b0f88828901610aae565b9350506060610b2088828901610aae565b9250506080610b3188828901610a63565b9150509295509295909350565b6000610b4982610a78565b9150610b5483610a78565b9250828202610b6281610a78565b91507f80000000000000000000000000000000000000000000000000000000000000008414600084121615610b9a57610b99610965565b5b8282058414831517610baf57610bae610965565b5b5092915050565b600082825260208201905092915050565b7f496e73756666696369656e7420416d6f756e7400000000000000000000000000600082015250565b6000610bfd601383610bb6565b9150610c0882610bc7565b602082019050919050565b60006020820190508181036000830152610c2c81610bf0565b9050919050565b7f416c726561647920537562736372696265640000000000000000000000000000600082015250565b6000610c69601283610bb6565b9150610c7482610c33565b602082019050919050565b60006020820190508181036000830152610c9881610c5c565b9050919050565b600081905092915050565b50565b6000610cba600083610c9f565b9150610cc582610caa565b600082019050919050565b6000610cdb82610cad565b9150819050919050565b7f7472616e73616374696f6e206661696c65640000000000000000000000000000600082015250565b6000610d1b601283610bb6565b9150610d2682610ce5565b602082019050919050565b60006020820190508181036000830152610d4a81610d0e565b905091905056fea26469706673582212207bb6aed7a43ef0e84fcc1e9228c5e9715d773d59474d083d9ed0a62d7339b5ba64736f6c634300081b0033",
  "linkReferences": {},
  "deployedLinkReferences": {}
}