{
  "_format": "hh-sol-artifact-1",
  "contractName": "UserNFTData",
  "sourceName": "contracts/UserNftData.sol",
  "abi": [
    {
      "anonymous": false,
      "inputs": [
        {
          "indexed": true,
          "internalType": "address",
          "name": "user",
          "type": "address"
        },
        {
          "indexed": false,
          "internalType": "string",
          "name": "newHash",
          "type": "string"
        }
      ],
      "name": "NftHashUpdated",
      "type": "event"
    },
    {
      "inputs": [],
      "name": "getAllNfts",
      "outputs": [
        {
          "internalType": "string",
          "name": "",
          "type": "string"
        }
      ],
      "stateMutability": "view",
      "type": "function"
    },
    {
      "inputs": [
        {
          "internalType": "address",
          "name": "user",
          "type": "address"
        }
      ],
      "name": "getUserNftHash",
      "outputs": [
        {
          "internalType": "string",
          "name": "",
          "type": "string"
        }
      ],
      "stateMutability": "view",
      "type": "function"
    },
    {
      "inputs": [
        {
          "internalType": "string",
          "name": "newHash",
          "type": "string"
        }
      ],
      "name": "updateUserNftHash",
      "outputs": [],
      "stateMutability": "nonpayable",
      "type": "function"
    }
  ],
  "bytecode": "0x6080604052348015600f57600080fd5b506108ae8061001f6000396000f3fe608060405234801561001057600080fd5b50600436106100415760003560e01c8063153d0b6014610046578063732e8d7314610062578063a43d119c14610080575b600080fd5b610060600480360381019061005b919061041b565b6100b0565b005b61006a61015e565b60405161007791906104e3565b60405180910390f35b61009a60048036038101906100959190610563565b6101f0565b6040516100a791906104e3565b60405180910390f35b80600160003373ffffffffffffffffffffffffffffffffffffffff1673ffffffffffffffffffffffffffffffffffffffff16815260200190815260200160002090816100fc91906107a6565b50806000908161010c91906107a6565b503373ffffffffffffffffffffffffffffffffffffffff167ff431c6762ed927fb21d68e906d72ed66221c65dd02df6f928a37cc294f019f488260405161015391906104e3565b60405180910390a250565b60606000805461016d906105bf565b80601f0160208091040260200160405190810160405280929190818152602001828054610199906105bf565b80156101e65780601f106101bb576101008083540402835291602001916101e6565b820191906000526020600020905b8154815290600101906020018083116101c957829003601f168201915b5050505050905090565b6060600160008373ffffffffffffffffffffffffffffffffffffffff1673ffffffffffffffffffffffffffffffffffffffff168152602001908152602001600020805461023c906105bf565b80601f0160208091040260200160405190810160405280929190818152602001828054610268906105bf565b80156102b55780601f1061028a576101008083540402835291602001916102b5565b820191906000526020600020905b81548152906001019060200180831161029857829003601f168201915b50505050509050919050565b6000604051905090565b600080fd5b600080fd5b600080fd5b600080fd5b6000601f19601f8301169050919050565b7f4e487b7100000000000000000000000000000000000000000000000000000000600052604160045260246000fd5b610328826102df565b810181811067ffffffffffffffff82111715610347576103466102f0565b5b80604052505050565b600061035a6102c1565b9050610366828261031f565b919050565b600067ffffffffffffffff821115610386576103856102f0565b5b61038f826102df565b9050602081019050919050565b82818337600083830152505050565b60006103be6103b98461036b565b610350565b9050828152602081018484840111156103da576103d96102da565b5b6103e584828561039c565b509392505050565b600082601f830112610402576104016102d5565b5b81356104128482602086016103ab565b91505092915050565b600060208284031215610431576104306102cb565b5b600082013567ffffffffffffffff81111561044f5761044e6102d0565b5b61045b848285016103ed565b91505092915050565b600081519050919050565b600082825260208201905092915050565b60005b8381101561049e578082015181840152602081019050610483565b60008484015250505050565b60006104b582610464565b6104bf818561046f565b93506104cf818560208601610480565b6104d8816102df565b840191505092915050565b600060208201905081810360008301526104fd81846104aa565b905092915050565b600073ffffffffffffffffffffffffffffffffffffffff82169050919050565b600061053082610505565b9050919050565b61054081610525565b811461054b57600080fd5b50565b60008135905061055d81610537565b92915050565b600060208284031215610579576105786102cb565b5b60006105878482850161054e565b91505092915050565b7f4e487b7100000000000000000000000000000000000000000000000000000000600052602260045260246000fd5b600060028204905060018216806105d757607f821691505b6020821081036105ea576105e9610590565b5b50919050565b60008190508160005260206000209050919050565b60006020601f8301049050919050565b600082821b905092915050565b6000600883026106527fffffffffffffffffffffffffffffffffffffffffffffffffffffffffffffffff82610615565b61065c8683610615565b95508019841693508086168417925050509392505050565b6000819050919050565b6000819050919050565b60006106a361069e61069984610674565b61067e565b610674565b9050919050565b6000819050919050565b6106bd83610688565b6106d16106c9826106aa565b848454610622565b825550505050565b600090565b6106e66106d9565b6106f18184846106b4565b505050565b5b818110156107155761070a6000826106de565b6001810190506106f7565b5050565b601f82111561075a5761072b816105f0565b61073484610605565b81016020851015610743578190505b61075761074f85610605565b8301826106f6565b50505b505050565b600082821c905092915050565b600061077d6000198460080261075f565b1980831691505092915050565b6000610796838361076c565b9150826002028217905092915050565b6107af82610464565b67ffffffffffffffff8111156107c8576107c76102f0565b5b6107d282546105bf565b6107dd828285610719565b600060209050601f83116001811461081057600084156107fe578287015190505b610808858261078a565b865550610870565b601f19841661081e866105f0565b60005b8281101561084657848901518255600182019150602085019450602081019050610821565b86831015610863578489015161085f601f89168261076c565b8355505b6001600288020188555050505b50505050505056fea26469706673582212209bd1cd68105956d1f904a2974d5849769c7a5939dd605f3233b2c0fa882fea8f64736f6c634300081b0033",
  "linkReferences": {},
  "deployedLinkReferences": {}
}