{
  "_format": "hh-sol-artifact-1",
  "contractName": "RewardToken",
  "sourceName": "contracts/RewardToken.sol",
  "abi": [
    {
      "inputs": [],
      "stateMutability": "nonpayable",
      "type": "constructor"
    },
    {
      "anonymous": false,
      "inputs": [
        {
          "indexed": true,
          "internalType": "address",
          "name": "from",
          "type": "address"
        },
        {
          "indexed": true,
          "internalType": "address",
          "name": "to",
          "type": "address"
        },
        {
          "indexed": true,
          "internalType": "uint256",
          "name": "amount",
          "type": "uint256"
        }
      ],
      "name": "Approve",
      "type": "event"
    },
    {
      "anonymous": false,
      "inputs": [
        {
          "indexed": true,
          "internalType": "address",
          "name": "user",
          "type": "address"
        },
        {
          "indexed": true,
          "internalType": "uint256",
          "name": "amount",
          "type": "uint256"
        }
      ],
      "name": "Rewarded",
      "type": "event"
    },
    {
      "anonymous": false,
      "inputs": [
        {
          "indexed": true,
          "internalType": "address",
          "name": "from",
          "type": "address"
        },
        {
          "indexed": true,
          "internalType": "address",
          "name": "to",
          "type": "address"
        },
        {
          "indexed": true,
          "internalType": "uint256",
          "name": "amount",
          "type": "uint256"
        }
      ],
      "name": "Transfer",
      "type": "event"
    },
    {
      "inputs": [
        {
          "internalType": "address",
          "name": "",
          "type": "address"
        },
        {
          "internalType": "address",
          "name": "",
          "type": "address"
        }
      ],
      "name": "allowance",
      "outputs": [
        {
          "internalType": "uint256",
          "name": "",
          "type": "uint256"
        }
      ],
      "stateMutability": "view",
      "type": "function"
    },
    {
      "inputs": [
        {
          "internalType": "address",
          "name": "_spender",
          "type": "address"
        },
        {
          "internalType": "uint256",
          "name": "_amount",
          "type": "uint256"
        }
      ],
      "name": "approve",
      "outputs": [
        {
          "internalType": "bool",
          "name": "success",
          "type": "bool"
        }
      ],
      "stateMutability": "nonpayable",
      "type": "function"
    },
    {
      "inputs": [
        {
          "internalType": "address",
          "name": "",
          "type": "address"
        }
      ],
      "name": "balanceOf",
      "outputs": [
        {
          "internalType": "uint256",
          "name": "",
          "type": "uint256"
        }
      ],
      "stateMutability": "view",
      "type": "function"
    },
    {
      "inputs": [
        {
          "internalType": "address",
          "name": "_user",
          "type": "address"
        }
      ],
      "name": "checkRewardEligibility",
      "outputs": [
        {
          "internalType": "bool",
          "name": "",
          "type": "bool"
        }
      ],
      "stateMutability": "view",
      "type": "function"
    },
    {
      "inputs": [],
      "name": "decimals",
      "outputs": [
        {
          "internalType": "uint8",
          "name": "",
          "type": "uint8"
        }
      ],
      "stateMutability": "view",
      "type": "function"
    },
    {
      "inputs": [
        {
          "internalType": "address",
          "name": "account",
          "type": "address"
        }
      ],
      "name": "getbalanceOf",
      "outputs": [
        {
          "internalType": "uint256",
          "name": "",
          "type": "uint256"
        }
      ],
      "stateMutability": "view",
      "type": "function"
    },
    {
      "inputs": [
        {
          "internalType": "address",
          "name": "",
          "type": "address"
        }
      ],
      "name": "lastRewarded",
      "outputs": [
        {
          "internalType": "uint256",
          "name": "",
          "type": "uint256"
        }
      ],
      "stateMutability": "view",
      "type": "function"
    },
    {
      "inputs": [],
      "name": "name",
      "outputs": [
        {
          "internalType": "string",
          "name": "",
          "type": "string"
        }
      ],
      "stateMutability": "view",
      "type": "function"
    },
    {
      "inputs": [],
      "name": "owner",
      "outputs": [
        {
          "internalType": "address",
          "name": "",
          "type": "address"
        }
      ],
      "stateMutability": "view",
      "type": "function"
    },
    {
      "inputs": [],
      "name": "rewardAmount",
      "outputs": [
        {
          "internalType": "uint256",
          "name": "",
          "type": "uint256"
        }
      ],
      "stateMutability": "view",
      "type": "function"
    },
    {
      "inputs": [],
      "name": "rewardInterval",
      "outputs": [
        {
          "internalType": "uint256",
          "name": "",
          "type": "uint256"
        }
      ],
      "stateMutability": "view",
      "type": "function"
    },
    {
      "inputs": [
        {
          "internalType": "address",
          "name": "_user",
          "type": "address"
        }
      ],
      "name": "rewardUser",
      "outputs": [
        {
          "internalType": "bool",
          "name": "success",
          "type": "bool"
        }
      ],
      "stateMutability": "nonpayable",
      "type": "function"
    },
    {
      "inputs": [],
      "name": "symbol",
      "outputs": [
        {
          "internalType": "string",
          "name": "",
          "type": "string"
        }
      ],
      "stateMutability": "view",
      "type": "function"
    },
    {
      "inputs": [],
      "name": "totalSupply",
      "outputs": [
        {
          "internalType": "uint256",
          "name": "",
          "type": "uint256"
        }
      ],
      "stateMutability": "view",
      "type": "function"
    },
    {
      "inputs": [
        {
          "internalType": "address",
          "name": "_to",
          "type": "address"
        },
        {
          "internalType": "uint256",
          "name": "_amount",
          "type": "uint256"
        }
      ],
      "name": "transfer",
      "outputs": [
        {
          "internalType": "bool",
          "name": "success",
          "type": "bool"
        }
      ],
      "stateMutability": "nonpayable",
      "type": "function"
    },
    {
      "inputs": [
        {
          "internalType": "address",
          "name": "_from",
          "type": "address"
        },
        {
          "internalType": "address",
          "name": "_to",
          "type": "address"
        },
        {
          "internalType": "uint256",
          "name": "_amount",
          "type": "uint256"
        }
      ],
      "name": "transferFrom",
      "outputs": [
        {
          "internalType": "bool",
          "name": "success",
          "type": "bool"
        }
      ],
      "stateMutability": "nonpayable",
      "type": "function"
    }
  ],
  "bytecode": "0x60806040526040518060400160405280600581526020017f4d617465580000000000000000000000000000000000000000000000000000008152506000908161004891906103b5565b506040518060400160405280600381526020017f4d545800000000000000000000000000000000000000000000000000000000008152506001908161008d91906103b5565b506012600260006101000a81548160ff021916908360ff16021790555069d3c21bcecceda1000000600355683635c9adc5dea00000600555620151806006553480156100d857600080fd5b50600354600760003373ffffffffffffffffffffffffffffffffffffffff1673ffffffffffffffffffffffffffffffffffffffff1681526020019081526020016000208190555033600460006101000a81548173ffffffffffffffffffffffffffffffffffffffff021916908373ffffffffffffffffffffffffffffffffffffffff160217905550610487565b600081519050919050565b7f4e487b7100000000000000000000000000000000000000000000000000000000600052604160045260246000fd5b7f4e487b7100000000000000000000000000000000000000000000000000000000600052602260045260246000fd5b600060028204905060018216806101e657607f821691505b6020821081036101f9576101f861019f565b5b50919050565b60008190508160005260206000209050919050565b60006020601f8301049050919050565b600082821b905092915050565b6000600883026102617fffffffffffffffffffffffffffffffffffffffffffffffffffffffffffffffff82610224565b61026b8683610224565b95508019841693508086168417925050509392505050565b6000819050919050565b6000819050919050565b60006102b26102ad6102a884610283565b61028d565b610283565b9050919050565b6000819050919050565b6102cc83610297565b6102e06102d8826102b9565b848454610231565b825550505050565b600090565b6102f56102e8565b6103008184846102c3565b505050565b5b81811015610324576103196000826102ed565b600181019050610306565b5050565b601f8211156103695761033a816101ff565b61034384610214565b81016020851015610352578190505b61036661035e85610214565b830182610305565b50505b505050565b600082821c905092915050565b600061038c6000198460080261036e565b1980831691505092915050565b60006103a5838361037b565b9150826002028217905092915050565b6103be82610165565b67ffffffffffffffff8111156103d7576103d6610170565b5b6103e182546101ce565b6103ec828285610328565b600060209050601f83116001811461041f576000841561040d578287015190505b6104178582610399565b86555061047f565b601f19841661042d866101ff565b60005b8281101561045557848901518255600182019150602085019450602081019050610430565b86831015610472578489015161046e601f89168261037b565b8355505b6001600288020188555050505b505050505050565b61142e806104966000396000f3fe608060405234801561001057600080fd5b50600436106101005760003560e01c80638da5cb5b11610097578063bec4de3f11610066578063bec4de3f146102eb578063dd62ed3e14610309578063f7b2a7be14610339578063f934d6fa1461035757610100565b80638da5cb5b1461024f57806395d89b411461026d578063a6afd7db1461028b578063a9059cbb146102bb57610100565b806326754a11116100d357806326754a11146101a1578063313ce567146101d157806347e851fa146101ef57806370a082311461021f57610100565b806306fdde0314610105578063095ea7b31461012357806318160ddd1461015357806323b872dd14610171575b600080fd5b61010d610387565b60405161011a9190610ed5565b60405180910390f35b61013d60048036038101906101389190610f90565b610415565b60405161014a9190610feb565b60405180910390f35b61015b6104fd565b6040516101689190611015565b60405180910390f35b61018b60048036038101906101869190611030565b610503565b6040516101989190610feb565b60405180910390f35b6101bb60048036038101906101b69190611083565b61082e565b6040516101c89190610feb565b60405180910390f35b6101d9610887565b6040516101e691906110cc565b60405180910390f35b61020960048036038101906102049190611083565b61089a565b6040516102169190611015565b60405180910390f35b61023960048036038101906102349190611083565b6108e3565b6040516102469190611015565b60405180910390f35b6102576108fb565b60405161026491906110f6565b60405180910390f35b610275610921565b6040516102829190610ed5565b60405180910390f35b6102a560048036038101906102a09190611083565b6109af565b6040516102b29190610feb565b60405180910390f35b6102d560048036038101906102d09190610f90565b610c24565b6040516102e29190610feb565b60405180910390f35b6102f3610dfc565b6040516103009190611015565b60405180910390f35b610323600480360381019061031e9190611111565b610e02565b6040516103309190611015565b60405180910390f35b610341610e27565b60405161034e9190611015565b60405180910390f35b610371600480360381019061036c9190611083565b610e2d565b60405161037e9190611015565b60405180910390f35b6000805461039490611180565b80601f01602080910402602001604051908101604052809291908181526020018280546103c090611180565b801561040d5780601f106103e25761010080835404028352916020019161040d565b820191906000526020600020905b8154815290600101906020018083116103f057829003601f168201915b505050505081565b600081600860003373ffffffffffffffffffffffffffffffffffffffff1673ffffffffffffffffffffffffffffffffffffffff16815260200190815260200160002060008573ffffffffffffffffffffffffffffffffffffffff1673ffffffffffffffffffffffffffffffffffffffff16815260200190815260200160002081905550818373ffffffffffffffffffffffffffffffffffffffff163373ffffffffffffffffffffffffffffffffffffffff167f6e11fb1b7f119e3f2fa29896ef5fdf8b8a2d0d4df6fe90ba8668e7d8b2ffa25e60405160405180910390a46001905092915050565b60035481565b600081600760008673ffffffffffffffffffffffffffffffffffffffff1673ffffffffffffffffffffffffffffffffffffffff168152602001908152602001600020541015610587576040517f08c379a000000000000000000000000000000000000000000000000000000000815260040161057e906111fd565b60405180910390fd5b600082116105ca576040517f08c379a00000000000000000000000000000000000000000000000000000000081526004016105c190611269565b60405180910390fd5b81600860008673ffffffffffffffffffffffffffffffffffffffff1673ffffffffffffffffffffffffffffffffffffffff16815260200190815260200160002060003373ffffffffffffffffffffffffffffffffffffffff1673ffffffffffffffffffffffffffffffffffffffff168152602001908152602001600020541015610689576040517f08c379a0000000000000000000000000000000000000000000000000000000008152600401610680906112d5565b60405180910390fd5b81600760008673ffffffffffffffffffffffffffffffffffffffff1673ffffffffffffffffffffffffffffffffffffffff16815260200190815260200160002060008282546106d89190611324565b9250508190555081600760008573ffffffffffffffffffffffffffffffffffffffff1673ffffffffffffffffffffffffffffffffffffffff168152602001908152602001600020600082825461072e9190611358565b9250508190555081600860008673ffffffffffffffffffffffffffffffffffffffff1673ffffffffffffffffffffffffffffffffffffffff16815260200190815260200160002060003373ffffffffffffffffffffffffffffffffffffffff1673ffffffffffffffffffffffffffffffffffffffff16815260200190815260200160002060008282546107c19190611324565b92505081905550818373ffffffffffffffffffffffffffffffffffffffff168573ffffffffffffffffffffffffffffffffffffffff167fddf252ad1be2c89b69c2b068fc378daa952ba7f163c4a11628f55a4df523b3ef60405160405180910390a4600190509392505050565b6000600654600960008473ffffffffffffffffffffffffffffffffffffffff1673ffffffffffffffffffffffffffffffffffffffff1681526020019081526020016000205461087d9190611358565b4210159050919050565b600260009054906101000a900460ff1681565b6000600760008373ffffffffffffffffffffffffffffffffffffffff1673ffffffffffffffffffffffffffffffffffffffff168152602001908152602001600020549050919050565b60076020528060005260406000206000915090505481565b600460009054906101000a900473ffffffffffffffffffffffffffffffffffffffff1681565b6001805461092e90611180565b80601f016020809104026020016040519081016040528092919081815260200182805461095a90611180565b80156109a75780601f1061097c576101008083540402835291602001916109a7565b820191906000526020600020905b81548152906001019060200180831161098a57829003601f168201915b505050505081565b6000600654600960008473ffffffffffffffffffffffffffffffffffffffff1673ffffffffffffffffffffffffffffffffffffffff168152602001908152602001600020546109fe9190611358565b421015610a40576040517f08c379a0000000000000000000000000000000000000000000000000000000008152600401610a37906113d8565b60405180910390fd5b600554600760008473ffffffffffffffffffffffffffffffffffffffff1673ffffffffffffffffffffffffffffffffffffffff1681526020019081526020016000206000828254610a919190611358565b9250508190555060055460076000600460009054906101000a900473ffffffffffffffffffffffffffffffffffffffff1673ffffffffffffffffffffffffffffffffffffffff1673ffffffffffffffffffffffffffffffffffffffff1681526020019081526020016000206000828254610b0b9190611324565b9250508190555042600960008473ffffffffffffffffffffffffffffffffffffffff1673ffffffffffffffffffffffffffffffffffffffff168152602001908152602001600020819055506005548273ffffffffffffffffffffffffffffffffffffffff167fb3b7a071186534c03b40695710096f289fd4ed6c1a374aff0bb648955e4fe56360405160405180910390a36005548273ffffffffffffffffffffffffffffffffffffffff16600460009054906101000a900473ffffffffffffffffffffffffffffffffffffffff1673ffffffffffffffffffffffffffffffffffffffff167fddf252ad1be2c89b69c2b068fc378daa952ba7f163c4a11628f55a4df523b3ef60405160405180910390a460019050919050565b600081600760003373ffffffffffffffffffffffffffffffffffffffff1673ffffffffffffffffffffffffffffffffffffffff168152602001908152602001600020541015610ca8576040517f08c379a0000000000000000000000000000000000000000000000000000000008152600401610c9f906111fd565b60405180910390fd5b60008211610ceb576040517f08c379a0000000000000000000000000000000000000000000000000000000008152600401610ce290611269565b60405180910390fd5b81600760003373ffffffffffffffffffffffffffffffffffffffff1673ffffffffffffffffffffffffffffffffffffffff1681526020019081526020016000206000828254610d3a9190611324565b9250508190555081600760008573ffffffffffffffffffffffffffffffffffffffff1673ffffffffffffffffffffffffffffffffffffffff1681526020019081526020016000206000828254610d909190611358565b92505081905550818373ffffffffffffffffffffffffffffffffffffffff163373ffffffffffffffffffffffffffffffffffffffff167fddf252ad1be2c89b69c2b068fc378daa952ba7f163c4a11628f55a4df523b3ef60405160405180910390a46001905092915050565b60065481565b6008602052816000526040600020602052806000526040600020600091509150505481565b60055481565b60096020528060005260406000206000915090505481565b600081519050919050565b600082825260208201905092915050565b60005b83811015610e7f578082015181840152602081019050610e64565b60008484015250505050565b6000601f19601f8301169050919050565b6000610ea782610e45565b610eb18185610e50565b9350610ec1818560208601610e61565b610eca81610e8b565b840191505092915050565b60006020820190508181036000830152610eef8184610e9c565b905092915050565b600080fd5b600073ffffffffffffffffffffffffffffffffffffffff82169050919050565b6000610f2782610efc565b9050919050565b610f3781610f1c565b8114610f4257600080fd5b50565b600081359050610f5481610f2e565b92915050565b6000819050919050565b610f6d81610f5a565b8114610f7857600080fd5b50565b600081359050610f8a81610f64565b92915050565b60008060408385031215610fa757610fa6610ef7565b5b6000610fb585828601610f45565b9250506020610fc685828601610f7b565b9150509250929050565b60008115159050919050565b610fe581610fd0565b82525050565b60006020820190506110006000830184610fdc565b92915050565b61100f81610f5a565b82525050565b600060208201905061102a6000830184611006565b92915050565b60008060006060848603121561104957611048610ef7565b5b600061105786828701610f45565b935050602061106886828701610f45565b925050604061107986828701610f7b565b9150509250925092565b60006020828403121561109957611098610ef7565b5b60006110a784828501610f45565b91505092915050565b600060ff82169050919050565b6110c6816110b0565b82525050565b60006020820190506110e160008301846110bd565b92915050565b6110f081610f1c565b82525050565b600060208201905061110b60008301846110e7565b92915050565b6000806040838503121561112857611127610ef7565b5b600061113685828601610f45565b925050602061114785828601610f45565b9150509250929050565b7f4e487b7100000000000000000000000000000000000000000000000000000000600052602260045260246000fd5b6000600282049050600182168061119857607f821691505b6020821081036111ab576111aa611151565b5b50919050565b7f496e73756666696369656e742062616c616e6365000000000000000000000000600082015250565b60006111e7601483610e50565b91506111f2826111b1565b602082019050919050565b60006020820190508181036000830152611216816111da565b9050919050565b7f416d6f756e742063616e6e6f74206265207a65726f206f72206c657373000000600082015250565b6000611253601d83610e50565b915061125e8261121d565b602082019050919050565b6000602082019050818103600083015261128281611246565b9050919050565b7f416c6c6f77616e63652065786365656465640000000000000000000000000000600082015250565b60006112bf601283610e50565b91506112ca82611289565b602082019050919050565b600060208201905081810360008301526112ee816112b2565b9050919050565b7f4e487b7100000000000000000000000000000000000000000000000000000000600052601160045260246000fd5b600061132f82610f5a565b915061133a83610f5a565b9250828203905081811115611352576113516112f5565b5b92915050565b600061136382610f5a565b915061136e83610f5a565b9250828201905080821115611386576113856112f5565b5b92915050565b7f52657761726420616c726561647920636c61696d656420746f64617900000000600082015250565b60006113c2601c83610e50565b91506113cd8261138c565b602082019050919050565b600060208201905081810360008301526113f1816113b5565b905091905056fea2646970667358221220f22324968aac9a6d15fe3941ac65538d2d0a5f0c08a676a35c7d4b431117cf5b64736f6c634300081b0033",
  "linkReferences": {},
  "deployedLinkReferences": {}
}