{
  "_format": "hh-sol-artifact-1",
  "contractName": "RewardToken",
  "sourceName": "contracts/RewardToken.sol",
  "abi": [
    {
      "inputs": [],
      "stateMutability": "nonpayable",
      "type": "constructor"
    },
    {
      "anonymous": false,
      "inputs": [
        {
          "indexed": true,
          "internalType": "address",
          "name": "from",
          "type": "address"
        },
        {
          "indexed": true,
          "internalType": "address",
          "name": "to",
          "type": "address"
        },
        {
          "indexed": true,
          "internalType": "uint256",
          "name": "amount",
          "type": "uint256"
        }
      ],
      "name": "Approve",
      "type": "event"
    },
    {
      "anonymous": false,
      "inputs": [
        {
          "indexed": true,
          "internalType": "address",
          "name": "user",
          "type": "address"
        },
        {
          "indexed": true,
          "internalType": "uint256",
          "name": "amount",
          "type": "uint256"
        }
      ],
      "name": "Rewarded",
      "type": "event"
    },
    {
      "anonymous": false,
      "inputs": [
        {
          "indexed": true,
          "internalType": "address",
          "name": "from",
          "type": "address"
        },
        {
          "indexed": true,
          "internalType": "address",
          "name": "to",
          "type": "address"
        },
        {
          "indexed": true,
          "internalType": "uint256",
          "name": "amount",
          "type": "uint256"
        }
      ],
      "name": "Transfer",
      "type": "event"
    },
    {
      "inputs": [
        {
          "internalType": "address",
          "name": "",
          "type": "address"
        },
        {
          "internalType": "address",
          "name": "",
          "type": "address"
        }
      ],
      "name": "allowance",
      "outputs": [
        {
          "internalType": "uint256",
          "name": "",
          "type": "uint256"
        }
      ],
      "stateMutability": "view",
      "type": "function"
    },
    {
      "inputs": [
        {
          "internalType": "address",
          "name": "_spender",
          "type": "address"
        },
        {
          "internalType": "uint256",
          "name": "_amount",
          "type": "uint256"
        }
      ],
      "name": "approve",
      "outputs": [
        {
          "internalType": "bool",
          "name": "success",
          "type": "bool"
        }
      ],
      "stateMutability": "nonpayable",
      "type": "function"
    },
    {
      "inputs": [
        {
          "internalType": "address",
          "name": "_user",
          "type": "address"
        }
      ],
      "name": "checkRewardEligibility",
      "outputs": [
        {
          "internalType": "bool",
          "name": "",
          "type": "bool"
        }
      ],
      "stateMutability": "view",
      "type": "function"
    },
    {
      "inputs": [],
      "name": "decimals",
      "outputs": [
        {
          "internalType": "uint8",
          "name": "",
          "type": "uint8"
        }
      ],
      "stateMutability": "view",
      "type": "function"
    },
    {
      "inputs": [
        {
          "internalType": "address",
          "name": "account",
          "type": "address"
        }
      ],
      "name": "getbalanceOf",
      "outputs": [
        {
          "internalType": "uint256",
          "name": "",
          "type": "uint256"
        }
      ],
      "stateMutability": "view",
      "type": "function"
    },
    {
      "inputs": [
        {
          "internalType": "address",
          "name": "",
          "type": "address"
        }
      ],
      "name": "lastRewarded",
      "outputs": [
        {
          "internalType": "uint256",
          "name": "",
          "type": "uint256"
        }
      ],
      "stateMutability": "view",
      "type": "function"
    },
    {
      "inputs": [],
      "name": "name",
      "outputs": [
        {
          "internalType": "string",
          "name": "",
          "type": "string"
        }
      ],
      "stateMutability": "view",
      "type": "function"
    },
    {
      "inputs": [],
      "name": "owner",
      "outputs": [
        {
          "internalType": "address",
          "name": "",
          "type": "address"
        }
      ],
      "stateMutability": "view",
      "type": "function"
    },
    {
      "inputs": [],
      "name": "rewardAmount",
      "outputs": [
        {
          "internalType": "uint256",
          "name": "",
          "type": "uint256"
        }
      ],
      "stateMutability": "view",
      "type": "function"
    },
    {
      "inputs": [],
      "name": "rewardInterval",
      "outputs": [
        {
          "internalType": "uint256",
          "name": "",
          "type": "uint256"
        }
      ],
      "stateMutability": "view",
      "type": "function"
    },
    {
      "inputs": [
        {
          "internalType": "address",
          "name": "_user",
          "type": "address"
        }
      ],
      "name": "rewardUser",
      "outputs": [
        {
          "internalType": "bool",
          "name": "success",
          "type": "bool"
        }
      ],
      "stateMutability": "nonpayable",
      "type": "function"
    },
    {
      "inputs": [],
      "name": "symbol",
      "outputs": [
        {
          "internalType": "string",
          "name": "",
          "type": "string"
        }
      ],
      "stateMutability": "view",
      "type": "function"
    },
    {
      "inputs": [],
      "name": "totalSupply",
      "outputs": [
        {
          "internalType": "uint256",
          "name": "",
          "type": "uint256"
        }
      ],
      "stateMutability": "view",
      "type": "function"
    },
    {
      "inputs": [
        {
          "internalType": "address",
          "name": "_to",
          "type": "address"
        },
        {
          "internalType": "uint256",
          "name": "_amount",
          "type": "uint256"
        }
      ],
      "name": "transfer",
      "outputs": [
        {
          "internalType": "bool",
          "name": "success",
          "type": "bool"
        }
      ],
      "stateMutability": "nonpayable",
      "type": "function"
    },
    {
      "inputs": [
        {
          "internalType": "address",
          "name": "_from",
          "type": "address"
        },
        {
          "internalType": "address",
          "name": "_to",
          "type": "address"
        },
        {
          "internalType": "uint256",
          "name": "_amount",
          "type": "uint256"
        }
      ],
      "name": "transferFrom",
      "outputs": [
        {
          "internalType": "bool",
          "name": "success",
          "type": "bool"
        }
      ],
      "stateMutability": "nonpayable",
      "type": "function"
    }
  ],
  "bytecode": "0x60806040526040518060400160405280600581526020017f4d617465580000000000000000000000000000000000000000000000000000008152506000908161004891906103b4565b506040518060400160405280600381526020017f4d545800000000000000000000000000000000000000000000000000000000008152506001908161008d91906103b4565b506012600260006101000a81548160ff021916908360ff16021790555069d3c21bcecceda1000000600355678ac7230489e80000600555620151806006553480156100d757600080fd5b50600354600760003373ffffffffffffffffffffffffffffffffffffffff1673ffffffffffffffffffffffffffffffffffffffff1681526020019081526020016000208190555033600460006101000a81548173ffffffffffffffffffffffffffffffffffffffff021916908373ffffffffffffffffffffffffffffffffffffffff160217905550610486565b600081519050919050565b7f4e487b7100000000000000000000000000000000000000000000000000000000600052604160045260246000fd5b7f4e487b7100000000000000000000000000000000000000000000000000000000600052602260045260246000fd5b600060028204905060018216806101e557607f821691505b6020821081036101f8576101f761019e565b5b50919050565b60008190508160005260206000209050919050565b60006020601f8301049050919050565b600082821b905092915050565b6000600883026102607fffffffffffffffffffffffffffffffffffffffffffffffffffffffffffffffff82610223565b61026a8683610223565b95508019841693508086168417925050509392505050565b6000819050919050565b6000819050919050565b60006102b16102ac6102a784610282565b61028c565b610282565b9050919050565b6000819050919050565b6102cb83610296565b6102df6102d7826102b8565b848454610230565b825550505050565b600090565b6102f46102e7565b6102ff8184846102c2565b505050565b5b81811015610323576103186000826102ec565b600181019050610305565b5050565b601f82111561036857610339816101fe565b61034284610213565b81016020851015610351578190505b61036561035d85610213565b830182610304565b50505b505050565b600082821c905092915050565b600061038b6000198460080261036d565b1980831691505092915050565b60006103a4838361037a565b9150826002028217905092915050565b6103bd82610164565b67ffffffffffffffff8111156103d6576103d561016f565b5b6103e082546101cd565b6103eb828285610327565b600060209050601f83116001811461041e576000841561040c578287015190505b6104168582610398565b86555061047e565b601f19841661042c866101fe565b60005b828110156104545784890151825560018201915060208501945060208101905061042f565b86831015610471578489015161046d601f89168261037a565b8355505b6001600288020188555050505b505050505050565b611513806104956000396000f3fe608060405234801561001057600080fd5b50600436106100f55760003560e01c80638da5cb5b11610097578063bec4de3f11610066578063bec4de3f146102b0578063dd62ed3e146102ce578063f7b2a7be146102fe578063f934d6fa1461031c576100f5565b80638da5cb5b1461021457806395d89b4114610232578063a6afd7db14610250578063a9059cbb14610280576100f5565b806323b872dd116100d357806323b872dd1461016657806326754a1114610196578063313ce567146101c657806347e851fa146101e4576100f5565b806306fdde03146100fa578063095ea7b31461011857806318160ddd14610148575b600080fd5b61010261034c565b60405161010f9190610f28565b60405180910390f35b610132600480360381019061012d9190610fe3565b6103da565b60405161013f919061103e565b60405180910390f35b6101506104c2565b60405161015d9190611068565b60405180910390f35b610180600480360381019061017b9190611083565b6104c8565b60405161018d919061103e565b60405180910390f35b6101b060048036038101906101ab91906110d6565b6107f3565b6040516101bd919061103e565b60405180910390f35b6101ce61084c565b6040516101db919061111f565b60405180910390f35b6101fe60048036038101906101f991906110d6565b61085f565b60405161020b9190611068565b60405180910390f35b61021c6108a8565b6040516102299190611149565b60405180910390f35b61023a6108ce565b6040516102479190610f28565b60405180910390f35b61026a600480360381019061026591906110d6565b61095c565b604051610277919061103e565b60405180910390f35b61029a60048036038101906102959190610fe3565b610c77565b6040516102a7919061103e565b60405180910390f35b6102b8610e4f565b6040516102c59190611068565b60405180910390f35b6102e860048036038101906102e39190611164565b610e55565b6040516102f59190611068565b60405180910390f35b610306610e7a565b6040516103139190611068565b60405180910390f35b610336600480360381019061033191906110d6565b610e80565b6040516103439190611068565b60405180910390f35b60008054610359906111d3565b80601f0160208091040260200160405190810160405280929190818152602001828054610385906111d3565b80156103d25780601f106103a7576101008083540402835291602001916103d2565b820191906000526020600020905b8154815290600101906020018083116103b557829003601f168201915b505050505081565b600081600860003373ffffffffffffffffffffffffffffffffffffffff1673ffffffffffffffffffffffffffffffffffffffff16815260200190815260200160002060008573ffffffffffffffffffffffffffffffffffffffff1673ffffffffffffffffffffffffffffffffffffffff16815260200190815260200160002081905550818373ffffffffffffffffffffffffffffffffffffffff163373ffffffffffffffffffffffffffffffffffffffff167f6e11fb1b7f119e3f2fa29896ef5fdf8b8a2d0d4df6fe90ba8668e7d8b2ffa25e60405160405180910390a46001905092915050565b60035481565b600081600760008673ffffffffffffffffffffffffffffffffffffffff1673ffffffffffffffffffffffffffffffffffffffff16815260200190815260200160002054101561054c576040517f08c379a000000000000000000000000000000000000000000000000000000000815260040161054390611250565b60405180910390fd5b6000821161058f576040517f08c379a0000000000000000000000000000000000000000000000000000000008152600401610586906112bc565b60405180910390fd5b81600860008673ffffffffffffffffffffffffffffffffffffffff1673ffffffffffffffffffffffffffffffffffffffff16815260200190815260200160002060003373ffffffffffffffffffffffffffffffffffffffff1673ffffffffffffffffffffffffffffffffffffffff16815260200190815260200160002054101561064e576040517f08c379a000000000000000000000000000000000000000000000000000000000815260040161064590611328565b60405180910390fd5b81600760008673ffffffffffffffffffffffffffffffffffffffff1673ffffffffffffffffffffffffffffffffffffffff168152602001908152602001600020600082825461069d9190611377565b9250508190555081600760008573ffffffffffffffffffffffffffffffffffffffff1673ffffffffffffffffffffffffffffffffffffffff16815260200190815260200160002060008282546106f391906113ab565b9250508190555081600860008673ffffffffffffffffffffffffffffffffffffffff1673ffffffffffffffffffffffffffffffffffffffff16815260200190815260200160002060003373ffffffffffffffffffffffffffffffffffffffff1673ffffffffffffffffffffffffffffffffffffffff16815260200190815260200160002060008282546107869190611377565b92505081905550818373ffffffffffffffffffffffffffffffffffffffff168573ffffffffffffffffffffffffffffffffffffffff167fddf252ad1be2c89b69c2b068fc378daa952ba7f163c4a11628f55a4df523b3ef60405160405180910390a4600190509392505050565b6000600654600960008473ffffffffffffffffffffffffffffffffffffffff1673ffffffffffffffffffffffffffffffffffffffff1681526020019081526020016000205461084291906113ab565b4210159050919050565b600260009054906101000a900460ff1681565b6000600760008373ffffffffffffffffffffffffffffffffffffffff1673ffffffffffffffffffffffffffffffffffffffff168152602001908152602001600020549050919050565b600460009054906101000a900473ffffffffffffffffffffffffffffffffffffffff1681565b600180546108db906111d3565b80601f0160208091040260200160405190810160405280929190818152602001828054610907906111d3565b80156109545780601f1061092957610100808354040283529160200191610954565b820191906000526020600020905b81548152906001019060200180831161093757829003601f168201915b505050505081565b600060055460076000600460009054906101000a900473ffffffffffffffffffffffffffffffffffffffff1673ffffffffffffffffffffffffffffffffffffffff1673ffffffffffffffffffffffffffffffffffffffff168152602001908152602001600020541015610a04576040517f08c379a00000000000000000000000000000000000000000000000000000000081526004016109fb90611451565b60405180910390fd5b600654600960008473ffffffffffffffffffffffffffffffffffffffff1673ffffffffffffffffffffffffffffffffffffffff16815260200190815260200160002054610a5191906113ab565b421015610a93576040517f08c379a0000000000000000000000000000000000000000000000000000000008152600401610a8a906114bd565b60405180910390fd5b600554600760008473ffffffffffffffffffffffffffffffffffffffff1673ffffffffffffffffffffffffffffffffffffffff1681526020019081526020016000206000828254610ae491906113ab565b9250508190555060055460076000600460009054906101000a900473ffffffffffffffffffffffffffffffffffffffff1673ffffffffffffffffffffffffffffffffffffffff1673ffffffffffffffffffffffffffffffffffffffff1681526020019081526020016000206000828254610b5e9190611377565b9250508190555042600960008473ffffffffffffffffffffffffffffffffffffffff1673ffffffffffffffffffffffffffffffffffffffff168152602001908152602001600020819055506005548273ffffffffffffffffffffffffffffffffffffffff167fb3b7a071186534c03b40695710096f289fd4ed6c1a374aff0bb648955e4fe56360405160405180910390a36005548273ffffffffffffffffffffffffffffffffffffffff16600460009054906101000a900473ffffffffffffffffffffffffffffffffffffffff1673ffffffffffffffffffffffffffffffffffffffff167fddf252ad1be2c89b69c2b068fc378daa952ba7f163c4a11628f55a4df523b3ef60405160405180910390a460019050919050565b600081600760003373ffffffffffffffffffffffffffffffffffffffff1673ffffffffffffffffffffffffffffffffffffffff168152602001908152602001600020541015610cfb576040517f08c379a0000000000000000000000000000000000000000000000000000000008152600401610cf290611250565b60405180910390fd5b60008211610d3e576040517f08c379a0000000000000000000000000000000000000000000000000000000008152600401610d35906112bc565b60405180910390fd5b81600760003373ffffffffffffffffffffffffffffffffffffffff1673ffffffffffffffffffffffffffffffffffffffff1681526020019081526020016000206000828254610d8d9190611377565b9250508190555081600760008573ffffffffffffffffffffffffffffffffffffffff1673ffffffffffffffffffffffffffffffffffffffff1681526020019081526020016000206000828254610de391906113ab565b92505081905550818373ffffffffffffffffffffffffffffffffffffffff163373ffffffffffffffffffffffffffffffffffffffff167fddf252ad1be2c89b69c2b068fc378daa952ba7f163c4a11628f55a4df523b3ef60405160405180910390a46001905092915050565b60065481565b6008602052816000526040600020602052806000526040600020600091509150505481565b60055481565b60096020528060005260406000206000915090505481565b600081519050919050565b600082825260208201905092915050565b60005b83811015610ed2578082015181840152602081019050610eb7565b60008484015250505050565b6000601f19601f8301169050919050565b6000610efa82610e98565b610f048185610ea3565b9350610f14818560208601610eb4565b610f1d81610ede565b840191505092915050565b60006020820190508181036000830152610f428184610eef565b905092915050565b600080fd5b600073ffffffffffffffffffffffffffffffffffffffff82169050919050565b6000610f7a82610f4f565b9050919050565b610f8a81610f6f565b8114610f9557600080fd5b50565b600081359050610fa781610f81565b92915050565b6000819050919050565b610fc081610fad565b8114610fcb57600080fd5b50565b600081359050610fdd81610fb7565b92915050565b60008060408385031215610ffa57610ff9610f4a565b5b600061100885828601610f98565b925050602061101985828601610fce565b9150509250929050565b60008115159050919050565b61103881611023565b82525050565b6000602082019050611053600083018461102f565b92915050565b61106281610fad565b82525050565b600060208201905061107d6000830184611059565b92915050565b60008060006060848603121561109c5761109b610f4a565b5b60006110aa86828701610f98565b93505060206110bb86828701610f98565b92505060406110cc86828701610fce565b9150509250925092565b6000602082840312156110ec576110eb610f4a565b5b60006110fa84828501610f98565b91505092915050565b600060ff82169050919050565b61111981611103565b82525050565b60006020820190506111346000830184611110565b92915050565b61114381610f6f565b82525050565b600060208201905061115e600083018461113a565b92915050565b6000806040838503121561117b5761117a610f4a565b5b600061118985828601610f98565b925050602061119a85828601610f98565b9150509250929050565b7f4e487b7100000000000000000000000000000000000000000000000000000000600052602260045260246000fd5b600060028204905060018216806111eb57607f821691505b6020821081036111fe576111fd6111a4565b5b50919050565b7f496e73756666696369656e742062616c616e6365000000000000000000000000600082015250565b600061123a601483610ea3565b915061124582611204565b602082019050919050565b600060208201905081810360008301526112698161122d565b9050919050565b7f416d6f756e742063616e6e6f74206265207a65726f206f72206c657373000000600082015250565b60006112a6601d83610ea3565b91506112b182611270565b602082019050919050565b600060208201905081810360008301526112d581611299565b9050919050565b7f416c6c6f77616e63652065786365656465640000000000000000000000000000600082015250565b6000611312601283610ea3565b915061131d826112dc565b602082019050919050565b6000602082019050818103600083015261134181611305565b9050919050565b7f4e487b7100000000000000000000000000000000000000000000000000000000600052601160045260246000fd5b600061138282610fad565b915061138d83610fad565b92508282039050818111156113a5576113a4611348565b5b92915050565b60006113b682610fad565b91506113c183610fad565b92508282019050808211156113d9576113d8611348565b5b92915050565b7f496e73756666696369656e74207265776172642062616c616e636520666f722060008201527f746865206f776e65720000000000000000000000000000000000000000000000602082015250565b600061143b602983610ea3565b9150611446826113df565b604082019050919050565b6000602082019050818103600083015261146a8161142e565b9050919050565b7f52657761726420616c726561647920636c61696d656420746f64617900000000600082015250565b60006114a7601c83610ea3565b91506114b282611471565b602082019050919050565b600060208201905081810360008301526114d68161149a565b905091905056fea2646970667358221220239658d16175137dad215ac987892da6e077d2cab56b56249de78efd114428ce64736f6c634300081b0033",
  "linkReferences": {},
  "deployedLinkReferences": {}
}