{
  "_format": "hh-sol-artifact-1",
  "contractName": "RewardToken",
  "sourceName": "contracts/RewardToken.sol",
  "abi": [
    {
      "inputs": [],
      "stateMutability": "nonpayable",
      "type": "constructor"
    },
    {
      "inputs": [
        {
          "internalType": "address",
          "name": "spender",
          "type": "address"
        },
        {
          "internalType": "uint256",
          "name": "allowance",
          "type": "uint256"
        },
        {
          "internalType": "uint256",
          "name": "needed",
          "type": "uint256"
        }
      ],
      "name": "ERC20InsufficientAllowance",
      "type": "error"
    },
    {
      "inputs": [
        {
          "internalType": "address",
          "name": "sender",
          "type": "address"
        },
        {
          "internalType": "uint256",
          "name": "balance",
          "type": "uint256"
        },
        {
          "internalType": "uint256",
          "name": "needed",
          "type": "uint256"
        }
      ],
      "name": "ERC20InsufficientBalance",
      "type": "error"
    },
    {
      "inputs": [
        {
          "internalType": "address",
          "name": "approver",
          "type": "address"
        }
      ],
      "name": "ERC20InvalidApprover",
      "type": "error"
    },
    {
      "inputs": [
        {
          "internalType": "address",
          "name": "receiver",
          "type": "address"
        }
      ],
      "name": "ERC20InvalidReceiver",
      "type": "error"
    },
    {
      "inputs": [
        {
          "internalType": "address",
          "name": "sender",
          "type": "address"
        }
      ],
      "name": "ERC20InvalidSender",
      "type": "error"
    },
    {
      "inputs": [
        {
          "internalType": "address",
          "name": "spender",
          "type": "address"
        }
      ],
      "name": "ERC20InvalidSpender",
      "type": "error"
    },
    {
      "anonymous": false,
      "inputs": [
        {
          "indexed": true,
          "internalType": "address",
          "name": "owner",
          "type": "address"
        },
        {
          "indexed": true,
          "internalType": "address",
          "name": "spender",
          "type": "address"
        },
        {
          "indexed": false,
          "internalType": "uint256",
          "name": "value",
          "type": "uint256"
        }
      ],
      "name": "Approval",
      "type": "event"
    },
    {
      "anonymous": false,
      "inputs": [
        {
          "indexed": true,
          "internalType": "address",
          "name": "from",
          "type": "address"
        },
        {
          "indexed": true,
          "internalType": "address",
          "name": "to",
          "type": "address"
        },
        {
          "indexed": true,
          "internalType": "uint256",
          "name": "amount",
          "type": "uint256"
        }
      ],
      "name": "Approve",
      "type": "event"
    },
    {
      "anonymous": false,
      "inputs": [
        {
          "indexed": true,
          "internalType": "address",
          "name": "user",
          "type": "address"
        },
        {
          "indexed": true,
          "internalType": "uint256",
          "name": "amount",
          "type": "uint256"
        }
      ],
      "name": "Rewarded",
      "type": "event"
    },
    {
      "anonymous": false,
      "inputs": [
        {
          "indexed": true,
          "internalType": "address",
          "name": "from",
          "type": "address"
        },
        {
          "indexed": true,
          "internalType": "address",
          "name": "to",
          "type": "address"
        },
        {
          "indexed": false,
          "internalType": "uint256",
          "name": "value",
          "type": "uint256"
        }
      ],
      "name": "Transfer",
      "type": "event"
    },
    {
      "inputs": [
        {
          "internalType": "address",
          "name": "owner",
          "type": "address"
        },
        {
          "internalType": "address",
          "name": "spender",
          "type": "address"
        }
      ],
      "name": "allowance",
      "outputs": [
        {
          "internalType": "uint256",
          "name": "",
          "type": "uint256"
        }
      ],
      "stateMutability": "view",
      "type": "function"
    },
    {
      "inputs": [
        {
          "internalType": "address",
          "name": "spender",
          "type": "address"
        },
        {
          "internalType": "uint256",
          "name": "value",
          "type": "uint256"
        }
      ],
      "name": "approve",
      "outputs": [
        {
          "internalType": "bool",
          "name": "",
          "type": "bool"
        }
      ],
      "stateMutability": "nonpayable",
      "type": "function"
    },
    {
      "inputs": [
        {
          "internalType": "address",
          "name": "account",
          "type": "address"
        }
      ],
      "name": "balanceOf",
      "outputs": [
        {
          "internalType": "uint256",
          "name": "",
          "type": "uint256"
        }
      ],
      "stateMutability": "view",
      "type": "function"
    },
    {
      "inputs": [
        {
          "internalType": "address",
          "name": "_user",
          "type": "address"
        }
      ],
      "name": "checkRewardEligibility",
      "outputs": [
        {
          "internalType": "bool",
          "name": "",
          "type": "bool"
        }
      ],
      "stateMutability": "view",
      "type": "function"
    },
    {
      "inputs": [],
      "name": "decimals",
      "outputs": [
        {
          "internalType": "uint8",
          "name": "",
          "type": "uint8"
        }
      ],
      "stateMutability": "view",
      "type": "function"
    },
    {
      "inputs": [
        {
          "internalType": "address",
          "name": "account",
          "type": "address"
        }
      ],
      "name": "getbalanceOf",
      "outputs": [
        {
          "internalType": "uint256",
          "name": "",
          "type": "uint256"
        }
      ],
      "stateMutability": "view",
      "type": "function"
    },
    {
      "inputs": [
        {
          "internalType": "address",
          "name": "",
          "type": "address"
        }
      ],
      "name": "lastRewarded",
      "outputs": [
        {
          "internalType": "uint256",
          "name": "",
          "type": "uint256"
        }
      ],
      "stateMutability": "view",
      "type": "function"
    },
    {
      "inputs": [],
      "name": "name",
      "outputs": [
        {
          "internalType": "string",
          "name": "",
          "type": "string"
        }
      ],
      "stateMutability": "view",
      "type": "function"
    },
    {
      "inputs": [],
      "name": "owner",
      "outputs": [
        {
          "internalType": "address",
          "name": "",
          "type": "address"
        }
      ],
      "stateMutability": "view",
      "type": "function"
    },
    {
      "inputs": [],
      "name": "rewardAmount",
      "outputs": [
        {
          "internalType": "uint256",
          "name": "",
          "type": "uint256"
        }
      ],
      "stateMutability": "view",
      "type": "function"
    },
    {
      "inputs": [],
      "name": "rewardInterval",
      "outputs": [
        {
          "internalType": "uint256",
          "name": "",
          "type": "uint256"
        }
      ],
      "stateMutability": "view",
      "type": "function"
    },
    {
      "inputs": [
        {
          "internalType": "address",
          "name": "_user",
          "type": "address"
        }
      ],
      "name": "rewardUser",
      "outputs": [
        {
          "internalType": "bool",
          "name": "success",
          "type": "bool"
        }
      ],
      "stateMutability": "nonpayable",
      "type": "function"
    },
    {
      "inputs": [],
      "name": "symbol",
      "outputs": [
        {
          "internalType": "string",
          "name": "",
          "type": "string"
        }
      ],
      "stateMutability": "view",
      "type": "function"
    },
    {
      "inputs": [],
      "name": "totalSupply",
      "outputs": [
        {
          "internalType": "uint256",
          "name": "",
          "type": "uint256"
        }
      ],
      "stateMutability": "view",
      "type": "function"
    },
    {
      "inputs": [
        {
          "internalType": "address",
          "name": "to",
          "type": "address"
        },
        {
          "internalType": "uint256",
          "name": "value",
          "type": "uint256"
        }
      ],
      "name": "transfer",
      "outputs": [
        {
          "internalType": "bool",
          "name": "",
          "type": "bool"
        }
      ],
      "stateMutability": "nonpayable",
      "type": "function"
    },
    {
      "inputs": [
        {
          "internalType": "address",
          "name": "from",
          "type": "address"
        },
        {
          "internalType": "address",
          "name": "to",
          "type": "address"
        },
        {
          "internalType": "uint256",
          "name": "value",
          "type": "uint256"
        }
      ],
      "name": "transferFrom",
      "outputs": [
        {
          "internalType": "bool",
          "name": "",
          "type": "bool"
        }
      ],
      "stateMutability": "nonpayable",
      "type": "function"
    }
  ],
  "bytecode": "0x6080604052678ac7230489e800006006556201518060075534801561002357600080fd5b506040518060400160405280600581526020017f4d617465580000000000000000000000000000000000000000000000000000008152506040518060400160405280600381526020017f4d54580000000000000000000000000000000000000000000000000000000000815250816003908161009f9190610612565b5080600490816100af9190610612565b5050506100cf336c0c9f2c9cd04674edea4000000061011560201b60201c565b33600560006101000a81548173ffffffffffffffffffffffffffffffffffffffff021916908373ffffffffffffffffffffffffffffffffffffffff160217905550610804565b600073ffffffffffffffffffffffffffffffffffffffff168273ffffffffffffffffffffffffffffffffffffffff16036101875760006040517fec442f0500000000000000000000000000000000000000000000000000000000815260040161017e9190610725565b60405180910390fd5b6101996000838361019d60201b60201c565b5050565b600073ffffffffffffffffffffffffffffffffffffffff168373ffffffffffffffffffffffffffffffffffffffff16036101ef5780600260008282546101e3919061076f565b925050819055506102c2565b60008060008573ffffffffffffffffffffffffffffffffffffffff1673ffffffffffffffffffffffffffffffffffffffff1681526020019081526020016000205490508181101561027b578381836040517fe450d38c000000000000000000000000000000000000000000000000000000008152600401610272939291906107b2565b60405180910390fd5b8181036000808673ffffffffffffffffffffffffffffffffffffffff1673ffffffffffffffffffffffffffffffffffffffff16815260200190815260200160002081905550505b600073ffffffffffffffffffffffffffffffffffffffff168273ffffffffffffffffffffffffffffffffffffffff160361030b5780600260008282540392505081905550610358565b806000808473ffffffffffffffffffffffffffffffffffffffff1673ffffffffffffffffffffffffffffffffffffffff168152602001908152602001600020600082825401925050819055505b8173ffffffffffffffffffffffffffffffffffffffff168373ffffffffffffffffffffffffffffffffffffffff167fddf252ad1be2c89b69c2b068fc378daa952ba7f163c4a11628f55a4df523b3ef836040516103b591906107e9565b60405180910390a3505050565b600081519050919050565b7f4e487b7100000000000000000000000000000000000000000000000000000000600052604160045260246000fd5b7f4e487b7100000000000000000000000000000000000000000000000000000000600052602260045260246000fd5b6000600282049050600182168061044357607f821691505b602082108103610456576104556103fc565b5b50919050565b60008190508160005260206000209050919050565b60006020601f8301049050919050565b600082821b905092915050565b6000600883026104be7fffffffffffffffffffffffffffffffffffffffffffffffffffffffffffffffff82610481565b6104c88683610481565b95508019841693508086168417925050509392505050565b6000819050919050565b6000819050919050565b600061050f61050a610505846104e0565b6104ea565b6104e0565b9050919050565b6000819050919050565b610529836104f4565b61053d61053582610516565b84845461048e565b825550505050565b600090565b610552610545565b61055d818484610520565b505050565b5b818110156105815761057660008261054a565b600181019050610563565b5050565b601f8211156105c6576105978161045c565b6105a084610471565b810160208510156105af578190505b6105c36105bb85610471565b830182610562565b50505b505050565b600082821c905092915050565b60006105e9600019846008026105cb565b1980831691505092915050565b600061060283836105d8565b9150826002028217905092915050565b61061b826103c2565b67ffffffffffffffff811115610634576106336103cd565b5b61063e825461042b565b610649828285610585565b600060209050601f83116001811461067c576000841561066a578287015190505b61067485826105f6565b8655506106dc565b601f19841661068a8661045c565b60005b828110156106b25784890151825560018201915060208501945060208101905061068d565b868310156106cf57848901516106cb601f8916826105d8565b8355505b6001600288020188555050505b505050505050565b600073ffffffffffffffffffffffffffffffffffffffff82169050919050565b600061070f826106e4565b9050919050565b61071f81610704565b82525050565b600060208201905061073a6000830184610716565b92915050565b7f4e487b7100000000000000000000000000000000000000000000000000000000600052601160045260246000fd5b600061077a826104e0565b9150610785836104e0565b925082820190508082111561079d5761079c610740565b5b92915050565b6107ac816104e0565b82525050565b60006060820190506107c76000830186610716565b6107d460208301856107a3565b6107e160408301846107a3565b949350505050565b60006020820190506107fe60008301846107a3565b92915050565b611546806108136000396000f3fe608060405234801561001057600080fd5b50600436106101005760003560e01c80638da5cb5b11610097578063bec4de3f11610066578063bec4de3f146102eb578063dd62ed3e14610309578063f7b2a7be14610339578063f934d6fa1461035757610100565b80638da5cb5b1461024f57806395d89b411461026d578063a6afd7db1461028b578063a9059cbb146102bb57610100565b806326754a11116100d357806326754a11146101a1578063313ce567146101d157806347e851fa146101ef57806370a082311461021f57610100565b806306fdde0314610105578063095ea7b31461012357806318160ddd1461015357806323b872dd14610171575b600080fd5b61010d610387565b60405161011a9190610ffc565b60405180910390f35b61013d600480360381019061013891906110b7565b610419565b60405161014a9190611112565b60405180910390f35b61015b61043c565b604051610168919061113c565b60405180910390f35b61018b60048036038101906101869190611157565b610446565b6040516101989190611112565b60405180910390f35b6101bb60048036038101906101b691906111aa565b610475565b6040516101c89190611112565b60405180910390f35b6101d96104ce565b6040516101e691906111f3565b60405180910390f35b610209600480360381019061020491906111aa565b6104d7565b604051610216919061113c565b60405180910390f35b610239600480360381019061023491906111aa565b6104e9565b604051610246919061113c565b60405180910390f35b610257610531565b604051610264919061121d565b60405180910390f35b610275610557565b6040516102829190610ffc565b60405180910390f35b6102a560048036038101906102a091906111aa565b6105e9565b6040516102b29190611112565b60405180910390f35b6102d560048036038101906102d091906110b7565b610900565b6040516102e29190611112565b60405180910390f35b6102f3610923565b604051610300919061113c565b60405180910390f35b610323600480360381019061031e9190611238565b610929565b604051610330919061113c565b60405180910390f35b6103416109b0565b60405161034e919061113c565b60405180910390f35b610371600480360381019061036c91906111aa565b6109b6565b60405161037e919061113c565b60405180910390f35b606060038054610396906112a7565b80601f01602080910402602001604051908101604052809291908181526020018280546103c2906112a7565b801561040f5780601f106103e45761010080835404028352916020019161040f565b820191906000526020600020905b8154815290600101906020018083116103f257829003601f168201915b5050505050905090565b6000806104246109ce565b90506104318185856109d6565b600191505092915050565b6000600254905090565b6000806104516109ce565b905061045e8582856109e8565b610469858585610a7c565b60019150509392505050565b6000600754600860008473ffffffffffffffffffffffffffffffffffffffff1673ffffffffffffffffffffffffffffffffffffffff168152602001908152602001600020546104c49190611307565b4210159050919050565b60006012905090565b60006104e2826104e9565b9050919050565b60008060008373ffffffffffffffffffffffffffffffffffffffff1673ffffffffffffffffffffffffffffffffffffffff168152602001908152602001600020549050919050565b600560009054906101000a900473ffffffffffffffffffffffffffffffffffffffff1681565b606060048054610566906112a7565b80601f0160208091040260200160405190810160405280929190818152602001828054610592906112a7565b80156105df5780601f106105b4576101008083540402835291602001916105df565b820191906000526020600020905b8154815290600101906020018083116105c257829003601f168201915b5050505050905090565b6000600560009054906101000a900473ffffffffffffffffffffffffffffffffffffffff1673ffffffffffffffffffffffffffffffffffffffff163373ffffffffffffffffffffffffffffffffffffffff161461067b576040517f08c379a000000000000000000000000000000000000000000000000000000000815260040161067290611387565b60405180910390fd5b6006546106a9600560009054906101000a900473ffffffffffffffffffffffffffffffffffffffff166104e9565b10156106ea576040517f08c379a00000000000000000000000000000000000000000000000000000000081526004016106e190611419565b60405180910390fd5b600754600860008473ffffffffffffffffffffffffffffffffffffffff1673ffffffffffffffffffffffffffffffffffffffff168152602001908152602001600020546107379190611307565b421015610779576040517f08c379a000000000000000000000000000000000000000000000000000000000815260040161077090611485565b60405180910390fd5b61078582600654610900565b506000610791836104e9565b9050600654816107a19190611307565b905060006107d0600560009054906101000a900473ffffffffffffffffffffffffffffffffffffffff166104e9565b9050600654816107e091906114a5565b905042600860008673ffffffffffffffffffffffffffffffffffffffff1673ffffffffffffffffffffffffffffffffffffffff168152602001908152602001600020819055506006548473ffffffffffffffffffffffffffffffffffffffff167fb3b7a071186534c03b40695710096f289fd4ed6c1a374aff0bb648955e4fe56360405160405180910390a38373ffffffffffffffffffffffffffffffffffffffff16600560009054906101000a900473ffffffffffffffffffffffffffffffffffffffff1673ffffffffffffffffffffffffffffffffffffffff167fddf252ad1be2c89b69c2b068fc378daa952ba7f163c4a11628f55a4df523b3ef6006546040516108ed919061113c565b60405180910390a3600192505050919050565b60008061090b6109ce565b9050610918818585610a7c565b600191505092915050565b60075481565b6000600160008473ffffffffffffffffffffffffffffffffffffffff1673ffffffffffffffffffffffffffffffffffffffff16815260200190815260200160002060008373ffffffffffffffffffffffffffffffffffffffff1673ffffffffffffffffffffffffffffffffffffffff16815260200190815260200160002054905092915050565b60065481565b60086020528060005260406000206000915090505481565b600033905090565b6109e38383836001610b70565b505050565b60006109f48484610929565b90507fffffffffffffffffffffffffffffffffffffffffffffffffffffffffffffffff8114610a765781811015610a66578281836040517ffb8f41b2000000000000000000000000000000000000000000000000000000008152600401610a5d939291906114d9565b60405180910390fd5b610a7584848484036000610b70565b5b50505050565b600073ffffffffffffffffffffffffffffffffffffffff168373ffffffffffffffffffffffffffffffffffffffff1603610aee5760006040517f96c6fd1e000000000000000000000000000000000000000000000000000000008152600401610ae5919061121d565b60405180910390fd5b600073ffffffffffffffffffffffffffffffffffffffff168273ffffffffffffffffffffffffffffffffffffffff1603610b605760006040517fec442f05000000000000000000000000000000000000000000000000000000008152600401610b57919061121d565b60405180910390fd5b610b6b838383610d47565b505050565b600073ffffffffffffffffffffffffffffffffffffffff168473ffffffffffffffffffffffffffffffffffffffff1603610be25760006040517fe602df05000000000000000000000000000000000000000000000000000000008152600401610bd9919061121d565b60405180910390fd5b600073ffffffffffffffffffffffffffffffffffffffff168373ffffffffffffffffffffffffffffffffffffffff1603610c545760006040517f94280d62000000000000000000000000000000000000000000000000000000008152600401610c4b919061121d565b60405180910390fd5b81600160008673ffffffffffffffffffffffffffffffffffffffff1673ffffffffffffffffffffffffffffffffffffffff16815260200190815260200160002060008573ffffffffffffffffffffffffffffffffffffffff1673ffffffffffffffffffffffffffffffffffffffff168152602001908152602001600020819055508015610d41578273ffffffffffffffffffffffffffffffffffffffff168473ffffffffffffffffffffffffffffffffffffffff167f8c5be1e5ebec7d5bd14f71427d1e84f3dd0314c0f7b2291e5b200ac8c7c3b92584604051610d38919061113c565b60405180910390a35b50505050565b600073ffffffffffffffffffffffffffffffffffffffff168373ffffffffffffffffffffffffffffffffffffffff1603610d99578060026000828254610d8d9190611307565b92505081905550610e6c565b60008060008573ffffffffffffffffffffffffffffffffffffffff1673ffffffffffffffffffffffffffffffffffffffff16815260200190815260200160002054905081811015610e25578381836040517fe450d38c000000000000000000000000000000000000000000000000000000008152600401610e1c939291906114d9565b60405180910390fd5b8181036000808673ffffffffffffffffffffffffffffffffffffffff1673ffffffffffffffffffffffffffffffffffffffff16815260200190815260200160002081905550505b600073ffffffffffffffffffffffffffffffffffffffff168273ffffffffffffffffffffffffffffffffffffffff1603610eb55780600260008282540392505081905550610f02565b806000808473ffffffffffffffffffffffffffffffffffffffff1673ffffffffffffffffffffffffffffffffffffffff168152602001908152602001600020600082825401925050819055505b8173ffffffffffffffffffffffffffffffffffffffff168373ffffffffffffffffffffffffffffffffffffffff167fddf252ad1be2c89b69c2b068fc378daa952ba7f163c4a11628f55a4df523b3ef83604051610f5f919061113c565b60405180910390a3505050565b600081519050919050565b600082825260208201905092915050565b60005b83811015610fa6578082015181840152602081019050610f8b565b60008484015250505050565b6000601f19601f8301169050919050565b6000610fce82610f6c565b610fd88185610f77565b9350610fe8818560208601610f88565b610ff181610fb2565b840191505092915050565b600060208201905081810360008301526110168184610fc3565b905092915050565b600080fd5b600073ffffffffffffffffffffffffffffffffffffffff82169050919050565b600061104e82611023565b9050919050565b61105e81611043565b811461106957600080fd5b50565b60008135905061107b81611055565b92915050565b6000819050919050565b61109481611081565b811461109f57600080fd5b50565b6000813590506110b18161108b565b92915050565b600080604083850312156110ce576110cd61101e565b5b60006110dc8582860161106c565b92505060206110ed858286016110a2565b9150509250929050565b60008115159050919050565b61110c816110f7565b82525050565b60006020820190506111276000830184611103565b92915050565b61113681611081565b82525050565b6000602082019050611151600083018461112d565b92915050565b6000806000606084860312156111705761116f61101e565b5b600061117e8682870161106c565b935050602061118f8682870161106c565b92505060406111a0868287016110a2565b9150509250925092565b6000602082840312156111c0576111bf61101e565b5b60006111ce8482850161106c565b91505092915050565b600060ff82169050919050565b6111ed816111d7565b82525050565b600060208201905061120860008301846111e4565b92915050565b61121781611043565b82525050565b6000602082019050611232600083018461120e565b92915050565b6000806040838503121561124f5761124e61101e565b5b600061125d8582860161106c565b925050602061126e8582860161106c565b9150509250929050565b7f4e487b7100000000000000000000000000000000000000000000000000000000600052602260045260246000fd5b600060028204905060018216806112bf57607f821691505b6020821081036112d2576112d1611278565b5b50919050565b7f4e487b7100000000000000000000000000000000000000000000000000000000600052601160045260246000fd5b600061131282611081565b915061131d83611081565b9250828201905080821115611335576113346112d8565b5b92915050565b7f4f6e6c79206f776e65722063616e207265776172640000000000000000000000600082015250565b6000611371601583610f77565b915061137c8261133b565b602082019050919050565b600060208201905081810360008301526113a081611364565b9050919050565b7f496e73756666696369656e74207265776172642062616c616e636520666f722060008201527f746865206f776e65720000000000000000000000000000000000000000000000602082015250565b6000611403602983610f77565b915061140e826113a7565b604082019050919050565b60006020820190508181036000830152611432816113f6565b9050919050565b7f52657761726420616c726561647920636c61696d656420746f64617900000000600082015250565b600061146f601c83610f77565b915061147a82611439565b602082019050919050565b6000602082019050818103600083015261149e81611462565b9050919050565b60006114b082611081565b91506114bb83611081565b92508282039050818111156114d3576114d26112d8565b5b92915050565b60006060820190506114ee600083018661120e565b6114fb602083018561112d565b611508604083018461112d565b94935050505056fea2646970667358221220b7a088f5f0d1aad38bb3e83e81cee0c8757538ba9878a5a9da87a24e2662de0764736f6c634300081b0033",
  "linkReferences": {},
  "deployedLinkReferences": {}
}