{
  "_format": "hh-sol-artifact-1",
  "contractName": "ProfileData",
  "sourceName": "contracts/ProfileData.sol",
  "abi": [
    {
      "anonymous": false,
      "inputs": [
        {
          "indexed": true,
          "internalType": "address",
          "name": "user",
          "type": "address"
        },
        {
          "indexed": false,
          "internalType": "string",
          "name": "hash",
          "type": "string"
        }
      ],
      "name": "UpdatedHash",
      "type": "event"
    },
    {
      "inputs": [
        {
          "internalType": "address",
          "name": "user",
          "type": "address"
        }
      ],
      "name": "fetchUserProfileHash",
      "outputs": [
        {
          "internalType": "string",
          "name": "",
          "type": "string"
        }
      ],
      "stateMutability": "view",
      "type": "function"
    },
    {
      "inputs": [],
      "name": "getAllProfiles",
      "outputs": [
        {
          "internalType": "string",
          "name": "",
          "type": "string"
        }
      ],
      "stateMutability": "view",
      "type": "function"
    },
    {
      "inputs": [],
      "name": "s_globalProfileHash",
      "outputs": [
        {
          "internalType": "string",
          "name": "",
          "type": "string"
        }
      ],
      "stateMutability": "view",
      "type": "function"
    },
    {
      "inputs": [
        {
          "internalType": "string",
          "name": "newHash",
          "type": "string"
        }
      ],
      "name": "updateProfileHash",
      "outputs": [],
      "stateMutability": "nonpayable",
      "type": "function"
    }
  ],
  "bytecode": "0x6080604052348015600f57600080fd5b506109658061001f6000396000f3fe608060405234801561001057600080fd5b506004361061004c5760003560e01c80630448ea53146100515780630b1fe7841461006d578063ca2637641461008b578063fd72a961146100a9575b600080fd5b61006b600480360381019061006691906104d2565b6100d9565b005b610075610187565b604051610082919061059a565b60405180910390f35b610093610219565b6040516100a0919061059a565b60405180910390f35b6100c360048036038101906100be919061061a565b6102a7565b6040516100d0919061059a565b60405180910390f35b80600160003373ffffffffffffffffffffffffffffffffffffffff1673ffffffffffffffffffffffffffffffffffffffff1681526020019081526020016000209081610125919061085d565b508060009081610135919061085d565b503373ffffffffffffffffffffffffffffffffffffffff167f833939297f67035bb296f5ae13b1d41939d34ea8bd3c9139dc2b34c297bee1d38260405161017c919061059a565b60405180910390a250565b60606000805461019690610676565b80601f01602080910402602001604051908101604052809291908181526020018280546101c290610676565b801561020f5780601f106101e45761010080835404028352916020019161020f565b820191906000526020600020905b8154815290600101906020018083116101f257829003601f168201915b5050505050905090565b6000805461022690610676565b80601f016020809104026020016040519081016040528092919081815260200182805461025290610676565b801561029f5780601f106102745761010080835404028352916020019161029f565b820191906000526020600020905b81548152906001019060200180831161028257829003601f168201915b505050505081565b6060600160008373ffffffffffffffffffffffffffffffffffffffff1673ffffffffffffffffffffffffffffffffffffffff16815260200190815260200160002080546102f390610676565b80601f016020809104026020016040519081016040528092919081815260200182805461031f90610676565b801561036c5780601f106103415761010080835404028352916020019161036c565b820191906000526020600020905b81548152906001019060200180831161034f57829003601f168201915b50505050509050919050565b6000604051905090565b600080fd5b600080fd5b600080fd5b600080fd5b6000601f19601f8301169050919050565b7f4e487b7100000000000000000000000000000000000000000000000000000000600052604160045260246000fd5b6103df82610396565b810181811067ffffffffffffffff821117156103fe576103fd6103a7565b5b80604052505050565b6000610411610378565b905061041d82826103d6565b919050565b600067ffffffffffffffff82111561043d5761043c6103a7565b5b61044682610396565b9050602081019050919050565b82818337600083830152505050565b600061047561047084610422565b610407565b90508281526020810184848401111561049157610490610391565b5b61049c848285610453565b509392505050565b600082601f8301126104b9576104b861038c565b5b81356104c9848260208601610462565b91505092915050565b6000602082840312156104e8576104e7610382565b5b600082013567ffffffffffffffff81111561050657610505610387565b5b610512848285016104a4565b91505092915050565b600081519050919050565b600082825260208201905092915050565b60005b8381101561055557808201518184015260208101905061053a565b60008484015250505050565b600061056c8261051b565b6105768185610526565b9350610586818560208601610537565b61058f81610396565b840191505092915050565b600060208201905081810360008301526105b48184610561565b905092915050565b600073ffffffffffffffffffffffffffffffffffffffff82169050919050565b60006105e7826105bc565b9050919050565b6105f7816105dc565b811461060257600080fd5b50565b600081359050610614816105ee565b92915050565b6000602082840312156106305761062f610382565b5b600061063e84828501610605565b91505092915050565b7f4e487b7100000000000000000000000000000000000000000000000000000000600052602260045260246000fd5b6000600282049050600182168061068e57607f821691505b6020821081036106a1576106a0610647565b5b50919050565b60008190508160005260206000209050919050565b60006020601f8301049050919050565b600082821b905092915050565b6000600883026107097fffffffffffffffffffffffffffffffffffffffffffffffffffffffffffffffff826106cc565b61071386836106cc565b95508019841693508086168417925050509392505050565b6000819050919050565b6000819050919050565b600061075a6107556107508461072b565b610735565b61072b565b9050919050565b6000819050919050565b6107748361073f565b61078861078082610761565b8484546106d9565b825550505050565b600090565b61079d610790565b6107a881848461076b565b505050565b5b818110156107cc576107c1600082610795565b6001810190506107ae565b5050565b601f821115610811576107e2816106a7565b6107eb846106bc565b810160208510156107fa578190505b61080e610806856106bc565b8301826107ad565b50505b505050565b600082821c905092915050565b600061083460001984600802610816565b1980831691505092915050565b600061084d8383610823565b9150826002028217905092915050565b6108668261051b565b67ffffffffffffffff81111561087f5761087e6103a7565b5b6108898254610676565b6108948282856107d0565b600060209050601f8311600181146108c757600084156108b5578287015190505b6108bf8582610841565b865550610927565b601f1984166108d5866106a7565b60005b828110156108fd578489015182556001820191506020850194506020810190506108d8565b8683101561091a5784890151610916601f891682610823565b8355505b6001600288020188555050505b50505050505056fea26469706673582212208028a91876ac9e9762bd42cef078abb9a6ac1a18c8f7c7253f4a35487bf573e064736f6c634300081b0033",
  "linkReferences": {},
  "deployedLinkReferences": {}
}