{
  "_format": "hh-sol-artifact-1",
  "contractName": "Nft",
  "sourceName": "contracts/NFT.sol",
  "abi": [
    {
      "inputs": [
        {
          "internalType": "string",
          "name": "name",
          "type": "string"
        },
        {
          "internalType": "string",
          "name": "symbol",
          "type": "string"
        },
        {
          "internalType": "address",
          "name": "initialOwner",
          "type": "address"
        }
      ],
      "stateMutability": "nonpayable",
      "type": "constructor"
    },
    {
      "inputs": [
        {
          "internalType": "address",
          "name": "sender",
          "type": "address"
        },
        {
          "internalType": "uint256",
          "name": "tokenId",
          "type": "uint256"
        },
        {
          "internalType": "address",
          "name": "owner",
          "type": "address"
        }
      ],
      "name": "ERC721IncorrectOwner",
      "type": "error"
    },
    {
      "inputs": [
        {
          "internalType": "address",
          "name": "operator",
          "type": "address"
        },
        {
          "internalType": "uint256",
          "name": "tokenId",
          "type": "uint256"
        }
      ],
      "name": "ERC721InsufficientApproval",
      "type": "error"
    },
    {
      "inputs": [
        {
          "internalType": "address",
          "name": "approver",
          "type": "address"
        }
      ],
      "name": "ERC721InvalidApprover",
      "type": "error"
    },
    {
      "inputs": [
        {
          "internalType": "address",
          "name": "operator",
          "type": "address"
        }
      ],
      "name": "ERC721InvalidOperator",
      "type": "error"
    },
    {
      "inputs": [
        {
          "internalType": "address",
          "name": "owner",
          "type": "address"
        }
      ],
      "name": "ERC721InvalidOwner",
      "type": "error"
    },
    {
      "inputs": [
        {
          "internalType": "address",
          "name": "receiver",
          "type": "address"
        }
      ],
      "name": "ERC721InvalidReceiver",
      "type": "error"
    },
    {
      "inputs": [
        {
          "internalType": "address",
          "name": "sender",
          "type": "address"
        }
      ],
      "name": "ERC721InvalidSender",
      "type": "error"
    },
    {
      "inputs": [
        {
          "internalType": "uint256",
          "name": "tokenId",
          "type": "uint256"
        }
      ],
      "name": "ERC721NonexistentToken",
      "type": "error"
    },
    {
      "inputs": [
        {
          "internalType": "address",
          "name": "owner",
          "type": "address"
        }
      ],
      "name": "OwnableInvalidOwner",
      "type": "error"
    },
    {
      "inputs": [
        {
          "internalType": "address",
          "name": "account",
          "type": "address"
        }
      ],
      "name": "OwnableUnauthorizedAccount",
      "type": "error"
    },
    {
      "anonymous": false,
      "inputs": [
        {
          "indexed": true,
          "internalType": "address",
          "name": "owner",
          "type": "address"
        },
        {
          "indexed": true,
          "internalType": "address",
          "name": "approved",
          "type": "address"
        },
        {
          "indexed": true,
          "internalType": "uint256",
          "name": "tokenId",
          "type": "uint256"
        }
      ],
      "name": "Approval",
      "type": "event"
    },
    {
      "anonymous": false,
      "inputs": [
        {
          "indexed": true,
          "internalType": "address",
          "name": "owner",
          "type": "address"
        },
        {
          "indexed": true,
          "internalType": "address",
          "name": "operator",
          "type": "address"
        },
        {
          "indexed": false,
          "internalType": "bool",
          "name": "approved",
          "type": "bool"
        }
      ],
      "name": "ApprovalForAll",
      "type": "event"
    },
    {
      "anonymous": false,
      "inputs": [
        {
          "indexed": false,
          "internalType": "uint256",
          "name": "_fromTokenId",
          "type": "uint256"
        },
        {
          "indexed": false,
          "internalType": "uint256",
          "name": "_toTokenId",
          "type": "uint256"
        }
      ],
      "name": "BatchMetadataUpdate",
      "type": "event"
    },
    {
      "anonymous": false,
      "inputs": [
        {
          "indexed": false,
          "internalType": "uint256",
          "name": "_tokenId",
          "type": "uint256"
        }
      ],
      "name": "MetadataUpdate",
      "type": "event"
    },
    {
      "anonymous": false,
      "inputs": [
        {
          "indexed": true,
          "internalType": "address",
          "name": "previousOwner",
          "type": "address"
        },
        {
          "indexed": true,
          "internalType": "address",
          "name": "newOwner",
          "type": "address"
        }
      ],
      "name": "OwnershipTransferred",
      "type": "event"
    },
    {
      "anonymous": false,
      "inputs": [
        {
          "indexed": true,
          "internalType": "address",
          "name": "from",
          "type": "address"
        },
        {
          "indexed": true,
          "internalType": "address",
          "name": "to",
          "type": "address"
        },
        {
          "indexed": true,
          "internalType": "uint256",
          "name": "tokenId",
          "type": "uint256"
        }
      ],
      "name": "Transfer",
      "type": "event"
    },
    {
      "inputs": [
        {
          "internalType": "address",
          "name": "to",
          "type": "address"
        },
        {
          "internalType": "uint256",
          "name": "tokenId",
          "type": "uint256"
        }
      ],
      "name": "approve",
      "outputs": [],
      "stateMutability": "nonpayable",
      "type": "function"
    },
    {
      "inputs": [
        {
          "internalType": "address",
          "name": "owner",
          "type": "address"
        }
      ],
      "name": "balanceOf",
      "outputs": [
        {
          "internalType": "uint256",
          "name": "",
          "type": "uint256"
        }
      ],
      "stateMutability": "view",
      "type": "function"
    },
    {
      "inputs": [
        {
          "internalType": "uint256",
          "name": "tokenId",
          "type": "uint256"
        },
        {
          "internalType": "address",
          "name": "user",
          "type": "address"
        }
      ],
      "name": "checkAccess",
      "outputs": [
        {
          "internalType": "bool",
          "name": "",
          "type": "bool"
        }
      ],
      "stateMutability": "view",
      "type": "function"
    },
    {
      "inputs": [
        {
          "internalType": "uint256",
          "name": "tokenId",
          "type": "uint256"
        }
      ],
      "name": "getApproved",
      "outputs": [
        {
          "internalType": "address",
          "name": "",
          "type": "address"
        }
      ],
      "stateMutability": "view",
      "type": "function"
    },
    {
      "inputs": [
        {
          "internalType": "address",
          "name": "owner",
          "type": "address"
        },
        {
          "internalType": "address",
          "name": "operator",
          "type": "address"
        }
      ],
      "name": "isApprovedForAll",
      "outputs": [
        {
          "internalType": "bool",
          "name": "",
          "type": "bool"
        }
      ],
      "stateMutability": "view",
      "type": "function"
    },
    {
      "inputs": [
        {
          "internalType": "address",
          "name": "_to",
          "type": "address"
        },
        {
          "internalType": "uint256",
          "name": "tokenId",
          "type": "uint256"
        },
        {
          "internalType": "string",
          "name": "_uri",
          "type": "string"
        },
        {
          "internalType": "uint256",
          "name": "price",
          "type": "uint256"
        },
        {
          "internalType": "bool",
          "name": "isOneTimeSale",
          "type": "bool"
        }
      ],
      "name": "mint",
      "outputs": [],
      "stateMutability": "nonpayable",
      "type": "function"
    },
    {
      "inputs": [],
      "name": "name",
      "outputs": [
        {
          "internalType": "string",
          "name": "",
          "type": "string"
        }
      ],
      "stateMutability": "view",
      "type": "function"
    },
    {
      "inputs": [
        {
          "internalType": "uint256",
          "name": "",
          "type": "uint256"
        }
      ],
      "name": "nftFeed",
      "outputs": [
        {
          "internalType": "uint256",
          "name": "tokenId",
          "type": "uint256"
        },
        {
          "internalType": "address",
          "name": "creator",
          "type": "address"
        },
        {
          "internalType": "string",
          "name": "tokenURI",
          "type": "string"
        },
        {
          "internalType": "uint256",
          "name": "price",
          "type": "uint256"
        },
        {
          "internalType": "bool",
          "name": "isOneTimeSale",
          "type": "bool"
        }
      ],
      "stateMutability": "view",
      "type": "function"
    },
    {
      "inputs": [
        {
          "internalType": "uint256",
          "name": "",
          "type": "uint256"
        }
      ],
      "name": "nfts",
      "outputs": [
        {
          "internalType": "uint256",
          "name": "tokenId",
          "type": "uint256"
        },
        {
          "internalType": "address",
          "name": "creator",
          "type": "address"
        },
        {
          "internalType": "string",
          "name": "tokenURI",
          "type": "string"
        },
        {
          "internalType": "uint256",
          "name": "price",
          "type": "uint256"
        },
        {
          "internalType": "bool",
          "name": "isOneTimeSale",
          "type": "bool"
        }
      ],
      "stateMutability": "view",
      "type": "function"
    },
    {
      "inputs": [],
      "name": "owner",
      "outputs": [
        {
          "internalType": "address",
          "name": "",
          "type": "address"
        }
      ],
      "stateMutability": "view",
      "type": "function"
    },
    {
      "inputs": [
        {
          "internalType": "uint256",
          "name": "tokenId",
          "type": "uint256"
        }
      ],
      "name": "ownerOf",
      "outputs": [
        {
          "internalType": "address",
          "name": "",
          "type": "address"
        }
      ],
      "stateMutability": "view",
      "type": "function"
    },
    {
      "inputs": [
        {
          "internalType": "uint256",
          "name": "tokenId",
          "type": "uint256"
        }
      ],
      "name": "purchaseNFT",
      "outputs": [],
      "stateMutability": "payable",
      "type": "function"
    },
    {
      "inputs": [],
      "name": "renounceOwnership",
      "outputs": [],
      "stateMutability": "nonpayable",
      "type": "function"
    },
    {
      "inputs": [
        {
          "internalType": "address",
          "name": "from",
          "type": "address"
        },
        {
          "internalType": "address",
          "name": "to",
          "type": "address"
        },
        {
          "internalType": "uint256",
          "name": "tokenId",
          "type": "uint256"
        }
      ],
      "name": "safeTransferFrom",
      "outputs": [],
      "stateMutability": "nonpayable",
      "type": "function"
    },
    {
      "inputs": [
        {
          "internalType": "address",
          "name": "from",
          "type": "address"
        },
        {
          "internalType": "address",
          "name": "to",
          "type": "address"
        },
        {
          "internalType": "uint256",
          "name": "tokenId",
          "type": "uint256"
        },
        {
          "internalType": "bytes",
          "name": "data",
          "type": "bytes"
        }
      ],
      "name": "safeTransferFrom",
      "outputs": [],
      "stateMutability": "nonpayable",
      "type": "function"
    },
    {
      "inputs": [
        {
          "internalType": "address",
          "name": "operator",
          "type": "address"
        },
        {
          "internalType": "bool",
          "name": "approved",
          "type": "bool"
        }
      ],
      "name": "setApprovalForAll",
      "outputs": [],
      "stateMutability": "nonpayable",
      "type": "function"
    },
    {
      "inputs": [
        {
          "internalType": "bytes4",
          "name": "interfaceId",
          "type": "bytes4"
        }
      ],
      "name": "supportsInterface",
      "outputs": [
        {
          "internalType": "bool",
          "name": "",
          "type": "bool"
        }
      ],
      "stateMutability": "view",
      "type": "function"
    },
    {
      "inputs": [],
      "name": "symbol",
      "outputs": [
        {
          "internalType": "string",
          "name": "",
          "type": "string"
        }
      ],
      "stateMutability": "view",
      "type": "function"
    },
    {
      "inputs": [
        {
          "internalType": "uint256",
          "name": "tokenId",
          "type": "uint256"
        }
      ],
      "name": "tokenURI",
      "outputs": [
        {
          "internalType": "string",
          "name": "",
          "type": "string"
        }
      ],
      "stateMutability": "view",
      "type": "function"
    },
    {
      "inputs": [
        {
          "internalType": "address",
          "name": "from",
          "type": "address"
        },
        {
          "internalType": "address",
          "name": "to",
          "type": "address"
        },
        {
          "internalType": "uint256",
          "name": "tokenId",
          "type": "uint256"
        }
      ],
      "name": "transferFrom",
      "outputs": [],
      "stateMutability": "nonpayable",
      "type": "function"
    },
    {
      "inputs": [
        {
          "internalType": "address",
          "name": "newOwner",
          "type": "address"
        }
      ],
      "name": "transferOwnership",
      "outputs": [],
      "stateMutability": "nonpayable",
      "type": "function"
    }
  ],
  "bytecode": "0x608060405234801561001057600080fd5b506040516135c33803806135c38339818101604052810190610032919061037a565b80838381600090816100449190610626565b5080600190816100549190610626565b505050600073ffffffffffffffffffffffffffffffffffffffff168173ffffffffffffffffffffffffffffffffffffffff16036100c95760006040517f1e4fbdf70000000000000000000000000000000000000000000000000000000081526004016100c09190610707565b60405180910390fd5b6100d8816100e160201b60201c565b50505050610722565b6000600760009054906101000a900473ffffffffffffffffffffffffffffffffffffffff16905081600760006101000a81548173ffffffffffffffffffffffffffffffffffffffff021916908373ffffffffffffffffffffffffffffffffffffffff1602179055508173ffffffffffffffffffffffffffffffffffffffff168173ffffffffffffffffffffffffffffffffffffffff167f8be0079c531659141344cd1fd0a4f28419497f9722a3daafe3b4186f6b6457e060405160405180910390a35050565b6000604051905090565b600080fd5b600080fd5b600080fd5b600080fd5b6000601f19601f8301169050919050565b7f4e487b7100000000000000000000000000000000000000000000000000000000600052604160045260246000fd5b61020e826101c5565b810181811067ffffffffffffffff8211171561022d5761022c6101d6565b5b80604052505050565b60006102406101a7565b905061024c8282610205565b919050565b600067ffffffffffffffff82111561026c5761026b6101d6565b5b610275826101c5565b9050602081019050919050565b60005b838110156102a0578082015181840152602081019050610285565b60008484015250505050565b60006102bf6102ba84610251565b610236565b9050828152602081018484840111156102db576102da6101c0565b5b6102e6848285610282565b509392505050565b600082601f830112610303576103026101bb565b5b81516103138482602086016102ac565b91505092915050565b600073ffffffffffffffffffffffffffffffffffffffff82169050919050565b60006103478261031c565b9050919050565b6103578161033c565b811461036257600080fd5b50565b6000815190506103748161034e565b92915050565b600080600060608486031215610393576103926101b1565b5b600084015167ffffffffffffffff8111156103b1576103b06101b6565b5b6103bd868287016102ee565b935050602084015167ffffffffffffffff8111156103de576103dd6101b6565b5b6103ea868287016102ee565b92505060406103fb86828701610365565b9150509250925092565b600081519050919050565b7f4e487b7100000000000000000000000000000000000000000000000000000000600052602260045260246000fd5b6000600282049050600182168061045757607f821691505b60208210810361046a57610469610410565b5b50919050565b60008190508160005260206000209050919050565b60006020601f8301049050919050565b600082821b905092915050565b6000600883026104d27fffffffffffffffffffffffffffffffffffffffffffffffffffffffffffffffff82610495565b6104dc8683610495565b95508019841693508086168417925050509392505050565b6000819050919050565b6000819050919050565b600061052361051e610519846104f4565b6104fe565b6104f4565b9050919050565b6000819050919050565b61053d83610508565b6105516105498261052a565b8484546104a2565b825550505050565b600090565b610566610559565b610571818484610534565b505050565b5b818110156105955761058a60008261055e565b600181019050610577565b5050565b601f8211156105da576105ab81610470565b6105b484610485565b810160208510156105c3578190505b6105d76105cf85610485565b830182610576565b50505b505050565b600082821c905092915050565b60006105fd600019846008026105df565b1980831691505092915050565b600061061683836105ec565b9150826002028217905092915050565b61062f82610405565b67ffffffffffffffff811115610648576106476101d6565b5b610652825461043f565b61065d828285610599565b600060209050601f831160018114610690576000841561067e578287015190505b610688858261060a565b8655506106f0565b601f19841661069e86610470565b60005b828110156106c6578489015182556001820191506020850194506020810190506106a1565b868310156106e357848901516106df601f8916826105ec565b8355505b6001600288020188555050505b505050505050565b6107018161033c565b82525050565b600060208201905061071c60008301846106f8565b92915050565b612e92806107316000396000f3fe60806040526004361061012a5760003560e01c806370a08231116100ab578063a22cb4651161006f578063a22cb465146103fd578063b88d4fde14610426578063c87b56dd1461044f578063d13c87031461048c578063e985e9c5146104c9578063f2fde38b146105065761012a565b806370a0823114610312578063715018a61461034f5780638684e124146103665780638da5cb5b146103a757806395d89b41146103d25761012a565b806323b872dd116100f257806323b872dd14610219578063265aa6211461024257806342842e0e146102835780636352211e146102ac578063670d07b4146102e95761012a565b806301ffc9a71461012f57806306fdde031461016c578063081812fc14610197578063095ea7b3146101d4578063150bde03146101fd575b600080fd5b34801561013b57600080fd5b5061015660048036038101906101519190612117565b61052f565b604051610163919061215f565b60405180910390f35b34801561017857600080fd5b50610181610590565b60405161018e919061220a565b60405180910390f35b3480156101a357600080fd5b506101be60048036038101906101b99190612262565b610622565b6040516101cb91906122d0565b60405180910390f35b3480156101e057600080fd5b506101fb60048036038101906101f69190612317565b61063e565b005b61021760048036038101906102129190612262565b610654565b005b34801561022557600080fd5b50610240600480360381019061023b9190612357565b61080a565b005b34801561024e57600080fd5b5061026960048036038101906102649190612262565b61090c565b60405161027a9594939291906123b9565b60405180910390f35b34801561028f57600080fd5b506102aa60048036038101906102a59190612357565b6109f7565b005b3480156102b857600080fd5b506102d360048036038101906102ce9190612262565b610a17565b6040516102e091906122d0565b60405180910390f35b3480156102f557600080fd5b50610310600480360381019061030b91906124a4565b610a29565b005b34801561031e57600080fd5b506103396004803603810190610334919061253e565b610b26565b604051610346919061256b565b60405180910390f35b34801561035b57600080fd5b50610364610be0565b005b34801561037257600080fd5b5061038d60048036038101906103889190612262565b610bf4565b60405161039e9594939291906123b9565b60405180910390f35b3480156103b357600080fd5b506103bc610cef565b6040516103c991906122d0565b60405180910390f35b3480156103de57600080fd5b506103e7610d19565b6040516103f4919061220a565b60405180910390f35b34801561040957600080fd5b50610424600480360381019061041f9190612586565b610dab565b005b34801561043257600080fd5b5061044d600480360381019061044891906126f6565b610dc1565b005b34801561045b57600080fd5b5061047660048036038101906104719190612262565b610dde565b604051610483919061220a565b60405180910390f35b34801561049857600080fd5b506104b360048036038101906104ae9190612779565b610ef1565b6040516104c0919061215f565b60405180910390f35b3480156104d557600080fd5b506104f060048036038101906104eb91906127b9565b610f5c565b6040516104fd919061215f565b60405180910390f35b34801561051257600080fd5b5061052d6004803603810190610528919061253e565b610ff0565b005b6000634906490660e01b7bffffffffffffffffffffffffffffffffffffffffffffffffffffffff1916827bffffffffffffffffffffffffffffffffffffffffffffffffffffffff19161480610589575061058882611076565b5b9050919050565b60606000805461059f90612828565b80601f01602080910402602001604051908101604052809291908181526020018280546105cb90612828565b80156106185780601f106105ed57610100808354040283529160200191610618565b820191906000526020600020905b8154815290600101906020018083116105fb57829003601f168201915b5050505050905090565b600061062d82611158565b50610637826111e0565b9050919050565b610650828261064b61121d565b611225565b5050565b600060096000838152602001908152602001600020905080600301543410156106b2576040517f08c379a00000000000000000000000000000000000000000000000000000000081526004016106a9906128a5565b60405180910390fd5b8060050160003373ffffffffffffffffffffffffffffffffffffffff1673ffffffffffffffffffffffffffffffffffffffff16815260200190815260200160002060009054906101000a900460ff1615610741576040517f08c379a000000000000000000000000000000000000000000000000000000000815260040161073890612911565b60405180910390fd5b60018160050160003373ffffffffffffffffffffffffffffffffffffffff1673ffffffffffffffffffffffffffffffffffffffff16815260200190815260200160002060006101000a81548160ff0219169083151502179055508060010160009054906101000a900473ffffffffffffffffffffffffffffffffffffffff1673ffffffffffffffffffffffffffffffffffffffff166108fc349081150290604051600060405180830381858888f19350505050158015610805573d6000803e3d6000fd5b505050565b600073ffffffffffffffffffffffffffffffffffffffff168273ffffffffffffffffffffffffffffffffffffffff160361087c5760006040517f64a0ae9200000000000000000000000000000000000000000000000000000000815260040161087391906122d0565b60405180910390fd5b6000610890838361088b61121d565b611237565b90508373ffffffffffffffffffffffffffffffffffffffff168173ffffffffffffffffffffffffffffffffffffffff1614610906578382826040517f64283d7b0000000000000000000000000000000000000000000000000000000081526004016108fd93929190612931565b60405180910390fd5b50505050565b60096020528060005260406000206000915090508060000154908060010160009054906101000a900473ffffffffffffffffffffffffffffffffffffffff169080600201805461095b90612828565b80601f016020809104026020016040519081016040528092919081815260200182805461098790612828565b80156109d45780601f106109a9576101008083540402835291602001916109d4565b820191906000526020600020905b8154815290600101906020018083116109b757829003601f168201915b5050505050908060030154908060040160009054906101000a900460ff16905085565b610a1283838360405180602001604052806000815250610dc1565b505050565b6000610a2282611158565b9050919050565b610a338686611451565b610a818585858080601f016020809104026020016040519081016040528093929190818152602001838380828437600081840152601f19601f8201169050808301925050505050505061154a565b6000600960008781526020019081526020016000209050858160000181905550338160010160006101000a81548173ffffffffffffffffffffffffffffffffffffffff021916908373ffffffffffffffffffffffffffffffffffffffff1602179055508484826002019182610af7929190612b1f565b50828160030181905550818160040160006101000a81548160ff02191690831515021790555050505050505050565b60008073ffffffffffffffffffffffffffffffffffffffff168273ffffffffffffffffffffffffffffffffffffffff1603610b995760006040517f89c62b64000000000000000000000000000000000000000000000000000000008152600401610b9091906122d0565b60405180910390fd5b600360008373ffffffffffffffffffffffffffffffffffffffff1673ffffffffffffffffffffffffffffffffffffffff168152602001908152602001600020549050919050565b610be86115a6565b610bf2600061162d565b565b60088181548110610c0457600080fd5b90600052602060002090600602016000915090508060000154908060010160009054906101000a900473ffffffffffffffffffffffffffffffffffffffff1690806002018054610c5390612828565b80601f0160208091040260200160405190810160405280929190818152602001828054610c7f90612828565b8015610ccc5780601f10610ca157610100808354040283529160200191610ccc565b820191906000526020600020905b815481529060010190602001808311610caf57829003601f168201915b5050505050908060030154908060040160009054906101000a900460ff16905085565b6000600760009054906101000a900473ffffffffffffffffffffffffffffffffffffffff16905090565b606060018054610d2890612828565b80601f0160208091040260200160405190810160405280929190818152602001828054610d5490612828565b8015610da15780601f10610d7657610100808354040283529160200191610da1565b820191906000526020600020905b815481529060010190602001808311610d8457829003601f168201915b5050505050905090565b610dbd610db661121d565b83836116f3565b5050565b610dcc84848461080a565b610dd884848484611862565b50505050565b6060610de982611158565b506000600660008481526020019081526020016000208054610e0a90612828565b80601f0160208091040260200160405190810160405280929190818152602001828054610e3690612828565b8015610e835780601f10610e5857610100808354040283529160200191610e83565b820191906000526020600020905b815481529060010190602001808311610e6657829003601f168201915b505050505090506000610e94611a19565b90506000815103610ea9578192505050610eec565b600082511115610ede578082604051602001610ec6929190612c2b565b60405160208183030381529060405292505050610eec565b610ee784611a30565b925050505b919050565b60006009600084815260200190815260200160002060050160008373ffffffffffffffffffffffffffffffffffffffff1673ffffffffffffffffffffffffffffffffffffffff16815260200190815260200160002060009054906101000a900460ff16905092915050565b6000600560008473ffffffffffffffffffffffffffffffffffffffff1673ffffffffffffffffffffffffffffffffffffffff16815260200190815260200160002060008373ffffffffffffffffffffffffffffffffffffffff1673ffffffffffffffffffffffffffffffffffffffff16815260200190815260200160002060009054906101000a900460ff16905092915050565b610ff86115a6565b600073ffffffffffffffffffffffffffffffffffffffff168173ffffffffffffffffffffffffffffffffffffffff160361106a5760006040517f1e4fbdf700000000000000000000000000000000000000000000000000000000815260040161106191906122d0565b60405180910390fd5b6110738161162d565b50565b60007f80ac58cd000000000000000000000000000000000000000000000000000000007bffffffffffffffffffffffffffffffffffffffffffffffffffffffff1916827bffffffffffffffffffffffffffffffffffffffffffffffffffffffff1916148061114157507f5b5e139f000000000000000000000000000000000000000000000000000000007bffffffffffffffffffffffffffffffffffffffffffffffffffffffff1916827bffffffffffffffffffffffffffffffffffffffffffffffffffffffff1916145b80611151575061115082611a99565b5b9050919050565b60008061116483611b03565b9050600073ffffffffffffffffffffffffffffffffffffffff168173ffffffffffffffffffffffffffffffffffffffff16036111d757826040517f7e2732890000000000000000000000000000000000000000000000000000000081526004016111ce919061256b565b60405180910390fd5b80915050919050565b60006004600083815260200190815260200160002060009054906101000a900473ffffffffffffffffffffffffffffffffffffffff169050919050565b600033905090565b6112328383836001611b40565b505050565b60008061124384611b03565b9050600073ffffffffffffffffffffffffffffffffffffffff168373ffffffffffffffffffffffffffffffffffffffff161461128557611284818486611d05565b5b600073ffffffffffffffffffffffffffffffffffffffff168173ffffffffffffffffffffffffffffffffffffffff1614611316576112c7600085600080611b40565b6001600360008373ffffffffffffffffffffffffffffffffffffffff1673ffffffffffffffffffffffffffffffffffffffff168152602001908152602001600020600082825403925050819055505b600073ffffffffffffffffffffffffffffffffffffffff168573ffffffffffffffffffffffffffffffffffffffff1614611399576001600360008773ffffffffffffffffffffffffffffffffffffffff1673ffffffffffffffffffffffffffffffffffffffff168152602001908152602001600020600082825401925050819055505b846002600086815260200190815260200160002060006101000a81548173ffffffffffffffffffffffffffffffffffffffff021916908373ffffffffffffffffffffffffffffffffffffffff160217905550838573ffffffffffffffffffffffffffffffffffffffff168273ffffffffffffffffffffffffffffffffffffffff167fddf252ad1be2c89b69c2b068fc378daa952ba7f163c4a11628f55a4df523b3ef60405160405180910390a4809150509392505050565b600073ffffffffffffffffffffffffffffffffffffffff168273ffffffffffffffffffffffffffffffffffffffff16036114c35760006040517f64a0ae920000000000000000000000000000000000000000000000000000000081526004016114ba91906122d0565b60405180910390fd5b60006114d183836000611237565b9050600073ffffffffffffffffffffffffffffffffffffffff168173ffffffffffffffffffffffffffffffffffffffff16146115455760006040517f73c6ac6e00000000000000000000000000000000000000000000000000000000815260040161153c91906122d0565b60405180910390fd5b505050565b8060066000848152602001908152602001600020908161156a9190612c4f565b507ff8e1a15aba9398e019f0b49df1a4fde98ee17ae345cb5f6b5e2c27f5033e8ce78260405161159a919061256b565b60405180910390a15050565b6115ae61121d565b73ffffffffffffffffffffffffffffffffffffffff166115cc610cef565b73ffffffffffffffffffffffffffffffffffffffff161461162b576115ef61121d565b6040517f118cdaa700000000000000000000000000000000000000000000000000000000815260040161162291906122d0565b60405180910390fd5b565b6000600760009054906101000a900473ffffffffffffffffffffffffffffffffffffffff16905081600760006101000a81548173ffffffffffffffffffffffffffffffffffffffff021916908373ffffffffffffffffffffffffffffffffffffffff1602179055508173ffffffffffffffffffffffffffffffffffffffff168173ffffffffffffffffffffffffffffffffffffffff167f8be0079c531659141344cd1fd0a4f28419497f9722a3daafe3b4186f6b6457e060405160405180910390a35050565b600073ffffffffffffffffffffffffffffffffffffffff168273ffffffffffffffffffffffffffffffffffffffff160361176457816040517f5b08ba1800000000000000000000000000000000000000000000000000000000815260040161175b91906122d0565b60405180910390fd5b80600560008573ffffffffffffffffffffffffffffffffffffffff1673ffffffffffffffffffffffffffffffffffffffff16815260200190815260200160002060008473ffffffffffffffffffffffffffffffffffffffff1673ffffffffffffffffffffffffffffffffffffffff16815260200190815260200160002060006101000a81548160ff0219169083151502179055508173ffffffffffffffffffffffffffffffffffffffff168373ffffffffffffffffffffffffffffffffffffffff167f17307eab39ab6107e8899845ad3d59bd9653f200f220920489ca2b5937696c3183604051611855919061215f565b60405180910390a3505050565b60008373ffffffffffffffffffffffffffffffffffffffff163b1115611a13578273ffffffffffffffffffffffffffffffffffffffff1663150b7a026118a661121d565b8685856040518563ffffffff1660e01b81526004016118c89493929190612d76565b6020604051808303816000875af192505050801561190457506040513d601f19601f820116820180604052508101906119019190612dd7565b60015b611988573d8060008114611934576040519150601f19603f3d011682016040523d82523d6000602084013e611939565b606091505b50600081510361198057836040517f64a0ae9200000000000000000000000000000000000000000000000000000000815260040161197791906122d0565b60405180910390fd5b805181602001fd5b63150b7a0260e01b7bffffffffffffffffffffffffffffffffffffffffffffffffffffffff1916817bffffffffffffffffffffffffffffffffffffffffffffffffffffffff191614611a1157836040517f64a0ae92000000000000000000000000000000000000000000000000000000008152600401611a0891906122d0565b60405180910390fd5b505b50505050565b606060405180602001604052806000815250905090565b6060611a3b82611158565b506000611a46611a19565b90506000815111611a665760405180602001604052806000815250611a91565b80611a7084611dc9565b604051602001611a81929190612c2b565b6040516020818303038152906040525b915050919050565b60007f01ffc9a7000000000000000000000000000000000000000000000000000000007bffffffffffffffffffffffffffffffffffffffffffffffffffffffff1916827bffffffffffffffffffffffffffffffffffffffffffffffffffffffff1916149050919050565b60006002600083815260200190815260200160002060009054906101000a900473ffffffffffffffffffffffffffffffffffffffff169050919050565b8080611b795750600073ffffffffffffffffffffffffffffffffffffffff168273ffffffffffffffffffffffffffffffffffffffff1614155b15611cad576000611b8984611158565b9050600073ffffffffffffffffffffffffffffffffffffffff168373ffffffffffffffffffffffffffffffffffffffff1614158015611bf457508273ffffffffffffffffffffffffffffffffffffffff168173ffffffffffffffffffffffffffffffffffffffff1614155b8015611c075750611c058184610f5c565b155b15611c4957826040517fa9fbf51f000000000000000000000000000000000000000000000000000000008152600401611c4091906122d0565b60405180910390fd5b8115611cab57838573ffffffffffffffffffffffffffffffffffffffff168273ffffffffffffffffffffffffffffffffffffffff167f8c5be1e5ebec7d5bd14f71427d1e84f3dd0314c0f7b2291e5b200ac8c7c3b92560405160405180910390a45b505b836004600085815260200190815260200160002060006101000a81548173ffffffffffffffffffffffffffffffffffffffff021916908373ffffffffffffffffffffffffffffffffffffffff16021790555050505050565b611d10838383611e97565b611dc457600073ffffffffffffffffffffffffffffffffffffffff168373ffffffffffffffffffffffffffffffffffffffff1603611d8557806040517f7e273289000000000000000000000000000000000000000000000000000000008152600401611d7c919061256b565b60405180910390fd5b81816040517f177e802f000000000000000000000000000000000000000000000000000000008152600401611dbb929190612e04565b60405180910390fd5b505050565b606060006001611dd884611f58565b01905060008167ffffffffffffffff811115611df757611df66125cb565b5b6040519080825280601f01601f191660200182016040528015611e295781602001600182028036833780820191505090505b509050600082602001820190505b600115611e8c578080600190039150507f3031323334353637383961626364656600000000000000000000000000000000600a86061a8153600a8581611e8057611e7f612e2d565b5b04945060008503611e37575b819350505050919050565b60008073ffffffffffffffffffffffffffffffffffffffff168373ffffffffffffffffffffffffffffffffffffffff1614158015611f4f57508273ffffffffffffffffffffffffffffffffffffffff168473ffffffffffffffffffffffffffffffffffffffff161480611f105750611f0f8484610f5c565b5b80611f4e57508273ffffffffffffffffffffffffffffffffffffffff16611f36836111e0565b73ffffffffffffffffffffffffffffffffffffffff16145b5b90509392505050565b600080600090507a184f03e93ff9f4daa797ed6e38ed64bf6a1f0100000000000000008310611fb6577a184f03e93ff9f4daa797ed6e38ed64bf6a1f0100000000000000008381611fac57611fab612e2d565b5b0492506040810190505b6d04ee2d6d415b85acef81000000008310611ff3576d04ee2d6d415b85acef81000000008381611fe957611fe8612e2d565b5b0492506020810190505b662386f26fc10000831061202257662386f26fc10000838161201857612017612e2d565b5b0492506010810190505b6305f5e100831061204b576305f5e100838161204157612040612e2d565b5b0492506008810190505b612710831061207057612710838161206657612065612e2d565b5b0492506004810190505b60648310612093576064838161208957612088612e2d565b5b0492506002810190505b600a83106120a2576001810190505b80915050919050565b6000604051905090565b600080fd5b600080fd5b60007fffffffff0000000000000000000000000000000000000000000000000000000082169050919050565b6120f4816120bf565b81146120ff57600080fd5b50565b600081359050612111816120eb565b92915050565b60006020828403121561212d5761212c6120b5565b5b600061213b84828501612102565b91505092915050565b60008115159050919050565b61215981612144565b82525050565b60006020820190506121746000830184612150565b92915050565b600081519050919050565b600082825260208201905092915050565b60005b838110156121b4578082015181840152602081019050612199565b60008484015250505050565b6000601f19601f8301169050919050565b60006121dc8261217a565b6121e68185612185565b93506121f6818560208601612196565b6121ff816121c0565b840191505092915050565b6000602082019050818103600083015261222481846121d1565b905092915050565b6000819050919050565b61223f8161222c565b811461224a57600080fd5b50565b60008135905061225c81612236565b92915050565b600060208284031215612278576122776120b5565b5b60006122868482850161224d565b91505092915050565b600073ffffffffffffffffffffffffffffffffffffffff82169050919050565b60006122ba8261228f565b9050919050565b6122ca816122af565b82525050565b60006020820190506122e560008301846122c1565b92915050565b6122f4816122af565b81146122ff57600080fd5b50565b600081359050612311816122eb565b92915050565b6000806040838503121561232e5761232d6120b5565b5b600061233c85828601612302565b925050602061234d8582860161224d565b9150509250929050565b6000806000606084860312156123705761236f6120b5565b5b600061237e86828701612302565b935050602061238f86828701612302565b92505060406123a08682870161224d565b9150509250925092565b6123b38161222c565b82525050565b600060a0820190506123ce60008301886123aa565b6123db60208301876122c1565b81810360408301526123ed81866121d1565b90506123fc60608301856123aa565b6124096080830184612150565b9695505050505050565b600080fd5b600080fd5b600080fd5b60008083601f84011261243857612437612413565b5b8235905067ffffffffffffffff81111561245557612454612418565b5b6020830191508360018202830111156124715761247061241d565b5b9250929050565b61248181612144565b811461248c57600080fd5b50565b60008135905061249e81612478565b92915050565b60008060008060008060a087890312156124c1576124c06120b5565b5b60006124cf89828a01612302565b96505060206124e089828a0161224d565b955050604087013567ffffffffffffffff811115612501576125006120ba565b5b61250d89828a01612422565b9450945050606061252089828a0161224d565b925050608061253189828a0161248f565b9150509295509295509295565b600060208284031215612554576125536120b5565b5b600061256284828501612302565b91505092915050565b600060208201905061258060008301846123aa565b92915050565b6000806040838503121561259d5761259c6120b5565b5b60006125ab85828601612302565b92505060206125bc8582860161248f565b9150509250929050565b600080fd5b7f4e487b7100000000000000000000000000000000000000000000000000000000600052604160045260246000fd5b612603826121c0565b810181811067ffffffffffffffff82111715612622576126216125cb565b5b80604052505050565b60006126356120ab565b905061264182826125fa565b919050565b600067ffffffffffffffff821115612661576126606125cb565b5b61266a826121c0565b9050602081019050919050565b82818337600083830152505050565b600061269961269484612646565b61262b565b9050828152602081018484840111156126b5576126b46125c6565b5b6126c0848285612677565b509392505050565b600082601f8301126126dd576126dc612413565b5b81356126ed848260208601612686565b91505092915050565b600080600080608085870312156127105761270f6120b5565b5b600061271e87828801612302565b945050602061272f87828801612302565b93505060406127408782880161224d565b925050606085013567ffffffffffffffff811115612761576127606120ba565b5b61276d878288016126c8565b91505092959194509250565b600080604083850312156127905761278f6120b5565b5b600061279e8582860161224d565b92505060206127af85828601612302565b9150509250929050565b600080604083850312156127d0576127cf6120b5565b5b60006127de85828601612302565b92505060206127ef85828601612302565b9150509250929050565b7f4e487b7100000000000000000000000000000000000000000000000000000000600052602260045260246000fd5b6000600282049050600182168061284057607f821691505b602082108103612853576128526127f9565b5b50919050565b7f496e73756666696369656e742066756e64730000000000000000000000000000600082015250565b600061288f601283612185565b915061289a82612859565b602082019050919050565b600060208201905081810360008301526128be81612882565b9050919050565b7f416c726561647920707572636861736564000000000000000000000000000000600082015250565b60006128fb601183612185565b9150612906826128c5565b602082019050919050565b6000602082019050818103600083015261292a816128ee565b9050919050565b600060608201905061294660008301866122c1565b61295360208301856123aa565b61296060408301846122c1565b949350505050565b600082905092915050565b60008190508160005260206000209050919050565b60006020601f8301049050919050565b600082821b905092915050565b6000600883026129d57fffffffffffffffffffffffffffffffffffffffffffffffffffffffffffffffff82612998565b6129df8683612998565b95508019841693508086168417925050509392505050565b6000819050919050565b6000612a1c612a17612a128461222c565b6129f7565b61222c565b9050919050565b6000819050919050565b612a3683612a01565b612a4a612a4282612a23565b8484546129a5565b825550505050565b600090565b612a5f612a52565b612a6a818484612a2d565b505050565b5b81811015612a8e57612a83600082612a57565b600181019050612a70565b5050565b601f821115612ad357612aa481612973565b612aad84612988565b81016020851015612abc578190505b612ad0612ac885612988565b830182612a6f565b50505b505050565b600082821c905092915050565b6000612af660001984600802612ad8565b1980831691505092915050565b6000612b0f8383612ae5565b9150826002028217905092915050565b612b298383612968565b67ffffffffffffffff811115612b4257612b416125cb565b5b612b4c8254612828565b612b57828285612a92565b6000601f831160018114612b865760008415612b74578287013590505b612b7e8582612b03565b865550612be6565b601f198416612b9486612973565b60005b82811015612bbc57848901358255600182019150602085019450602081019050612b97565b86831015612bd95784890135612bd5601f891682612ae5565b8355505b6001600288020188555050505b50505050505050565b600081905092915050565b6000612c058261217a565b612c0f8185612bef565b9350612c1f818560208601612196565b80840191505092915050565b6000612c378285612bfa565b9150612c438284612bfa565b91508190509392505050565b612c588261217a565b67ffffffffffffffff811115612c7157612c706125cb565b5b612c7b8254612828565b612c86828285612a92565b600060209050601f831160018114612cb95760008415612ca7578287015190505b612cb18582612b03565b865550612d19565b601f198416612cc786612973565b60005b82811015612cef57848901518255600182019150602085019450602081019050612cca565b86831015612d0c5784890151612d08601f891682612ae5565b8355505b6001600288020188555050505b505050505050565b600081519050919050565b600082825260208201905092915050565b6000612d4882612d21565b612d528185612d2c565b9350612d62818560208601612196565b612d6b816121c0565b840191505092915050565b6000608082019050612d8b60008301876122c1565b612d9860208301866122c1565b612da560408301856123aa565b8181036060830152612db78184612d3d565b905095945050505050565b600081519050612dd1816120eb565b92915050565b600060208284031215612ded57612dec6120b5565b5b6000612dfb84828501612dc2565b91505092915050565b6000604082019050612e1960008301856122c1565b612e2660208301846123aa565b9392505050565b7f4e487b7100000000000000000000000000000000000000000000000000000000600052601260045260246000fdfea26469706673582212201ee8942dedee3bbdf3f1fe82b291ebee792f6478f49e6aa631551a4ed6159f6b64736f6c634300081b0033",
  "linkReferences": {},
  "deployedLinkReferences": {}
}