{
  "_format": "hh-sol-artifact-1",
  "contractName": "Nft",
  "sourceName": "contracts/NFT.sol",
  "abi": [
    {
      "inputs": [
        {
          "internalType": "string",
          "name": "name",
          "type": "string"
        },
        {
          "internalType": "string",
          "name": "symbol",
          "type": "string"
        },
        {
          "internalType": "address",
          "name": "initialOwner",
          "type": "address"
        }
      ],
      "stateMutability": "nonpayable",
      "type": "constructor"
    },
    {
      "inputs": [
        {
          "internalType": "address",
          "name": "sender",
          "type": "address"
        },
        {
          "internalType": "uint256",
          "name": "tokenId",
          "type": "uint256"
        },
        {
          "internalType": "address",
          "name": "owner",
          "type": "address"
        }
      ],
      "name": "ERC721IncorrectOwner",
      "type": "error"
    },
    {
      "inputs": [
        {
          "internalType": "address",
          "name": "operator",
          "type": "address"
        },
        {
          "internalType": "uint256",
          "name": "tokenId",
          "type": "uint256"
        }
      ],
      "name": "ERC721InsufficientApproval",
      "type": "error"
    },
    {
      "inputs": [
        {
          "internalType": "address",
          "name": "approver",
          "type": "address"
        }
      ],
      "name": "ERC721InvalidApprover",
      "type": "error"
    },
    {
      "inputs": [
        {
          "internalType": "address",
          "name": "operator",
          "type": "address"
        }
      ],
      "name": "ERC721InvalidOperator",
      "type": "error"
    },
    {
      "inputs": [
        {
          "internalType": "address",
          "name": "owner",
          "type": "address"
        }
      ],
      "name": "ERC721InvalidOwner",
      "type": "error"
    },
    {
      "inputs": [
        {
          "internalType": "address",
          "name": "receiver",
          "type": "address"
        }
      ],
      "name": "ERC721InvalidReceiver",
      "type": "error"
    },
    {
      "inputs": [
        {
          "internalType": "address",
          "name": "sender",
          "type": "address"
        }
      ],
      "name": "ERC721InvalidSender",
      "type": "error"
    },
    {
      "inputs": [
        {
          "internalType": "uint256",
          "name": "tokenId",
          "type": "uint256"
        }
      ],
      "name": "ERC721NonexistentToken",
      "type": "error"
    },
    {
      "inputs": [
        {
          "internalType": "address",
          "name": "owner",
          "type": "address"
        }
      ],
      "name": "OwnableInvalidOwner",
      "type": "error"
    },
    {
      "inputs": [
        {
          "internalType": "address",
          "name": "account",
          "type": "address"
        }
      ],
      "name": "OwnableUnauthorizedAccount",
      "type": "error"
    },
    {
      "anonymous": false,
      "inputs": [
        {
          "indexed": true,
          "internalType": "address",
          "name": "owner",
          "type": "address"
        },
        {
          "indexed": true,
          "internalType": "address",
          "name": "approved",
          "type": "address"
        },
        {
          "indexed": true,
          "internalType": "uint256",
          "name": "tokenId",
          "type": "uint256"
        }
      ],
      "name": "Approval",
      "type": "event"
    },
    {
      "anonymous": false,
      "inputs": [
        {
          "indexed": true,
          "internalType": "address",
          "name": "owner",
          "type": "address"
        },
        {
          "indexed": true,
          "internalType": "address",
          "name": "operator",
          "type": "address"
        },
        {
          "indexed": false,
          "internalType": "bool",
          "name": "approved",
          "type": "bool"
        }
      ],
      "name": "ApprovalForAll",
      "type": "event"
    },
    {
      "anonymous": false,
      "inputs": [
        {
          "indexed": false,
          "internalType": "uint256",
          "name": "_fromTokenId",
          "type": "uint256"
        },
        {
          "indexed": false,
          "internalType": "uint256",
          "name": "_toTokenId",
          "type": "uint256"
        }
      ],
      "name": "BatchMetadataUpdate",
      "type": "event"
    },
    {
      "anonymous": false,
      "inputs": [
        {
          "indexed": false,
          "internalType": "uint256",
          "name": "_tokenId",
          "type": "uint256"
        }
      ],
      "name": "MetadataUpdate",
      "type": "event"
    },
    {
      "anonymous": false,
      "inputs": [
        {
          "indexed": true,
          "internalType": "address",
          "name": "previousOwner",
          "type": "address"
        },
        {
          "indexed": true,
          "internalType": "address",
          "name": "newOwner",
          "type": "address"
        }
      ],
      "name": "OwnershipTransferred",
      "type": "event"
    },
    {
      "anonymous": false,
      "inputs": [
        {
          "indexed": true,
          "internalType": "address",
          "name": "from",
          "type": "address"
        },
        {
          "indexed": true,
          "internalType": "address",
          "name": "to",
          "type": "address"
        },
        {
          "indexed": true,
          "internalType": "uint256",
          "name": "tokenId",
          "type": "uint256"
        }
      ],
      "name": "Transfer",
      "type": "event"
    },
    {
      "inputs": [
        {
          "internalType": "address",
          "name": "to",
          "type": "address"
        },
        {
          "internalType": "uint256",
          "name": "tokenId",
          "type": "uint256"
        }
      ],
      "name": "approve",
      "outputs": [],
      "stateMutability": "nonpayable",
      "type": "function"
    },
    {
      "inputs": [
        {
          "internalType": "address",
          "name": "owner",
          "type": "address"
        }
      ],
      "name": "balanceOf",
      "outputs": [
        {
          "internalType": "uint256",
          "name": "",
          "type": "uint256"
        }
      ],
      "stateMutability": "view",
      "type": "function"
    },
    {
      "inputs": [
        {
          "internalType": "uint256",
          "name": "tokenId",
          "type": "uint256"
        }
      ],
      "name": "getApproved",
      "outputs": [
        {
          "internalType": "address",
          "name": "",
          "type": "address"
        }
      ],
      "stateMutability": "view",
      "type": "function"
    },
    {
      "inputs": [],
      "name": "getNftFeed",
      "outputs": [
        {
          "components": [
            {
              "internalType": "uint256",
              "name": "tokenId",
              "type": "uint256"
            },
            {
              "internalType": "string",
              "name": "name",
              "type": "string"
            },
            {
              "internalType": "string",
              "name": "description",
              "type": "string"
            },
            {
              "internalType": "string",
              "name": "image",
              "type": "string"
            },
            {
              "internalType": "address",
              "name": "creator",
              "type": "address"
            }
          ],
          "internalType": "struct Nft.NftData[]",
          "name": "",
          "type": "tuple[]"
        }
      ],
      "stateMutability": "view",
      "type": "function"
    },
    {
      "inputs": [
        {
          "internalType": "address",
          "name": "owner",
          "type": "address"
        },
        {
          "internalType": "address",
          "name": "operator",
          "type": "address"
        }
      ],
      "name": "isApprovedForAll",
      "outputs": [
        {
          "internalType": "bool",
          "name": "",
          "type": "bool"
        }
      ],
      "stateMutability": "view",
      "type": "function"
    },
    {
      "inputs": [
        {
          "internalType": "address",
          "name": "_to",
          "type": "address"
        },
        {
          "internalType": "uint256",
          "name": "tokenId",
          "type": "uint256"
        },
        {
          "internalType": "string",
          "name": "_uri",
          "type": "string"
        }
      ],
      "name": "mint",
      "outputs": [],
      "stateMutability": "nonpayable",
      "type": "function"
    },
    {
      "inputs": [],
      "name": "name",
      "outputs": [
        {
          "internalType": "string",
          "name": "",
          "type": "string"
        }
      ],
      "stateMutability": "view",
      "type": "function"
    },
    {
      "inputs": [
        {
          "internalType": "uint256",
          "name": "",
          "type": "uint256"
        }
      ],
      "name": "nftFeed",
      "outputs": [
        {
          "internalType": "uint256",
          "name": "tokenId",
          "type": "uint256"
        },
        {
          "internalType": "string",
          "name": "name",
          "type": "string"
        },
        {
          "internalType": "string",
          "name": "description",
          "type": "string"
        },
        {
          "internalType": "string",
          "name": "image",
          "type": "string"
        },
        {
          "internalType": "address",
          "name": "creator",
          "type": "address"
        }
      ],
      "stateMutability": "view",
      "type": "function"
    },
    {
      "inputs": [
        {
          "internalType": "address",
          "name": "owner",
          "type": "address"
        }
      ],
      "name": "nftsMinted",
      "outputs": [
        {
          "internalType": "uint256",
          "name": "",
          "type": "uint256"
        }
      ],
      "stateMutability": "view",
      "type": "function"
    },
    {
      "inputs": [
        {
          "internalType": "address",
          "name": "owner",
          "type": "address"
        }
      ],
      "name": "nftsOwned",
      "outputs": [
        {
          "internalType": "uint256",
          "name": "",
          "type": "uint256"
        }
      ],
      "stateMutability": "view",
      "type": "function"
    },
    {
      "inputs": [],
      "name": "owner",
      "outputs": [
        {
          "internalType": "address",
          "name": "",
          "type": "address"
        }
      ],
      "stateMutability": "view",
      "type": "function"
    },
    {
      "inputs": [
        {
          "internalType": "uint256",
          "name": "tokenId",
          "type": "uint256"
        }
      ],
      "name": "ownerOf",
      "outputs": [
        {
          "internalType": "address",
          "name": "",
          "type": "address"
        }
      ],
      "stateMutability": "view",
      "type": "function"
    },
    {
      "inputs": [],
      "name": "renounceOwnership",
      "outputs": [],
      "stateMutability": "nonpayable",
      "type": "function"
    },
    {
      "inputs": [
        {
          "internalType": "address",
          "name": "from",
          "type": "address"
        },
        {
          "internalType": "address",
          "name": "to",
          "type": "address"
        },
        {
          "internalType": "uint256",
          "name": "tokenId",
          "type": "uint256"
        }
      ],
      "name": "safeTransferFrom",
      "outputs": [],
      "stateMutability": "nonpayable",
      "type": "function"
    },
    {
      "inputs": [
        {
          "internalType": "address",
          "name": "from",
          "type": "address"
        },
        {
          "internalType": "address",
          "name": "to",
          "type": "address"
        },
        {
          "internalType": "uint256",
          "name": "tokenId",
          "type": "uint256"
        },
        {
          "internalType": "bytes",
          "name": "data",
          "type": "bytes"
        }
      ],
      "name": "safeTransferFrom",
      "outputs": [],
      "stateMutability": "nonpayable",
      "type": "function"
    },
    {
      "inputs": [
        {
          "internalType": "address",
          "name": "operator",
          "type": "address"
        },
        {
          "internalType": "bool",
          "name": "approved",
          "type": "bool"
        }
      ],
      "name": "setApprovalForAll",
      "outputs": [],
      "stateMutability": "nonpayable",
      "type": "function"
    },
    {
      "inputs": [
        {
          "internalType": "bytes4",
          "name": "interfaceId",
          "type": "bytes4"
        }
      ],
      "name": "supportsInterface",
      "outputs": [
        {
          "internalType": "bool",
          "name": "",
          "type": "bool"
        }
      ],
      "stateMutability": "view",
      "type": "function"
    },
    {
      "inputs": [],
      "name": "symbol",
      "outputs": [
        {
          "internalType": "string",
          "name": "",
          "type": "string"
        }
      ],
      "stateMutability": "view",
      "type": "function"
    },
    {
      "inputs": [
        {
          "internalType": "address",
          "name": "_owner",
          "type": "address"
        },
        {
          "internalType": "uint256",
          "name": "_index",
          "type": "uint256"
        }
      ],
      "name": "tokenOfOwnerByIndex",
      "outputs": [
        {
          "internalType": "uint256",
          "name": "",
          "type": "uint256"
        }
      ],
      "stateMutability": "view",
      "type": "function"
    },
    {
      "inputs": [
        {
          "internalType": "uint256",
          "name": "tokenId",
          "type": "uint256"
        }
      ],
      "name": "tokenURI",
      "outputs": [
        {
          "internalType": "string",
          "name": "",
          "type": "string"
        }
      ],
      "stateMutability": "view",
      "type": "function"
    },
    {
      "inputs": [
        {
          "internalType": "address",
          "name": "from",
          "type": "address"
        },
        {
          "internalType": "address",
          "name": "to",
          "type": "address"
        },
        {
          "internalType": "uint256",
          "name": "tokenId",
          "type": "uint256"
        }
      ],
      "name": "transferFrom",
      "outputs": [],
      "stateMutability": "nonpayable",
      "type": "function"
    },
    {
      "inputs": [
        {
          "internalType": "address",
          "name": "newOwner",
          "type": "address"
        }
      ],
      "name": "transferOwnership",
      "outputs": [],
      "stateMutability": "nonpayable",
      "type": "function"
    }
  ],
  "bytecode": "0x608060405234801561001057600080fd5b506040516138cf3803806138cf8339818101604052810190610032919061037a565b80838381600090816100449190610626565b5080600190816100549190610626565b505050600073ffffffffffffffffffffffffffffffffffffffff168173ffffffffffffffffffffffffffffffffffffffff16036100c95760006040517f1e4fbdf70000000000000000000000000000000000000000000000000000000081526004016100c09190610707565b60405180910390fd5b6100d8816100e160201b60201c565b50505050610722565b6000600760009054906101000a900473ffffffffffffffffffffffffffffffffffffffff16905081600760006101000a81548173ffffffffffffffffffffffffffffffffffffffff021916908373ffffffffffffffffffffffffffffffffffffffff1602179055508173ffffffffffffffffffffffffffffffffffffffff168173ffffffffffffffffffffffffffffffffffffffff167f8be0079c531659141344cd1fd0a4f28419497f9722a3daafe3b4186f6b6457e060405160405180910390a35050565b6000604051905090565b600080fd5b600080fd5b600080fd5b600080fd5b6000601f19601f8301169050919050565b7f4e487b7100000000000000000000000000000000000000000000000000000000600052604160045260246000fd5b61020e826101c5565b810181811067ffffffffffffffff8211171561022d5761022c6101d6565b5b80604052505050565b60006102406101a7565b905061024c8282610205565b919050565b600067ffffffffffffffff82111561026c5761026b6101d6565b5b610275826101c5565b9050602081019050919050565b60005b838110156102a0578082015181840152602081019050610285565b60008484015250505050565b60006102bf6102ba84610251565b610236565b9050828152602081018484840111156102db576102da6101c0565b5b6102e6848285610282565b509392505050565b600082601f830112610303576103026101bb565b5b81516103138482602086016102ac565b91505092915050565b600073ffffffffffffffffffffffffffffffffffffffff82169050919050565b60006103478261031c565b9050919050565b6103578161033c565b811461036257600080fd5b50565b6000815190506103748161034e565b92915050565b600080600060608486031215610393576103926101b1565b5b600084015167ffffffffffffffff8111156103b1576103b06101b6565b5b6103bd868287016102ee565b935050602084015167ffffffffffffffff8111156103de576103dd6101b6565b5b6103ea868287016102ee565b92505060406103fb86828701610365565b9150509250925092565b600081519050919050565b7f4e487b7100000000000000000000000000000000000000000000000000000000600052602260045260246000fd5b6000600282049050600182168061045757607f821691505b60208210810361046a57610469610410565b5b50919050565b60008190508160005260206000209050919050565b60006020601f8301049050919050565b600082821b905092915050565b6000600883026104d27fffffffffffffffffffffffffffffffffffffffffffffffffffffffffffffffff82610495565b6104dc8683610495565b95508019841693508086168417925050509392505050565b6000819050919050565b6000819050919050565b600061052361051e610519846104f4565b6104fe565b6104f4565b9050919050565b6000819050919050565b61053d83610508565b6105516105498261052a565b8484546104a2565b825550505050565b600090565b610566610559565b610571818484610534565b505050565b5b818110156105955761058a60008261055e565b600181019050610577565b5050565b601f8211156105da576105ab81610470565b6105b484610485565b810160208510156105c3578190505b6105d76105cf85610485565b830182610576565b50505b505050565b600082821c905092915050565b60006105fd600019846008026105df565b1980831691505092915050565b600061061683836105ec565b9150826002028217905092915050565b61062f82610405565b67ffffffffffffffff811115610648576106476101d6565b5b610652825461043f565b61065d828285610599565b600060209050601f831160018114610690576000841561067e578287015190505b610688858261060a565b8655506106f0565b601f19841661069e86610470565b60005b828110156106c6578489015182556001820191506020850194506020810190506106a1565b868310156106e357848901516106df601f8916826105ec565b8355505b6001600288020188555050505b505050505050565b6107018161033c565b82525050565b600060208201905061071c60008301846106f8565b92915050565b61319e806107316000396000f3fe608060405234801561001057600080fd5b50600436106101425760003560e01c80638684e124116100b8578063a91496411161007c578063a91496411461039f578063b88d4fde146103bd578063c87b56dd146103d9578063d3fc986414610409578063e985e9c514610425578063f2fde38b1461045557610142565b80638684e124146102e35780638baafe13146103175780638da5cb5b1461034757806395d89b4114610365578063a22cb4651461038357610142565b80632f745c591161010a5780632f745c59146101fd57806341de982e1461022d57806342842e0e1461025d5780636352211e1461027957806370a08231146102a9578063715018a6146102d957610142565b806301ffc9a71461014757806306fdde0314610177578063081812fc14610195578063095ea7b3146101c557806323b872dd146101e1575b600080fd5b610161600480360381019061015c91906123fb565b610471565b60405161016e9190612443565b60405180910390f35b61017f6104d2565b60405161018c91906124ee565b60405180910390f35b6101af60048036038101906101aa9190612546565b610564565b6040516101bc91906125b4565b60405180910390f35b6101df60048036038101906101da91906125fb565b610580565b005b6101fb60048036038101906101f6919061263b565b610596565b005b610217600480360381019061021291906125fb565b610698565b604051610224919061269d565b60405180910390f35b610247600480360381019061024291906126b8565b6106f6565b604051610254919061269d565b60405180910390f35b6102776004803603810190610272919061263b565b61073f565b005b610293600480360381019061028e9190612546565b61075f565b6040516102a091906125b4565b60405180910390f35b6102c360048036038101906102be91906126b8565b610771565b6040516102d0919061269d565b60405180910390f35b6102e161082b565b005b6102fd60048036038101906102f89190612546565b61083f565b60405161030e9594939291906126e5565b60405180910390f35b610331600480360381019061032c91906126b8565b610a3d565b60405161033e919061269d565b60405180910390f35b61034f610a86565b60405161035c91906125b4565b60405180910390f35b61036d610ab0565b60405161037a91906124ee565b60405180910390f35b61039d60048036038101906103989190612779565b610b42565b005b6103a7610b58565b6040516103b49190612967565b60405180910390f35b6103d760048036038101906103d29190612abe565b610dcd565b005b6103f360048036038101906103ee9190612546565b610dea565b60405161040091906124ee565b60405180910390f35b610423600480360381019061041e9190612ba1565b610efd565b005b61043f600480360381019061043a9190612c15565b611240565b60405161044c9190612443565b60405180910390f35b61046f600480360381019061046a91906126b8565b6112d4565b005b6000634906490660e01b7bffffffffffffffffffffffffffffffffffffffffffffffffffffffff1916827bffffffffffffffffffffffffffffffffffffffffffffffffffffffff191614806104cb57506104ca8261135a565b5b9050919050565b6060600080546104e190612c84565b80601f016020809104026020016040519081016040528092919081815260200182805461050d90612c84565b801561055a5780601f1061052f5761010080835404028352916020019161055a565b820191906000526020600020905b81548152906001019060200180831161053d57829003601f168201915b5050505050905090565b600061056f8261143c565b50610579826114c4565b9050919050565b610592828261058d611501565b611509565b5050565b600073ffffffffffffffffffffffffffffffffffffffff168273ffffffffffffffffffffffffffffffffffffffff16036106085760006040517f64a0ae920000000000000000000000000000000000000000000000000000000081526004016105ff91906125b4565b60405180910390fd5b600061061c8383610617611501565b61151b565b90508373ffffffffffffffffffffffffffffffffffffffff168173ffffffffffffffffffffffffffffffffffffffff1614610692578382826040517f64283d7b00000000000000000000000000000000000000000000000000000000815260040161068993929190612cb5565b60405180910390fd5b50505050565b6000600b60008473ffffffffffffffffffffffffffffffffffffffff1673ffffffffffffffffffffffffffffffffffffffff168152602001908152602001600020600083815260200190815260200160002060000154905092915050565b6000600960008373ffffffffffffffffffffffffffffffffffffffff1673ffffffffffffffffffffffffffffffffffffffff168152602001908152602001600020549050919050565b61075a83838360405180602001604052806000815250610dcd565b505050565b600061076a8261143c565b9050919050565b60008073ffffffffffffffffffffffffffffffffffffffff168273ffffffffffffffffffffffffffffffffffffffff16036107e45760006040517f89c62b640000000000000000000000000000000000000000000000000000000081526004016107db91906125b4565b60405180910390fd5b600360008373ffffffffffffffffffffffffffffffffffffffff1673ffffffffffffffffffffffffffffffffffffffff168152602001908152602001600020549050919050565b610833611735565b61083d60006117bc565b565b6008818154811061084f57600080fd5b906000526020600020906005020160009150905080600001549080600101805461087890612c84565b80601f01602080910402602001604051908101604052809291908181526020018280546108a490612c84565b80156108f15780601f106108c6576101008083540402835291602001916108f1565b820191906000526020600020905b8154815290600101906020018083116108d457829003601f168201915b50505050509080600201805461090690612c84565b80601f016020809104026020016040519081016040528092919081815260200182805461093290612c84565b801561097f5780601f106109545761010080835404028352916020019161097f565b820191906000526020600020905b81548152906001019060200180831161096257829003601f168201915b50505050509080600301805461099490612c84565b80601f01602080910402602001604051908101604052809291908181526020018280546109c090612c84565b8015610a0d5780601f106109e257610100808354040283529160200191610a0d565b820191906000526020600020905b8154815290600101906020018083116109f057829003601f168201915b5050505050908060040160009054906101000a900473ffffffffffffffffffffffffffffffffffffffff16905085565b6000600a60008373ffffffffffffffffffffffffffffffffffffffff1673ffffffffffffffffffffffffffffffffffffffff168152602001908152602001600020549050919050565b6000600760009054906101000a900473ffffffffffffffffffffffffffffffffffffffff16905090565b606060018054610abf90612c84565b80601f0160208091040260200160405190810160405280929190818152602001828054610aeb90612c84565b8015610b385780601f10610b0d57610100808354040283529160200191610b38565b820191906000526020600020905b815481529060010190602001808311610b1b57829003601f168201915b5050505050905090565b610b54610b4d611501565b8383611882565b5050565b60606008805480602002602001604051908101604052809291908181526020016000905b82821015610dc457838290600052602060002090600502016040518060a001604052908160008201548152602001600182018054610bb990612c84565b80601f0160208091040260200160405190810160405280929190818152602001828054610be590612c84565b8015610c325780601f10610c0757610100808354040283529160200191610c32565b820191906000526020600020905b815481529060010190602001808311610c1557829003601f168201915b50505050508152602001600282018054610c4b90612c84565b80601f0160208091040260200160405190810160405280929190818152602001828054610c7790612c84565b8015610cc45780601f10610c9957610100808354040283529160200191610cc4565b820191906000526020600020905b815481529060010190602001808311610ca757829003601f168201915b50505050508152602001600382018054610cdd90612c84565b80601f0160208091040260200160405190810160405280929190818152602001828054610d0990612c84565b8015610d565780601f10610d2b57610100808354040283529160200191610d56565b820191906000526020600020905b815481529060010190602001808311610d3957829003601f168201915b505050505081526020016004820160009054906101000a900473ffffffffffffffffffffffffffffffffffffffff1673ffffffffffffffffffffffffffffffffffffffff1673ffffffffffffffffffffffffffffffffffffffff168152505081526020019060010190610b7c565b50505050905090565b610dd8848484610596565b610de4848484846119f1565b50505050565b6060610df58261143c565b506000600660008481526020019081526020016000208054610e1690612c84565b80601f0160208091040260200160405190810160405280929190818152602001828054610e4290612c84565b8015610e8f5780601f10610e6457610100808354040283529160200191610e8f565b820191906000526020600020905b815481529060010190602001808311610e7257829003601f168201915b505050505090506000610ea0611ba8565b90506000815103610eb5578192505050610ef8565b600082511115610eea578082604051602001610ed2929190612d28565b60405160208183030381529060405292505050610ef8565b610ef384611bbf565b925050505b919050565b610f05611735565b610f0f8484611c28565b610f5d8383838080601f016020809104026020016040519081016040528093929190818152602001838380828437600081840152601f19601f82011690508083019250505050505050611d21565b60005b610f6933610771565b811015610fe957604051806020016040528085815250600b60008773ffffffffffffffffffffffffffffffffffffffff1673ffffffffffffffffffffffffffffffffffffffff1681526020019081526020016000206000838152602001908152602001600020600082015181600001559050508080600101915050610f60565b506001600960008673ffffffffffffffffffffffffffffffffffffffff1673ffffffffffffffffffffffffffffffffffffffff168152602001908152602001600020600082825461103a9190612d7b565b925050819055506001600a60008673ffffffffffffffffffffffffffffffffffffffff1673ffffffffffffffffffffffffffffffffffffffff16815260200190815260200160002060008282546110919190612d7b565b9250508190555060006040518060a001604052808581526020016040518060400160405280600481526020017f4e616d650000000000000000000000000000000000000000000000000000000081525081526020016040518060400160405280600b81526020017f4465736372697074696f6e00000000000000000000000000000000000000000081525081526020016040518060400160405280600981526020017f496d61676548617368000000000000000000000000000000000000000000000081525081526020013373ffffffffffffffffffffffffffffffffffffffff16815250905060088190806001815401808255809150506001900390600052602060002090600502016000909190919091506000820151816000015560208201518160010190816111c39190612f5b565b5060408201518160020190816111d99190612f5b565b5060608201518160030190816111ef9190612f5b565b5060808201518160040160006101000a81548173ffffffffffffffffffffffffffffffffffffffff021916908373ffffffffffffffffffffffffffffffffffffffff16021790555050505050505050565b6000600560008473ffffffffffffffffffffffffffffffffffffffff1673ffffffffffffffffffffffffffffffffffffffff16815260200190815260200160002060008373ffffffffffffffffffffffffffffffffffffffff1673ffffffffffffffffffffffffffffffffffffffff16815260200190815260200160002060009054906101000a900460ff16905092915050565b6112dc611735565b600073ffffffffffffffffffffffffffffffffffffffff168173ffffffffffffffffffffffffffffffffffffffff160361134e5760006040517f1e4fbdf700000000000000000000000000000000000000000000000000000000815260040161134591906125b4565b60405180910390fd5b611357816117bc565b50565b60007f80ac58cd000000000000000000000000000000000000000000000000000000007bffffffffffffffffffffffffffffffffffffffffffffffffffffffff1916827bffffffffffffffffffffffffffffffffffffffffffffffffffffffff1916148061142557507f5b5e139f000000000000000000000000000000000000000000000000000000007bffffffffffffffffffffffffffffffffffffffffffffffffffffffff1916827bffffffffffffffffffffffffffffffffffffffffffffffffffffffff1916145b80611435575061143482611d7d565b5b9050919050565b60008061144883611de7565b9050600073ffffffffffffffffffffffffffffffffffffffff168173ffffffffffffffffffffffffffffffffffffffff16036114bb57826040517f7e2732890000000000000000000000000000000000000000000000000000000081526004016114b2919061269d565b60405180910390fd5b80915050919050565b60006004600083815260200190815260200160002060009054906101000a900473ffffffffffffffffffffffffffffffffffffffff169050919050565b600033905090565b6115168383836001611e24565b505050565b60008061152784611de7565b9050600073ffffffffffffffffffffffffffffffffffffffff168373ffffffffffffffffffffffffffffffffffffffff161461156957611568818486611fe9565b5b600073ffffffffffffffffffffffffffffffffffffffff168173ffffffffffffffffffffffffffffffffffffffff16146115fa576115ab600085600080611e24565b6001600360008373ffffffffffffffffffffffffffffffffffffffff1673ffffffffffffffffffffffffffffffffffffffff168152602001908152602001600020600082825403925050819055505b600073ffffffffffffffffffffffffffffffffffffffff168573ffffffffffffffffffffffffffffffffffffffff161461167d576001600360008773ffffffffffffffffffffffffffffffffffffffff1673ffffffffffffffffffffffffffffffffffffffff168152602001908152602001600020600082825401925050819055505b846002600086815260200190815260200160002060006101000a81548173ffffffffffffffffffffffffffffffffffffffff021916908373ffffffffffffffffffffffffffffffffffffffff160217905550838573ffffffffffffffffffffffffffffffffffffffff168273ffffffffffffffffffffffffffffffffffffffff167fddf252ad1be2c89b69c2b068fc378daa952ba7f163c4a11628f55a4df523b3ef60405160405180910390a4809150509392505050565b61173d611501565b73ffffffffffffffffffffffffffffffffffffffff1661175b610a86565b73ffffffffffffffffffffffffffffffffffffffff16146117ba5761177e611501565b6040517f118cdaa70000000000000000000000000000000000000000000000000000000081526004016117b191906125b4565b60405180910390fd5b565b6000600760009054906101000a900473ffffffffffffffffffffffffffffffffffffffff16905081600760006101000a81548173ffffffffffffffffffffffffffffffffffffffff021916908373ffffffffffffffffffffffffffffffffffffffff1602179055508173ffffffffffffffffffffffffffffffffffffffff168173ffffffffffffffffffffffffffffffffffffffff167f8be0079c531659141344cd1fd0a4f28419497f9722a3daafe3b4186f6b6457e060405160405180910390a35050565b600073ffffffffffffffffffffffffffffffffffffffff168273ffffffffffffffffffffffffffffffffffffffff16036118f357816040517f5b08ba180000000000000000000000000000000000000000000000000000000081526004016118ea91906125b4565b60405180910390fd5b80600560008573ffffffffffffffffffffffffffffffffffffffff1673ffffffffffffffffffffffffffffffffffffffff16815260200190815260200160002060008473ffffffffffffffffffffffffffffffffffffffff1673ffffffffffffffffffffffffffffffffffffffff16815260200190815260200160002060006101000a81548160ff0219169083151502179055508173ffffffffffffffffffffffffffffffffffffffff168373ffffffffffffffffffffffffffffffffffffffff167f17307eab39ab6107e8899845ad3d59bd9653f200f220920489ca2b5937696c31836040516119e49190612443565b60405180910390a3505050565b60008373ffffffffffffffffffffffffffffffffffffffff163b1115611ba2578273ffffffffffffffffffffffffffffffffffffffff1663150b7a02611a35611501565b8685856040518563ffffffff1660e01b8152600401611a579493929190613082565b6020604051808303816000875af1925050508015611a9357506040513d601f19601f82011682018060405250810190611a9091906130e3565b60015b611b17573d8060008114611ac3576040519150601f19603f3d011682016040523d82523d6000602084013e611ac8565b606091505b506000815103611b0f57836040517f64a0ae92000000000000000000000000000000000000000000000000000000008152600401611b0691906125b4565b60405180910390fd5b805181602001fd5b63150b7a0260e01b7bffffffffffffffffffffffffffffffffffffffffffffffffffffffff1916817bffffffffffffffffffffffffffffffffffffffffffffffffffffffff191614611ba057836040517f64a0ae92000000000000000000000000000000000000000000000000000000008152600401611b9791906125b4565b60405180910390fd5b505b50505050565b606060405180602001604052806000815250905090565b6060611bca8261143c565b506000611bd5611ba8565b90506000815111611bf55760405180602001604052806000815250611c20565b80611bff846120ad565b604051602001611c10929190612d28565b6040516020818303038152906040525b915050919050565b600073ffffffffffffffffffffffffffffffffffffffff168273ffffffffffffffffffffffffffffffffffffffff1603611c9a5760006040517f64a0ae92000000000000000000000000000000000000000000000000000000008152600401611c9191906125b4565b60405180910390fd5b6000611ca88383600061151b565b9050600073ffffffffffffffffffffffffffffffffffffffff168173ffffffffffffffffffffffffffffffffffffffff1614611d1c5760006040517f73c6ac6e000000000000000000000000000000000000000000000000000000008152600401611d1391906125b4565b60405180910390fd5b505050565b80600660008481526020019081526020016000209081611d419190612f5b565b507ff8e1a15aba9398e019f0b49df1a4fde98ee17ae345cb5f6b5e2c27f5033e8ce782604051611d71919061269d565b60405180910390a15050565b60007f01ffc9a7000000000000000000000000000000000000000000000000000000007bffffffffffffffffffffffffffffffffffffffffffffffffffffffff1916827bffffffffffffffffffffffffffffffffffffffffffffffffffffffff1916149050919050565b60006002600083815260200190815260200160002060009054906101000a900473ffffffffffffffffffffffffffffffffffffffff169050919050565b8080611e5d5750600073ffffffffffffffffffffffffffffffffffffffff168273ffffffffffffffffffffffffffffffffffffffff1614155b15611f91576000611e6d8461143c565b9050600073ffffffffffffffffffffffffffffffffffffffff168373ffffffffffffffffffffffffffffffffffffffff1614158015611ed857508273ffffffffffffffffffffffffffffffffffffffff168173ffffffffffffffffffffffffffffffffffffffff1614155b8015611eeb5750611ee98184611240565b155b15611f2d57826040517fa9fbf51f000000000000000000000000000000000000000000000000000000008152600401611f2491906125b4565b60405180910390fd5b8115611f8f57838573ffffffffffffffffffffffffffffffffffffffff168273ffffffffffffffffffffffffffffffffffffffff167f8c5be1e5ebec7d5bd14f71427d1e84f3dd0314c0f7b2291e5b200ac8c7c3b92560405160405180910390a45b505b836004600085815260200190815260200160002060006101000a81548173ffffffffffffffffffffffffffffffffffffffff021916908373ffffffffffffffffffffffffffffffffffffffff16021790555050505050565b611ff483838361217b565b6120a857600073ffffffffffffffffffffffffffffffffffffffff168373ffffffffffffffffffffffffffffffffffffffff160361206957806040517f7e273289000000000000000000000000000000000000000000000000000000008152600401612060919061269d565b60405180910390fd5b81816040517f177e802f00000000000000000000000000000000000000000000000000000000815260040161209f929190613110565b60405180910390fd5b505050565b6060600060016120bc8461223c565b01905060008167ffffffffffffffff8111156120db576120da612993565b5b6040519080825280601f01601f19166020018201604052801561210d5781602001600182028036833780820191505090505b509050600082602001820190505b600115612170578080600190039150507f3031323334353637383961626364656600000000000000000000000000000000600a86061a8153600a858161216457612163613139565b5b0494506000850361211b575b819350505050919050565b60008073ffffffffffffffffffffffffffffffffffffffff168373ffffffffffffffffffffffffffffffffffffffff161415801561223357508273ffffffffffffffffffffffffffffffffffffffff168473ffffffffffffffffffffffffffffffffffffffff1614806121f457506121f38484611240565b5b8061223257508273ffffffffffffffffffffffffffffffffffffffff1661221a836114c4565b73ffffffffffffffffffffffffffffffffffffffff16145b5b90509392505050565b600080600090507a184f03e93ff9f4daa797ed6e38ed64bf6a1f010000000000000000831061229a577a184f03e93ff9f4daa797ed6e38ed64bf6a1f01000000000000000083816122905761228f613139565b5b0492506040810190505b6d04ee2d6d415b85acef810000000083106122d7576d04ee2d6d415b85acef810000000083816122cd576122cc613139565b5b0492506020810190505b662386f26fc10000831061230657662386f26fc1000083816122fc576122fb613139565b5b0492506010810190505b6305f5e100831061232f576305f5e100838161232557612324613139565b5b0492506008810190505b612710831061235457612710838161234a57612349613139565b5b0492506004810190505b60648310612377576064838161236d5761236c613139565b5b0492506002810190505b600a8310612386576001810190505b80915050919050565b6000604051905090565b600080fd5b600080fd5b60007fffffffff0000000000000000000000000000000000000000000000000000000082169050919050565b6123d8816123a3565b81146123e357600080fd5b50565b6000813590506123f5816123cf565b92915050565b60006020828403121561241157612410612399565b5b600061241f848285016123e6565b91505092915050565b60008115159050919050565b61243d81612428565b82525050565b60006020820190506124586000830184612434565b92915050565b600081519050919050565b600082825260208201905092915050565b60005b8381101561249857808201518184015260208101905061247d565b60008484015250505050565b6000601f19601f8301169050919050565b60006124c08261245e565b6124ca8185612469565b93506124da81856020860161247a565b6124e3816124a4565b840191505092915050565b6000602082019050818103600083015261250881846124b5565b905092915050565b6000819050919050565b61252381612510565b811461252e57600080fd5b50565b6000813590506125408161251a565b92915050565b60006020828403121561255c5761255b612399565b5b600061256a84828501612531565b91505092915050565b600073ffffffffffffffffffffffffffffffffffffffff82169050919050565b600061259e82612573565b9050919050565b6125ae81612593565b82525050565b60006020820190506125c960008301846125a5565b92915050565b6125d881612593565b81146125e357600080fd5b50565b6000813590506125f5816125cf565b92915050565b6000806040838503121561261257612611612399565b5b6000612620858286016125e6565b925050602061263185828601612531565b9150509250929050565b60008060006060848603121561265457612653612399565b5b6000612662868287016125e6565b9350506020612673868287016125e6565b925050604061268486828701612531565b9150509250925092565b61269781612510565b82525050565b60006020820190506126b2600083018461268e565b92915050565b6000602082840312156126ce576126cd612399565b5b60006126dc848285016125e6565b91505092915050565b600060a0820190506126fa600083018861268e565b818103602083015261270c81876124b5565b9050818103604083015261272081866124b5565b9050818103606083015261273481856124b5565b905061274360808301846125a5565b9695505050505050565b61275681612428565b811461276157600080fd5b50565b6000813590506127738161274d565b92915050565b600080604083850312156127905761278f612399565b5b600061279e858286016125e6565b92505060206127af85828601612764565b9150509250929050565b600081519050919050565b600082825260208201905092915050565b6000819050602082019050919050565b6127ee81612510565b82525050565b600082825260208201905092915050565b60006128108261245e565b61281a81856127f4565b935061282a81856020860161247a565b612833816124a4565b840191505092915050565b61284781612593565b82525050565b600060a08301600083015161286560008601826127e5565b506020830151848203602086015261287d8282612805565b915050604083015184820360408601526128978282612805565b915050606083015184820360608601526128b18282612805565b91505060808301516128c6608086018261283e565b508091505092915050565b60006128dd838361284d565b905092915050565b6000602082019050919050565b60006128fd826127b9565b61290781856127c4565b935083602082028501612919856127d5565b8060005b85811015612955578484038952815161293685826128d1565b9450612941836128e5565b925060208a0199505060018101905061291d565b50829750879550505050505092915050565b6000602082019050818103600083015261298181846128f2565b905092915050565b600080fd5b600080fd5b7f4e487b7100000000000000000000000000000000000000000000000000000000600052604160045260246000fd5b6129cb826124a4565b810181811067ffffffffffffffff821117156129ea576129e9612993565b5b80604052505050565b60006129fd61238f565b9050612a0982826129c2565b919050565b600067ffffffffffffffff821115612a2957612a28612993565b5b612a32826124a4565b9050602081019050919050565b82818337600083830152505050565b6000612a61612a5c84612a0e565b6129f3565b905082815260208101848484011115612a7d57612a7c61298e565b5b612a88848285612a3f565b509392505050565b600082601f830112612aa557612aa4612989565b5b8135612ab5848260208601612a4e565b91505092915050565b60008060008060808587031215612ad857612ad7612399565b5b6000612ae6878288016125e6565b9450506020612af7878288016125e6565b9350506040612b0887828801612531565b925050606085013567ffffffffffffffff811115612b2957612b2861239e565b5b612b3587828801612a90565b91505092959194509250565b600080fd5b600080fd5b60008083601f840112612b6157612b60612989565b5b8235905067ffffffffffffffff811115612b7e57612b7d612b41565b5b602083019150836001820283011115612b9a57612b99612b46565b5b9250929050565b60008060008060608587031215612bbb57612bba612399565b5b6000612bc9878288016125e6565b9450506020612bda87828801612531565b935050604085013567ffffffffffffffff811115612bfb57612bfa61239e565b5b612c0787828801612b4b565b925092505092959194509250565b60008060408385031215612c2c57612c2b612399565b5b6000612c3a858286016125e6565b9250506020612c4b858286016125e6565b9150509250929050565b7f4e487b7100000000000000000000000000000000000000000000000000000000600052602260045260246000fd5b60006002820490506001821680612c9c57607f821691505b602082108103612caf57612cae612c55565b5b50919050565b6000606082019050612cca60008301866125a5565b612cd7602083018561268e565b612ce460408301846125a5565b949350505050565b600081905092915050565b6000612d028261245e565b612d0c8185612cec565b9350612d1c81856020860161247a565b80840191505092915050565b6000612d348285612cf7565b9150612d408284612cf7565b91508190509392505050565b7f4e487b7100000000000000000000000000000000000000000000000000000000600052601160045260246000fd5b6000612d8682612510565b9150612d9183612510565b9250828201905080821115612da957612da8612d4c565b5b92915050565b60008190508160005260206000209050919050565b60006020601f8301049050919050565b600082821b905092915050565b600060088302612e117fffffffffffffffffffffffffffffffffffffffffffffffffffffffffffffffff82612dd4565b612e1b8683612dd4565b95508019841693508086168417925050509392505050565b6000819050919050565b6000612e58612e53612e4e84612510565b612e33565b612510565b9050919050565b6000819050919050565b612e7283612e3d565b612e86612e7e82612e5f565b848454612de1565b825550505050565b600090565b612e9b612e8e565b612ea6818484612e69565b505050565b5b81811015612eca57612ebf600082612e93565b600181019050612eac565b5050565b601f821115612f0f57612ee081612daf565b612ee984612dc4565b81016020851015612ef8578190505b612f0c612f0485612dc4565b830182612eab565b50505b505050565b600082821c905092915050565b6000612f3260001984600802612f14565b1980831691505092915050565b6000612f4b8383612f21565b9150826002028217905092915050565b612f648261245e565b67ffffffffffffffff811115612f7d57612f7c612993565b5b612f878254612c84565b612f92828285612ece565b600060209050601f831160018114612fc55760008415612fb3578287015190505b612fbd8582612f3f565b865550613025565b601f198416612fd386612daf565b60005b82811015612ffb57848901518255600182019150602085019450602081019050612fd6565b868310156130185784890151613014601f891682612f21565b8355505b6001600288020188555050505b505050505050565b600081519050919050565b600082825260208201905092915050565b60006130548261302d565b61305e8185613038565b935061306e81856020860161247a565b613077816124a4565b840191505092915050565b600060808201905061309760008301876125a5565b6130a460208301866125a5565b6130b1604083018561268e565b81810360608301526130c38184613049565b905095945050505050565b6000815190506130dd816123cf565b92915050565b6000602082840312156130f9576130f8612399565b5b6000613107848285016130ce565b91505092915050565b600060408201905061312560008301856125a5565b613132602083018461268e565b9392505050565b7f4e487b7100000000000000000000000000000000000000000000000000000000600052601260045260246000fdfea264697066735822122071d78dff245b1efd5f5b9c85796f70179ed8ed99c9854df144de87b06a3b991d64736f6c634300081b0033",
  "linkReferences": {},
  "deployedLinkReferences": {}
}