{
  "_format": "hh-sol-artifact-1",
  "contractName": "Nft",
  "sourceName": "contracts/NFT.sol",
  "abi": [
    {
      "inputs": [
        {
          "internalType": "string",
          "name": "name",
          "type": "string"
        },
        {
          "internalType": "string",
          "name": "symbol",
          "type": "string"
        },
        {
          "internalType": "address",
          "name": "initialOwner",
          "type": "address"
        }
      ],
      "stateMutability": "nonpayable",
      "type": "constructor"
    },
    {
      "inputs": [
        {
          "internalType": "address",
          "name": "sender",
          "type": "address"
        },
        {
          "internalType": "uint256",
          "name": "tokenId",
          "type": "uint256"
        },
        {
          "internalType": "address",
          "name": "owner",
          "type": "address"
        }
      ],
      "name": "ERC721IncorrectOwner",
      "type": "error"
    },
    {
      "inputs": [
        {
          "internalType": "address",
          "name": "operator",
          "type": "address"
        },
        {
          "internalType": "uint256",
          "name": "tokenId",
          "type": "uint256"
        }
      ],
      "name": "ERC721InsufficientApproval",
      "type": "error"
    },
    {
      "inputs": [
        {
          "internalType": "address",
          "name": "approver",
          "type": "address"
        }
      ],
      "name": "ERC721InvalidApprover",
      "type": "error"
    },
    {
      "inputs": [
        {
          "internalType": "address",
          "name": "operator",
          "type": "address"
        }
      ],
      "name": "ERC721InvalidOperator",
      "type": "error"
    },
    {
      "inputs": [
        {
          "internalType": "address",
          "name": "owner",
          "type": "address"
        }
      ],
      "name": "ERC721InvalidOwner",
      "type": "error"
    },
    {
      "inputs": [
        {
          "internalType": "address",
          "name": "receiver",
          "type": "address"
        }
      ],
      "name": "ERC721InvalidReceiver",
      "type": "error"
    },
    {
      "inputs": [
        {
          "internalType": "address",
          "name": "sender",
          "type": "address"
        }
      ],
      "name": "ERC721InvalidSender",
      "type": "error"
    },
    {
      "inputs": [
        {
          "internalType": "uint256",
          "name": "tokenId",
          "type": "uint256"
        }
      ],
      "name": "ERC721NonexistentToken",
      "type": "error"
    },
    {
      "inputs": [
        {
          "internalType": "address",
          "name": "owner",
          "type": "address"
        }
      ],
      "name": "OwnableInvalidOwner",
      "type": "error"
    },
    {
      "inputs": [
        {
          "internalType": "address",
          "name": "account",
          "type": "address"
        }
      ],
      "name": "OwnableUnauthorizedAccount",
      "type": "error"
    },
    {
      "anonymous": false,
      "inputs": [
        {
          "indexed": true,
          "internalType": "address",
          "name": "owner",
          "type": "address"
        },
        {
          "indexed": true,
          "internalType": "address",
          "name": "approved",
          "type": "address"
        },
        {
          "indexed": true,
          "internalType": "uint256",
          "name": "tokenId",
          "type": "uint256"
        }
      ],
      "name": "Approval",
      "type": "event"
    },
    {
      "anonymous": false,
      "inputs": [
        {
          "indexed": true,
          "internalType": "address",
          "name": "owner",
          "type": "address"
        },
        {
          "indexed": true,
          "internalType": "address",
          "name": "operator",
          "type": "address"
        },
        {
          "indexed": false,
          "internalType": "bool",
          "name": "approved",
          "type": "bool"
        }
      ],
      "name": "ApprovalForAll",
      "type": "event"
    },
    {
      "anonymous": false,
      "inputs": [
        {
          "indexed": false,
          "internalType": "uint256",
          "name": "_fromTokenId",
          "type": "uint256"
        },
        {
          "indexed": false,
          "internalType": "uint256",
          "name": "_toTokenId",
          "type": "uint256"
        }
      ],
      "name": "BatchMetadataUpdate",
      "type": "event"
    },
    {
      "anonymous": false,
      "inputs": [
        {
          "indexed": false,
          "internalType": "uint256",
          "name": "_tokenId",
          "type": "uint256"
        }
      ],
      "name": "MetadataUpdate",
      "type": "event"
    },
    {
      "anonymous": false,
      "inputs": [
        {
          "indexed": true,
          "internalType": "address",
          "name": "previousOwner",
          "type": "address"
        },
        {
          "indexed": true,
          "internalType": "address",
          "name": "newOwner",
          "type": "address"
        }
      ],
      "name": "OwnershipTransferred",
      "type": "event"
    },
    {
      "anonymous": false,
      "inputs": [
        {
          "indexed": true,
          "internalType": "address",
          "name": "from",
          "type": "address"
        },
        {
          "indexed": true,
          "internalType": "address",
          "name": "to",
          "type": "address"
        },
        {
          "indexed": true,
          "internalType": "uint256",
          "name": "tokenId",
          "type": "uint256"
        }
      ],
      "name": "Transfer",
      "type": "event"
    },
    {
      "inputs": [
        {
          "internalType": "address",
          "name": "to",
          "type": "address"
        },
        {
          "internalType": "uint256",
          "name": "tokenId",
          "type": "uint256"
        }
      ],
      "name": "approve",
      "outputs": [],
      "stateMutability": "nonpayable",
      "type": "function"
    },
    {
      "inputs": [
        {
          "internalType": "address",
          "name": "owner",
          "type": "address"
        }
      ],
      "name": "balanceOf",
      "outputs": [
        {
          "internalType": "uint256",
          "name": "",
          "type": "uint256"
        }
      ],
      "stateMutability": "view",
      "type": "function"
    },
    {
      "inputs": [
        {
          "internalType": "uint256",
          "name": "tokenId",
          "type": "uint256"
        }
      ],
      "name": "getApproved",
      "outputs": [
        {
          "internalType": "address",
          "name": "",
          "type": "address"
        }
      ],
      "stateMutability": "view",
      "type": "function"
    },
    {
      "inputs": [
        {
          "internalType": "address",
          "name": "owner",
          "type": "address"
        },
        {
          "internalType": "address",
          "name": "operator",
          "type": "address"
        }
      ],
      "name": "isApprovedForAll",
      "outputs": [
        {
          "internalType": "bool",
          "name": "",
          "type": "bool"
        }
      ],
      "stateMutability": "view",
      "type": "function"
    },
    {
      "inputs": [
        {
          "internalType": "address",
          "name": "_to",
          "type": "address"
        },
        {
          "internalType": "uint256",
          "name": "tokenId",
          "type": "uint256"
        },
        {
          "internalType": "string",
          "name": "_uri",
          "type": "string"
        }
      ],
      "name": "mint",
      "outputs": [],
      "stateMutability": "nonpayable",
      "type": "function"
    },
    {
      "inputs": [],
      "name": "name",
      "outputs": [
        {
          "internalType": "string",
          "name": "",
          "type": "string"
        }
      ],
      "stateMutability": "view",
      "type": "function"
    },
    {
      "inputs": [
        {
          "internalType": "address",
          "name": "owner",
          "type": "address"
        }
      ],
      "name": "nftsMinted",
      "outputs": [
        {
          "internalType": "uint256",
          "name": "",
          "type": "uint256"
        }
      ],
      "stateMutability": "view",
      "type": "function"
    },
    {
      "inputs": [
        {
          "internalType": "address",
          "name": "owner",
          "type": "address"
        }
      ],
      "name": "nftsOwned",
      "outputs": [
        {
          "internalType": "uint256",
          "name": "",
          "type": "uint256"
        }
      ],
      "stateMutability": "view",
      "type": "function"
    },
    {
      "inputs": [],
      "name": "owner",
      "outputs": [
        {
          "internalType": "address",
          "name": "",
          "type": "address"
        }
      ],
      "stateMutability": "view",
      "type": "function"
    },
    {
      "inputs": [
        {
          "internalType": "uint256",
          "name": "tokenId",
          "type": "uint256"
        }
      ],
      "name": "ownerOf",
      "outputs": [
        {
          "internalType": "address",
          "name": "",
          "type": "address"
        }
      ],
      "stateMutability": "view",
      "type": "function"
    },
    {
      "inputs": [],
      "name": "renounceOwnership",
      "outputs": [],
      "stateMutability": "nonpayable",
      "type": "function"
    },
    {
      "inputs": [
        {
          "internalType": "address",
          "name": "from",
          "type": "address"
        },
        {
          "internalType": "address",
          "name": "to",
          "type": "address"
        },
        {
          "internalType": "uint256",
          "name": "tokenId",
          "type": "uint256"
        }
      ],
      "name": "safeTransferFrom",
      "outputs": [],
      "stateMutability": "nonpayable",
      "type": "function"
    },
    {
      "inputs": [
        {
          "internalType": "address",
          "name": "from",
          "type": "address"
        },
        {
          "internalType": "address",
          "name": "to",
          "type": "address"
        },
        {
          "internalType": "uint256",
          "name": "tokenId",
          "type": "uint256"
        },
        {
          "internalType": "bytes",
          "name": "data",
          "type": "bytes"
        }
      ],
      "name": "safeTransferFrom",
      "outputs": [],
      "stateMutability": "nonpayable",
      "type": "function"
    },
    {
      "inputs": [
        {
          "internalType": "address",
          "name": "operator",
          "type": "address"
        },
        {
          "internalType": "bool",
          "name": "approved",
          "type": "bool"
        }
      ],
      "name": "setApprovalForAll",
      "outputs": [],
      "stateMutability": "nonpayable",
      "type": "function"
    },
    {
      "inputs": [
        {
          "internalType": "bytes4",
          "name": "interfaceId",
          "type": "bytes4"
        }
      ],
      "name": "supportsInterface",
      "outputs": [
        {
          "internalType": "bool",
          "name": "",
          "type": "bool"
        }
      ],
      "stateMutability": "view",
      "type": "function"
    },
    {
      "inputs": [],
      "name": "symbol",
      "outputs": [
        {
          "internalType": "string",
          "name": "",
          "type": "string"
        }
      ],
      "stateMutability": "view",
      "type": "function"
    },
    {
      "inputs": [
        {
          "internalType": "address",
          "name": "_owner",
          "type": "address"
        },
        {
          "internalType": "uint256",
          "name": "_index",
          "type": "uint256"
        }
      ],
      "name": "tokenOfOwnerByIndex",
      "outputs": [
        {
          "internalType": "uint256",
          "name": "",
          "type": "uint256"
        }
      ],
      "stateMutability": "view",
      "type": "function"
    },
    {
      "inputs": [
        {
          "internalType": "uint256",
          "name": "tokenId",
          "type": "uint256"
        }
      ],
      "name": "tokenURI",
      "outputs": [
        {
          "internalType": "string",
          "name": "",
          "type": "string"
        }
      ],
      "stateMutability": "view",
      "type": "function"
    },
    {
      "inputs": [
        {
          "internalType": "address",
          "name": "from",
          "type": "address"
        },
        {
          "internalType": "address",
          "name": "to",
          "type": "address"
        },
        {
          "internalType": "uint256",
          "name": "tokenId",
          "type": "uint256"
        }
      ],
      "name": "transferFrom",
      "outputs": [],
      "stateMutability": "nonpayable",
      "type": "function"
    },
    {
      "inputs": [
        {
          "internalType": "address",
          "name": "newOwner",
          "type": "address"
        }
      ],
      "name": "transferOwnership",
      "outputs": [],
      "stateMutability": "nonpayable",
      "type": "function"
    }
  ],
  "bytecode": "0x608060405234801561000f575f5ffd5b50604051612ecc380380612ecc83398181016040528101906100319190610347565b808383815f908161004291906105df565b50806001908161005291906105df565b5050505f73ffffffffffffffffffffffffffffffffffffffff168173ffffffffffffffffffffffffffffffffffffffff16036100c5575f6040517f1e4fbdf70000000000000000000000000000000000000000000000000000000081526004016100bc91906106bd565b60405180910390fd5b6100d4816100dd60201b60201c565b505050506106d6565b5f60075f9054906101000a900473ffffffffffffffffffffffffffffffffffffffff1690508160075f6101000a81548173ffffffffffffffffffffffffffffffffffffffff021916908373ffffffffffffffffffffffffffffffffffffffff1602179055508173ffffffffffffffffffffffffffffffffffffffff168173ffffffffffffffffffffffffffffffffffffffff167f8be0079c531659141344cd1fd0a4f28419497f9722a3daafe3b4186f6b6457e060405160405180910390a35050565b5f604051905090565b5f5ffd5b5f5ffd5b5f5ffd5b5f5ffd5b5f601f19601f8301169050919050565b7f4e487b71000000000000000000000000000000000000000000000000000000005f52604160045260245ffd5b6101ff826101b9565b810181811067ffffffffffffffff8211171561021e5761021d6101c9565b5b80604052505050565b5f6102306101a0565b905061023c82826101f6565b919050565b5f67ffffffffffffffff82111561025b5761025a6101c9565b5b610264826101b9565b9050602081019050919050565b8281835e5f83830152505050565b5f61029161028c84610241565b610227565b9050828152602081018484840111156102ad576102ac6101b5565b5b6102b8848285610271565b509392505050565b5f82601f8301126102d4576102d36101b1565b5b81516102e484826020860161027f565b91505092915050565b5f73ffffffffffffffffffffffffffffffffffffffff82169050919050565b5f610316826102ed565b9050919050565b6103268161030c565b8114610330575f5ffd5b50565b5f815190506103418161031d565b92915050565b5f5f5f6060848603121561035e5761035d6101a9565b5b5f84015167ffffffffffffffff81111561037b5761037a6101ad565b5b610387868287016102c0565b935050602084015167ffffffffffffffff8111156103a8576103a76101ad565b5b6103b4868287016102c0565b92505060406103c586828701610333565b9150509250925092565b5f81519050919050565b7f4e487b71000000000000000000000000000000000000000000000000000000005f52602260045260245ffd5b5f600282049050600182168061041d57607f821691505b6020821081036104305761042f6103d9565b5b50919050565b5f819050815f5260205f209050919050565b5f6020601f8301049050919050565b5f82821b905092915050565b5f600883026104927fffffffffffffffffffffffffffffffffffffffffffffffffffffffffffffffff82610457565b61049c8683610457565b95508019841693508086168417925050509392505050565b5f819050919050565b5f819050919050565b5f6104e06104db6104d6846104b4565b6104bd565b6104b4565b9050919050565b5f819050919050565b6104f9836104c6565b61050d610505826104e7565b848454610463565b825550505050565b5f5f905090565b610524610515565b61052f8184846104f0565b505050565b5b81811015610552576105475f8261051c565b600181019050610535565b5050565b601f8211156105975761056881610436565b61057184610448565b81016020851015610580578190505b61059461058c85610448565b830182610534565b50505b505050565b5f82821c905092915050565b5f6105b75f198460080261059c565b1980831691505092915050565b5f6105cf83836105a8565b9150826002028217905092915050565b6105e8826103cf565b67ffffffffffffffff811115610601576106006101c9565b5b61060b8254610406565b610616828285610556565b5f60209050601f831160018114610647575f8415610635578287015190505b61063f85826105c4565b8655506106a6565b601f19841661065586610436565b5f5b8281101561067c57848901518255600182019150602085019450602081019050610657565b868310156106995784890151610695601f8916826105a8565b8355505b6001600288020188555050505b505050505050565b6106b78161030c565b82525050565b5f6020820190506106d05f8301846106ae565b92915050565b6127e9806106e35f395ff3fe608060405234801561000f575f5ffd5b506004361061012a575f3560e01c8063715018a6116100ab578063b88d4fde1161006f578063b88d4fde14610352578063c87b56dd1461036e578063d3fc98641461039e578063e985e9c5146103ba578063f2fde38b146103ea5761012a565b8063715018a6146102c05780638baafe13146102ca5780638da5cb5b146102fa57806395d89b4114610318578063a22cb465146103365761012a565b80632f745c59116100f25780632f745c59146101e457806341de982e1461021457806342842e0e146102445780636352211e1461026057806370a08231146102905761012a565b806301ffc9a71461012e57806306fdde031461015e578063081812fc1461017c578063095ea7b3146101ac57806323b872dd146101c8575b5f5ffd5b61014860048036038101906101439190611cf7565b610406565b6040516101559190611d3c565b60405180910390f35b610166610466565b6040516101739190611dc5565b60405180910390f35b61019660048036038101906101919190611e18565b6104f5565b6040516101a39190611e82565b60405180910390f35b6101c660048036038101906101c19190611ec5565b610510565b005b6101e260048036038101906101dd9190611f03565b610526565b005b6101fe60048036038101906101f99190611ec5565b610625565b60405161020b9190611f62565b60405180910390f35b61022e60048036038101906102299190611f7b565b61067d565b60405161023b9190611f62565b60405180910390f35b61025e60048036038101906102599190611f03565b6106c3565b005b61027a60048036038101906102759190611e18565b6106e2565b6040516102879190611e82565b60405180910390f35b6102aa60048036038101906102a59190611f7b565b6106f3565b6040516102b79190611f62565b60405180910390f35b6102c86107a9565b005b6102e460048036038101906102df9190611f7b565b6107bc565b6040516102f19190611f62565b60405180910390f35b610302610802565b60405161030f9190611e82565b60405180910390f35b61032061082a565b60405161032d9190611dc5565b60405180910390f35b610350600480360381019061034b9190611fd0565b6108ba565b005b61036c6004803603810190610367919061213a565b6108d0565b005b61038860048036038101906103839190611e18565b6108ed565b6040516103959190611dc5565b60405180910390f35b6103b860048036038101906103b39190612217565b6109f8565b005b6103d460048036038101906103cf9190612288565b610b8e565b6040516103e19190611d3c565b60405180910390f35b61040460048036038101906103ff9190611f7b565b610c1c565b005b5f634906490660e01b7bffffffffffffffffffffffffffffffffffffffffffffffffffffffff1916827bffffffffffffffffffffffffffffffffffffffffffffffffffffffff1916148061045f575061045e82610ca0565b5b9050919050565b60605f8054610474906122f3565b80601f01602080910402602001604051908101604052809291908181526020018280546104a0906122f3565b80156104eb5780601f106104c2576101008083540402835291602001916104eb565b820191905f5260205f20905b8154815290600101906020018083116104ce57829003601f168201915b5050505050905090565b5f6104ff82610d81565b5061050982610e07565b9050919050565b610522828261051d610e40565b610e47565b5050565b5f73ffffffffffffffffffffffffffffffffffffffff168273ffffffffffffffffffffffffffffffffffffffff1603610596575f6040517f64a0ae9200000000000000000000000000000000000000000000000000000000815260040161058d9190611e82565b60405180910390fd5b5f6105a983836105a4610e40565b610e59565b90508373ffffffffffffffffffffffffffffffffffffffff168173ffffffffffffffffffffffffffffffffffffffff161461061f578382826040517f64283d7b00000000000000000000000000000000000000000000000000000000815260040161061693929190612323565b60405180910390fd5b50505050565b5f600a5f8473ffffffffffffffffffffffffffffffffffffffff1673ffffffffffffffffffffffffffffffffffffffff1681526020019081526020015f205f8381526020019081526020015f205f0154905092915050565b5f60085f8373ffffffffffffffffffffffffffffffffffffffff1673ffffffffffffffffffffffffffffffffffffffff1681526020019081526020015f20549050919050565b6106dd83838360405180602001604052805f8152506108d0565b505050565b5f6106ec82610d81565b9050919050565b5f5f73ffffffffffffffffffffffffffffffffffffffff168273ffffffffffffffffffffffffffffffffffffffff1603610764575f6040517f89c62b6400000000000000000000000000000000000000000000000000000000815260040161075b9190611e82565b60405180910390fd5b60035f8373ffffffffffffffffffffffffffffffffffffffff1673ffffffffffffffffffffffffffffffffffffffff1681526020019081526020015f20549050919050565b6107b1611064565b6107ba5f6110eb565b565b5f60095f8373ffffffffffffffffffffffffffffffffffffffff1673ffffffffffffffffffffffffffffffffffffffff1681526020019081526020015f20549050919050565b5f60075f9054906101000a900473ffffffffffffffffffffffffffffffffffffffff16905090565b606060018054610839906122f3565b80601f0160208091040260200160405190810160405280929190818152602001828054610865906122f3565b80156108b05780601f10610887576101008083540402835291602001916108b0565b820191905f5260205f20905b81548152906001019060200180831161089357829003601f168201915b5050505050905090565b6108cc6108c5610e40565b83836111ae565b5050565b6108db848484610526565b6108e784848484611317565b50505050565b60606108f882610d81565b505f60065f8481526020019081526020015f208054610916906122f3565b80601f0160208091040260200160405190810160405280929190818152602001828054610942906122f3565b801561098d5780601f106109645761010080835404028352916020019161098d565b820191905f5260205f20905b81548152906001019060200180831161097057829003601f168201915b505050505090505f61099d6114c9565b90505f8151036109b15781925050506109f3565b5f825111156109e55780826040516020016109cd929190612392565b604051602081830303815290604052925050506109f3565b6109ee846114df565b925050505b919050565b610a00611064565b610a0a8484611545565b610a578383838080601f0160208091040260200160405190810160405280939291908181526020018383808284375f81840152601f19601f82011690508083019250505050505050611638565b5f5f90505b610a65336106f3565b811015610adf57604051806020016040528085815250600a5f8773ffffffffffffffffffffffffffffffffffffffff1673ffffffffffffffffffffffffffffffffffffffff1681526020019081526020015f205f8381526020019081526020015f205f820151815f01559050508080600101915050610a5c565b50600160085f8673ffffffffffffffffffffffffffffffffffffffff1673ffffffffffffffffffffffffffffffffffffffff1681526020019081526020015f205f828254610b2d91906123e2565b92505081905550600160095f8673ffffffffffffffffffffffffffffffffffffffff1673ffffffffffffffffffffffffffffffffffffffff1681526020019081526020015f205f828254610b8191906123e2565b9250508190555050505050565b5f60055f8473ffffffffffffffffffffffffffffffffffffffff1673ffffffffffffffffffffffffffffffffffffffff1681526020019081526020015f205f8373ffffffffffffffffffffffffffffffffffffffff1673ffffffffffffffffffffffffffffffffffffffff1681526020019081526020015f205f9054906101000a900460ff16905092915050565b610c24611064565b5f73ffffffffffffffffffffffffffffffffffffffff168173ffffffffffffffffffffffffffffffffffffffff1603610c94575f6040517f1e4fbdf7000000000000000000000000000000000000000000000000000000008152600401610c8b9190611e82565b60405180910390fd5b610c9d816110eb565b50565b5f7f80ac58cd000000000000000000000000000000000000000000000000000000007bffffffffffffffffffffffffffffffffffffffffffffffffffffffff1916827bffffffffffffffffffffffffffffffffffffffffffffffffffffffff19161480610d6a57507f5b5e139f000000000000000000000000000000000000000000000000000000007bffffffffffffffffffffffffffffffffffffffffffffffffffffffff1916827bffffffffffffffffffffffffffffffffffffffffffffffffffffffff1916145b80610d7a5750610d7982611692565b5b9050919050565b5f5f610d8c836116fb565b90505f73ffffffffffffffffffffffffffffffffffffffff168173ffffffffffffffffffffffffffffffffffffffff1603610dfe57826040517f7e273289000000000000000000000000000000000000000000000000000000008152600401610df59190611f62565b60405180910390fd5b80915050919050565b5f60045f8381526020019081526020015f205f9054906101000a900473ffffffffffffffffffffffffffffffffffffffff169050919050565b5f33905090565b610e548383836001611734565b505050565b5f5f610e64846116fb565b90505f73ffffffffffffffffffffffffffffffffffffffff168373ffffffffffffffffffffffffffffffffffffffff1614610ea557610ea48184866118f3565b5b5f73ffffffffffffffffffffffffffffffffffffffff168173ffffffffffffffffffffffffffffffffffffffff1614610f3057610ee45f855f5f611734565b600160035f8373ffffffffffffffffffffffffffffffffffffffff1673ffffffffffffffffffffffffffffffffffffffff1681526020019081526020015f205f82825403925050819055505b5f73ffffffffffffffffffffffffffffffffffffffff168573ffffffffffffffffffffffffffffffffffffffff1614610faf57600160035f8773ffffffffffffffffffffffffffffffffffffffff1673ffffffffffffffffffffffffffffffffffffffff1681526020019081526020015f205f82825401925050819055505b8460025f8681526020019081526020015f205f6101000a81548173ffffffffffffffffffffffffffffffffffffffff021916908373ffffffffffffffffffffffffffffffffffffffff160217905550838573ffffffffffffffffffffffffffffffffffffffff168273ffffffffffffffffffffffffffffffffffffffff167fddf252ad1be2c89b69c2b068fc378daa952ba7f163c4a11628f55a4df523b3ef60405160405180910390a4809150509392505050565b61106c610e40565b73ffffffffffffffffffffffffffffffffffffffff1661108a610802565b73ffffffffffffffffffffffffffffffffffffffff16146110e9576110ad610e40565b6040517f118cdaa70000000000000000000000000000000000000000000000000000000081526004016110e09190611e82565b60405180910390fd5b565b5f60075f9054906101000a900473ffffffffffffffffffffffffffffffffffffffff1690508160075f6101000a81548173ffffffffffffffffffffffffffffffffffffffff021916908373ffffffffffffffffffffffffffffffffffffffff1602179055508173ffffffffffffffffffffffffffffffffffffffff168173ffffffffffffffffffffffffffffffffffffffff167f8be0079c531659141344cd1fd0a4f28419497f9722a3daafe3b4186f6b6457e060405160405180910390a35050565b5f73ffffffffffffffffffffffffffffffffffffffff168273ffffffffffffffffffffffffffffffffffffffff160361121e57816040517f5b08ba180000000000000000000000000000000000000000000000000000000081526004016112159190611e82565b60405180910390fd5b8060055f8573ffffffffffffffffffffffffffffffffffffffff1673ffffffffffffffffffffffffffffffffffffffff1681526020019081526020015f205f8473ffffffffffffffffffffffffffffffffffffffff1673ffffffffffffffffffffffffffffffffffffffff1681526020019081526020015f205f6101000a81548160ff0219169083151502179055508173ffffffffffffffffffffffffffffffffffffffff168373ffffffffffffffffffffffffffffffffffffffff167f17307eab39ab6107e8899845ad3d59bd9653f200f220920489ca2b5937696c318360405161130a9190611d3c565b60405180910390a3505050565b5f8373ffffffffffffffffffffffffffffffffffffffff163b11156114c3578273ffffffffffffffffffffffffffffffffffffffff1663150b7a0261135a610e40565b8685856040518563ffffffff1660e01b815260040161137c9493929190612467565b6020604051808303815f875af19250505080156113b757506040513d601f19601f820116820180604052508101906113b491906124c5565b60015b611438573d805f81146113e5576040519150601f19603f3d011682016040523d82523d5f602084013e6113ea565b606091505b505f81510361143057836040517f64a0ae920000000000000000000000000000000000000000000000000000000081526004016114279190611e82565b60405180910390fd5b805181602001fd5b63150b7a0260e01b7bffffffffffffffffffffffffffffffffffffffffffffffffffffffff1916817bffffffffffffffffffffffffffffffffffffffffffffffffffffffff1916146114c157836040517f64a0ae920000000000000000000000000000000000000000000000000000000081526004016114b89190611e82565b60405180910390fd5b505b50505050565b606060405180602001604052805f815250905090565b60606114ea82610d81565b505f6114f46114c9565b90505f8151116115125760405180602001604052805f81525061153d565b8061151c846119b6565b60405160200161152d929190612392565b6040516020818303038152906040525b915050919050565b5f73ffffffffffffffffffffffffffffffffffffffff168273ffffffffffffffffffffffffffffffffffffffff16036115b5575f6040517f64a0ae920000000000000000000000000000000000000000000000000000000081526004016115ac9190611e82565b60405180910390fd5b5f6115c183835f610e59565b90505f73ffffffffffffffffffffffffffffffffffffffff168173ffffffffffffffffffffffffffffffffffffffff1614611633575f6040517f73c6ac6e00000000000000000000000000000000000000000000000000000000815260040161162a9190611e82565b60405180910390fd5b505050565b8060065f8481526020019081526020015f2090816116569190612690565b507ff8e1a15aba9398e019f0b49df1a4fde98ee17ae345cb5f6b5e2c27f5033e8ce7826040516116869190611f62565b60405180910390a15050565b5f7f01ffc9a7000000000000000000000000000000000000000000000000000000007bffffffffffffffffffffffffffffffffffffffffffffffffffffffff1916827bffffffffffffffffffffffffffffffffffffffffffffffffffffffff1916149050919050565b5f60025f8381526020019081526020015f205f9054906101000a900473ffffffffffffffffffffffffffffffffffffffff169050919050565b808061176c57505f73ffffffffffffffffffffffffffffffffffffffff168273ffffffffffffffffffffffffffffffffffffffff1614155b1561189e575f61177b84610d81565b90505f73ffffffffffffffffffffffffffffffffffffffff168373ffffffffffffffffffffffffffffffffffffffff16141580156117e557508273ffffffffffffffffffffffffffffffffffffffff168173ffffffffffffffffffffffffffffffffffffffff1614155b80156117f857506117f68184610b8e565b155b1561183a57826040517fa9fbf51f0000000000000000000000000000000000000000000000000000000081526004016118319190611e82565b60405180910390fd5b811561189c57838573ffffffffffffffffffffffffffffffffffffffff168273ffffffffffffffffffffffffffffffffffffffff167f8c5be1e5ebec7d5bd14f71427d1e84f3dd0314c0f7b2291e5b200ac8c7c3b92560405160405180910390a45b505b8360045f8581526020019081526020015f205f6101000a81548173ffffffffffffffffffffffffffffffffffffffff021916908373ffffffffffffffffffffffffffffffffffffffff16021790555050505050565b6118fe838383611a80565b6119b1575f73ffffffffffffffffffffffffffffffffffffffff168373ffffffffffffffffffffffffffffffffffffffff160361197257806040517f7e2732890000000000000000000000000000000000000000000000000000000081526004016119699190611f62565b60405180910390fd5b81816040517f177e802f0000000000000000000000000000000000000000000000000000000081526004016119a892919061275f565b60405180910390fd5b505050565b60605f60016119c484611b40565b0190505f8167ffffffffffffffff8111156119e2576119e1612016565b5b6040519080825280601f01601f191660200182016040528015611a145781602001600182028036833780820191505090505b5090505f82602001820190505b600115611a75578080600190039150507f3031323334353637383961626364656600000000000000000000000000000000600a86061a8153600a8581611a6a57611a69612786565b5b0494505f8503611a21575b819350505050919050565b5f5f73ffffffffffffffffffffffffffffffffffffffff168373ffffffffffffffffffffffffffffffffffffffff1614158015611b3757508273ffffffffffffffffffffffffffffffffffffffff168473ffffffffffffffffffffffffffffffffffffffff161480611af85750611af78484610b8e565b5b80611b3657508273ffffffffffffffffffffffffffffffffffffffff16611b1e83610e07565b73ffffffffffffffffffffffffffffffffffffffff16145b5b90509392505050565b5f5f5f90507a184f03e93ff9f4daa797ed6e38ed64bf6a1f0100000000000000008310611b9c577a184f03e93ff9f4daa797ed6e38ed64bf6a1f0100000000000000008381611b9257611b91612786565b5b0492506040810190505b6d04ee2d6d415b85acef81000000008310611bd9576d04ee2d6d415b85acef81000000008381611bcf57611bce612786565b5b0492506020810190505b662386f26fc100008310611c0857662386f26fc100008381611bfe57611bfd612786565b5b0492506010810190505b6305f5e1008310611c31576305f5e1008381611c2757611c26612786565b5b0492506008810190505b6127108310611c56576127108381611c4c57611c4b612786565b5b0492506004810190505b60648310611c795760648381611c6f57611c6e612786565b5b0492506002810190505b600a8310611c88576001810190505b80915050919050565b5f604051905090565b5f5ffd5b5f5ffd5b5f7fffffffff0000000000000000000000000000000000000000000000000000000082169050919050565b611cd681611ca2565b8114611ce0575f5ffd5b50565b5f81359050611cf181611ccd565b92915050565b5f60208284031215611d0c57611d0b611c9a565b5b5f611d1984828501611ce3565b91505092915050565b5f8115159050919050565b611d3681611d22565b82525050565b5f602082019050611d4f5f830184611d2d565b92915050565b5f81519050919050565b5f82825260208201905092915050565b8281835e5f83830152505050565b5f601f19601f8301169050919050565b5f611d9782611d55565b611da18185611d5f565b9350611db1818560208601611d6f565b611dba81611d7d565b840191505092915050565b5f6020820190508181035f830152611ddd8184611d8d565b905092915050565b5f819050919050565b611df781611de5565b8114611e01575f5ffd5b50565b5f81359050611e1281611dee565b92915050565b5f60208284031215611e2d57611e2c611c9a565b5b5f611e3a84828501611e04565b91505092915050565b5f73ffffffffffffffffffffffffffffffffffffffff82169050919050565b5f611e6c82611e43565b9050919050565b611e7c81611e62565b82525050565b5f602082019050611e955f830184611e73565b92915050565b611ea481611e62565b8114611eae575f5ffd5b50565b5f81359050611ebf81611e9b565b92915050565b5f5f60408385031215611edb57611eda611c9a565b5b5f611ee885828601611eb1565b9250506020611ef985828601611e04565b9150509250929050565b5f5f5f60608486031215611f1a57611f19611c9a565b5b5f611f2786828701611eb1565b9350506020611f3886828701611eb1565b9250506040611f4986828701611e04565b9150509250925092565b611f5c81611de5565b82525050565b5f602082019050611f755f830184611f53565b92915050565b5f60208284031215611f9057611f8f611c9a565b5b5f611f9d84828501611eb1565b91505092915050565b611faf81611d22565b8114611fb9575f5ffd5b50565b5f81359050611fca81611fa6565b92915050565b5f5f60408385031215611fe657611fe5611c9a565b5b5f611ff385828601611eb1565b925050602061200485828601611fbc565b9150509250929050565b5f5ffd5b5f5ffd5b7f4e487b71000000000000000000000000000000000000000000000000000000005f52604160045260245ffd5b61204c82611d7d565b810181811067ffffffffffffffff8211171561206b5761206a612016565b5b80604052505050565b5f61207d611c91565b90506120898282612043565b919050565b5f67ffffffffffffffff8211156120a8576120a7612016565b5b6120b182611d7d565b9050602081019050919050565b828183375f83830152505050565b5f6120de6120d98461208e565b612074565b9050828152602081018484840111156120fa576120f9612012565b5b6121058482856120be565b509392505050565b5f82601f8301126121215761212061200e565b5b81356121318482602086016120cc565b91505092915050565b5f5f5f5f6080858703121561215257612151611c9a565b5b5f61215f87828801611eb1565b945050602061217087828801611eb1565b935050604061218187828801611e04565b925050606085013567ffffffffffffffff8111156121a2576121a1611c9e565b5b6121ae8782880161210d565b91505092959194509250565b5f5ffd5b5f5ffd5b5f5f83601f8401126121d7576121d661200e565b5b8235905067ffffffffffffffff8111156121f4576121f36121ba565b5b6020830191508360018202830111156122105761220f6121be565b5b9250929050565b5f5f5f5f6060858703121561222f5761222e611c9a565b5b5f61223c87828801611eb1565b945050602061224d87828801611e04565b935050604085013567ffffffffffffffff81111561226e5761226d611c9e565b5b61227a878288016121c2565b925092505092959194509250565b5f5f6040838503121561229e5761229d611c9a565b5b5f6122ab85828601611eb1565b92505060206122bc85828601611eb1565b9150509250929050565b7f4e487b71000000000000000000000000000000000000000000000000000000005f52602260045260245ffd5b5f600282049050600182168061230a57607f821691505b60208210810361231d5761231c6122c6565b5b50919050565b5f6060820190506123365f830186611e73565b6123436020830185611f53565b6123506040830184611e73565b949350505050565b5f81905092915050565b5f61236c82611d55565b6123768185612358565b9350612386818560208601611d6f565b80840191505092915050565b5f61239d8285612362565b91506123a98284612362565b91508190509392505050565b7f4e487b71000000000000000000000000000000000000000000000000000000005f52601160045260245ffd5b5f6123ec82611de5565b91506123f783611de5565b925082820190508082111561240f5761240e6123b5565b5b92915050565b5f81519050919050565b5f82825260208201905092915050565b5f61243982612415565b612443818561241f565b9350612453818560208601611d6f565b61245c81611d7d565b840191505092915050565b5f60808201905061247a5f830187611e73565b6124876020830186611e73565b6124946040830185611f53565b81810360608301526124a6818461242f565b905095945050505050565b5f815190506124bf81611ccd565b92915050565b5f602082840312156124da576124d9611c9a565b5b5f6124e7848285016124b1565b91505092915050565b5f819050815f5260205f209050919050565b5f6020601f8301049050919050565b5f82821b905092915050565b5f6008830261254c7fffffffffffffffffffffffffffffffffffffffffffffffffffffffffffffffff82612511565b6125568683612511565b95508019841693508086168417925050509392505050565b5f819050919050565b5f61259161258c61258784611de5565b61256e565b611de5565b9050919050565b5f819050919050565b6125aa83612577565b6125be6125b682612598565b84845461251d565b825550505050565b5f5f905090565b6125d56125c6565b6125e08184846125a1565b505050565b5b81811015612603576125f85f826125cd565b6001810190506125e6565b5050565b601f82111561264857612619816124f0565b61262284612502565b81016020851015612631578190505b61264561263d85612502565b8301826125e5565b50505b505050565b5f82821c905092915050565b5f6126685f198460080261264d565b1980831691505092915050565b5f6126808383612659565b9150826002028217905092915050565b61269982611d55565b67ffffffffffffffff8111156126b2576126b1612016565b5b6126bc82546122f3565b6126c7828285612607565b5f60209050601f8311600181146126f8575f84156126e6578287015190505b6126f08582612675565b865550612757565b601f198416612706866124f0565b5f5b8281101561272d57848901518255600182019150602085019450602081019050612708565b8683101561274a5784890151612746601f891682612659565b8355505b6001600288020188555050505b505050505050565b5f6040820190506127725f830185611e73565b61277f6020830184611f53565b9392505050565b7f4e487b71000000000000000000000000000000000000000000000000000000005f52601260045260245ffdfea26469706673582212208c78a9df023bc5f55d29d9992f940457c7f15cca72b8f39eaa3c7528fb82a0dd64736f6c634300081b0033",
  "linkReferences": {},
  "deployedLinkReferences": {}
}