{
  "_format": "hh-sol-artifact-1",
  "contractName": "Nft",
  "sourceName": "contracts/NFT.sol",
  "abi": [
    {
      "inputs": [
        {
          "internalType": "string",
          "name": "name",
          "type": "string"
        },
        {
          "internalType": "string",
          "name": "symbol",
          "type": "string"
        },
        {
          "internalType": "address",
          "name": "initialOwner",
          "type": "address"
        }
      ],
      "stateMutability": "nonpayable",
      "type": "constructor"
    },
    {
      "inputs": [
        {
          "internalType": "address",
          "name": "sender",
          "type": "address"
        },
        {
          "internalType": "uint256",
          "name": "tokenId",
          "type": "uint256"
        },
        {
          "internalType": "address",
          "name": "owner",
          "type": "address"
        }
      ],
      "name": "ERC721IncorrectOwner",
      "type": "error"
    },
    {
      "inputs": [
        {
          "internalType": "address",
          "name": "operator",
          "type": "address"
        },
        {
          "internalType": "uint256",
          "name": "tokenId",
          "type": "uint256"
        }
      ],
      "name": "ERC721InsufficientApproval",
      "type": "error"
    },
    {
      "inputs": [
        {
          "internalType": "address",
          "name": "approver",
          "type": "address"
        }
      ],
      "name": "ERC721InvalidApprover",
      "type": "error"
    },
    {
      "inputs": [
        {
          "internalType": "address",
          "name": "operator",
          "type": "address"
        }
      ],
      "name": "ERC721InvalidOperator",
      "type": "error"
    },
    {
      "inputs": [
        {
          "internalType": "address",
          "name": "owner",
          "type": "address"
        }
      ],
      "name": "ERC721InvalidOwner",
      "type": "error"
    },
    {
      "inputs": [
        {
          "internalType": "address",
          "name": "receiver",
          "type": "address"
        }
      ],
      "name": "ERC721InvalidReceiver",
      "type": "error"
    },
    {
      "inputs": [
        {
          "internalType": "address",
          "name": "sender",
          "type": "address"
        }
      ],
      "name": "ERC721InvalidSender",
      "type": "error"
    },
    {
      "inputs": [
        {
          "internalType": "uint256",
          "name": "tokenId",
          "type": "uint256"
        }
      ],
      "name": "ERC721NonexistentToken",
      "type": "error"
    },
    {
      "inputs": [
        {
          "internalType": "address",
          "name": "owner",
          "type": "address"
        }
      ],
      "name": "OwnableInvalidOwner",
      "type": "error"
    },
    {
      "inputs": [
        {
          "internalType": "address",
          "name": "account",
          "type": "address"
        }
      ],
      "name": "OwnableUnauthorizedAccount",
      "type": "error"
    },
    {
      "anonymous": false,
      "inputs": [
        {
          "indexed": true,
          "internalType": "address",
          "name": "owner",
          "type": "address"
        },
        {
          "indexed": true,
          "internalType": "address",
          "name": "approved",
          "type": "address"
        },
        {
          "indexed": true,
          "internalType": "uint256",
          "name": "tokenId",
          "type": "uint256"
        }
      ],
      "name": "Approval",
      "type": "event"
    },
    {
      "anonymous": false,
      "inputs": [
        {
          "indexed": true,
          "internalType": "address",
          "name": "owner",
          "type": "address"
        },
        {
          "indexed": true,
          "internalType": "address",
          "name": "operator",
          "type": "address"
        },
        {
          "indexed": false,
          "internalType": "bool",
          "name": "approved",
          "type": "bool"
        }
      ],
      "name": "ApprovalForAll",
      "type": "event"
    },
    {
      "anonymous": false,
      "inputs": [
        {
          "indexed": false,
          "internalType": "uint256",
          "name": "_fromTokenId",
          "type": "uint256"
        },
        {
          "indexed": false,
          "internalType": "uint256",
          "name": "_toTokenId",
          "type": "uint256"
        }
      ],
      "name": "BatchMetadataUpdate",
      "type": "event"
    },
    {
      "anonymous": false,
      "inputs": [
        {
          "indexed": false,
          "internalType": "uint256",
          "name": "_tokenId",
          "type": "uint256"
        }
      ],
      "name": "MetadataUpdate",
      "type": "event"
    },
    {
      "anonymous": false,
      "inputs": [
        {
          "indexed": true,
          "internalType": "address",
          "name": "previousOwner",
          "type": "address"
        },
        {
          "indexed": true,
          "internalType": "address",
          "name": "newOwner",
          "type": "address"
        }
      ],
      "name": "OwnershipTransferred",
      "type": "event"
    },
    {
      "anonymous": false,
      "inputs": [
        {
          "indexed": true,
          "internalType": "address",
          "name": "from",
          "type": "address"
        },
        {
          "indexed": true,
          "internalType": "address",
          "name": "to",
          "type": "address"
        },
        {
          "indexed": true,
          "internalType": "uint256",
          "name": "tokenId",
          "type": "uint256"
        }
      ],
      "name": "Transfer",
      "type": "event"
    },
    {
      "inputs": [
        {
          "internalType": "address",
          "name": "",
          "type": "address"
        }
      ],
      "name": "addressToEarnings",
      "outputs": [
        {
          "internalType": "uint256",
          "name": "",
          "type": "uint256"
        }
      ],
      "stateMutability": "view",
      "type": "function"
    },
    {
      "inputs": [
        {
          "internalType": "address",
          "name": "to",
          "type": "address"
        },
        {
          "internalType": "uint256",
          "name": "tokenId",
          "type": "uint256"
        }
      ],
      "name": "approve",
      "outputs": [],
      "stateMutability": "nonpayable",
      "type": "function"
    },
    {
      "inputs": [
        {
          "internalType": "address",
          "name": "owner",
          "type": "address"
        }
      ],
      "name": "balanceOf",
      "outputs": [
        {
          "internalType": "uint256",
          "name": "",
          "type": "uint256"
        }
      ],
      "stateMutability": "view",
      "type": "function"
    },
    {
      "inputs": [
        {
          "internalType": "uint256",
          "name": "tokenId",
          "type": "uint256"
        },
        {
          "internalType": "address",
          "name": "user",
          "type": "address"
        }
      ],
      "name": "checkAccess",
      "outputs": [
        {
          "internalType": "bool",
          "name": "",
          "type": "bool"
        }
      ],
      "stateMutability": "view",
      "type": "function"
    },
    {
      "inputs": [
        {
          "internalType": "uint256",
          "name": "tokenId",
          "type": "uint256"
        }
      ],
      "name": "getApproved",
      "outputs": [
        {
          "internalType": "address",
          "name": "",
          "type": "address"
        }
      ],
      "stateMutability": "view",
      "type": "function"
    },
    {
      "inputs": [
        {
          "internalType": "address",
          "name": "creator",
          "type": "address"
        }
      ],
      "name": "getCreatorEarnings",
      "outputs": [
        {
          "internalType": "uint256",
          "name": "",
          "type": "uint256"
        }
      ],
      "stateMutability": "view",
      "type": "function"
    },
    {
      "inputs": [],
      "name": "getNftFeed",
      "outputs": [
        {
          "internalType": "uint256[]",
          "name": "",
          "type": "uint256[]"
        }
      ],
      "stateMutability": "view",
      "type": "function"
    },
    {
      "inputs": [
        {
          "internalType": "uint256",
          "name": "",
          "type": "uint256"
        },
        {
          "internalType": "address",
          "name": "",
          "type": "address"
        }
      ],
      "name": "hasAccess",
      "outputs": [
        {
          "internalType": "bool",
          "name": "",
          "type": "bool"
        }
      ],
      "stateMutability": "view",
      "type": "function"
    },
    {
      "inputs": [
        {
          "internalType": "address",
          "name": "owner",
          "type": "address"
        },
        {
          "internalType": "address",
          "name": "operator",
          "type": "address"
        }
      ],
      "name": "isApprovedForAll",
      "outputs": [
        {
          "internalType": "bool",
          "name": "",
          "type": "bool"
        }
      ],
      "stateMutability": "view",
      "type": "function"
    },
    {
      "inputs": [
        {
          "internalType": "address",
          "name": "_to",
          "type": "address"
        },
        {
          "internalType": "uint256",
          "name": "tokenId",
          "type": "uint256"
        },
        {
          "internalType": "string",
          "name": "_uri",
          "type": "string"
        },
        {
          "internalType": "uint256",
          "name": "price",
          "type": "uint256"
        },
        {
          "internalType": "bool",
          "name": "isOneTimeSale",
          "type": "bool"
        }
      ],
      "name": "mint",
      "outputs": [],
      "stateMutability": "nonpayable",
      "type": "function"
    },
    {
      "inputs": [],
      "name": "name",
      "outputs": [
        {
          "internalType": "string",
          "name": "",
          "type": "string"
        }
      ],
      "stateMutability": "view",
      "type": "function"
    },
    {
      "inputs": [
        {
          "internalType": "uint256",
          "name": "",
          "type": "uint256"
        }
      ],
      "name": "nftFeed",
      "outputs": [
        {
          "internalType": "uint256",
          "name": "",
          "type": "uint256"
        }
      ],
      "stateMutability": "view",
      "type": "function"
    },
    {
      "inputs": [
        {
          "internalType": "uint256",
          "name": "",
          "type": "uint256"
        }
      ],
      "name": "nfts",
      "outputs": [
        {
          "internalType": "uint256",
          "name": "tokenId",
          "type": "uint256"
        },
        {
          "internalType": "address",
          "name": "creator",
          "type": "address"
        },
        {
          "internalType": "string",
          "name": "tokenURI",
          "type": "string"
        },
        {
          "internalType": "uint256",
          "name": "price",
          "type": "uint256"
        },
        {
          "internalType": "bool",
          "name": "isOneTimeSale",
          "type": "bool"
        }
      ],
      "stateMutability": "view",
      "type": "function"
    },
    {
      "inputs": [],
      "name": "owner",
      "outputs": [
        {
          "internalType": "address",
          "name": "",
          "type": "address"
        }
      ],
      "stateMutability": "view",
      "type": "function"
    },
    {
      "inputs": [
        {
          "internalType": "uint256",
          "name": "tokenId",
          "type": "uint256"
        }
      ],
      "name": "ownerOf",
      "outputs": [
        {
          "internalType": "address",
          "name": "",
          "type": "address"
        }
      ],
      "stateMutability": "view",
      "type": "function"
    },
    {
      "inputs": [
        {
          "internalType": "uint256",
          "name": "tokenId",
          "type": "uint256"
        }
      ],
      "name": "purchaseNFT",
      "outputs": [],
      "stateMutability": "payable",
      "type": "function"
    },
    {
      "inputs": [],
      "name": "renounceOwnership",
      "outputs": [],
      "stateMutability": "nonpayable",
      "type": "function"
    },
    {
      "inputs": [
        {
          "internalType": "address",
          "name": "from",
          "type": "address"
        },
        {
          "internalType": "address",
          "name": "to",
          "type": "address"
        },
        {
          "internalType": "uint256",
          "name": "tokenId",
          "type": "uint256"
        }
      ],
      "name": "safeTransferFrom",
      "outputs": [],
      "stateMutability": "nonpayable",
      "type": "function"
    },
    {
      "inputs": [
        {
          "internalType": "address",
          "name": "from",
          "type": "address"
        },
        {
          "internalType": "address",
          "name": "to",
          "type": "address"
        },
        {
          "internalType": "uint256",
          "name": "tokenId",
          "type": "uint256"
        },
        {
          "internalType": "bytes",
          "name": "data",
          "type": "bytes"
        }
      ],
      "name": "safeTransferFrom",
      "outputs": [],
      "stateMutability": "nonpayable",
      "type": "function"
    },
    {
      "inputs": [
        {
          "internalType": "address",
          "name": "operator",
          "type": "address"
        },
        {
          "internalType": "bool",
          "name": "approved",
          "type": "bool"
        }
      ],
      "name": "setApprovalForAll",
      "outputs": [],
      "stateMutability": "nonpayable",
      "type": "function"
    },
    {
      "inputs": [
        {
          "internalType": "bytes4",
          "name": "interfaceId",
          "type": "bytes4"
        }
      ],
      "name": "supportsInterface",
      "outputs": [
        {
          "internalType": "bool",
          "name": "",
          "type": "bool"
        }
      ],
      "stateMutability": "view",
      "type": "function"
    },
    {
      "inputs": [],
      "name": "symbol",
      "outputs": [
        {
          "internalType": "string",
          "name": "",
          "type": "string"
        }
      ],
      "stateMutability": "view",
      "type": "function"
    },
    {
      "inputs": [
        {
          "internalType": "uint256",
          "name": "tokenId",
          "type": "uint256"
        }
      ],
      "name": "tokenURI",
      "outputs": [
        {
          "internalType": "string",
          "name": "",
          "type": "string"
        }
      ],
      "stateMutability": "view",
      "type": "function"
    },
    {
      "inputs": [
        {
          "internalType": "address",
          "name": "from",
          "type": "address"
        },
        {
          "internalType": "address",
          "name": "to",
          "type": "address"
        },
        {
          "internalType": "uint256",
          "name": "tokenId",
          "type": "uint256"
        }
      ],
      "name": "transferFrom",
      "outputs": [],
      "stateMutability": "nonpayable",
      "type": "function"
    },
    {
      "inputs": [
        {
          "internalType": "address",
          "name": "newOwner",
          "type": "address"
        }
      ],
      "name": "transferOwnership",
      "outputs": [],
      "stateMutability": "nonpayable",
      "type": "function"
    }
  ],
  "bytecode": "0x608060405234801561001057600080fd5b5060405161387a38038061387a8339818101604052810190610032919061037a565b80838381600090816100449190610626565b5080600190816100549190610626565b505050600073ffffffffffffffffffffffffffffffffffffffff168173ffffffffffffffffffffffffffffffffffffffff16036100c95760006040517f1e4fbdf70000000000000000000000000000000000000000000000000000000081526004016100c09190610707565b60405180910390fd5b6100d8816100e160201b60201c565b50505050610722565b6000600760009054906101000a900473ffffffffffffffffffffffffffffffffffffffff16905081600760006101000a81548173ffffffffffffffffffffffffffffffffffffffff021916908373ffffffffffffffffffffffffffffffffffffffff1602179055508173ffffffffffffffffffffffffffffffffffffffff168173ffffffffffffffffffffffffffffffffffffffff167f8be0079c531659141344cd1fd0a4f28419497f9722a3daafe3b4186f6b6457e060405160405180910390a35050565b6000604051905090565b600080fd5b600080fd5b600080fd5b600080fd5b6000601f19601f8301169050919050565b7f4e487b7100000000000000000000000000000000000000000000000000000000600052604160045260246000fd5b61020e826101c5565b810181811067ffffffffffffffff8211171561022d5761022c6101d6565b5b80604052505050565b60006102406101a7565b905061024c8282610205565b919050565b600067ffffffffffffffff82111561026c5761026b6101d6565b5b610275826101c5565b9050602081019050919050565b60005b838110156102a0578082015181840152602081019050610285565b60008484015250505050565b60006102bf6102ba84610251565b610236565b9050828152602081018484840111156102db576102da6101c0565b5b6102e6848285610282565b509392505050565b600082601f830112610303576103026101bb565b5b81516103138482602086016102ac565b91505092915050565b600073ffffffffffffffffffffffffffffffffffffffff82169050919050565b60006103478261031c565b9050919050565b6103578161033c565b811461036257600080fd5b50565b6000815190506103748161034e565b92915050565b600080600060608486031215610393576103926101b1565b5b600084015167ffffffffffffffff8111156103b1576103b06101b6565b5b6103bd868287016102ee565b935050602084015167ffffffffffffffff8111156103de576103dd6101b6565b5b6103ea868287016102ee565b92505060406103fb86828701610365565b9150509250925092565b600081519050919050565b7f4e487b7100000000000000000000000000000000000000000000000000000000600052602260045260246000fd5b6000600282049050600182168061045757607f821691505b60208210810361046a57610469610410565b5b50919050565b60008190508160005260206000209050919050565b60006020601f8301049050919050565b600082821b905092915050565b6000600883026104d27fffffffffffffffffffffffffffffffffffffffffffffffffffffffffffffffff82610495565b6104dc8683610495565b95508019841693508086168417925050509392505050565b6000819050919050565b6000819050919050565b600061052361051e610519846104f4565b6104fe565b6104f4565b9050919050565b6000819050919050565b61053d83610508565b6105516105498261052a565b8484546104a2565b825550505050565b600090565b610566610559565b610571818484610534565b505050565b5b818110156105955761058a60008261055e565b600181019050610577565b5050565b601f8211156105da576105ab81610470565b6105b484610485565b810160208510156105c3578190505b6105d76105cf85610485565b830182610576565b50505b505050565b600082821c905092915050565b60006105fd600019846008026105df565b1980831691505092915050565b600061061683836105ec565b9150826002028217905092915050565b61062f82610405565b67ffffffffffffffff811115610648576106476101d6565b5b610652825461043f565b61065d828285610599565b600060209050601f831160018114610690576000841561067e578287015190505b610688858261060a565b8655506106f0565b601f19841661069e86610470565b60005b828110156106c6578489015182556001820191506020850194506020810190506106a1565b868310156106e357848901516106df601f8916826105ec565b8355505b6001600288020188555050505b505050505050565b6107018161033c565b82525050565b600060208201905061071c60008301846106f8565b92915050565b613149806107316000396000f3fe6080604052600436106101665760003560e01c8063804396af116100d1578063b88d4fde1161008a578063d13c870311610064578063d13c870314610569578063dcb10a04146105a6578063e985e9c5146105e3578063f2fde38b1461062057610166565b8063b88d4fde146104c6578063c87b56dd146104ef578063ced141981461052c57610166565b8063804396af146103a25780638684e124146103df5780638da5cb5b1461041c57806395d89b4114610447578063a22cb46514610472578063a91496411461049b57610166565b8063265aa62111610123578063265aa6211461027e57806342842e0e146102bf5780636352211e146102e8578063670d07b41461032557806370a082311461034e578063715018a61461038b57610166565b806301ffc9a71461016b57806306fdde03146101a8578063081812fc146101d3578063095ea7b314610210578063150bde031461023957806323b872dd14610255575b600080fd5b34801561017757600080fd5b50610192600480360381019061018d91906122ee565b610649565b60405161019f9190612336565b60405180910390f35b3480156101b457600080fd5b506101bd6106aa565b6040516101ca91906123e1565b60405180910390f35b3480156101df57600080fd5b506101fa60048036038101906101f59190612439565b61073c565b60405161020791906124a7565b60405180910390f35b34801561021c57600080fd5b50610237600480360381019061023291906124ee565b610758565b005b610253600480360381019061024e9190612439565b61076e565b005b34801561026157600080fd5b5061027c6004803603810190610277919061252e565b6109aa565b005b34801561028a57600080fd5b506102a560048036038101906102a09190612439565b610aac565b6040516102b6959493929190612590565b60405180910390f35b3480156102cb57600080fd5b506102e660048036038101906102e1919061252e565b610b97565b005b3480156102f457600080fd5b5061030f600480360381019061030a9190612439565b610bb7565b60405161031c91906124a7565b60405180910390f35b34801561033157600080fd5b5061034c6004803603810190610347919061267b565b610bc9565b005b34801561035a57600080fd5b5061037560048036038101906103709190612715565b610cef565b6040516103829190612742565b60405180910390f35b34801561039757600080fd5b506103a0610da9565b005b3480156103ae57600080fd5b506103c960048036038101906103c49190612715565b610dbd565b6040516103d69190612742565b60405180910390f35b3480156103eb57600080fd5b5061040660048036038101906104019190612439565b610e06565b6040516104139190612742565b60405180910390f35b34801561042857600080fd5b50610431610e2a565b60405161043e91906124a7565b60405180910390f35b34801561045357600080fd5b5061045c610e54565b60405161046991906123e1565b60405180910390f35b34801561047e57600080fd5b506104996004803603810190610494919061275d565b610ee6565b005b3480156104a757600080fd5b506104b0610efc565b6040516104bd919061285b565b60405180910390f35b3480156104d257600080fd5b506104ed60048036038101906104e891906129ad565b610f54565b005b3480156104fb57600080fd5b5061051660048036038101906105119190612439565b610f71565b60405161052391906123e1565b60405180910390f35b34801561053857600080fd5b50610553600480360381019061054e9190612a30565b611084565b6040516105609190612336565b60405180910390f35b34801561057557600080fd5b50610590600480360381019061058b9190612a30565b6110b3565b60405161059d9190612336565b60405180910390f35b3480156105b257600080fd5b506105cd60048036038101906105c89190612715565b61111b565b6040516105da9190612742565b60405180910390f35b3480156105ef57600080fd5b5061060a60048036038101906106059190612a70565b611133565b6040516106179190612336565b60405180910390f35b34801561062c57600080fd5b5061064760048036038101906106429190612715565b6111c7565b005b6000634906490660e01b7bffffffffffffffffffffffffffffffffffffffffffffffffffffffff1916827bffffffffffffffffffffffffffffffffffffffffffffffffffffffff191614806106a357506106a28261124d565b5b9050919050565b6060600080546106b990612adf565b80601f01602080910402602001604051908101604052809291908181526020018280546106e590612adf565b80156107325780601f1061070757610100808354040283529160200191610732565b820191906000526020600020905b81548152906001019060200180831161071557829003601f168201915b5050505050905090565b60006107478261132f565b50610751826113b7565b9050919050565b61076a82826107656113f4565b6113fc565b5050565b6000600a6000838152602001908152602001600020905080600301543410156107cc576040517f08c379a00000000000000000000000000000000000000000000000000000000081526004016107c390612b5c565b60405180910390fd5b6009600083815260200190815260200160002060003373ffffffffffffffffffffffffffffffffffffffff1673ffffffffffffffffffffffffffffffffffffffff16815260200190815260200160002060009054906101000a900460ff161561086a576040517f08c379a000000000000000000000000000000000000000000000000000000000815260040161086190612bc8565b60405180910390fd5b60016009600084815260200190815260200160002060003373ffffffffffffffffffffffffffffffffffffffff1673ffffffffffffffffffffffffffffffffffffffff16815260200190815260200160002060006101000a81548160ff0219169083151502179055508060010160009054906101000a900473ffffffffffffffffffffffffffffffffffffffff1673ffffffffffffffffffffffffffffffffffffffff166108fc349081150290604051600060405180830381858888f1935050505015801561093d573d6000803e3d6000fd5b5034600b60008360010160009054906101000a900473ffffffffffffffffffffffffffffffffffffffff1673ffffffffffffffffffffffffffffffffffffffff1673ffffffffffffffffffffffffffffffffffffffff168152602001908152602001600020819055505050565b600073ffffffffffffffffffffffffffffffffffffffff168273ffffffffffffffffffffffffffffffffffffffff1603610a1c5760006040517f64a0ae92000000000000000000000000000000000000000000000000000000008152600401610a1391906124a7565b60405180910390fd5b6000610a308383610a2b6113f4565b61140e565b90508373ffffffffffffffffffffffffffffffffffffffff168173ffffffffffffffffffffffffffffffffffffffff1614610aa6578382826040517f64283d7b000000000000000000000000000000000000000000000000000000008152600401610a9d93929190612be8565b60405180910390fd5b50505050565b600a6020528060005260406000206000915090508060000154908060010160009054906101000a900473ffffffffffffffffffffffffffffffffffffffff1690806002018054610afb90612adf565b80601f0160208091040260200160405190810160405280929190818152602001828054610b2790612adf565b8015610b745780601f10610b4957610100808354040283529160200191610b74565b820191906000526020600020905b815481529060010190602001808311610b5757829003601f168201915b5050505050908060030154908060040160009054906101000a900460ff16905085565b610bb283838360405180602001604052806000815250610f54565b505050565b6000610bc28261132f565b9050919050565b610bd38686611628565b610c218585858080601f016020809104026020016040519081016040528093929190818152602001838380828437600081840152601f19601f82011690508083019250505050505050611721565b6000600a60008781526020019081526020016000209050858160000181905550338160010160006101000a81548173ffffffffffffffffffffffffffffffffffffffff021916908373ffffffffffffffffffffffffffffffffffffffff1602179055508484826002019182610c97929190612dd6565b50828160030181905550818160040160006101000a81548160ff021916908315150217905550600886908060018154018082558091505060019003906000526020600020016000909190919091505550505050505050565b60008073ffffffffffffffffffffffffffffffffffffffff168273ffffffffffffffffffffffffffffffffffffffff1603610d625760006040517f89c62b64000000000000000000000000000000000000000000000000000000008152600401610d5991906124a7565b60405180910390fd5b600360008373ffffffffffffffffffffffffffffffffffffffff1673ffffffffffffffffffffffffffffffffffffffff168152602001908152602001600020549050919050565b610db161177d565b610dbb6000611804565b565b6000600b60008373ffffffffffffffffffffffffffffffffffffffff1673ffffffffffffffffffffffffffffffffffffffff168152602001908152602001600020549050919050565b60088181548110610e1657600080fd5b906000526020600020016000915090505481565b6000600760009054906101000a900473ffffffffffffffffffffffffffffffffffffffff16905090565b606060018054610e6390612adf565b80601f0160208091040260200160405190810160405280929190818152602001828054610e8f90612adf565b8015610edc5780601f10610eb157610100808354040283529160200191610edc565b820191906000526020600020905b815481529060010190602001808311610ebf57829003601f168201915b5050505050905090565b610ef8610ef16113f4565b83836118ca565b5050565b60606008805480602002602001604051908101604052809291908181526020018280548015610f4a57602002820191906000526020600020905b815481526020019060010190808311610f36575b5050505050905090565b610f5f8484846109aa565b610f6b84848484611a39565b50505050565b6060610f7c8261132f565b506000600660008481526020019081526020016000208054610f9d90612adf565b80601f0160208091040260200160405190810160405280929190818152602001828054610fc990612adf565b80156110165780601f10610feb57610100808354040283529160200191611016565b820191906000526020600020905b815481529060010190602001808311610ff957829003601f168201915b505050505090506000611027611bf0565b9050600081510361103c57819250505061107f565b600082511115611071578082604051602001611059929190612ee2565b6040516020818303038152906040529250505061107f565b61107a84611c07565b925050505b919050565b60096020528160005260406000206020528060005260406000206000915091509054906101000a900460ff1681565b60006009600084815260200190815260200160002060008373ffffffffffffffffffffffffffffffffffffffff1673ffffffffffffffffffffffffffffffffffffffff16815260200190815260200160002060009054906101000a900460ff16905092915050565b600b6020528060005260406000206000915090505481565b6000600560008473ffffffffffffffffffffffffffffffffffffffff1673ffffffffffffffffffffffffffffffffffffffff16815260200190815260200160002060008373ffffffffffffffffffffffffffffffffffffffff1673ffffffffffffffffffffffffffffffffffffffff16815260200190815260200160002060009054906101000a900460ff16905092915050565b6111cf61177d565b600073ffffffffffffffffffffffffffffffffffffffff168173ffffffffffffffffffffffffffffffffffffffff16036112415760006040517f1e4fbdf700000000000000000000000000000000000000000000000000000000815260040161123891906124a7565b60405180910390fd5b61124a81611804565b50565b60007f80ac58cd000000000000000000000000000000000000000000000000000000007bffffffffffffffffffffffffffffffffffffffffffffffffffffffff1916827bffffffffffffffffffffffffffffffffffffffffffffffffffffffff1916148061131857507f5b5e139f000000000000000000000000000000000000000000000000000000007bffffffffffffffffffffffffffffffffffffffffffffffffffffffff1916827bffffffffffffffffffffffffffffffffffffffffffffffffffffffff1916145b80611328575061132782611c70565b5b9050919050565b60008061133b83611cda565b9050600073ffffffffffffffffffffffffffffffffffffffff168173ffffffffffffffffffffffffffffffffffffffff16036113ae57826040517f7e2732890000000000000000000000000000000000000000000000000000000081526004016113a59190612742565b60405180910390fd5b80915050919050565b60006004600083815260200190815260200160002060009054906101000a900473ffffffffffffffffffffffffffffffffffffffff169050919050565b600033905090565b6114098383836001611d17565b505050565b60008061141a84611cda565b9050600073ffffffffffffffffffffffffffffffffffffffff168373ffffffffffffffffffffffffffffffffffffffff161461145c5761145b818486611edc565b5b600073ffffffffffffffffffffffffffffffffffffffff168173ffffffffffffffffffffffffffffffffffffffff16146114ed5761149e600085600080611d17565b6001600360008373ffffffffffffffffffffffffffffffffffffffff1673ffffffffffffffffffffffffffffffffffffffff168152602001908152602001600020600082825403925050819055505b600073ffffffffffffffffffffffffffffffffffffffff168573ffffffffffffffffffffffffffffffffffffffff1614611570576001600360008773ffffffffffffffffffffffffffffffffffffffff1673ffffffffffffffffffffffffffffffffffffffff168152602001908152602001600020600082825401925050819055505b846002600086815260200190815260200160002060006101000a81548173ffffffffffffffffffffffffffffffffffffffff021916908373ffffffffffffffffffffffffffffffffffffffff160217905550838573ffffffffffffffffffffffffffffffffffffffff168273ffffffffffffffffffffffffffffffffffffffff167fddf252ad1be2c89b69c2b068fc378daa952ba7f163c4a11628f55a4df523b3ef60405160405180910390a4809150509392505050565b600073ffffffffffffffffffffffffffffffffffffffff168273ffffffffffffffffffffffffffffffffffffffff160361169a5760006040517f64a0ae9200000000000000000000000000000000000000000000000000000000815260040161169191906124a7565b60405180910390fd5b60006116a88383600061140e565b9050600073ffffffffffffffffffffffffffffffffffffffff168173ffffffffffffffffffffffffffffffffffffffff161461171c5760006040517f73c6ac6e00000000000000000000000000000000000000000000000000000000815260040161171391906124a7565b60405180910390fd5b505050565b806006600084815260200190815260200160002090816117419190612f06565b507ff8e1a15aba9398e019f0b49df1a4fde98ee17ae345cb5f6b5e2c27f5033e8ce7826040516117719190612742565b60405180910390a15050565b6117856113f4565b73ffffffffffffffffffffffffffffffffffffffff166117a3610e2a565b73ffffffffffffffffffffffffffffffffffffffff1614611802576117c66113f4565b6040517f118cdaa70000000000000000000000000000000000000000000000000000000081526004016117f991906124a7565b60405180910390fd5b565b6000600760009054906101000a900473ffffffffffffffffffffffffffffffffffffffff16905081600760006101000a81548173ffffffffffffffffffffffffffffffffffffffff021916908373ffffffffffffffffffffffffffffffffffffffff1602179055508173ffffffffffffffffffffffffffffffffffffffff168173ffffffffffffffffffffffffffffffffffffffff167f8be0079c531659141344cd1fd0a4f28419497f9722a3daafe3b4186f6b6457e060405160405180910390a35050565b600073ffffffffffffffffffffffffffffffffffffffff168273ffffffffffffffffffffffffffffffffffffffff160361193b57816040517f5b08ba1800000000000000000000000000000000000000000000000000000000815260040161193291906124a7565b60405180910390fd5b80600560008573ffffffffffffffffffffffffffffffffffffffff1673ffffffffffffffffffffffffffffffffffffffff16815260200190815260200160002060008473ffffffffffffffffffffffffffffffffffffffff1673ffffffffffffffffffffffffffffffffffffffff16815260200190815260200160002060006101000a81548160ff0219169083151502179055508173ffffffffffffffffffffffffffffffffffffffff168373ffffffffffffffffffffffffffffffffffffffff167f17307eab39ab6107e8899845ad3d59bd9653f200f220920489ca2b5937696c3183604051611a2c9190612336565b60405180910390a3505050565b60008373ffffffffffffffffffffffffffffffffffffffff163b1115611bea578273ffffffffffffffffffffffffffffffffffffffff1663150b7a02611a7d6113f4565b8685856040518563ffffffff1660e01b8152600401611a9f949392919061302d565b6020604051808303816000875af1925050508015611adb57506040513d601f19601f82011682018060405250810190611ad8919061308e565b60015b611b5f573d8060008114611b0b576040519150601f19603f3d011682016040523d82523d6000602084013e611b10565b606091505b506000815103611b5757836040517f64a0ae92000000000000000000000000000000000000000000000000000000008152600401611b4e91906124a7565b60405180910390fd5b805181602001fd5b63150b7a0260e01b7bffffffffffffffffffffffffffffffffffffffffffffffffffffffff1916817bffffffffffffffffffffffffffffffffffffffffffffffffffffffff191614611be857836040517f64a0ae92000000000000000000000000000000000000000000000000000000008152600401611bdf91906124a7565b60405180910390fd5b505b50505050565b606060405180602001604052806000815250905090565b6060611c128261132f565b506000611c1d611bf0565b90506000815111611c3d5760405180602001604052806000815250611c68565b80611c4784611fa0565b604051602001611c58929190612ee2565b6040516020818303038152906040525b915050919050565b60007f01ffc9a7000000000000000000000000000000000000000000000000000000007bffffffffffffffffffffffffffffffffffffffffffffffffffffffff1916827bffffffffffffffffffffffffffffffffffffffffffffffffffffffff1916149050919050565b60006002600083815260200190815260200160002060009054906101000a900473ffffffffffffffffffffffffffffffffffffffff169050919050565b8080611d505750600073ffffffffffffffffffffffffffffffffffffffff168273ffffffffffffffffffffffffffffffffffffffff1614155b15611e84576000611d608461132f565b9050600073ffffffffffffffffffffffffffffffffffffffff168373ffffffffffffffffffffffffffffffffffffffff1614158015611dcb57508273ffffffffffffffffffffffffffffffffffffffff168173ffffffffffffffffffffffffffffffffffffffff1614155b8015611dde5750611ddc8184611133565b155b15611e2057826040517fa9fbf51f000000000000000000000000000000000000000000000000000000008152600401611e1791906124a7565b60405180910390fd5b8115611e8257838573ffffffffffffffffffffffffffffffffffffffff168273ffffffffffffffffffffffffffffffffffffffff167f8c5be1e5ebec7d5bd14f71427d1e84f3dd0314c0f7b2291e5b200ac8c7c3b92560405160405180910390a45b505b836004600085815260200190815260200160002060006101000a81548173ffffffffffffffffffffffffffffffffffffffff021916908373ffffffffffffffffffffffffffffffffffffffff16021790555050505050565b611ee783838361206e565b611f9b57600073ffffffffffffffffffffffffffffffffffffffff168373ffffffffffffffffffffffffffffffffffffffff1603611f5c57806040517f7e273289000000000000000000000000000000000000000000000000000000008152600401611f539190612742565b60405180910390fd5b81816040517f177e802f000000000000000000000000000000000000000000000000000000008152600401611f929291906130bb565b60405180910390fd5b505050565b606060006001611faf8461212f565b01905060008167ffffffffffffffff811115611fce57611fcd612882565b5b6040519080825280601f01601f1916602001820160405280156120005781602001600182028036833780820191505090505b509050600082602001820190505b600115612063578080600190039150507f3031323334353637383961626364656600000000000000000000000000000000600a86061a8153600a8581612057576120566130e4565b5b0494506000850361200e575b819350505050919050565b60008073ffffffffffffffffffffffffffffffffffffffff168373ffffffffffffffffffffffffffffffffffffffff161415801561212657508273ffffffffffffffffffffffffffffffffffffffff168473ffffffffffffffffffffffffffffffffffffffff1614806120e757506120e68484611133565b5b8061212557508273ffffffffffffffffffffffffffffffffffffffff1661210d836113b7565b73ffffffffffffffffffffffffffffffffffffffff16145b5b90509392505050565b600080600090507a184f03e93ff9f4daa797ed6e38ed64bf6a1f010000000000000000831061218d577a184f03e93ff9f4daa797ed6e38ed64bf6a1f0100000000000000008381612183576121826130e4565b5b0492506040810190505b6d04ee2d6d415b85acef810000000083106121ca576d04ee2d6d415b85acef810000000083816121c0576121bf6130e4565b5b0492506020810190505b662386f26fc1000083106121f957662386f26fc1000083816121ef576121ee6130e4565b5b0492506010810190505b6305f5e1008310612222576305f5e1008381612218576122176130e4565b5b0492506008810190505b612710831061224757612710838161223d5761223c6130e4565b5b0492506004810190505b6064831061226a57606483816122605761225f6130e4565b5b0492506002810190505b600a8310612279576001810190505b80915050919050565b6000604051905090565b600080fd5b600080fd5b60007fffffffff0000000000000000000000000000000000000000000000000000000082169050919050565b6122cb81612296565b81146122d657600080fd5b50565b6000813590506122e8816122c2565b92915050565b6000602082840312156123045761230361228c565b5b6000612312848285016122d9565b91505092915050565b60008115159050919050565b6123308161231b565b82525050565b600060208201905061234b6000830184612327565b92915050565b600081519050919050565b600082825260208201905092915050565b60005b8381101561238b578082015181840152602081019050612370565b60008484015250505050565b6000601f19601f8301169050919050565b60006123b382612351565b6123bd818561235c565b93506123cd81856020860161236d565b6123d681612397565b840191505092915050565b600060208201905081810360008301526123fb81846123a8565b905092915050565b6000819050919050565b61241681612403565b811461242157600080fd5b50565b6000813590506124338161240d565b92915050565b60006020828403121561244f5761244e61228c565b5b600061245d84828501612424565b91505092915050565b600073ffffffffffffffffffffffffffffffffffffffff82169050919050565b600061249182612466565b9050919050565b6124a181612486565b82525050565b60006020820190506124bc6000830184612498565b92915050565b6124cb81612486565b81146124d657600080fd5b50565b6000813590506124e8816124c2565b92915050565b600080604083850312156125055761250461228c565b5b6000612513858286016124d9565b925050602061252485828601612424565b9150509250929050565b6000806000606084860312156125475761254661228c565b5b6000612555868287016124d9565b9350506020612566868287016124d9565b925050604061257786828701612424565b9150509250925092565b61258a81612403565b82525050565b600060a0820190506125a56000830188612581565b6125b26020830187612498565b81810360408301526125c481866123a8565b90506125d36060830185612581565b6125e06080830184612327565b9695505050505050565b600080fd5b600080fd5b600080fd5b60008083601f84011261260f5761260e6125ea565b5b8235905067ffffffffffffffff81111561262c5761262b6125ef565b5b602083019150836001820283011115612648576126476125f4565b5b9250929050565b6126588161231b565b811461266357600080fd5b50565b6000813590506126758161264f565b92915050565b60008060008060008060a087890312156126985761269761228c565b5b60006126a689828a016124d9565b96505060206126b789828a01612424565b955050604087013567ffffffffffffffff8111156126d8576126d7612291565b5b6126e489828a016125f9565b945094505060606126f789828a01612424565b925050608061270889828a01612666565b9150509295509295509295565b60006020828403121561272b5761272a61228c565b5b6000612739848285016124d9565b91505092915050565b60006020820190506127576000830184612581565b92915050565b600080604083850312156127745761277361228c565b5b6000612782858286016124d9565b925050602061279385828601612666565b9150509250929050565b600081519050919050565b600082825260208201905092915050565b6000819050602082019050919050565b6127d281612403565b82525050565b60006127e483836127c9565b60208301905092915050565b6000602082019050919050565b60006128088261279d565b61281281856127a8565b935061281d836127b9565b8060005b8381101561284e57815161283588826127d8565b9750612840836127f0565b925050600181019050612821565b5085935050505092915050565b6000602082019050818103600083015261287581846127fd565b905092915050565b600080fd5b7f4e487b7100000000000000000000000000000000000000000000000000000000600052604160045260246000fd5b6128ba82612397565b810181811067ffffffffffffffff821117156128d9576128d8612882565b5b80604052505050565b60006128ec612282565b90506128f882826128b1565b919050565b600067ffffffffffffffff82111561291857612917612882565b5b61292182612397565b9050602081019050919050565b82818337600083830152505050565b600061295061294b846128fd565b6128e2565b90508281526020810184848401111561296c5761296b61287d565b5b61297784828561292e565b509392505050565b600082601f830112612994576129936125ea565b5b81356129a484826020860161293d565b91505092915050565b600080600080608085870312156129c7576129c661228c565b5b60006129d5878288016124d9565b94505060206129e6878288016124d9565b93505060406129f787828801612424565b925050606085013567ffffffffffffffff811115612a1857612a17612291565b5b612a248782880161297f565b91505092959194509250565b60008060408385031215612a4757612a4661228c565b5b6000612a5585828601612424565b9250506020612a66858286016124d9565b9150509250929050565b60008060408385031215612a8757612a8661228c565b5b6000612a95858286016124d9565b9250506020612aa6858286016124d9565b9150509250929050565b7f4e487b7100000000000000000000000000000000000000000000000000000000600052602260045260246000fd5b60006002820490506001821680612af757607f821691505b602082108103612b0a57612b09612ab0565b5b50919050565b7f496e73756666696369656e742066756e64730000000000000000000000000000600082015250565b6000612b4660128361235c565b9150612b5182612b10565b602082019050919050565b60006020820190508181036000830152612b7581612b39565b9050919050565b7f416c726561647920707572636861736564000000000000000000000000000000600082015250565b6000612bb260118361235c565b9150612bbd82612b7c565b602082019050919050565b60006020820190508181036000830152612be181612ba5565b9050919050565b6000606082019050612bfd6000830186612498565b612c0a6020830185612581565b612c176040830184612498565b949350505050565b600082905092915050565b60008190508160005260206000209050919050565b60006020601f8301049050919050565b600082821b905092915050565b600060088302612c8c7fffffffffffffffffffffffffffffffffffffffffffffffffffffffffffffffff82612c4f565b612c968683612c4f565b95508019841693508086168417925050509392505050565b6000819050919050565b6000612cd3612cce612cc984612403565b612cae565b612403565b9050919050565b6000819050919050565b612ced83612cb8565b612d01612cf982612cda565b848454612c5c565b825550505050565b600090565b612d16612d09565b612d21818484612ce4565b505050565b5b81811015612d4557612d3a600082612d0e565b600181019050612d27565b5050565b601f821115612d8a57612d5b81612c2a565b612d6484612c3f565b81016020851015612d73578190505b612d87612d7f85612c3f565b830182612d26565b50505b505050565b600082821c905092915050565b6000612dad60001984600802612d8f565b1980831691505092915050565b6000612dc68383612d9c565b9150826002028217905092915050565b612de08383612c1f565b67ffffffffffffffff811115612df957612df8612882565b5b612e038254612adf565b612e0e828285612d49565b6000601f831160018114612e3d5760008415612e2b578287013590505b612e358582612dba565b865550612e9d565b601f198416612e4b86612c2a565b60005b82811015612e7357848901358255600182019150602085019450602081019050612e4e565b86831015612e905784890135612e8c601f891682612d9c565b8355505b6001600288020188555050505b50505050505050565b600081905092915050565b6000612ebc82612351565b612ec68185612ea6565b9350612ed681856020860161236d565b80840191505092915050565b6000612eee8285612eb1565b9150612efa8284612eb1565b91508190509392505050565b612f0f82612351565b67ffffffffffffffff811115612f2857612f27612882565b5b612f328254612adf565b612f3d828285612d49565b600060209050601f831160018114612f705760008415612f5e578287015190505b612f688582612dba565b865550612fd0565b601f198416612f7e86612c2a565b60005b82811015612fa657848901518255600182019150602085019450602081019050612f81565b86831015612fc35784890151612fbf601f891682612d9c565b8355505b6001600288020188555050505b505050505050565b600081519050919050565b600082825260208201905092915050565b6000612fff82612fd8565b6130098185612fe3565b935061301981856020860161236d565b61302281612397565b840191505092915050565b60006080820190506130426000830187612498565b61304f6020830186612498565b61305c6040830185612581565b818103606083015261306e8184612ff4565b905095945050505050565b600081519050613088816122c2565b92915050565b6000602082840312156130a4576130a361228c565b5b60006130b284828501613079565b91505092915050565b60006040820190506130d06000830185612498565b6130dd6020830184612581565b9392505050565b7f4e487b7100000000000000000000000000000000000000000000000000000000600052601260045260246000fdfea2646970667358221220f4aa75737cd12bc095f65f09f4e846335b14973a88d720d0330e6c643df0427764736f6c634300081b0033",
  "linkReferences": {},
  "deployedLinkReferences": {}
}