{
  "_format": "hh-sol-artifact-1",
  "contractName": "Nft",
  "sourceName": "contracts/NFT.sol",
  "abi": [
    {
      "inputs": [
        {
          "internalType": "string",
          "name": "name",
          "type": "string"
        },
        {
          "internalType": "string",
          "name": "symbol",
          "type": "string"
        },
        {
          "internalType": "address",
          "name": "initialOwner",
          "type": "address"
        }
      ],
      "stateMutability": "nonpayable",
      "type": "constructor"
    },
    {
      "inputs": [
        {
          "internalType": "address",
          "name": "sender",
          "type": "address"
        },
        {
          "internalType": "uint256",
          "name": "tokenId",
          "type": "uint256"
        },
        {
          "internalType": "address",
          "name": "owner",
          "type": "address"
        }
      ],
      "name": "ERC721IncorrectOwner",
      "type": "error"
    },
    {
      "inputs": [
        {
          "internalType": "address",
          "name": "operator",
          "type": "address"
        },
        {
          "internalType": "uint256",
          "name": "tokenId",
          "type": "uint256"
        }
      ],
      "name": "ERC721InsufficientApproval",
      "type": "error"
    },
    {
      "inputs": [
        {
          "internalType": "address",
          "name": "approver",
          "type": "address"
        }
      ],
      "name": "ERC721InvalidApprover",
      "type": "error"
    },
    {
      "inputs": [
        {
          "internalType": "address",
          "name": "operator",
          "type": "address"
        }
      ],
      "name": "ERC721InvalidOperator",
      "type": "error"
    },
    {
      "inputs": [
        {
          "internalType": "address",
          "name": "owner",
          "type": "address"
        }
      ],
      "name": "ERC721InvalidOwner",
      "type": "error"
    },
    {
      "inputs": [
        {
          "internalType": "address",
          "name": "receiver",
          "type": "address"
        }
      ],
      "name": "ERC721InvalidReceiver",
      "type": "error"
    },
    {
      "inputs": [
        {
          "internalType": "address",
          "name": "sender",
          "type": "address"
        }
      ],
      "name": "ERC721InvalidSender",
      "type": "error"
    },
    {
      "inputs": [
        {
          "internalType": "uint256",
          "name": "tokenId",
          "type": "uint256"
        }
      ],
      "name": "ERC721NonexistentToken",
      "type": "error"
    },
    {
      "inputs": [
        {
          "internalType": "address",
          "name": "owner",
          "type": "address"
        }
      ],
      "name": "OwnableInvalidOwner",
      "type": "error"
    },
    {
      "inputs": [
        {
          "internalType": "address",
          "name": "account",
          "type": "address"
        }
      ],
      "name": "OwnableUnauthorizedAccount",
      "type": "error"
    },
    {
      "anonymous": false,
      "inputs": [
        {
          "indexed": true,
          "internalType": "address",
          "name": "owner",
          "type": "address"
        },
        {
          "indexed": true,
          "internalType": "address",
          "name": "approved",
          "type": "address"
        },
        {
          "indexed": true,
          "internalType": "uint256",
          "name": "tokenId",
          "type": "uint256"
        }
      ],
      "name": "Approval",
      "type": "event"
    },
    {
      "anonymous": false,
      "inputs": [
        {
          "indexed": true,
          "internalType": "address",
          "name": "owner",
          "type": "address"
        },
        {
          "indexed": true,
          "internalType": "address",
          "name": "operator",
          "type": "address"
        },
        {
          "indexed": false,
          "internalType": "bool",
          "name": "approved",
          "type": "bool"
        }
      ],
      "name": "ApprovalForAll",
      "type": "event"
    },
    {
      "anonymous": false,
      "inputs": [
        {
          "indexed": false,
          "internalType": "uint256",
          "name": "_fromTokenId",
          "type": "uint256"
        },
        {
          "indexed": false,
          "internalType": "uint256",
          "name": "_toTokenId",
          "type": "uint256"
        }
      ],
      "name": "BatchMetadataUpdate",
      "type": "event"
    },
    {
      "anonymous": false,
      "inputs": [
        {
          "indexed": false,
          "internalType": "uint256",
          "name": "_tokenId",
          "type": "uint256"
        }
      ],
      "name": "MetadataUpdate",
      "type": "event"
    },
    {
      "anonymous": false,
      "inputs": [
        {
          "indexed": true,
          "internalType": "address",
          "name": "previousOwner",
          "type": "address"
        },
        {
          "indexed": true,
          "internalType": "address",
          "name": "newOwner",
          "type": "address"
        }
      ],
      "name": "OwnershipTransferred",
      "type": "event"
    },
    {
      "anonymous": false,
      "inputs": [
        {
          "indexed": true,
          "internalType": "address",
          "name": "from",
          "type": "address"
        },
        {
          "indexed": true,
          "internalType": "address",
          "name": "to",
          "type": "address"
        },
        {
          "indexed": true,
          "internalType": "uint256",
          "name": "tokenId",
          "type": "uint256"
        }
      ],
      "name": "Transfer",
      "type": "event"
    },
    {
      "inputs": [
        {
          "internalType": "address",
          "name": "to",
          "type": "address"
        },
        {
          "internalType": "uint256",
          "name": "tokenId",
          "type": "uint256"
        }
      ],
      "name": "approve",
      "outputs": [],
      "stateMutability": "nonpayable",
      "type": "function"
    },
    {
      "inputs": [
        {
          "internalType": "address",
          "name": "owner",
          "type": "address"
        }
      ],
      "name": "balanceOf",
      "outputs": [
        {
          "internalType": "uint256",
          "name": "",
          "type": "uint256"
        }
      ],
      "stateMutability": "view",
      "type": "function"
    },
    {
      "inputs": [
        {
          "internalType": "uint256",
          "name": "tokenId",
          "type": "uint256"
        }
      ],
      "name": "getApproved",
      "outputs": [
        {
          "internalType": "address",
          "name": "",
          "type": "address"
        }
      ],
      "stateMutability": "view",
      "type": "function"
    },
    {
      "inputs": [],
      "name": "getNftFeed",
      "outputs": [
        {
          "internalType": "uint256[]",
          "name": "",
          "type": "uint256[]"
        }
      ],
      "stateMutability": "view",
      "type": "function"
    },
    {
      "inputs": [
        {
          "internalType": "uint256",
          "name": "",
          "type": "uint256"
        },
        {
          "internalType": "address",
          "name": "",
          "type": "address"
        }
      ],
      "name": "hasAccess",
      "outputs": [
        {
          "internalType": "bool",
          "name": "",
          "type": "bool"
        }
      ],
      "stateMutability": "view",
      "type": "function"
    },
    {
      "inputs": [
        {
          "internalType": "address",
          "name": "owner",
          "type": "address"
        },
        {
          "internalType": "address",
          "name": "operator",
          "type": "address"
        }
      ],
      "name": "isApprovedForAll",
      "outputs": [
        {
          "internalType": "bool",
          "name": "",
          "type": "bool"
        }
      ],
      "stateMutability": "view",
      "type": "function"
    },
    {
      "inputs": [
        {
          "internalType": "address",
          "name": "_to",
          "type": "address"
        },
        {
          "internalType": "uint256",
          "name": "tokenId",
          "type": "uint256"
        },
        {
          "internalType": "string",
          "name": "_uri",
          "type": "string"
        },
        {
          "internalType": "uint256",
          "name": "price",
          "type": "uint256"
        },
        {
          "internalType": "bool",
          "name": "isOneTimeSale",
          "type": "bool"
        }
      ],
      "name": "mint",
      "outputs": [],
      "stateMutability": "nonpayable",
      "type": "function"
    },
    {
      "inputs": [],
      "name": "name",
      "outputs": [
        {
          "internalType": "string",
          "name": "",
          "type": "string"
        }
      ],
      "stateMutability": "view",
      "type": "function"
    },
    {
      "inputs": [
        {
          "internalType": "uint256",
          "name": "",
          "type": "uint256"
        }
      ],
      "name": "nftFeed",
      "outputs": [
        {
          "internalType": "uint256",
          "name": "",
          "type": "uint256"
        }
      ],
      "stateMutability": "view",
      "type": "function"
    },
    {
      "inputs": [
        {
          "internalType": "uint256",
          "name": "",
          "type": "uint256"
        }
      ],
      "name": "nfts",
      "outputs": [
        {
          "internalType": "uint256",
          "name": "tokenId",
          "type": "uint256"
        },
        {
          "internalType": "address",
          "name": "creator",
          "type": "address"
        },
        {
          "internalType": "string",
          "name": "tokenURI",
          "type": "string"
        },
        {
          "internalType": "uint256",
          "name": "price",
          "type": "uint256"
        },
        {
          "internalType": "bool",
          "name": "isOneTimeSale",
          "type": "bool"
        }
      ],
      "stateMutability": "view",
      "type": "function"
    },
    {
      "inputs": [],
      "name": "owner",
      "outputs": [
        {
          "internalType": "address",
          "name": "",
          "type": "address"
        }
      ],
      "stateMutability": "view",
      "type": "function"
    },
    {
      "inputs": [
        {
          "internalType": "uint256",
          "name": "tokenId",
          "type": "uint256"
        }
      ],
      "name": "ownerOf",
      "outputs": [
        {
          "internalType": "address",
          "name": "",
          "type": "address"
        }
      ],
      "stateMutability": "view",
      "type": "function"
    },
    {
      "inputs": [
        {
          "internalType": "uint256",
          "name": "tokenId",
          "type": "uint256"
        }
      ],
      "name": "purchaseNFT",
      "outputs": [],
      "stateMutability": "payable",
      "type": "function"
    },
    {
      "inputs": [],
      "name": "renounceOwnership",
      "outputs": [],
      "stateMutability": "nonpayable",
      "type": "function"
    },
    {
      "inputs": [
        {
          "internalType": "address",
          "name": "from",
          "type": "address"
        },
        {
          "internalType": "address",
          "name": "to",
          "type": "address"
        },
        {
          "internalType": "uint256",
          "name": "tokenId",
          "type": "uint256"
        }
      ],
      "name": "safeTransferFrom",
      "outputs": [],
      "stateMutability": "nonpayable",
      "type": "function"
    },
    {
      "inputs": [
        {
          "internalType": "address",
          "name": "from",
          "type": "address"
        },
        {
          "internalType": "address",
          "name": "to",
          "type": "address"
        },
        {
          "internalType": "uint256",
          "name": "tokenId",
          "type": "uint256"
        },
        {
          "internalType": "bytes",
          "name": "data",
          "type": "bytes"
        }
      ],
      "name": "safeTransferFrom",
      "outputs": [],
      "stateMutability": "nonpayable",
      "type": "function"
    },
    {
      "inputs": [
        {
          "internalType": "address",
          "name": "operator",
          "type": "address"
        },
        {
          "internalType": "bool",
          "name": "approved",
          "type": "bool"
        }
      ],
      "name": "setApprovalForAll",
      "outputs": [],
      "stateMutability": "nonpayable",
      "type": "function"
    },
    {
      "inputs": [
        {
          "internalType": "bytes4",
          "name": "interfaceId",
          "type": "bytes4"
        }
      ],
      "name": "supportsInterface",
      "outputs": [
        {
          "internalType": "bool",
          "name": "",
          "type": "bool"
        }
      ],
      "stateMutability": "view",
      "type": "function"
    },
    {
      "inputs": [],
      "name": "symbol",
      "outputs": [
        {
          "internalType": "string",
          "name": "",
          "type": "string"
        }
      ],
      "stateMutability": "view",
      "type": "function"
    },
    {
      "inputs": [
        {
          "internalType": "uint256",
          "name": "tokenId",
          "type": "uint256"
        }
      ],
      "name": "tokenURI",
      "outputs": [
        {
          "internalType": "string",
          "name": "",
          "type": "string"
        }
      ],
      "stateMutability": "view",
      "type": "function"
    },
    {
      "inputs": [
        {
          "internalType": "address",
          "name": "from",
          "type": "address"
        },
        {
          "internalType": "address",
          "name": "to",
          "type": "address"
        },
        {
          "internalType": "uint256",
          "name": "tokenId",
          "type": "uint256"
        }
      ],
      "name": "transferFrom",
      "outputs": [],
      "stateMutability": "nonpayable",
      "type": "function"
    },
    {
      "inputs": [
        {
          "internalType": "address",
          "name": "newOwner",
          "type": "address"
        }
      ],
      "name": "transferOwnership",
      "outputs": [],
      "stateMutability": "nonpayable",
      "type": "function"
    }
  ],
  "bytecode": "0x608060405234801561001057600080fd5b506040516136613803806136618339818101604052810190610032919061037a565b80838381600090816100449190610626565b5080600190816100549190610626565b505050600073ffffffffffffffffffffffffffffffffffffffff168173ffffffffffffffffffffffffffffffffffffffff16036100c95760006040517f1e4fbdf70000000000000000000000000000000000000000000000000000000081526004016100c09190610707565b60405180910390fd5b6100d8816100e160201b60201c565b50505050610722565b6000600760009054906101000a900473ffffffffffffffffffffffffffffffffffffffff16905081600760006101000a81548173ffffffffffffffffffffffffffffffffffffffff021916908373ffffffffffffffffffffffffffffffffffffffff1602179055508173ffffffffffffffffffffffffffffffffffffffff168173ffffffffffffffffffffffffffffffffffffffff167f8be0079c531659141344cd1fd0a4f28419497f9722a3daafe3b4186f6b6457e060405160405180910390a35050565b6000604051905090565b600080fd5b600080fd5b600080fd5b600080fd5b6000601f19601f8301169050919050565b7f4e487b7100000000000000000000000000000000000000000000000000000000600052604160045260246000fd5b61020e826101c5565b810181811067ffffffffffffffff8211171561022d5761022c6101d6565b5b80604052505050565b60006102406101a7565b905061024c8282610205565b919050565b600067ffffffffffffffff82111561026c5761026b6101d6565b5b610275826101c5565b9050602081019050919050565b60005b838110156102a0578082015181840152602081019050610285565b60008484015250505050565b60006102bf6102ba84610251565b610236565b9050828152602081018484840111156102db576102da6101c0565b5b6102e6848285610282565b509392505050565b600082601f830112610303576103026101bb565b5b81516103138482602086016102ac565b91505092915050565b600073ffffffffffffffffffffffffffffffffffffffff82169050919050565b60006103478261031c565b9050919050565b6103578161033c565b811461036257600080fd5b50565b6000815190506103748161034e565b92915050565b600080600060608486031215610393576103926101b1565b5b600084015167ffffffffffffffff8111156103b1576103b06101b6565b5b6103bd868287016102ee565b935050602084015167ffffffffffffffff8111156103de576103dd6101b6565b5b6103ea868287016102ee565b92505060406103fb86828701610365565b9150509250925092565b600081519050919050565b7f4e487b7100000000000000000000000000000000000000000000000000000000600052602260045260246000fd5b6000600282049050600182168061045757607f821691505b60208210810361046a57610469610410565b5b50919050565b60008190508160005260206000209050919050565b60006020601f8301049050919050565b600082821b905092915050565b6000600883026104d27fffffffffffffffffffffffffffffffffffffffffffffffffffffffffffffffff82610495565b6104dc8683610495565b95508019841693508086168417925050509392505050565b6000819050919050565b6000819050919050565b600061052361051e610519846104f4565b6104fe565b6104f4565b9050919050565b6000819050919050565b61053d83610508565b6105516105498261052a565b8484546104a2565b825550505050565b600090565b610566610559565b610571818484610534565b505050565b5b818110156105955761058a60008261055e565b600181019050610577565b5050565b601f8211156105da576105ab81610470565b6105b484610485565b810160208510156105c3578190505b6105d76105cf85610485565b830182610576565b50505b505050565b600082821c905092915050565b60006105fd600019846008026105df565b1980831691505092915050565b600061061683836105ec565b9150826002028217905092915050565b61062f82610405565b67ffffffffffffffff811115610648576106476101d6565b5b610652825461043f565b61065d828285610599565b600060209050601f831160018114610690576000841561067e578287015190505b610688858261060a565b8655506106f0565b601f19841661069e86610470565b60005b828110156106c6578489015182556001820191506020850194506020810190506106a1565b868310156106e357848901516106df601f8916826105ec565b8355505b6001600288020188555050505b505050505050565b6107018161033c565b82525050565b600060208201905061071c60008301846106f8565b92915050565b612f30806107316000396000f3fe6080604052600436106101355760003560e01c8063715018a6116100ab578063a91496411161006f578063a91496411461042d578063b88d4fde14610458578063c87b56dd14610481578063ced14198146104be578063e985e9c5146104fb578063f2fde38b1461053857610135565b8063715018a61461035a5780638684e124146103715780638da5cb5b146103ae57806395d89b41146103d9578063a22cb4651461040457610135565b806323b872dd116100fd57806323b872dd14610224578063265aa6211461024d57806342842e0e1461028e5780636352211e146102b7578063670d07b4146102f457806370a082311461031d57610135565b806301ffc9a71461013a57806306fdde0314610177578063081812fc146101a2578063095ea7b3146101df578063150bde0314610208575b600080fd5b34801561014657600080fd5b50610161600480360381019061015c91906120d5565b610561565b60405161016e919061211d565b60405180910390f35b34801561018357600080fd5b5061018c6105c2565b60405161019991906121c8565b60405180910390f35b3480156101ae57600080fd5b506101c960048036038101906101c49190612220565b610654565b6040516101d6919061228e565b60405180910390f35b3480156101eb57600080fd5b50610206600480360381019061020191906122d5565b610670565b005b610222600480360381019061021d9190612220565b610686565b005b34801561023057600080fd5b5061024b60048036038101906102469190612315565b61085a565b005b34801561025957600080fd5b50610274600480360381019061026f9190612220565b61095c565b604051610285959493929190612377565b60405180910390f35b34801561029a57600080fd5b506102b560048036038101906102b09190612315565b610a47565b005b3480156102c357600080fd5b506102de60048036038101906102d99190612220565b610a67565b6040516102eb919061228e565b60405180910390f35b34801561030057600080fd5b5061031b60048036038101906103169190612462565b610a79565b005b34801561032957600080fd5b50610344600480360381019061033f91906124fc565b610b9f565b6040516103519190612529565b60405180910390f35b34801561036657600080fd5b5061036f610c59565b005b34801561037d57600080fd5b5061039860048036038101906103939190612220565b610c6d565b6040516103a59190612529565b60405180910390f35b3480156103ba57600080fd5b506103c3610c91565b6040516103d0919061228e565b60405180910390f35b3480156103e557600080fd5b506103ee610cbb565b6040516103fb91906121c8565b60405180910390f35b34801561041057600080fd5b5061042b60048036038101906104269190612544565b610d4d565b005b34801561043957600080fd5b50610442610d63565b60405161044f9190612642565b60405180910390f35b34801561046457600080fd5b5061047f600480360381019061047a9190612794565b610dbb565b005b34801561048d57600080fd5b506104a860048036038101906104a39190612220565b610dd8565b6040516104b591906121c8565b60405180910390f35b3480156104ca57600080fd5b506104e560048036038101906104e09190612817565b610eeb565b6040516104f2919061211d565b60405180910390f35b34801561050757600080fd5b50610522600480360381019061051d9190612857565b610f1a565b60405161052f919061211d565b60405180910390f35b34801561054457600080fd5b5061055f600480360381019061055a91906124fc565b610fae565b005b6000634906490660e01b7bffffffffffffffffffffffffffffffffffffffffffffffffffffffff1916827bffffffffffffffffffffffffffffffffffffffffffffffffffffffff191614806105bb57506105ba82611034565b5b9050919050565b6060600080546105d1906128c6565b80601f01602080910402602001604051908101604052809291908181526020018280546105fd906128c6565b801561064a5780601f1061061f5761010080835404028352916020019161064a565b820191906000526020600020905b81548152906001019060200180831161062d57829003601f168201915b5050505050905090565b600061065f82611116565b506106698261119e565b9050919050565b610682828261067d6111db565b6111e3565b5050565b6000600a6000838152602001908152602001600020905080600301543410156106e4576040517f08c379a00000000000000000000000000000000000000000000000000000000081526004016106db90612943565b60405180910390fd5b6009600083815260200190815260200160002060003373ffffffffffffffffffffffffffffffffffffffff1673ffffffffffffffffffffffffffffffffffffffff16815260200190815260200160002060009054906101000a900460ff1615610782576040517f08c379a0000000000000000000000000000000000000000000000000000000008152600401610779906129af565b60405180910390fd5b60016009600084815260200190815260200160002060003373ffffffffffffffffffffffffffffffffffffffff1673ffffffffffffffffffffffffffffffffffffffff16815260200190815260200160002060006101000a81548160ff0219169083151502179055508060010160009054906101000a900473ffffffffffffffffffffffffffffffffffffffff1673ffffffffffffffffffffffffffffffffffffffff166108fc349081150290604051600060405180830381858888f19350505050158015610855573d6000803e3d6000fd5b505050565b600073ffffffffffffffffffffffffffffffffffffffff168273ffffffffffffffffffffffffffffffffffffffff16036108cc5760006040517f64a0ae920000000000000000000000000000000000000000000000000000000081526004016108c3919061228e565b60405180910390fd5b60006108e083836108db6111db565b6111f5565b90508373ffffffffffffffffffffffffffffffffffffffff168173ffffffffffffffffffffffffffffffffffffffff1614610956578382826040517f64283d7b00000000000000000000000000000000000000000000000000000000815260040161094d939291906129cf565b60405180910390fd5b50505050565b600a6020528060005260406000206000915090508060000154908060010160009054906101000a900473ffffffffffffffffffffffffffffffffffffffff16908060020180546109ab906128c6565b80601f01602080910402602001604051908101604052809291908181526020018280546109d7906128c6565b8015610a245780601f106109f957610100808354040283529160200191610a24565b820191906000526020600020905b815481529060010190602001808311610a0757829003601f168201915b5050505050908060030154908060040160009054906101000a900460ff16905085565b610a6283838360405180602001604052806000815250610dbb565b505050565b6000610a7282611116565b9050919050565b610a83868661140f565b610ad18585858080601f016020809104026020016040519081016040528093929190818152602001838380828437600081840152601f19601f82011690508083019250505050505050611508565b6000600a60008781526020019081526020016000209050858160000181905550338160010160006101000a81548173ffffffffffffffffffffffffffffffffffffffff021916908373ffffffffffffffffffffffffffffffffffffffff1602179055508484826002019182610b47929190612bbd565b50828160030181905550818160040160006101000a81548160ff021916908315150217905550600886908060018154018082558091505060019003906000526020600020016000909190919091505550505050505050565b60008073ffffffffffffffffffffffffffffffffffffffff168273ffffffffffffffffffffffffffffffffffffffff1603610c125760006040517f89c62b64000000000000000000000000000000000000000000000000000000008152600401610c09919061228e565b60405180910390fd5b600360008373ffffffffffffffffffffffffffffffffffffffff1673ffffffffffffffffffffffffffffffffffffffff168152602001908152602001600020549050919050565b610c61611564565b610c6b60006115eb565b565b60088181548110610c7d57600080fd5b906000526020600020016000915090505481565b6000600760009054906101000a900473ffffffffffffffffffffffffffffffffffffffff16905090565b606060018054610cca906128c6565b80601f0160208091040260200160405190810160405280929190818152602001828054610cf6906128c6565b8015610d435780601f10610d1857610100808354040283529160200191610d43565b820191906000526020600020905b815481529060010190602001808311610d2657829003601f168201915b5050505050905090565b610d5f610d586111db565b83836116b1565b5050565b60606008805480602002602001604051908101604052809291908181526020018280548015610db157602002820191906000526020600020905b815481526020019060010190808311610d9d575b5050505050905090565b610dc684848461085a565b610dd284848484611820565b50505050565b6060610de382611116565b506000600660008481526020019081526020016000208054610e04906128c6565b80601f0160208091040260200160405190810160405280929190818152602001828054610e30906128c6565b8015610e7d5780601f10610e5257610100808354040283529160200191610e7d565b820191906000526020600020905b815481529060010190602001808311610e6057829003601f168201915b505050505090506000610e8e6119d7565b90506000815103610ea3578192505050610ee6565b600082511115610ed8578082604051602001610ec0929190612cc9565b60405160208183030381529060405292505050610ee6565b610ee1846119ee565b925050505b919050565b60096020528160005260406000206020528060005260406000206000915091509054906101000a900460ff1681565b6000600560008473ffffffffffffffffffffffffffffffffffffffff1673ffffffffffffffffffffffffffffffffffffffff16815260200190815260200160002060008373ffffffffffffffffffffffffffffffffffffffff1673ffffffffffffffffffffffffffffffffffffffff16815260200190815260200160002060009054906101000a900460ff16905092915050565b610fb6611564565b600073ffffffffffffffffffffffffffffffffffffffff168173ffffffffffffffffffffffffffffffffffffffff16036110285760006040517f1e4fbdf700000000000000000000000000000000000000000000000000000000815260040161101f919061228e565b60405180910390fd5b611031816115eb565b50565b60007f80ac58cd000000000000000000000000000000000000000000000000000000007bffffffffffffffffffffffffffffffffffffffffffffffffffffffff1916827bffffffffffffffffffffffffffffffffffffffffffffffffffffffff191614806110ff57507f5b5e139f000000000000000000000000000000000000000000000000000000007bffffffffffffffffffffffffffffffffffffffffffffffffffffffff1916827bffffffffffffffffffffffffffffffffffffffffffffffffffffffff1916145b8061110f575061110e82611a57565b5b9050919050565b60008061112283611ac1565b9050600073ffffffffffffffffffffffffffffffffffffffff168173ffffffffffffffffffffffffffffffffffffffff160361119557826040517f7e27328900000000000000000000000000000000000000000000000000000000815260040161118c9190612529565b60405180910390fd5b80915050919050565b60006004600083815260200190815260200160002060009054906101000a900473ffffffffffffffffffffffffffffffffffffffff169050919050565b600033905090565b6111f08383836001611afe565b505050565b60008061120184611ac1565b9050600073ffffffffffffffffffffffffffffffffffffffff168373ffffffffffffffffffffffffffffffffffffffff161461124357611242818486611cc3565b5b600073ffffffffffffffffffffffffffffffffffffffff168173ffffffffffffffffffffffffffffffffffffffff16146112d457611285600085600080611afe565b6001600360008373ffffffffffffffffffffffffffffffffffffffff1673ffffffffffffffffffffffffffffffffffffffff168152602001908152602001600020600082825403925050819055505b600073ffffffffffffffffffffffffffffffffffffffff168573ffffffffffffffffffffffffffffffffffffffff1614611357576001600360008773ffffffffffffffffffffffffffffffffffffffff1673ffffffffffffffffffffffffffffffffffffffff168152602001908152602001600020600082825401925050819055505b846002600086815260200190815260200160002060006101000a81548173ffffffffffffffffffffffffffffffffffffffff021916908373ffffffffffffffffffffffffffffffffffffffff160217905550838573ffffffffffffffffffffffffffffffffffffffff168273ffffffffffffffffffffffffffffffffffffffff167fddf252ad1be2c89b69c2b068fc378daa952ba7f163c4a11628f55a4df523b3ef60405160405180910390a4809150509392505050565b600073ffffffffffffffffffffffffffffffffffffffff168273ffffffffffffffffffffffffffffffffffffffff16036114815760006040517f64a0ae92000000000000000000000000000000000000000000000000000000008152600401611478919061228e565b60405180910390fd5b600061148f838360006111f5565b9050600073ffffffffffffffffffffffffffffffffffffffff168173ffffffffffffffffffffffffffffffffffffffff16146115035760006040517f73c6ac6e0000000000000000000000000000000000000000000000000000000081526004016114fa919061228e565b60405180910390fd5b505050565b806006600084815260200190815260200160002090816115289190612ced565b507ff8e1a15aba9398e019f0b49df1a4fde98ee17ae345cb5f6b5e2c27f5033e8ce7826040516115589190612529565b60405180910390a15050565b61156c6111db565b73ffffffffffffffffffffffffffffffffffffffff1661158a610c91565b73ffffffffffffffffffffffffffffffffffffffff16146115e9576115ad6111db565b6040517f118cdaa70000000000000000000000000000000000000000000000000000000081526004016115e0919061228e565b60405180910390fd5b565b6000600760009054906101000a900473ffffffffffffffffffffffffffffffffffffffff16905081600760006101000a81548173ffffffffffffffffffffffffffffffffffffffff021916908373ffffffffffffffffffffffffffffffffffffffff1602179055508173ffffffffffffffffffffffffffffffffffffffff168173ffffffffffffffffffffffffffffffffffffffff167f8be0079c531659141344cd1fd0a4f28419497f9722a3daafe3b4186f6b6457e060405160405180910390a35050565b600073ffffffffffffffffffffffffffffffffffffffff168273ffffffffffffffffffffffffffffffffffffffff160361172257816040517f5b08ba18000000000000000000000000000000000000000000000000000000008152600401611719919061228e565b60405180910390fd5b80600560008573ffffffffffffffffffffffffffffffffffffffff1673ffffffffffffffffffffffffffffffffffffffff16815260200190815260200160002060008473ffffffffffffffffffffffffffffffffffffffff1673ffffffffffffffffffffffffffffffffffffffff16815260200190815260200160002060006101000a81548160ff0219169083151502179055508173ffffffffffffffffffffffffffffffffffffffff168373ffffffffffffffffffffffffffffffffffffffff167f17307eab39ab6107e8899845ad3d59bd9653f200f220920489ca2b5937696c3183604051611813919061211d565b60405180910390a3505050565b60008373ffffffffffffffffffffffffffffffffffffffff163b11156119d1578273ffffffffffffffffffffffffffffffffffffffff1663150b7a026118646111db565b8685856040518563ffffffff1660e01b81526004016118869493929190612e14565b6020604051808303816000875af19250505080156118c257506040513d601f19601f820116820180604052508101906118bf9190612e75565b60015b611946573d80600081146118f2576040519150601f19603f3d011682016040523d82523d6000602084013e6118f7565b606091505b50600081510361193e57836040517f64a0ae92000000000000000000000000000000000000000000000000000000008152600401611935919061228e565b60405180910390fd5b805181602001fd5b63150b7a0260e01b7bffffffffffffffffffffffffffffffffffffffffffffffffffffffff1916817bffffffffffffffffffffffffffffffffffffffffffffffffffffffff1916146119cf57836040517f64a0ae920000000000000000000000000000000000000000000000000000000081526004016119c6919061228e565b60405180910390fd5b505b50505050565b606060405180602001604052806000815250905090565b60606119f982611116565b506000611a046119d7565b90506000815111611a245760405180602001604052806000815250611a4f565b80611a2e84611d87565b604051602001611a3f929190612cc9565b6040516020818303038152906040525b915050919050565b60007f01ffc9a7000000000000000000000000000000000000000000000000000000007bffffffffffffffffffffffffffffffffffffffffffffffffffffffff1916827bffffffffffffffffffffffffffffffffffffffffffffffffffffffff1916149050919050565b60006002600083815260200190815260200160002060009054906101000a900473ffffffffffffffffffffffffffffffffffffffff169050919050565b8080611b375750600073ffffffffffffffffffffffffffffffffffffffff168273ffffffffffffffffffffffffffffffffffffffff1614155b15611c6b576000611b4784611116565b9050600073ffffffffffffffffffffffffffffffffffffffff168373ffffffffffffffffffffffffffffffffffffffff1614158015611bb257508273ffffffffffffffffffffffffffffffffffffffff168173ffffffffffffffffffffffffffffffffffffffff1614155b8015611bc55750611bc38184610f1a565b155b15611c0757826040517fa9fbf51f000000000000000000000000000000000000000000000000000000008152600401611bfe919061228e565b60405180910390fd5b8115611c6957838573ffffffffffffffffffffffffffffffffffffffff168273ffffffffffffffffffffffffffffffffffffffff167f8c5be1e5ebec7d5bd14f71427d1e84f3dd0314c0f7b2291e5b200ac8c7c3b92560405160405180910390a45b505b836004600085815260200190815260200160002060006101000a81548173ffffffffffffffffffffffffffffffffffffffff021916908373ffffffffffffffffffffffffffffffffffffffff16021790555050505050565b611cce838383611e55565b611d8257600073ffffffffffffffffffffffffffffffffffffffff168373ffffffffffffffffffffffffffffffffffffffff1603611d4357806040517f7e273289000000000000000000000000000000000000000000000000000000008152600401611d3a9190612529565b60405180910390fd5b81816040517f177e802f000000000000000000000000000000000000000000000000000000008152600401611d79929190612ea2565b60405180910390fd5b505050565b606060006001611d9684611f16565b01905060008167ffffffffffffffff811115611db557611db4612669565b5b6040519080825280601f01601f191660200182016040528015611de75781602001600182028036833780820191505090505b509050600082602001820190505b600115611e4a578080600190039150507f3031323334353637383961626364656600000000000000000000000000000000600a86061a8153600a8581611e3e57611e3d612ecb565b5b04945060008503611df5575b819350505050919050565b60008073ffffffffffffffffffffffffffffffffffffffff168373ffffffffffffffffffffffffffffffffffffffff1614158015611f0d57508273ffffffffffffffffffffffffffffffffffffffff168473ffffffffffffffffffffffffffffffffffffffff161480611ece5750611ecd8484610f1a565b5b80611f0c57508273ffffffffffffffffffffffffffffffffffffffff16611ef48361119e565b73ffffffffffffffffffffffffffffffffffffffff16145b5b90509392505050565b600080600090507a184f03e93ff9f4daa797ed6e38ed64bf6a1f0100000000000000008310611f74577a184f03e93ff9f4daa797ed6e38ed64bf6a1f0100000000000000008381611f6a57611f69612ecb565b5b0492506040810190505b6d04ee2d6d415b85acef81000000008310611fb1576d04ee2d6d415b85acef81000000008381611fa757611fa6612ecb565b5b0492506020810190505b662386f26fc100008310611fe057662386f26fc100008381611fd657611fd5612ecb565b5b0492506010810190505b6305f5e1008310612009576305f5e1008381611fff57611ffe612ecb565b5b0492506008810190505b612710831061202e57612710838161202457612023612ecb565b5b0492506004810190505b60648310612051576064838161204757612046612ecb565b5b0492506002810190505b600a8310612060576001810190505b80915050919050565b6000604051905090565b600080fd5b600080fd5b60007fffffffff0000000000000000000000000000000000000000000000000000000082169050919050565b6120b28161207d565b81146120bd57600080fd5b50565b6000813590506120cf816120a9565b92915050565b6000602082840312156120eb576120ea612073565b5b60006120f9848285016120c0565b91505092915050565b60008115159050919050565b61211781612102565b82525050565b6000602082019050612132600083018461210e565b92915050565b600081519050919050565b600082825260208201905092915050565b60005b83811015612172578082015181840152602081019050612157565b60008484015250505050565b6000601f19601f8301169050919050565b600061219a82612138565b6121a48185612143565b93506121b4818560208601612154565b6121bd8161217e565b840191505092915050565b600060208201905081810360008301526121e2818461218f565b905092915050565b6000819050919050565b6121fd816121ea565b811461220857600080fd5b50565b60008135905061221a816121f4565b92915050565b60006020828403121561223657612235612073565b5b60006122448482850161220b565b91505092915050565b600073ffffffffffffffffffffffffffffffffffffffff82169050919050565b60006122788261224d565b9050919050565b6122888161226d565b82525050565b60006020820190506122a3600083018461227f565b92915050565b6122b28161226d565b81146122bd57600080fd5b50565b6000813590506122cf816122a9565b92915050565b600080604083850312156122ec576122eb612073565b5b60006122fa858286016122c0565b925050602061230b8582860161220b565b9150509250929050565b60008060006060848603121561232e5761232d612073565b5b600061233c868287016122c0565b935050602061234d868287016122c0565b925050604061235e8682870161220b565b9150509250925092565b612371816121ea565b82525050565b600060a08201905061238c6000830188612368565b612399602083018761227f565b81810360408301526123ab818661218f565b90506123ba6060830185612368565b6123c7608083018461210e565b9695505050505050565b600080fd5b600080fd5b600080fd5b60008083601f8401126123f6576123f56123d1565b5b8235905067ffffffffffffffff811115612413576124126123d6565b5b60208301915083600182028301111561242f5761242e6123db565b5b9250929050565b61243f81612102565b811461244a57600080fd5b50565b60008135905061245c81612436565b92915050565b60008060008060008060a0878903121561247f5761247e612073565b5b600061248d89828a016122c0565b965050602061249e89828a0161220b565b955050604087013567ffffffffffffffff8111156124bf576124be612078565b5b6124cb89828a016123e0565b945094505060606124de89828a0161220b565b92505060806124ef89828a0161244d565b9150509295509295509295565b60006020828403121561251257612511612073565b5b6000612520848285016122c0565b91505092915050565b600060208201905061253e6000830184612368565b92915050565b6000806040838503121561255b5761255a612073565b5b6000612569858286016122c0565b925050602061257a8582860161244d565b9150509250929050565b600081519050919050565b600082825260208201905092915050565b6000819050602082019050919050565b6125b9816121ea565b82525050565b60006125cb83836125b0565b60208301905092915050565b6000602082019050919050565b60006125ef82612584565b6125f9818561258f565b9350612604836125a0565b8060005b8381101561263557815161261c88826125bf565b9750612627836125d7565b925050600181019050612608565b5085935050505092915050565b6000602082019050818103600083015261265c81846125e4565b905092915050565b600080fd5b7f4e487b7100000000000000000000000000000000000000000000000000000000600052604160045260246000fd5b6126a18261217e565b810181811067ffffffffffffffff821117156126c0576126bf612669565b5b80604052505050565b60006126d3612069565b90506126df8282612698565b919050565b600067ffffffffffffffff8211156126ff576126fe612669565b5b6127088261217e565b9050602081019050919050565b82818337600083830152505050565b6000612737612732846126e4565b6126c9565b90508281526020810184848401111561275357612752612664565b5b61275e848285612715565b509392505050565b600082601f83011261277b5761277a6123d1565b5b813561278b848260208601612724565b91505092915050565b600080600080608085870312156127ae576127ad612073565b5b60006127bc878288016122c0565b94505060206127cd878288016122c0565b93505060406127de8782880161220b565b925050606085013567ffffffffffffffff8111156127ff576127fe612078565b5b61280b87828801612766565b91505092959194509250565b6000806040838503121561282e5761282d612073565b5b600061283c8582860161220b565b925050602061284d858286016122c0565b9150509250929050565b6000806040838503121561286e5761286d612073565b5b600061287c858286016122c0565b925050602061288d858286016122c0565b9150509250929050565b7f4e487b7100000000000000000000000000000000000000000000000000000000600052602260045260246000fd5b600060028204905060018216806128de57607f821691505b6020821081036128f1576128f0612897565b5b50919050565b7f496e73756666696369656e742066756e64730000000000000000000000000000600082015250565b600061292d601283612143565b9150612938826128f7565b602082019050919050565b6000602082019050818103600083015261295c81612920565b9050919050565b7f416c726561647920707572636861736564000000000000000000000000000000600082015250565b6000612999601183612143565b91506129a482612963565b602082019050919050565b600060208201905081810360008301526129c88161298c565b9050919050565b60006060820190506129e4600083018661227f565b6129f16020830185612368565b6129fe604083018461227f565b949350505050565b600082905092915050565b60008190508160005260206000209050919050565b60006020601f8301049050919050565b600082821b905092915050565b600060088302612a737fffffffffffffffffffffffffffffffffffffffffffffffffffffffffffffffff82612a36565b612a7d8683612a36565b95508019841693508086168417925050509392505050565b6000819050919050565b6000612aba612ab5612ab0846121ea565b612a95565b6121ea565b9050919050565b6000819050919050565b612ad483612a9f565b612ae8612ae082612ac1565b848454612a43565b825550505050565b600090565b612afd612af0565b612b08818484612acb565b505050565b5b81811015612b2c57612b21600082612af5565b600181019050612b0e565b5050565b601f821115612b7157612b4281612a11565b612b4b84612a26565b81016020851015612b5a578190505b612b6e612b6685612a26565b830182612b0d565b50505b505050565b600082821c905092915050565b6000612b9460001984600802612b76565b1980831691505092915050565b6000612bad8383612b83565b9150826002028217905092915050565b612bc78383612a06565b67ffffffffffffffff811115612be057612bdf612669565b5b612bea82546128c6565b612bf5828285612b30565b6000601f831160018114612c245760008415612c12578287013590505b612c1c8582612ba1565b865550612c84565b601f198416612c3286612a11565b60005b82811015612c5a57848901358255600182019150602085019450602081019050612c35565b86831015612c775784890135612c73601f891682612b83565b8355505b6001600288020188555050505b50505050505050565b600081905092915050565b6000612ca382612138565b612cad8185612c8d565b9350612cbd818560208601612154565b80840191505092915050565b6000612cd58285612c98565b9150612ce18284612c98565b91508190509392505050565b612cf682612138565b67ffffffffffffffff811115612d0f57612d0e612669565b5b612d1982546128c6565b612d24828285612b30565b600060209050601f831160018114612d575760008415612d45578287015190505b612d4f8582612ba1565b865550612db7565b601f198416612d6586612a11565b60005b82811015612d8d57848901518255600182019150602085019450602081019050612d68565b86831015612daa5784890151612da6601f891682612b83565b8355505b6001600288020188555050505b505050505050565b600081519050919050565b600082825260208201905092915050565b6000612de682612dbf565b612df08185612dca565b9350612e00818560208601612154565b612e098161217e565b840191505092915050565b6000608082019050612e29600083018761227f565b612e36602083018661227f565b612e436040830185612368565b8181036060830152612e558184612ddb565b905095945050505050565b600081519050612e6f816120a9565b92915050565b600060208284031215612e8b57612e8a612073565b5b6000612e9984828501612e60565b91505092915050565b6000604082019050612eb7600083018561227f565b612ec46020830184612368565b9392505050565b7f4e487b7100000000000000000000000000000000000000000000000000000000600052601260045260246000fdfea2646970667358221220ed65d9d9e6bf8c4eb9648b464bfa0080c50a730a4ede3cb8ea2237e83c09ca3a64736f6c634300081b0033",
  "linkReferences": {},
  "deployedLinkReferences": {}
}