{
  "_format": "hh-sol-artifact-1",
  "contractName": "Nft",
  "sourceName": "contracts/NFT.sol",
  "abi": [
    {
      "inputs": [
        {
          "internalType": "string",
          "name": "name",
          "type": "string"
        },
        {
          "internalType": "string",
          "name": "symbol",
          "type": "string"
        },
        {
          "internalType": "address",
          "name": "initialOwner",
          "type": "address"
        }
      ],
      "stateMutability": "nonpayable",
      "type": "constructor"
    },
    {
      "inputs": [
        {
          "internalType": "address",
          "name": "sender",
          "type": "address"
        },
        {
          "internalType": "uint256",
          "name": "tokenId",
          "type": "uint256"
        },
        {
          "internalType": "address",
          "name": "owner",
          "type": "address"
        }
      ],
      "name": "ERC721IncorrectOwner",
      "type": "error"
    },
    {
      "inputs": [
        {
          "internalType": "address",
          "name": "operator",
          "type": "address"
        },
        {
          "internalType": "uint256",
          "name": "tokenId",
          "type": "uint256"
        }
      ],
      "name": "ERC721InsufficientApproval",
      "type": "error"
    },
    {
      "inputs": [
        {
          "internalType": "address",
          "name": "approver",
          "type": "address"
        }
      ],
      "name": "ERC721InvalidApprover",
      "type": "error"
    },
    {
      "inputs": [
        {
          "internalType": "address",
          "name": "operator",
          "type": "address"
        }
      ],
      "name": "ERC721InvalidOperator",
      "type": "error"
    },
    {
      "inputs": [
        {
          "internalType": "address",
          "name": "owner",
          "type": "address"
        }
      ],
      "name": "ERC721InvalidOwner",
      "type": "error"
    },
    {
      "inputs": [
        {
          "internalType": "address",
          "name": "receiver",
          "type": "address"
        }
      ],
      "name": "ERC721InvalidReceiver",
      "type": "error"
    },
    {
      "inputs": [
        {
          "internalType": "address",
          "name": "sender",
          "type": "address"
        }
      ],
      "name": "ERC721InvalidSender",
      "type": "error"
    },
    {
      "inputs": [
        {
          "internalType": "uint256",
          "name": "tokenId",
          "type": "uint256"
        }
      ],
      "name": "ERC721NonexistentToken",
      "type": "error"
    },
    {
      "inputs": [
        {
          "internalType": "address",
          "name": "owner",
          "type": "address"
        }
      ],
      "name": "OwnableInvalidOwner",
      "type": "error"
    },
    {
      "inputs": [
        {
          "internalType": "address",
          "name": "account",
          "type": "address"
        }
      ],
      "name": "OwnableUnauthorizedAccount",
      "type": "error"
    },
    {
      "anonymous": false,
      "inputs": [
        {
          "indexed": true,
          "internalType": "address",
          "name": "owner",
          "type": "address"
        },
        {
          "indexed": true,
          "internalType": "address",
          "name": "approved",
          "type": "address"
        },
        {
          "indexed": true,
          "internalType": "uint256",
          "name": "tokenId",
          "type": "uint256"
        }
      ],
      "name": "Approval",
      "type": "event"
    },
    {
      "anonymous": false,
      "inputs": [
        {
          "indexed": true,
          "internalType": "address",
          "name": "owner",
          "type": "address"
        },
        {
          "indexed": true,
          "internalType": "address",
          "name": "operator",
          "type": "address"
        },
        {
          "indexed": false,
          "internalType": "bool",
          "name": "approved",
          "type": "bool"
        }
      ],
      "name": "ApprovalForAll",
      "type": "event"
    },
    {
      "anonymous": false,
      "inputs": [
        {
          "indexed": false,
          "internalType": "uint256",
          "name": "_fromTokenId",
          "type": "uint256"
        },
        {
          "indexed": false,
          "internalType": "uint256",
          "name": "_toTokenId",
          "type": "uint256"
        }
      ],
      "name": "BatchMetadataUpdate",
      "type": "event"
    },
    {
      "anonymous": false,
      "inputs": [
        {
          "indexed": false,
          "internalType": "uint256",
          "name": "_tokenId",
          "type": "uint256"
        }
      ],
      "name": "MetadataUpdate",
      "type": "event"
    },
    {
      "anonymous": false,
      "inputs": [
        {
          "indexed": true,
          "internalType": "address",
          "name": "previousOwner",
          "type": "address"
        },
        {
          "indexed": true,
          "internalType": "address",
          "name": "newOwner",
          "type": "address"
        }
      ],
      "name": "OwnershipTransferred",
      "type": "event"
    },
    {
      "anonymous": false,
      "inputs": [
        {
          "indexed": true,
          "internalType": "address",
          "name": "from",
          "type": "address"
        },
        {
          "indexed": true,
          "internalType": "address",
          "name": "to",
          "type": "address"
        },
        {
          "indexed": true,
          "internalType": "uint256",
          "name": "tokenId",
          "type": "uint256"
        }
      ],
      "name": "Transfer",
      "type": "event"
    },
    {
      "inputs": [
        {
          "internalType": "address",
          "name": "",
          "type": "address"
        }
      ],
      "name": "addressToEarnings",
      "outputs": [
        {
          "internalType": "uint256",
          "name": "",
          "type": "uint256"
        }
      ],
      "stateMutability": "view",
      "type": "function"
    },
    {
      "inputs": [
        {
          "internalType": "address",
          "name": "to",
          "type": "address"
        },
        {
          "internalType": "uint256",
          "name": "tokenId",
          "type": "uint256"
        }
      ],
      "name": "approve",
      "outputs": [],
      "stateMutability": "nonpayable",
      "type": "function"
    },
    {
      "inputs": [
        {
          "internalType": "address",
          "name": "owner",
          "type": "address"
        }
      ],
      "name": "balanceOf",
      "outputs": [
        {
          "internalType": "uint256",
          "name": "",
          "type": "uint256"
        }
      ],
      "stateMutability": "view",
      "type": "function"
    },
    {
      "inputs": [
        {
          "internalType": "uint256",
          "name": "tokenId",
          "type": "uint256"
        },
        {
          "internalType": "address",
          "name": "user",
          "type": "address"
        }
      ],
      "name": "checkAccess",
      "outputs": [
        {
          "internalType": "bool",
          "name": "",
          "type": "bool"
        }
      ],
      "stateMutability": "view",
      "type": "function"
    },
    {
      "inputs": [
        {
          "internalType": "uint256",
          "name": "tokenId",
          "type": "uint256"
        }
      ],
      "name": "getApproved",
      "outputs": [
        {
          "internalType": "address",
          "name": "",
          "type": "address"
        }
      ],
      "stateMutability": "view",
      "type": "function"
    },
    {
      "inputs": [
        {
          "internalType": "address",
          "name": "creator",
          "type": "address"
        }
      ],
      "name": "getCreatorEarnings",
      "outputs": [
        {
          "internalType": "uint256",
          "name": "",
          "type": "uint256"
        }
      ],
      "stateMutability": "view",
      "type": "function"
    },
    {
      "inputs": [],
      "name": "getNftFeed",
      "outputs": [
        {
          "internalType": "uint256[]",
          "name": "",
          "type": "uint256[]"
        }
      ],
      "stateMutability": "view",
      "type": "function"
    },
    {
      "inputs": [
        {
          "internalType": "uint256",
          "name": "",
          "type": "uint256"
        },
        {
          "internalType": "address",
          "name": "",
          "type": "address"
        }
      ],
      "name": "hasAccess",
      "outputs": [
        {
          "internalType": "bool",
          "name": "",
          "type": "bool"
        }
      ],
      "stateMutability": "view",
      "type": "function"
    },
    {
      "inputs": [
        {
          "internalType": "address",
          "name": "owner",
          "type": "address"
        },
        {
          "internalType": "address",
          "name": "operator",
          "type": "address"
        }
      ],
      "name": "isApprovedForAll",
      "outputs": [
        {
          "internalType": "bool",
          "name": "",
          "type": "bool"
        }
      ],
      "stateMutability": "view",
      "type": "function"
    },
    {
      "inputs": [
        {
          "internalType": "address",
          "name": "_to",
          "type": "address"
        },
        {
          "internalType": "uint256",
          "name": "tokenId",
          "type": "uint256"
        },
        {
          "internalType": "string",
          "name": "_uri",
          "type": "string"
        },
        {
          "internalType": "uint256",
          "name": "price",
          "type": "uint256"
        },
        {
          "internalType": "bool",
          "name": "isOneTimeSale",
          "type": "bool"
        }
      ],
      "name": "mint",
      "outputs": [],
      "stateMutability": "nonpayable",
      "type": "function"
    },
    {
      "inputs": [],
      "name": "name",
      "outputs": [
        {
          "internalType": "string",
          "name": "",
          "type": "string"
        }
      ],
      "stateMutability": "view",
      "type": "function"
    },
    {
      "inputs": [
        {
          "internalType": "uint256",
          "name": "",
          "type": "uint256"
        }
      ],
      "name": "nftFeed",
      "outputs": [
        {
          "internalType": "uint256",
          "name": "",
          "type": "uint256"
        }
      ],
      "stateMutability": "view",
      "type": "function"
    },
    {
      "inputs": [
        {
          "internalType": "uint256",
          "name": "",
          "type": "uint256"
        }
      ],
      "name": "nfts",
      "outputs": [
        {
          "internalType": "uint256",
          "name": "tokenId",
          "type": "uint256"
        },
        {
          "internalType": "address",
          "name": "creator",
          "type": "address"
        },
        {
          "internalType": "string",
          "name": "tokenURI",
          "type": "string"
        },
        {
          "internalType": "uint256",
          "name": "price",
          "type": "uint256"
        },
        {
          "internalType": "bool",
          "name": "isOneTimeSale",
          "type": "bool"
        }
      ],
      "stateMutability": "view",
      "type": "function"
    },
    {
      "inputs": [],
      "name": "owner",
      "outputs": [
        {
          "internalType": "address",
          "name": "",
          "type": "address"
        }
      ],
      "stateMutability": "view",
      "type": "function"
    },
    {
      "inputs": [
        {
          "internalType": "uint256",
          "name": "tokenId",
          "type": "uint256"
        }
      ],
      "name": "ownerOf",
      "outputs": [
        {
          "internalType": "address",
          "name": "",
          "type": "address"
        }
      ],
      "stateMutability": "view",
      "type": "function"
    },
    {
      "inputs": [
        {
          "internalType": "uint256",
          "name": "tokenId",
          "type": "uint256"
        }
      ],
      "name": "purchaseNFT",
      "outputs": [],
      "stateMutability": "payable",
      "type": "function"
    },
    {
      "inputs": [],
      "name": "renounceOwnership",
      "outputs": [],
      "stateMutability": "nonpayable",
      "type": "function"
    },
    {
      "inputs": [
        {
          "internalType": "address",
          "name": "from",
          "type": "address"
        },
        {
          "internalType": "address",
          "name": "to",
          "type": "address"
        },
        {
          "internalType": "uint256",
          "name": "tokenId",
          "type": "uint256"
        }
      ],
      "name": "safeTransferFrom",
      "outputs": [],
      "stateMutability": "nonpayable",
      "type": "function"
    },
    {
      "inputs": [
        {
          "internalType": "address",
          "name": "from",
          "type": "address"
        },
        {
          "internalType": "address",
          "name": "to",
          "type": "address"
        },
        {
          "internalType": "uint256",
          "name": "tokenId",
          "type": "uint256"
        },
        {
          "internalType": "bytes",
          "name": "data",
          "type": "bytes"
        }
      ],
      "name": "safeTransferFrom",
      "outputs": [],
      "stateMutability": "nonpayable",
      "type": "function"
    },
    {
      "inputs": [
        {
          "internalType": "address",
          "name": "operator",
          "type": "address"
        },
        {
          "internalType": "bool",
          "name": "approved",
          "type": "bool"
        }
      ],
      "name": "setApprovalForAll",
      "outputs": [],
      "stateMutability": "nonpayable",
      "type": "function"
    },
    {
      "inputs": [
        {
          "internalType": "bytes4",
          "name": "interfaceId",
          "type": "bytes4"
        }
      ],
      "name": "supportsInterface",
      "outputs": [
        {
          "internalType": "bool",
          "name": "",
          "type": "bool"
        }
      ],
      "stateMutability": "view",
      "type": "function"
    },
    {
      "inputs": [],
      "name": "symbol",
      "outputs": [
        {
          "internalType": "string",
          "name": "",
          "type": "string"
        }
      ],
      "stateMutability": "view",
      "type": "function"
    },
    {
      "inputs": [
        {
          "internalType": "uint256",
          "name": "tokenId",
          "type": "uint256"
        }
      ],
      "name": "tokenURI",
      "outputs": [
        {
          "internalType": "string",
          "name": "",
          "type": "string"
        }
      ],
      "stateMutability": "view",
      "type": "function"
    },
    {
      "inputs": [
        {
          "internalType": "address",
          "name": "from",
          "type": "address"
        },
        {
          "internalType": "address",
          "name": "to",
          "type": "address"
        },
        {
          "internalType": "uint256",
          "name": "tokenId",
          "type": "uint256"
        }
      ],
      "name": "transferFrom",
      "outputs": [],
      "stateMutability": "nonpayable",
      "type": "function"
    },
    {
      "inputs": [
        {
          "internalType": "address",
          "name": "newOwner",
          "type": "address"
        }
      ],
      "name": "transferOwnership",
      "outputs": [],
      "stateMutability": "nonpayable",
      "type": "function"
    }
  ],
  "bytecode": "0x608060405234801561001057600080fd5b506040516138ef3803806138ef8339818101604052810190610032919061037a565b80838381600090816100449190610626565b5080600190816100549190610626565b505050600073ffffffffffffffffffffffffffffffffffffffff168173ffffffffffffffffffffffffffffffffffffffff16036100c95760006040517f1e4fbdf70000000000000000000000000000000000000000000000000000000081526004016100c09190610707565b60405180910390fd5b6100d8816100e160201b60201c565b50505050610722565b6000600760009054906101000a900473ffffffffffffffffffffffffffffffffffffffff16905081600760006101000a81548173ffffffffffffffffffffffffffffffffffffffff021916908373ffffffffffffffffffffffffffffffffffffffff1602179055508173ffffffffffffffffffffffffffffffffffffffff168173ffffffffffffffffffffffffffffffffffffffff167f8be0079c531659141344cd1fd0a4f28419497f9722a3daafe3b4186f6b6457e060405160405180910390a35050565b6000604051905090565b600080fd5b600080fd5b600080fd5b600080fd5b6000601f19601f8301169050919050565b7f4e487b7100000000000000000000000000000000000000000000000000000000600052604160045260246000fd5b61020e826101c5565b810181811067ffffffffffffffff8211171561022d5761022c6101d6565b5b80604052505050565b60006102406101a7565b905061024c8282610205565b919050565b600067ffffffffffffffff82111561026c5761026b6101d6565b5b610275826101c5565b9050602081019050919050565b60005b838110156102a0578082015181840152602081019050610285565b60008484015250505050565b60006102bf6102ba84610251565b610236565b9050828152602081018484840111156102db576102da6101c0565b5b6102e6848285610282565b509392505050565b600082601f830112610303576103026101bb565b5b81516103138482602086016102ac565b91505092915050565b600073ffffffffffffffffffffffffffffffffffffffff82169050919050565b60006103478261031c565b9050919050565b6103578161033c565b811461036257600080fd5b50565b6000815190506103748161034e565b92915050565b600080600060608486031215610393576103926101b1565b5b600084015167ffffffffffffffff8111156103b1576103b06101b6565b5b6103bd868287016102ee565b935050602084015167ffffffffffffffff8111156103de576103dd6101b6565b5b6103ea868287016102ee565b92505060406103fb86828701610365565b9150509250925092565b600081519050919050565b7f4e487b7100000000000000000000000000000000000000000000000000000000600052602260045260246000fd5b6000600282049050600182168061045757607f821691505b60208210810361046a57610469610410565b5b50919050565b60008190508160005260206000209050919050565b60006020601f8301049050919050565b600082821b905092915050565b6000600883026104d27fffffffffffffffffffffffffffffffffffffffffffffffffffffffffffffffff82610495565b6104dc8683610495565b95508019841693508086168417925050509392505050565b6000819050919050565b6000819050919050565b600061052361051e610519846104f4565b6104fe565b6104f4565b9050919050565b6000819050919050565b61053d83610508565b6105516105498261052a565b8484546104a2565b825550505050565b600090565b610566610559565b610571818484610534565b505050565b5b818110156105955761058a60008261055e565b600181019050610577565b5050565b601f8211156105da576105ab81610470565b6105b484610485565b810160208510156105c3578190505b6105d76105cf85610485565b830182610576565b50505b505050565b600082821c905092915050565b60006105fd600019846008026105df565b1980831691505092915050565b600061061683836105ec565b9150826002028217905092915050565b61062f82610405565b67ffffffffffffffff811115610648576106476101d6565b5b610652825461043f565b61065d828285610599565b600060209050601f831160018114610690576000841561067e578287015190505b610688858261060a565b8655506106f0565b601f19841661069e86610470565b60005b828110156106c6578489015182556001820191506020850194506020810190506106a1565b868310156106e357848901516106df601f8916826105ec565b8355505b6001600288020188555050505b505050505050565b6107018161033c565b82525050565b600060208201905061071c60008301846106f8565b92915050565b6131be806107316000396000f3fe6080604052600436106101665760003560e01c8063804396af116100d1578063b88d4fde1161008a578063d13c870311610064578063d13c870314610569578063dcb10a04146105a6578063e985e9c5146105e3578063f2fde38b1461062057610166565b8063b88d4fde146104c6578063c87b56dd146104ef578063ced141981461052c57610166565b8063804396af146103a25780638684e124146103df5780638da5cb5b1461041c57806395d89b4114610447578063a22cb46514610472578063a91496411461049b57610166565b8063265aa62111610123578063265aa6211461027e57806342842e0e146102bf5780636352211e146102e8578063670d07b41461032557806370a082311461034e578063715018a61461038b57610166565b806301ffc9a71461016b57806306fdde03146101a8578063081812fc146101d3578063095ea7b314610210578063150bde031461023957806323b872dd14610255575b600080fd5b34801561017757600080fd5b50610192600480360381019061018d9190612300565b610649565b60405161019f9190612348565b60405180910390f35b3480156101b457600080fd5b506101bd6106aa565b6040516101ca91906123f3565b60405180910390f35b3480156101df57600080fd5b506101fa60048036038101906101f5919061244b565b61073c565b60405161020791906124b9565b60405180910390f35b34801561021c57600080fd5b5061023760048036038101906102329190612500565b610758565b005b610253600480360381019061024e919061244b565b61076e565b005b34801561026157600080fd5b5061027c60048036038101906102779190612540565b6109bc565b005b34801561028a57600080fd5b506102a560048036038101906102a0919061244b565b610abe565b6040516102b69594939291906125a2565b60405180910390f35b3480156102cb57600080fd5b506102e660048036038101906102e19190612540565b610ba9565b005b3480156102f457600080fd5b5061030f600480360381019061030a919061244b565b610bc9565b60405161031c91906124b9565b60405180910390f35b34801561033157600080fd5b5061034c6004803603810190610347919061268d565b610bdb565b005b34801561035a57600080fd5b5061037560048036038101906103709190612727565b610d01565b6040516103829190612754565b60405180910390f35b34801561039757600080fd5b506103a0610dbb565b005b3480156103ae57600080fd5b506103c960048036038101906103c49190612727565b610dcf565b6040516103d69190612754565b60405180910390f35b3480156103eb57600080fd5b506104066004803603810190610401919061244b565b610e18565b6040516104139190612754565b60405180910390f35b34801561042857600080fd5b50610431610e3c565b60405161043e91906124b9565b60405180910390f35b34801561045357600080fd5b5061045c610e66565b60405161046991906123f3565b60405180910390f35b34801561047e57600080fd5b506104996004803603810190610494919061276f565b610ef8565b005b3480156104a757600080fd5b506104b0610f0e565b6040516104bd919061286d565b60405180910390f35b3480156104d257600080fd5b506104ed60048036038101906104e891906129bf565b610f66565b005b3480156104fb57600080fd5b506105166004803603810190610511919061244b565b610f83565b60405161052391906123f3565b60405180910390f35b34801561053857600080fd5b50610553600480360381019061054e9190612a42565b611096565b6040516105609190612348565b60405180910390f35b34801561057557600080fd5b50610590600480360381019061058b9190612a42565b6110c5565b60405161059d9190612348565b60405180910390f35b3480156105b257600080fd5b506105cd60048036038101906105c89190612727565b61112d565b6040516105da9190612754565b60405180910390f35b3480156105ef57600080fd5b5061060a60048036038101906106059190612a82565b611145565b6040516106179190612348565b60405180910390f35b34801561062c57600080fd5b5061064760048036038101906106429190612727565b6111d9565b005b6000634906490660e01b7bffffffffffffffffffffffffffffffffffffffffffffffffffffffff1916827bffffffffffffffffffffffffffffffffffffffffffffffffffffffff191614806106a357506106a28261125f565b5b9050919050565b6060600080546106b990612af1565b80601f01602080910402602001604051908101604052809291908181526020018280546106e590612af1565b80156107325780601f1061070757610100808354040283529160200191610732565b820191906000526020600020905b81548152906001019060200180831161071557829003601f168201915b5050505050905090565b600061074782611341565b50610751826113c9565b9050919050565b61076a8282610765611406565b61140e565b5050565b6000600a6000838152602001908152602001600020905080600301543410156107cc576040517f08c379a00000000000000000000000000000000000000000000000000000000081526004016107c390612b6e565b60405180910390fd5b6009600083815260200190815260200160002060003373ffffffffffffffffffffffffffffffffffffffff1673ffffffffffffffffffffffffffffffffffffffff16815260200190815260200160002060009054906101000a900460ff161561086a576040517f08c379a000000000000000000000000000000000000000000000000000000000815260040161086190612bda565b60405180910390fd5b60016009600084815260200190815260200160002060003373ffffffffffffffffffffffffffffffffffffffff1673ffffffffffffffffffffffffffffffffffffffff16815260200190815260200160002060006101000a81548160ff0219169083151502179055508060010160009054906101000a900473ffffffffffffffffffffffffffffffffffffffff1673ffffffffffffffffffffffffffffffffffffffff166108fc349081150290604051600060405180830381858888f1935050505015801561093d573d6000803e3d6000fd5b5034600b60008360010160009054906101000a900473ffffffffffffffffffffffffffffffffffffffff1673ffffffffffffffffffffffffffffffffffffffff1673ffffffffffffffffffffffffffffffffffffffff16815260200190815260200160002060008282546109b19190612c29565b925050819055505050565b600073ffffffffffffffffffffffffffffffffffffffff168273ffffffffffffffffffffffffffffffffffffffff1603610a2e5760006040517f64a0ae92000000000000000000000000000000000000000000000000000000008152600401610a2591906124b9565b60405180910390fd5b6000610a428383610a3d611406565b611420565b90508373ffffffffffffffffffffffffffffffffffffffff168173ffffffffffffffffffffffffffffffffffffffff1614610ab8578382826040517f64283d7b000000000000000000000000000000000000000000000000000000008152600401610aaf93929190612c5d565b60405180910390fd5b50505050565b600a6020528060005260406000206000915090508060000154908060010160009054906101000a900473ffffffffffffffffffffffffffffffffffffffff1690806002018054610b0d90612af1565b80601f0160208091040260200160405190810160405280929190818152602001828054610b3990612af1565b8015610b865780601f10610b5b57610100808354040283529160200191610b86565b820191906000526020600020905b815481529060010190602001808311610b6957829003601f168201915b5050505050908060030154908060040160009054906101000a900460ff16905085565b610bc483838360405180602001604052806000815250610f66565b505050565b6000610bd482611341565b9050919050565b610be5868661163a565b610c338585858080601f016020809104026020016040519081016040528093929190818152602001838380828437600081840152601f19601f82011690508083019250505050505050611733565b6000600a60008781526020019081526020016000209050858160000181905550338160010160006101000a81548173ffffffffffffffffffffffffffffffffffffffff021916908373ffffffffffffffffffffffffffffffffffffffff1602179055508484826002019182610ca9929190612e4b565b50828160030181905550818160040160006101000a81548160ff021916908315150217905550600886908060018154018082558091505060019003906000526020600020016000909190919091505550505050505050565b60008073ffffffffffffffffffffffffffffffffffffffff168273ffffffffffffffffffffffffffffffffffffffff1603610d745760006040517f89c62b64000000000000000000000000000000000000000000000000000000008152600401610d6b91906124b9565b60405180910390fd5b600360008373ffffffffffffffffffffffffffffffffffffffff1673ffffffffffffffffffffffffffffffffffffffff168152602001908152602001600020549050919050565b610dc361178f565b610dcd6000611816565b565b6000600b60008373ffffffffffffffffffffffffffffffffffffffff1673ffffffffffffffffffffffffffffffffffffffff168152602001908152602001600020549050919050565b60088181548110610e2857600080fd5b906000526020600020016000915090505481565b6000600760009054906101000a900473ffffffffffffffffffffffffffffffffffffffff16905090565b606060018054610e7590612af1565b80601f0160208091040260200160405190810160405280929190818152602001828054610ea190612af1565b8015610eee5780601f10610ec357610100808354040283529160200191610eee565b820191906000526020600020905b815481529060010190602001808311610ed157829003601f168201915b5050505050905090565b610f0a610f03611406565b83836118dc565b5050565b60606008805480602002602001604051908101604052809291908181526020018280548015610f5c57602002820191906000526020600020905b815481526020019060010190808311610f48575b5050505050905090565b610f718484846109bc565b610f7d84848484611a4b565b50505050565b6060610f8e82611341565b506000600660008481526020019081526020016000208054610faf90612af1565b80601f0160208091040260200160405190810160405280929190818152602001828054610fdb90612af1565b80156110285780601f10610ffd57610100808354040283529160200191611028565b820191906000526020600020905b81548152906001019060200180831161100b57829003601f168201915b505050505090506000611039611c02565b9050600081510361104e578192505050611091565b60008251111561108357808260405160200161106b929190612f57565b60405160208183030381529060405292505050611091565b61108c84611c19565b925050505b919050565b60096020528160005260406000206020528060005260406000206000915091509054906101000a900460ff1681565b60006009600084815260200190815260200160002060008373ffffffffffffffffffffffffffffffffffffffff1673ffffffffffffffffffffffffffffffffffffffff16815260200190815260200160002060009054906101000a900460ff16905092915050565b600b6020528060005260406000206000915090505481565b6000600560008473ffffffffffffffffffffffffffffffffffffffff1673ffffffffffffffffffffffffffffffffffffffff16815260200190815260200160002060008373ffffffffffffffffffffffffffffffffffffffff1673ffffffffffffffffffffffffffffffffffffffff16815260200190815260200160002060009054906101000a900460ff16905092915050565b6111e161178f565b600073ffffffffffffffffffffffffffffffffffffffff168173ffffffffffffffffffffffffffffffffffffffff16036112535760006040517f1e4fbdf700000000000000000000000000000000000000000000000000000000815260040161124a91906124b9565b60405180910390fd5b61125c81611816565b50565b60007f80ac58cd000000000000000000000000000000000000000000000000000000007bffffffffffffffffffffffffffffffffffffffffffffffffffffffff1916827bffffffffffffffffffffffffffffffffffffffffffffffffffffffff1916148061132a57507f5b5e139f000000000000000000000000000000000000000000000000000000007bffffffffffffffffffffffffffffffffffffffffffffffffffffffff1916827bffffffffffffffffffffffffffffffffffffffffffffffffffffffff1916145b8061133a575061133982611c82565b5b9050919050565b60008061134d83611cec565b9050600073ffffffffffffffffffffffffffffffffffffffff168173ffffffffffffffffffffffffffffffffffffffff16036113c057826040517f7e2732890000000000000000000000000000000000000000000000000000000081526004016113b79190612754565b60405180910390fd5b80915050919050565b60006004600083815260200190815260200160002060009054906101000a900473ffffffffffffffffffffffffffffffffffffffff169050919050565b600033905090565b61141b8383836001611d29565b505050565b60008061142c84611cec565b9050600073ffffffffffffffffffffffffffffffffffffffff168373ffffffffffffffffffffffffffffffffffffffff161461146e5761146d818486611eee565b5b600073ffffffffffffffffffffffffffffffffffffffff168173ffffffffffffffffffffffffffffffffffffffff16146114ff576114b0600085600080611d29565b6001600360008373ffffffffffffffffffffffffffffffffffffffff1673ffffffffffffffffffffffffffffffffffffffff168152602001908152602001600020600082825403925050819055505b600073ffffffffffffffffffffffffffffffffffffffff168573ffffffffffffffffffffffffffffffffffffffff1614611582576001600360008773ffffffffffffffffffffffffffffffffffffffff1673ffffffffffffffffffffffffffffffffffffffff168152602001908152602001600020600082825401925050819055505b846002600086815260200190815260200160002060006101000a81548173ffffffffffffffffffffffffffffffffffffffff021916908373ffffffffffffffffffffffffffffffffffffffff160217905550838573ffffffffffffffffffffffffffffffffffffffff168273ffffffffffffffffffffffffffffffffffffffff167fddf252ad1be2c89b69c2b068fc378daa952ba7f163c4a11628f55a4df523b3ef60405160405180910390a4809150509392505050565b600073ffffffffffffffffffffffffffffffffffffffff168273ffffffffffffffffffffffffffffffffffffffff16036116ac5760006040517f64a0ae920000000000000000000000000000000000000000000000000000000081526004016116a391906124b9565b60405180910390fd5b60006116ba83836000611420565b9050600073ffffffffffffffffffffffffffffffffffffffff168173ffffffffffffffffffffffffffffffffffffffff161461172e5760006040517f73c6ac6e00000000000000000000000000000000000000000000000000000000815260040161172591906124b9565b60405180910390fd5b505050565b806006600084815260200190815260200160002090816117539190612f7b565b507ff8e1a15aba9398e019f0b49df1a4fde98ee17ae345cb5f6b5e2c27f5033e8ce7826040516117839190612754565b60405180910390a15050565b611797611406565b73ffffffffffffffffffffffffffffffffffffffff166117b5610e3c565b73ffffffffffffffffffffffffffffffffffffffff1614611814576117d8611406565b6040517f118cdaa700000000000000000000000000000000000000000000000000000000815260040161180b91906124b9565b60405180910390fd5b565b6000600760009054906101000a900473ffffffffffffffffffffffffffffffffffffffff16905081600760006101000a81548173ffffffffffffffffffffffffffffffffffffffff021916908373ffffffffffffffffffffffffffffffffffffffff1602179055508173ffffffffffffffffffffffffffffffffffffffff168173ffffffffffffffffffffffffffffffffffffffff167f8be0079c531659141344cd1fd0a4f28419497f9722a3daafe3b4186f6b6457e060405160405180910390a35050565b600073ffffffffffffffffffffffffffffffffffffffff168273ffffffffffffffffffffffffffffffffffffffff160361194d57816040517f5b08ba1800000000000000000000000000000000000000000000000000000000815260040161194491906124b9565b60405180910390fd5b80600560008573ffffffffffffffffffffffffffffffffffffffff1673ffffffffffffffffffffffffffffffffffffffff16815260200190815260200160002060008473ffffffffffffffffffffffffffffffffffffffff1673ffffffffffffffffffffffffffffffffffffffff16815260200190815260200160002060006101000a81548160ff0219169083151502179055508173ffffffffffffffffffffffffffffffffffffffff168373ffffffffffffffffffffffffffffffffffffffff167f17307eab39ab6107e8899845ad3d59bd9653f200f220920489ca2b5937696c3183604051611a3e9190612348565b60405180910390a3505050565b60008373ffffffffffffffffffffffffffffffffffffffff163b1115611bfc578273ffffffffffffffffffffffffffffffffffffffff1663150b7a02611a8f611406565b8685856040518563ffffffff1660e01b8152600401611ab194939291906130a2565b6020604051808303816000875af1925050508015611aed57506040513d601f19601f82011682018060405250810190611aea9190613103565b60015b611b71573d8060008114611b1d576040519150601f19603f3d011682016040523d82523d6000602084013e611b22565b606091505b506000815103611b6957836040517f64a0ae92000000000000000000000000000000000000000000000000000000008152600401611b6091906124b9565b60405180910390fd5b805181602001fd5b63150b7a0260e01b7bffffffffffffffffffffffffffffffffffffffffffffffffffffffff1916817bffffffffffffffffffffffffffffffffffffffffffffffffffffffff191614611bfa57836040517f64a0ae92000000000000000000000000000000000000000000000000000000008152600401611bf191906124b9565b60405180910390fd5b505b50505050565b606060405180602001604052806000815250905090565b6060611c2482611341565b506000611c2f611c02565b90506000815111611c4f5760405180602001604052806000815250611c7a565b80611c5984611fb2565b604051602001611c6a929190612f57565b6040516020818303038152906040525b915050919050565b60007f01ffc9a7000000000000000000000000000000000000000000000000000000007bffffffffffffffffffffffffffffffffffffffffffffffffffffffff1916827bffffffffffffffffffffffffffffffffffffffffffffffffffffffff1916149050919050565b60006002600083815260200190815260200160002060009054906101000a900473ffffffffffffffffffffffffffffffffffffffff169050919050565b8080611d625750600073ffffffffffffffffffffffffffffffffffffffff168273ffffffffffffffffffffffffffffffffffffffff1614155b15611e96576000611d7284611341565b9050600073ffffffffffffffffffffffffffffffffffffffff168373ffffffffffffffffffffffffffffffffffffffff1614158015611ddd57508273ffffffffffffffffffffffffffffffffffffffff168173ffffffffffffffffffffffffffffffffffffffff1614155b8015611df05750611dee8184611145565b155b15611e3257826040517fa9fbf51f000000000000000000000000000000000000000000000000000000008152600401611e2991906124b9565b60405180910390fd5b8115611e9457838573ffffffffffffffffffffffffffffffffffffffff168273ffffffffffffffffffffffffffffffffffffffff167f8c5be1e5ebec7d5bd14f71427d1e84f3dd0314c0f7b2291e5b200ac8c7c3b92560405160405180910390a45b505b836004600085815260200190815260200160002060006101000a81548173ffffffffffffffffffffffffffffffffffffffff021916908373ffffffffffffffffffffffffffffffffffffffff16021790555050505050565b611ef9838383612080565b611fad57600073ffffffffffffffffffffffffffffffffffffffff168373ffffffffffffffffffffffffffffffffffffffff1603611f6e57806040517f7e273289000000000000000000000000000000000000000000000000000000008152600401611f659190612754565b60405180910390fd5b81816040517f177e802f000000000000000000000000000000000000000000000000000000008152600401611fa4929190613130565b60405180910390fd5b505050565b606060006001611fc184612141565b01905060008167ffffffffffffffff811115611fe057611fdf612894565b5b6040519080825280601f01601f1916602001820160405280156120125781602001600182028036833780820191505090505b509050600082602001820190505b600115612075578080600190039150507f3031323334353637383961626364656600000000000000000000000000000000600a86061a8153600a858161206957612068613159565b5b04945060008503612020575b819350505050919050565b60008073ffffffffffffffffffffffffffffffffffffffff168373ffffffffffffffffffffffffffffffffffffffff161415801561213857508273ffffffffffffffffffffffffffffffffffffffff168473ffffffffffffffffffffffffffffffffffffffff1614806120f957506120f88484611145565b5b8061213757508273ffffffffffffffffffffffffffffffffffffffff1661211f836113c9565b73ffffffffffffffffffffffffffffffffffffffff16145b5b90509392505050565b600080600090507a184f03e93ff9f4daa797ed6e38ed64bf6a1f010000000000000000831061219f577a184f03e93ff9f4daa797ed6e38ed64bf6a1f010000000000000000838161219557612194613159565b5b0492506040810190505b6d04ee2d6d415b85acef810000000083106121dc576d04ee2d6d415b85acef810000000083816121d2576121d1613159565b5b0492506020810190505b662386f26fc10000831061220b57662386f26fc10000838161220157612200613159565b5b0492506010810190505b6305f5e1008310612234576305f5e100838161222a57612229613159565b5b0492506008810190505b612710831061225957612710838161224f5761224e613159565b5b0492506004810190505b6064831061227c576064838161227257612271613159565b5b0492506002810190505b600a831061228b576001810190505b80915050919050565b6000604051905090565b600080fd5b600080fd5b60007fffffffff0000000000000000000000000000000000000000000000000000000082169050919050565b6122dd816122a8565b81146122e857600080fd5b50565b6000813590506122fa816122d4565b92915050565b6000602082840312156123165761231561229e565b5b6000612324848285016122eb565b91505092915050565b60008115159050919050565b6123428161232d565b82525050565b600060208201905061235d6000830184612339565b92915050565b600081519050919050565b600082825260208201905092915050565b60005b8381101561239d578082015181840152602081019050612382565b60008484015250505050565b6000601f19601f8301169050919050565b60006123c582612363565b6123cf818561236e565b93506123df81856020860161237f565b6123e8816123a9565b840191505092915050565b6000602082019050818103600083015261240d81846123ba565b905092915050565b6000819050919050565b61242881612415565b811461243357600080fd5b50565b6000813590506124458161241f565b92915050565b6000602082840312156124615761246061229e565b5b600061246f84828501612436565b91505092915050565b600073ffffffffffffffffffffffffffffffffffffffff82169050919050565b60006124a382612478565b9050919050565b6124b381612498565b82525050565b60006020820190506124ce60008301846124aa565b92915050565b6124dd81612498565b81146124e857600080fd5b50565b6000813590506124fa816124d4565b92915050565b600080604083850312156125175761251661229e565b5b6000612525858286016124eb565b925050602061253685828601612436565b9150509250929050565b6000806000606084860312156125595761255861229e565b5b6000612567868287016124eb565b9350506020612578868287016124eb565b925050604061258986828701612436565b9150509250925092565b61259c81612415565b82525050565b600060a0820190506125b76000830188612593565b6125c460208301876124aa565b81810360408301526125d681866123ba565b90506125e56060830185612593565b6125f26080830184612339565b9695505050505050565b600080fd5b600080fd5b600080fd5b60008083601f840112612621576126206125fc565b5b8235905067ffffffffffffffff81111561263e5761263d612601565b5b60208301915083600182028301111561265a57612659612606565b5b9250929050565b61266a8161232d565b811461267557600080fd5b50565b60008135905061268781612661565b92915050565b60008060008060008060a087890312156126aa576126a961229e565b5b60006126b889828a016124eb565b96505060206126c989828a01612436565b955050604087013567ffffffffffffffff8111156126ea576126e96122a3565b5b6126f689828a0161260b565b9450945050606061270989828a01612436565b925050608061271a89828a01612678565b9150509295509295509295565b60006020828403121561273d5761273c61229e565b5b600061274b848285016124eb565b91505092915050565b60006020820190506127696000830184612593565b92915050565b600080604083850312156127865761278561229e565b5b6000612794858286016124eb565b92505060206127a585828601612678565b9150509250929050565b600081519050919050565b600082825260208201905092915050565b6000819050602082019050919050565b6127e481612415565b82525050565b60006127f683836127db565b60208301905092915050565b6000602082019050919050565b600061281a826127af565b61282481856127ba565b935061282f836127cb565b8060005b8381101561286057815161284788826127ea565b975061285283612802565b925050600181019050612833565b5085935050505092915050565b60006020820190508181036000830152612887818461280f565b905092915050565b600080fd5b7f4e487b7100000000000000000000000000000000000000000000000000000000600052604160045260246000fd5b6128cc826123a9565b810181811067ffffffffffffffff821117156128eb576128ea612894565b5b80604052505050565b60006128fe612294565b905061290a82826128c3565b919050565b600067ffffffffffffffff82111561292a57612929612894565b5b612933826123a9565b9050602081019050919050565b82818337600083830152505050565b600061296261295d8461290f565b6128f4565b90508281526020810184848401111561297e5761297d61288f565b5b612989848285612940565b509392505050565b600082601f8301126129a6576129a56125fc565b5b81356129b684826020860161294f565b91505092915050565b600080600080608085870312156129d9576129d861229e565b5b60006129e7878288016124eb565b94505060206129f8878288016124eb565b9350506040612a0987828801612436565b925050606085013567ffffffffffffffff811115612a2a57612a296122a3565b5b612a3687828801612991565b91505092959194509250565b60008060408385031215612a5957612a5861229e565b5b6000612a6785828601612436565b9250506020612a78858286016124eb565b9150509250929050565b60008060408385031215612a9957612a9861229e565b5b6000612aa7858286016124eb565b9250506020612ab8858286016124eb565b9150509250929050565b7f4e487b7100000000000000000000000000000000000000000000000000000000600052602260045260246000fd5b60006002820490506001821680612b0957607f821691505b602082108103612b1c57612b1b612ac2565b5b50919050565b7f496e73756666696369656e742066756e64730000000000000000000000000000600082015250565b6000612b5860128361236e565b9150612b6382612b22565b602082019050919050565b60006020820190508181036000830152612b8781612b4b565b9050919050565b7f416c726561647920707572636861736564000000000000000000000000000000600082015250565b6000612bc460118361236e565b9150612bcf82612b8e565b602082019050919050565b60006020820190508181036000830152612bf381612bb7565b9050919050565b7f4e487b7100000000000000000000000000000000000000000000000000000000600052601160045260246000fd5b6000612c3482612415565b9150612c3f83612415565b9250828201905080821115612c5757612c56612bfa565b5b92915050565b6000606082019050612c7260008301866124aa565b612c7f6020830185612593565b612c8c60408301846124aa565b949350505050565b600082905092915050565b60008190508160005260206000209050919050565b60006020601f8301049050919050565b600082821b905092915050565b600060088302612d017fffffffffffffffffffffffffffffffffffffffffffffffffffffffffffffffff82612cc4565b612d0b8683612cc4565b95508019841693508086168417925050509392505050565b6000819050919050565b6000612d48612d43612d3e84612415565b612d23565b612415565b9050919050565b6000819050919050565b612d6283612d2d565b612d76612d6e82612d4f565b848454612cd1565b825550505050565b600090565b612d8b612d7e565b612d96818484612d59565b505050565b5b81811015612dba57612daf600082612d83565b600181019050612d9c565b5050565b601f821115612dff57612dd081612c9f565b612dd984612cb4565b81016020851015612de8578190505b612dfc612df485612cb4565b830182612d9b565b50505b505050565b600082821c905092915050565b6000612e2260001984600802612e04565b1980831691505092915050565b6000612e3b8383612e11565b9150826002028217905092915050565b612e558383612c94565b67ffffffffffffffff811115612e6e57612e6d612894565b5b612e788254612af1565b612e83828285612dbe565b6000601f831160018114612eb25760008415612ea0578287013590505b612eaa8582612e2f565b865550612f12565b601f198416612ec086612c9f565b60005b82811015612ee857848901358255600182019150602085019450602081019050612ec3565b86831015612f055784890135612f01601f891682612e11565b8355505b6001600288020188555050505b50505050505050565b600081905092915050565b6000612f3182612363565b612f3b8185612f1b565b9350612f4b81856020860161237f565b80840191505092915050565b6000612f638285612f26565b9150612f6f8284612f26565b91508190509392505050565b612f8482612363565b67ffffffffffffffff811115612f9d57612f9c612894565b5b612fa78254612af1565b612fb2828285612dbe565b600060209050601f831160018114612fe55760008415612fd3578287015190505b612fdd8582612e2f565b865550613045565b601f198416612ff386612c9f565b60005b8281101561301b57848901518255600182019150602085019450602081019050612ff6565b868310156130385784890151613034601f891682612e11565b8355505b6001600288020188555050505b505050505050565b600081519050919050565b600082825260208201905092915050565b60006130748261304d565b61307e8185613058565b935061308e81856020860161237f565b613097816123a9565b840191505092915050565b60006080820190506130b760008301876124aa565b6130c460208301866124aa565b6130d16040830185612593565b81810360608301526130e38184613069565b905095945050505050565b6000815190506130fd816122d4565b92915050565b6000602082840312156131195761311861229e565b5b6000613127848285016130ee565b91505092915050565b600060408201905061314560008301856124aa565b6131526020830184612593565b9392505050565b7f4e487b7100000000000000000000000000000000000000000000000000000000600052601260045260246000fdfea26469706673582212200244bd318853ee67e6ddebf0fa5f8d04f2bd447633213c148c7ce9237c2b269b64736f6c634300081b0033",
  "linkReferences": {},
  "deployedLinkReferences": {}
}