{
  "_format": "hh-sol-artifact-1",
  "contractName": "Nft",
  "sourceName": "contracts/NFT.sol",
  "abi": [
    {
      "inputs": [
        {
          "internalType": "string",
          "name": "name",
          "type": "string"
        },
        {
          "internalType": "string",
          "name": "symbol",
          "type": "string"
        },
        {
          "internalType": "address",
          "name": "initialOwner",
          "type": "address"
        }
      ],
      "stateMutability": "nonpayable",
      "type": "constructor"
    },
    {
      "inputs": [
        {
          "internalType": "address",
          "name": "sender",
          "type": "address"
        },
        {
          "internalType": "uint256",
          "name": "tokenId",
          "type": "uint256"
        },
        {
          "internalType": "address",
          "name": "owner",
          "type": "address"
        }
      ],
      "name": "ERC721IncorrectOwner",
      "type": "error"
    },
    {
      "inputs": [
        {
          "internalType": "address",
          "name": "operator",
          "type": "address"
        },
        {
          "internalType": "uint256",
          "name": "tokenId",
          "type": "uint256"
        }
      ],
      "name": "ERC721InsufficientApproval",
      "type": "error"
    },
    {
      "inputs": [
        {
          "internalType": "address",
          "name": "approver",
          "type": "address"
        }
      ],
      "name": "ERC721InvalidApprover",
      "type": "error"
    },
    {
      "inputs": [
        {
          "internalType": "address",
          "name": "operator",
          "type": "address"
        }
      ],
      "name": "ERC721InvalidOperator",
      "type": "error"
    },
    {
      "inputs": [
        {
          "internalType": "address",
          "name": "owner",
          "type": "address"
        }
      ],
      "name": "ERC721InvalidOwner",
      "type": "error"
    },
    {
      "inputs": [
        {
          "internalType": "address",
          "name": "receiver",
          "type": "address"
        }
      ],
      "name": "ERC721InvalidReceiver",
      "type": "error"
    },
    {
      "inputs": [
        {
          "internalType": "address",
          "name": "sender",
          "type": "address"
        }
      ],
      "name": "ERC721InvalidSender",
      "type": "error"
    },
    {
      "inputs": [
        {
          "internalType": "uint256",
          "name": "tokenId",
          "type": "uint256"
        }
      ],
      "name": "ERC721NonexistentToken",
      "type": "error"
    },
    {
      "inputs": [
        {
          "internalType": "address",
          "name": "owner",
          "type": "address"
        }
      ],
      "name": "OwnableInvalidOwner",
      "type": "error"
    },
    {
      "inputs": [
        {
          "internalType": "address",
          "name": "account",
          "type": "address"
        }
      ],
      "name": "OwnableUnauthorizedAccount",
      "type": "error"
    },
    {
      "anonymous": false,
      "inputs": [
        {
          "indexed": true,
          "internalType": "address",
          "name": "owner",
          "type": "address"
        },
        {
          "indexed": true,
          "internalType": "address",
          "name": "approved",
          "type": "address"
        },
        {
          "indexed": true,
          "internalType": "uint256",
          "name": "tokenId",
          "type": "uint256"
        }
      ],
      "name": "Approval",
      "type": "event"
    },
    {
      "anonymous": false,
      "inputs": [
        {
          "indexed": true,
          "internalType": "address",
          "name": "owner",
          "type": "address"
        },
        {
          "indexed": true,
          "internalType": "address",
          "name": "operator",
          "type": "address"
        },
        {
          "indexed": false,
          "internalType": "bool",
          "name": "approved",
          "type": "bool"
        }
      ],
      "name": "ApprovalForAll",
      "type": "event"
    },
    {
      "anonymous": false,
      "inputs": [
        {
          "indexed": false,
          "internalType": "uint256",
          "name": "_fromTokenId",
          "type": "uint256"
        },
        {
          "indexed": false,
          "internalType": "uint256",
          "name": "_toTokenId",
          "type": "uint256"
        }
      ],
      "name": "BatchMetadataUpdate",
      "type": "event"
    },
    {
      "anonymous": false,
      "inputs": [
        {
          "indexed": false,
          "internalType": "uint256",
          "name": "_tokenId",
          "type": "uint256"
        }
      ],
      "name": "MetadataUpdate",
      "type": "event"
    },
    {
      "anonymous": false,
      "inputs": [
        {
          "indexed": true,
          "internalType": "address",
          "name": "previousOwner",
          "type": "address"
        },
        {
          "indexed": true,
          "internalType": "address",
          "name": "newOwner",
          "type": "address"
        }
      ],
      "name": "OwnershipTransferred",
      "type": "event"
    },
    {
      "anonymous": false,
      "inputs": [
        {
          "indexed": true,
          "internalType": "address",
          "name": "from",
          "type": "address"
        },
        {
          "indexed": true,
          "internalType": "address",
          "name": "to",
          "type": "address"
        },
        {
          "indexed": true,
          "internalType": "uint256",
          "name": "tokenId",
          "type": "uint256"
        }
      ],
      "name": "Transfer",
      "type": "event"
    },
    {
      "inputs": [
        {
          "internalType": "address",
          "name": "to",
          "type": "address"
        },
        {
          "internalType": "uint256",
          "name": "tokenId",
          "type": "uint256"
        }
      ],
      "name": "approve",
      "outputs": [],
      "stateMutability": "nonpayable",
      "type": "function"
    },
    {
      "inputs": [
        {
          "internalType": "address",
          "name": "owner",
          "type": "address"
        }
      ],
      "name": "balanceOf",
      "outputs": [
        {
          "internalType": "uint256",
          "name": "",
          "type": "uint256"
        }
      ],
      "stateMutability": "view",
      "type": "function"
    },
    {
      "inputs": [
        {
          "internalType": "uint256",
          "name": "tokenId",
          "type": "uint256"
        },
        {
          "internalType": "address",
          "name": "user",
          "type": "address"
        }
      ],
      "name": "checkAccess",
      "outputs": [
        {
          "internalType": "bool",
          "name": "",
          "type": "bool"
        }
      ],
      "stateMutability": "view",
      "type": "function"
    },
    {
      "inputs": [
        {
          "internalType": "uint256",
          "name": "tokenId",
          "type": "uint256"
        }
      ],
      "name": "getApproved",
      "outputs": [
        {
          "internalType": "address",
          "name": "",
          "type": "address"
        }
      ],
      "stateMutability": "view",
      "type": "function"
    },
    {
      "inputs": [],
      "name": "getNftFeed",
      "outputs": [
        {
          "internalType": "uint256[]",
          "name": "",
          "type": "uint256[]"
        }
      ],
      "stateMutability": "view",
      "type": "function"
    },
    {
      "inputs": [
        {
          "internalType": "uint256",
          "name": "",
          "type": "uint256"
        },
        {
          "internalType": "address",
          "name": "",
          "type": "address"
        }
      ],
      "name": "hasAccess",
      "outputs": [
        {
          "internalType": "bool",
          "name": "",
          "type": "bool"
        }
      ],
      "stateMutability": "view",
      "type": "function"
    },
    {
      "inputs": [
        {
          "internalType": "address",
          "name": "owner",
          "type": "address"
        },
        {
          "internalType": "address",
          "name": "operator",
          "type": "address"
        }
      ],
      "name": "isApprovedForAll",
      "outputs": [
        {
          "internalType": "bool",
          "name": "",
          "type": "bool"
        }
      ],
      "stateMutability": "view",
      "type": "function"
    },
    {
      "inputs": [
        {
          "internalType": "address",
          "name": "_to",
          "type": "address"
        },
        {
          "internalType": "uint256",
          "name": "tokenId",
          "type": "uint256"
        },
        {
          "internalType": "string",
          "name": "_uri",
          "type": "string"
        },
        {
          "internalType": "uint256",
          "name": "price",
          "type": "uint256"
        },
        {
          "internalType": "bool",
          "name": "isOneTimeSale",
          "type": "bool"
        }
      ],
      "name": "mint",
      "outputs": [],
      "stateMutability": "nonpayable",
      "type": "function"
    },
    {
      "inputs": [],
      "name": "name",
      "outputs": [
        {
          "internalType": "string",
          "name": "",
          "type": "string"
        }
      ],
      "stateMutability": "view",
      "type": "function"
    },
    {
      "inputs": [
        {
          "internalType": "uint256",
          "name": "",
          "type": "uint256"
        }
      ],
      "name": "nftFeed",
      "outputs": [
        {
          "internalType": "uint256",
          "name": "",
          "type": "uint256"
        }
      ],
      "stateMutability": "view",
      "type": "function"
    },
    {
      "inputs": [
        {
          "internalType": "uint256",
          "name": "",
          "type": "uint256"
        }
      ],
      "name": "nfts",
      "outputs": [
        {
          "internalType": "uint256",
          "name": "tokenId",
          "type": "uint256"
        },
        {
          "internalType": "address",
          "name": "creator",
          "type": "address"
        },
        {
          "internalType": "string",
          "name": "tokenURI",
          "type": "string"
        },
        {
          "internalType": "uint256",
          "name": "price",
          "type": "uint256"
        },
        {
          "internalType": "bool",
          "name": "isOneTimeSale",
          "type": "bool"
        }
      ],
      "stateMutability": "view",
      "type": "function"
    },
    {
      "inputs": [],
      "name": "owner",
      "outputs": [
        {
          "internalType": "address",
          "name": "",
          "type": "address"
        }
      ],
      "stateMutability": "view",
      "type": "function"
    },
    {
      "inputs": [
        {
          "internalType": "uint256",
          "name": "tokenId",
          "type": "uint256"
        }
      ],
      "name": "ownerOf",
      "outputs": [
        {
          "internalType": "address",
          "name": "",
          "type": "address"
        }
      ],
      "stateMutability": "view",
      "type": "function"
    },
    {
      "inputs": [
        {
          "internalType": "uint256",
          "name": "tokenId",
          "type": "uint256"
        }
      ],
      "name": "purchaseNFT",
      "outputs": [],
      "stateMutability": "payable",
      "type": "function"
    },
    {
      "inputs": [],
      "name": "renounceOwnership",
      "outputs": [],
      "stateMutability": "nonpayable",
      "type": "function"
    },
    {
      "inputs": [
        {
          "internalType": "address",
          "name": "from",
          "type": "address"
        },
        {
          "internalType": "address",
          "name": "to",
          "type": "address"
        },
        {
          "internalType": "uint256",
          "name": "tokenId",
          "type": "uint256"
        }
      ],
      "name": "safeTransferFrom",
      "outputs": [],
      "stateMutability": "nonpayable",
      "type": "function"
    },
    {
      "inputs": [
        {
          "internalType": "address",
          "name": "from",
          "type": "address"
        },
        {
          "internalType": "address",
          "name": "to",
          "type": "address"
        },
        {
          "internalType": "uint256",
          "name": "tokenId",
          "type": "uint256"
        },
        {
          "internalType": "bytes",
          "name": "data",
          "type": "bytes"
        }
      ],
      "name": "safeTransferFrom",
      "outputs": [],
      "stateMutability": "nonpayable",
      "type": "function"
    },
    {
      "inputs": [
        {
          "internalType": "address",
          "name": "operator",
          "type": "address"
        },
        {
          "internalType": "bool",
          "name": "approved",
          "type": "bool"
        }
      ],
      "name": "setApprovalForAll",
      "outputs": [],
      "stateMutability": "nonpayable",
      "type": "function"
    },
    {
      "inputs": [
        {
          "internalType": "bytes4",
          "name": "interfaceId",
          "type": "bytes4"
        }
      ],
      "name": "supportsInterface",
      "outputs": [
        {
          "internalType": "bool",
          "name": "",
          "type": "bool"
        }
      ],
      "stateMutability": "view",
      "type": "function"
    },
    {
      "inputs": [],
      "name": "symbol",
      "outputs": [
        {
          "internalType": "string",
          "name": "",
          "type": "string"
        }
      ],
      "stateMutability": "view",
      "type": "function"
    },
    {
      "inputs": [
        {
          "internalType": "uint256",
          "name": "tokenId",
          "type": "uint256"
        }
      ],
      "name": "tokenURI",
      "outputs": [
        {
          "internalType": "string",
          "name": "",
          "type": "string"
        }
      ],
      "stateMutability": "view",
      "type": "function"
    },
    {
      "inputs": [
        {
          "internalType": "address",
          "name": "from",
          "type": "address"
        },
        {
          "internalType": "address",
          "name": "to",
          "type": "address"
        },
        {
          "internalType": "uint256",
          "name": "tokenId",
          "type": "uint256"
        }
      ],
      "name": "transferFrom",
      "outputs": [],
      "stateMutability": "nonpayable",
      "type": "function"
    },
    {
      "inputs": [
        {
          "internalType": "address",
          "name": "newOwner",
          "type": "address"
        }
      ],
      "name": "transferOwnership",
      "outputs": [],
      "stateMutability": "nonpayable",
      "type": "function"
    }
  ],
  "bytecode": "0x608060405234801561001057600080fd5b506040516137113803806137118339818101604052810190610032919061037a565b80838381600090816100449190610626565b5080600190816100549190610626565b505050600073ffffffffffffffffffffffffffffffffffffffff168173ffffffffffffffffffffffffffffffffffffffff16036100c95760006040517f1e4fbdf70000000000000000000000000000000000000000000000000000000081526004016100c09190610707565b60405180910390fd5b6100d8816100e160201b60201c565b50505050610722565b6000600760009054906101000a900473ffffffffffffffffffffffffffffffffffffffff16905081600760006101000a81548173ffffffffffffffffffffffffffffffffffffffff021916908373ffffffffffffffffffffffffffffffffffffffff1602179055508173ffffffffffffffffffffffffffffffffffffffff168173ffffffffffffffffffffffffffffffffffffffff167f8be0079c531659141344cd1fd0a4f28419497f9722a3daafe3b4186f6b6457e060405160405180910390a35050565b6000604051905090565b600080fd5b600080fd5b600080fd5b600080fd5b6000601f19601f8301169050919050565b7f4e487b7100000000000000000000000000000000000000000000000000000000600052604160045260246000fd5b61020e826101c5565b810181811067ffffffffffffffff8211171561022d5761022c6101d6565b5b80604052505050565b60006102406101a7565b905061024c8282610205565b919050565b600067ffffffffffffffff82111561026c5761026b6101d6565b5b610275826101c5565b9050602081019050919050565b60005b838110156102a0578082015181840152602081019050610285565b60008484015250505050565b60006102bf6102ba84610251565b610236565b9050828152602081018484840111156102db576102da6101c0565b5b6102e6848285610282565b509392505050565b600082601f830112610303576103026101bb565b5b81516103138482602086016102ac565b91505092915050565b600073ffffffffffffffffffffffffffffffffffffffff82169050919050565b60006103478261031c565b9050919050565b6103578161033c565b811461036257600080fd5b50565b6000815190506103748161034e565b92915050565b600080600060608486031215610393576103926101b1565b5b600084015167ffffffffffffffff8111156103b1576103b06101b6565b5b6103bd868287016102ee565b935050602084015167ffffffffffffffff8111156103de576103dd6101b6565b5b6103ea868287016102ee565b92505060406103fb86828701610365565b9150509250925092565b600081519050919050565b7f4e487b7100000000000000000000000000000000000000000000000000000000600052602260045260246000fd5b6000600282049050600182168061045757607f821691505b60208210810361046a57610469610410565b5b50919050565b60008190508160005260206000209050919050565b60006020601f8301049050919050565b600082821b905092915050565b6000600883026104d27fffffffffffffffffffffffffffffffffffffffffffffffffffffffffffffffff82610495565b6104dc8683610495565b95508019841693508086168417925050509392505050565b6000819050919050565b6000819050919050565b600061052361051e610519846104f4565b6104fe565b6104f4565b9050919050565b6000819050919050565b61053d83610508565b6105516105498261052a565b8484546104a2565b825550505050565b600090565b610566610559565b610571818484610534565b505050565b5b818110156105955761058a60008261055e565b600181019050610577565b5050565b601f8211156105da576105ab81610470565b6105b484610485565b810160208510156105c3578190505b6105d76105cf85610485565b830182610576565b50505b505050565b600082821c905092915050565b60006105fd600019846008026105df565b1980831691505092915050565b600061061683836105ec565b9150826002028217905092915050565b61062f82610405565b67ffffffffffffffff811115610648576106476101d6565b5b610652825461043f565b61065d828285610599565b600060209050601f831160018114610690576000841561067e578287015190505b610688858261060a565b8655506106f0565b601f19841661069e86610470565b60005b828110156106c6578489015182556001820191506020850194506020810190506106a1565b868310156106e357848901516106df601f8916826105ec565b8355505b6001600288020188555050505b505050505050565b6107018161033c565b82525050565b600060208201905061071c60008301846106f8565b92915050565b612fe0806107316000396000f3fe6080604052600436106101405760003560e01c8063715018a6116100b6578063b88d4fde1161006f578063b88d4fde14610463578063c87b56dd1461048c578063ced14198146104c9578063d13c870314610506578063e985e9c514610543578063f2fde38b1461058057610140565b8063715018a6146103655780638684e1241461037c5780638da5cb5b146103b957806395d89b41146103e4578063a22cb4651461040f578063a91496411461043857610140565b806323b872dd1161010857806323b872dd1461022f578063265aa6211461025857806342842e0e146102995780636352211e146102c2578063670d07b4146102ff57806370a082311461032857610140565b806301ffc9a71461014557806306fdde0314610182578063081812fc146101ad578063095ea7b3146101ea578063150bde0314610213575b600080fd5b34801561015157600080fd5b5061016c60048036038101906101679190612185565b6105a9565b60405161017991906121cd565b60405180910390f35b34801561018e57600080fd5b5061019761060a565b6040516101a49190612278565b60405180910390f35b3480156101b957600080fd5b506101d460048036038101906101cf91906122d0565b61069c565b6040516101e1919061233e565b60405180910390f35b3480156101f657600080fd5b50610211600480360381019061020c9190612385565b6106b8565b005b61022d600480360381019061022891906122d0565b6106ce565b005b34801561023b57600080fd5b50610256600480360381019061025191906123c5565b6108a2565b005b34801561026457600080fd5b5061027f600480360381019061027a91906122d0565b6109a4565b604051610290959493929190612427565b60405180910390f35b3480156102a557600080fd5b506102c060048036038101906102bb91906123c5565b610a8f565b005b3480156102ce57600080fd5b506102e960048036038101906102e491906122d0565b610aaf565b6040516102f6919061233e565b60405180910390f35b34801561030b57600080fd5b5061032660048036038101906103219190612512565b610ac1565b005b34801561033457600080fd5b5061034f600480360381019061034a91906125ac565b610be7565b60405161035c91906125d9565b60405180910390f35b34801561037157600080fd5b5061037a610ca1565b005b34801561038857600080fd5b506103a3600480360381019061039e91906122d0565b610cb5565b6040516103b091906125d9565b60405180910390f35b3480156103c557600080fd5b506103ce610cd9565b6040516103db919061233e565b60405180910390f35b3480156103f057600080fd5b506103f9610d03565b6040516104069190612278565b60405180910390f35b34801561041b57600080fd5b50610436600480360381019061043191906125f4565b610d95565b005b34801561044457600080fd5b5061044d610dab565b60405161045a91906126f2565b60405180910390f35b34801561046f57600080fd5b5061048a60048036038101906104859190612844565b610e03565b005b34801561049857600080fd5b506104b360048036038101906104ae91906122d0565b610e20565b6040516104c09190612278565b60405180910390f35b3480156104d557600080fd5b506104f060048036038101906104eb91906128c7565b610f33565b6040516104fd91906121cd565b60405180910390f35b34801561051257600080fd5b5061052d600480360381019061052891906128c7565b610f62565b60405161053a91906121cd565b60405180910390f35b34801561054f57600080fd5b5061056a60048036038101906105659190612907565b610fca565b60405161057791906121cd565b60405180910390f35b34801561058c57600080fd5b506105a760048036038101906105a291906125ac565b61105e565b005b6000634906490660e01b7bffffffffffffffffffffffffffffffffffffffffffffffffffffffff1916827bffffffffffffffffffffffffffffffffffffffffffffffffffffffff191614806106035750610602826110e4565b5b9050919050565b60606000805461061990612976565b80601f016020809104026020016040519081016040528092919081815260200182805461064590612976565b80156106925780601f1061066757610100808354040283529160200191610692565b820191906000526020600020905b81548152906001019060200180831161067557829003601f168201915b5050505050905090565b60006106a7826111c6565b506106b18261124e565b9050919050565b6106ca82826106c561128b565b611293565b5050565b6000600a60008381526020019081526020016000209050806003015434101561072c576040517f08c379a0000000000000000000000000000000000000000000000000000000008152600401610723906129f3565b60405180910390fd5b6009600083815260200190815260200160002060003373ffffffffffffffffffffffffffffffffffffffff1673ffffffffffffffffffffffffffffffffffffffff16815260200190815260200160002060009054906101000a900460ff16156107ca576040517f08c379a00000000000000000000000000000000000000000000000000000000081526004016107c190612a5f565b60405180910390fd5b60016009600084815260200190815260200160002060003373ffffffffffffffffffffffffffffffffffffffff1673ffffffffffffffffffffffffffffffffffffffff16815260200190815260200160002060006101000a81548160ff0219169083151502179055508060010160009054906101000a900473ffffffffffffffffffffffffffffffffffffffff1673ffffffffffffffffffffffffffffffffffffffff166108fc349081150290604051600060405180830381858888f1935050505015801561089d573d6000803e3d6000fd5b505050565b600073ffffffffffffffffffffffffffffffffffffffff168273ffffffffffffffffffffffffffffffffffffffff16036109145760006040517f64a0ae9200000000000000000000000000000000000000000000000000000000815260040161090b919061233e565b60405180910390fd5b6000610928838361092361128b565b6112a5565b90508373ffffffffffffffffffffffffffffffffffffffff168173ffffffffffffffffffffffffffffffffffffffff161461099e578382826040517f64283d7b00000000000000000000000000000000000000000000000000000000815260040161099593929190612a7f565b60405180910390fd5b50505050565b600a6020528060005260406000206000915090508060000154908060010160009054906101000a900473ffffffffffffffffffffffffffffffffffffffff16908060020180546109f390612976565b80601f0160208091040260200160405190810160405280929190818152602001828054610a1f90612976565b8015610a6c5780601f10610a4157610100808354040283529160200191610a6c565b820191906000526020600020905b815481529060010190602001808311610a4f57829003601f168201915b5050505050908060030154908060040160009054906101000a900460ff16905085565b610aaa83838360405180602001604052806000815250610e03565b505050565b6000610aba826111c6565b9050919050565b610acb86866114bf565b610b198585858080601f016020809104026020016040519081016040528093929190818152602001838380828437600081840152601f19601f820116905080830192505050505050506115b8565b6000600a60008781526020019081526020016000209050858160000181905550338160010160006101000a81548173ffffffffffffffffffffffffffffffffffffffff021916908373ffffffffffffffffffffffffffffffffffffffff1602179055508484826002019182610b8f929190612c6d565b50828160030181905550818160040160006101000a81548160ff021916908315150217905550600886908060018154018082558091505060019003906000526020600020016000909190919091505550505050505050565b60008073ffffffffffffffffffffffffffffffffffffffff168273ffffffffffffffffffffffffffffffffffffffff1603610c5a5760006040517f89c62b64000000000000000000000000000000000000000000000000000000008152600401610c51919061233e565b60405180910390fd5b600360008373ffffffffffffffffffffffffffffffffffffffff1673ffffffffffffffffffffffffffffffffffffffff168152602001908152602001600020549050919050565b610ca9611614565b610cb3600061169b565b565b60088181548110610cc557600080fd5b906000526020600020016000915090505481565b6000600760009054906101000a900473ffffffffffffffffffffffffffffffffffffffff16905090565b606060018054610d1290612976565b80601f0160208091040260200160405190810160405280929190818152602001828054610d3e90612976565b8015610d8b5780601f10610d6057610100808354040283529160200191610d8b565b820191906000526020600020905b815481529060010190602001808311610d6e57829003601f168201915b5050505050905090565b610da7610da061128b565b8383611761565b5050565b60606008805480602002602001604051908101604052809291908181526020018280548015610df957602002820191906000526020600020905b815481526020019060010190808311610de5575b5050505050905090565b610e0e8484846108a2565b610e1a848484846118d0565b50505050565b6060610e2b826111c6565b506000600660008481526020019081526020016000208054610e4c90612976565b80601f0160208091040260200160405190810160405280929190818152602001828054610e7890612976565b8015610ec55780601f10610e9a57610100808354040283529160200191610ec5565b820191906000526020600020905b815481529060010190602001808311610ea857829003601f168201915b505050505090506000610ed6611a87565b90506000815103610eeb578192505050610f2e565b600082511115610f20578082604051602001610f08929190612d79565b60405160208183030381529060405292505050610f2e565b610f2984611a9e565b925050505b919050565b60096020528160005260406000206020528060005260406000206000915091509054906101000a900460ff1681565b60006009600084815260200190815260200160002060008373ffffffffffffffffffffffffffffffffffffffff1673ffffffffffffffffffffffffffffffffffffffff16815260200190815260200160002060009054906101000a900460ff16905092915050565b6000600560008473ffffffffffffffffffffffffffffffffffffffff1673ffffffffffffffffffffffffffffffffffffffff16815260200190815260200160002060008373ffffffffffffffffffffffffffffffffffffffff1673ffffffffffffffffffffffffffffffffffffffff16815260200190815260200160002060009054906101000a900460ff16905092915050565b611066611614565b600073ffffffffffffffffffffffffffffffffffffffff168173ffffffffffffffffffffffffffffffffffffffff16036110d85760006040517f1e4fbdf70000000000000000000000000000000000000000000000000000000081526004016110cf919061233e565b60405180910390fd5b6110e18161169b565b50565b60007f80ac58cd000000000000000000000000000000000000000000000000000000007bffffffffffffffffffffffffffffffffffffffffffffffffffffffff1916827bffffffffffffffffffffffffffffffffffffffffffffffffffffffff191614806111af57507f5b5e139f000000000000000000000000000000000000000000000000000000007bffffffffffffffffffffffffffffffffffffffffffffffffffffffff1916827bffffffffffffffffffffffffffffffffffffffffffffffffffffffff1916145b806111bf57506111be82611b07565b5b9050919050565b6000806111d283611b71565b9050600073ffffffffffffffffffffffffffffffffffffffff168173ffffffffffffffffffffffffffffffffffffffff160361124557826040517f7e27328900000000000000000000000000000000000000000000000000000000815260040161123c91906125d9565b60405180910390fd5b80915050919050565b60006004600083815260200190815260200160002060009054906101000a900473ffffffffffffffffffffffffffffffffffffffff169050919050565b600033905090565b6112a08383836001611bae565b505050565b6000806112b184611b71565b9050600073ffffffffffffffffffffffffffffffffffffffff168373ffffffffffffffffffffffffffffffffffffffff16146112f3576112f2818486611d73565b5b600073ffffffffffffffffffffffffffffffffffffffff168173ffffffffffffffffffffffffffffffffffffffff161461138457611335600085600080611bae565b6001600360008373ffffffffffffffffffffffffffffffffffffffff1673ffffffffffffffffffffffffffffffffffffffff168152602001908152602001600020600082825403925050819055505b600073ffffffffffffffffffffffffffffffffffffffff168573ffffffffffffffffffffffffffffffffffffffff1614611407576001600360008773ffffffffffffffffffffffffffffffffffffffff1673ffffffffffffffffffffffffffffffffffffffff168152602001908152602001600020600082825401925050819055505b846002600086815260200190815260200160002060006101000a81548173ffffffffffffffffffffffffffffffffffffffff021916908373ffffffffffffffffffffffffffffffffffffffff160217905550838573ffffffffffffffffffffffffffffffffffffffff168273ffffffffffffffffffffffffffffffffffffffff167fddf252ad1be2c89b69c2b068fc378daa952ba7f163c4a11628f55a4df523b3ef60405160405180910390a4809150509392505050565b600073ffffffffffffffffffffffffffffffffffffffff168273ffffffffffffffffffffffffffffffffffffffff16036115315760006040517f64a0ae92000000000000000000000000000000000000000000000000000000008152600401611528919061233e565b60405180910390fd5b600061153f838360006112a5565b9050600073ffffffffffffffffffffffffffffffffffffffff168173ffffffffffffffffffffffffffffffffffffffff16146115b35760006040517f73c6ac6e0000000000000000000000000000000000000000000000000000000081526004016115aa919061233e565b60405180910390fd5b505050565b806006600084815260200190815260200160002090816115d89190612d9d565b507ff8e1a15aba9398e019f0b49df1a4fde98ee17ae345cb5f6b5e2c27f5033e8ce78260405161160891906125d9565b60405180910390a15050565b61161c61128b565b73ffffffffffffffffffffffffffffffffffffffff1661163a610cd9565b73ffffffffffffffffffffffffffffffffffffffff16146116995761165d61128b565b6040517f118cdaa7000000000000000000000000000000000000000000000000000000008152600401611690919061233e565b60405180910390fd5b565b6000600760009054906101000a900473ffffffffffffffffffffffffffffffffffffffff16905081600760006101000a81548173ffffffffffffffffffffffffffffffffffffffff021916908373ffffffffffffffffffffffffffffffffffffffff1602179055508173ffffffffffffffffffffffffffffffffffffffff168173ffffffffffffffffffffffffffffffffffffffff167f8be0079c531659141344cd1fd0a4f28419497f9722a3daafe3b4186f6b6457e060405160405180910390a35050565b600073ffffffffffffffffffffffffffffffffffffffff168273ffffffffffffffffffffffffffffffffffffffff16036117d257816040517f5b08ba180000000000000000000000000000000000000000000000000000000081526004016117c9919061233e565b60405180910390fd5b80600560008573ffffffffffffffffffffffffffffffffffffffff1673ffffffffffffffffffffffffffffffffffffffff16815260200190815260200160002060008473ffffffffffffffffffffffffffffffffffffffff1673ffffffffffffffffffffffffffffffffffffffff16815260200190815260200160002060006101000a81548160ff0219169083151502179055508173ffffffffffffffffffffffffffffffffffffffff168373ffffffffffffffffffffffffffffffffffffffff167f17307eab39ab6107e8899845ad3d59bd9653f200f220920489ca2b5937696c31836040516118c391906121cd565b60405180910390a3505050565b60008373ffffffffffffffffffffffffffffffffffffffff163b1115611a81578273ffffffffffffffffffffffffffffffffffffffff1663150b7a0261191461128b565b8685856040518563ffffffff1660e01b81526004016119369493929190612ec4565b6020604051808303816000875af192505050801561197257506040513d601f19601f8201168201806040525081019061196f9190612f25565b60015b6119f6573d80600081146119a2576040519150601f19603f3d011682016040523d82523d6000602084013e6119a7565b606091505b5060008151036119ee57836040517f64a0ae920000000000000000000000000000000000000000000000000000000081526004016119e5919061233e565b60405180910390fd5b805181602001fd5b63150b7a0260e01b7bffffffffffffffffffffffffffffffffffffffffffffffffffffffff1916817bffffffffffffffffffffffffffffffffffffffffffffffffffffffff191614611a7f57836040517f64a0ae92000000000000000000000000000000000000000000000000000000008152600401611a76919061233e565b60405180910390fd5b505b50505050565b606060405180602001604052806000815250905090565b6060611aa9826111c6565b506000611ab4611a87565b90506000815111611ad45760405180602001604052806000815250611aff565b80611ade84611e37565b604051602001611aef929190612d79565b6040516020818303038152906040525b915050919050565b60007f01ffc9a7000000000000000000000000000000000000000000000000000000007bffffffffffffffffffffffffffffffffffffffffffffffffffffffff1916827bffffffffffffffffffffffffffffffffffffffffffffffffffffffff1916149050919050565b60006002600083815260200190815260200160002060009054906101000a900473ffffffffffffffffffffffffffffffffffffffff169050919050565b8080611be75750600073ffffffffffffffffffffffffffffffffffffffff168273ffffffffffffffffffffffffffffffffffffffff1614155b15611d1b576000611bf7846111c6565b9050600073ffffffffffffffffffffffffffffffffffffffff168373ffffffffffffffffffffffffffffffffffffffff1614158015611c6257508273ffffffffffffffffffffffffffffffffffffffff168173ffffffffffffffffffffffffffffffffffffffff1614155b8015611c755750611c738184610fca565b155b15611cb757826040517fa9fbf51f000000000000000000000000000000000000000000000000000000008152600401611cae919061233e565b60405180910390fd5b8115611d1957838573ffffffffffffffffffffffffffffffffffffffff168273ffffffffffffffffffffffffffffffffffffffff167f8c5be1e5ebec7d5bd14f71427d1e84f3dd0314c0f7b2291e5b200ac8c7c3b92560405160405180910390a45b505b836004600085815260200190815260200160002060006101000a81548173ffffffffffffffffffffffffffffffffffffffff021916908373ffffffffffffffffffffffffffffffffffffffff16021790555050505050565b611d7e838383611f05565b611e3257600073ffffffffffffffffffffffffffffffffffffffff168373ffffffffffffffffffffffffffffffffffffffff1603611df357806040517f7e273289000000000000000000000000000000000000000000000000000000008152600401611dea91906125d9565b60405180910390fd5b81816040517f177e802f000000000000000000000000000000000000000000000000000000008152600401611e29929190612f52565b60405180910390fd5b505050565b606060006001611e4684611fc6565b01905060008167ffffffffffffffff811115611e6557611e64612719565b5b6040519080825280601f01601f191660200182016040528015611e975781602001600182028036833780820191505090505b509050600082602001820190505b600115611efa578080600190039150507f3031323334353637383961626364656600000000000000000000000000000000600a86061a8153600a8581611eee57611eed612f7b565b5b04945060008503611ea5575b819350505050919050565b60008073ffffffffffffffffffffffffffffffffffffffff168373ffffffffffffffffffffffffffffffffffffffff1614158015611fbd57508273ffffffffffffffffffffffffffffffffffffffff168473ffffffffffffffffffffffffffffffffffffffff161480611f7e5750611f7d8484610fca565b5b80611fbc57508273ffffffffffffffffffffffffffffffffffffffff16611fa48361124e565b73ffffffffffffffffffffffffffffffffffffffff16145b5b90509392505050565b600080600090507a184f03e93ff9f4daa797ed6e38ed64bf6a1f0100000000000000008310612024577a184f03e93ff9f4daa797ed6e38ed64bf6a1f010000000000000000838161201a57612019612f7b565b5b0492506040810190505b6d04ee2d6d415b85acef81000000008310612061576d04ee2d6d415b85acef8100000000838161205757612056612f7b565b5b0492506020810190505b662386f26fc10000831061209057662386f26fc10000838161208657612085612f7b565b5b0492506010810190505b6305f5e10083106120b9576305f5e10083816120af576120ae612f7b565b5b0492506008810190505b61271083106120de5761271083816120d4576120d3612f7b565b5b0492506004810190505b6064831061210157606483816120f7576120f6612f7b565b5b0492506002810190505b600a8310612110576001810190505b80915050919050565b6000604051905090565b600080fd5b600080fd5b60007fffffffff0000000000000000000000000000000000000000000000000000000082169050919050565b6121628161212d565b811461216d57600080fd5b50565b60008135905061217f81612159565b92915050565b60006020828403121561219b5761219a612123565b5b60006121a984828501612170565b91505092915050565b60008115159050919050565b6121c7816121b2565b82525050565b60006020820190506121e260008301846121be565b92915050565b600081519050919050565b600082825260208201905092915050565b60005b83811015612222578082015181840152602081019050612207565b60008484015250505050565b6000601f19601f8301169050919050565b600061224a826121e8565b61225481856121f3565b9350612264818560208601612204565b61226d8161222e565b840191505092915050565b60006020820190508181036000830152612292818461223f565b905092915050565b6000819050919050565b6122ad8161229a565b81146122b857600080fd5b50565b6000813590506122ca816122a4565b92915050565b6000602082840312156122e6576122e5612123565b5b60006122f4848285016122bb565b91505092915050565b600073ffffffffffffffffffffffffffffffffffffffff82169050919050565b6000612328826122fd565b9050919050565b6123388161231d565b82525050565b6000602082019050612353600083018461232f565b92915050565b6123628161231d565b811461236d57600080fd5b50565b60008135905061237f81612359565b92915050565b6000806040838503121561239c5761239b612123565b5b60006123aa85828601612370565b92505060206123bb858286016122bb565b9150509250929050565b6000806000606084860312156123de576123dd612123565b5b60006123ec86828701612370565b93505060206123fd86828701612370565b925050604061240e868287016122bb565b9150509250925092565b6124218161229a565b82525050565b600060a08201905061243c6000830188612418565b612449602083018761232f565b818103604083015261245b818661223f565b905061246a6060830185612418565b61247760808301846121be565b9695505050505050565b600080fd5b600080fd5b600080fd5b60008083601f8401126124a6576124a5612481565b5b8235905067ffffffffffffffff8111156124c3576124c2612486565b5b6020830191508360018202830111156124df576124de61248b565b5b9250929050565b6124ef816121b2565b81146124fa57600080fd5b50565b60008135905061250c816124e6565b92915050565b60008060008060008060a0878903121561252f5761252e612123565b5b600061253d89828a01612370565b965050602061254e89828a016122bb565b955050604087013567ffffffffffffffff81111561256f5761256e612128565b5b61257b89828a01612490565b9450945050606061258e89828a016122bb565b925050608061259f89828a016124fd565b9150509295509295509295565b6000602082840312156125c2576125c1612123565b5b60006125d084828501612370565b91505092915050565b60006020820190506125ee6000830184612418565b92915050565b6000806040838503121561260b5761260a612123565b5b600061261985828601612370565b925050602061262a858286016124fd565b9150509250929050565b600081519050919050565b600082825260208201905092915050565b6000819050602082019050919050565b6126698161229a565b82525050565b600061267b8383612660565b60208301905092915050565b6000602082019050919050565b600061269f82612634565b6126a9818561263f565b93506126b483612650565b8060005b838110156126e55781516126cc888261266f565b97506126d783612687565b9250506001810190506126b8565b5085935050505092915050565b6000602082019050818103600083015261270c8184612694565b905092915050565b600080fd5b7f4e487b7100000000000000000000000000000000000000000000000000000000600052604160045260246000fd5b6127518261222e565b810181811067ffffffffffffffff821117156127705761276f612719565b5b80604052505050565b6000612783612119565b905061278f8282612748565b919050565b600067ffffffffffffffff8211156127af576127ae612719565b5b6127b88261222e565b9050602081019050919050565b82818337600083830152505050565b60006127e76127e284612794565b612779565b90508281526020810184848401111561280357612802612714565b5b61280e8482856127c5565b509392505050565b600082601f83011261282b5761282a612481565b5b813561283b8482602086016127d4565b91505092915050565b6000806000806080858703121561285e5761285d612123565b5b600061286c87828801612370565b945050602061287d87828801612370565b935050604061288e878288016122bb565b925050606085013567ffffffffffffffff8111156128af576128ae612128565b5b6128bb87828801612816565b91505092959194509250565b600080604083850312156128de576128dd612123565b5b60006128ec858286016122bb565b92505060206128fd85828601612370565b9150509250929050565b6000806040838503121561291e5761291d612123565b5b600061292c85828601612370565b925050602061293d85828601612370565b9150509250929050565b7f4e487b7100000000000000000000000000000000000000000000000000000000600052602260045260246000fd5b6000600282049050600182168061298e57607f821691505b6020821081036129a1576129a0612947565b5b50919050565b7f496e73756666696369656e742066756e64730000000000000000000000000000600082015250565b60006129dd6012836121f3565b91506129e8826129a7565b602082019050919050565b60006020820190508181036000830152612a0c816129d0565b9050919050565b7f416c726561647920707572636861736564000000000000000000000000000000600082015250565b6000612a496011836121f3565b9150612a5482612a13565b602082019050919050565b60006020820190508181036000830152612a7881612a3c565b9050919050565b6000606082019050612a94600083018661232f565b612aa16020830185612418565b612aae604083018461232f565b949350505050565b600082905092915050565b60008190508160005260206000209050919050565b60006020601f8301049050919050565b600082821b905092915050565b600060088302612b237fffffffffffffffffffffffffffffffffffffffffffffffffffffffffffffffff82612ae6565b612b2d8683612ae6565b95508019841693508086168417925050509392505050565b6000819050919050565b6000612b6a612b65612b608461229a565b612b45565b61229a565b9050919050565b6000819050919050565b612b8483612b4f565b612b98612b9082612b71565b848454612af3565b825550505050565b600090565b612bad612ba0565b612bb8818484612b7b565b505050565b5b81811015612bdc57612bd1600082612ba5565b600181019050612bbe565b5050565b601f821115612c2157612bf281612ac1565b612bfb84612ad6565b81016020851015612c0a578190505b612c1e612c1685612ad6565b830182612bbd565b50505b505050565b600082821c905092915050565b6000612c4460001984600802612c26565b1980831691505092915050565b6000612c5d8383612c33565b9150826002028217905092915050565b612c778383612ab6565b67ffffffffffffffff811115612c9057612c8f612719565b5b612c9a8254612976565b612ca5828285612be0565b6000601f831160018114612cd45760008415612cc2578287013590505b612ccc8582612c51565b865550612d34565b601f198416612ce286612ac1565b60005b82811015612d0a57848901358255600182019150602085019450602081019050612ce5565b86831015612d275784890135612d23601f891682612c33565b8355505b6001600288020188555050505b50505050505050565b600081905092915050565b6000612d53826121e8565b612d5d8185612d3d565b9350612d6d818560208601612204565b80840191505092915050565b6000612d858285612d48565b9150612d918284612d48565b91508190509392505050565b612da6826121e8565b67ffffffffffffffff811115612dbf57612dbe612719565b5b612dc98254612976565b612dd4828285612be0565b600060209050601f831160018114612e075760008415612df5578287015190505b612dff8582612c51565b865550612e67565b601f198416612e1586612ac1565b60005b82811015612e3d57848901518255600182019150602085019450602081019050612e18565b86831015612e5a5784890151612e56601f891682612c33565b8355505b6001600288020188555050505b505050505050565b600081519050919050565b600082825260208201905092915050565b6000612e9682612e6f565b612ea08185612e7a565b9350612eb0818560208601612204565b612eb98161222e565b840191505092915050565b6000608082019050612ed9600083018761232f565b612ee6602083018661232f565b612ef36040830185612418565b8181036060830152612f058184612e8b565b905095945050505050565b600081519050612f1f81612159565b92915050565b600060208284031215612f3b57612f3a612123565b5b6000612f4984828501612f10565b91505092915050565b6000604082019050612f67600083018561232f565b612f746020830184612418565b9392505050565b7f4e487b7100000000000000000000000000000000000000000000000000000000600052601260045260246000fdfea2646970667358221220252a08c1e9df9e7166f93ac4c58f44efbeec43ea280e3d95c3ca66a86524ad7964736f6c634300081b0033",
  "linkReferences": {},
  "deployedLinkReferences": {}
}