{
  "_format": "hh-sol-artifact-1",
  "contractName": "VideoViews",
  "sourceName": "contracts/VideoViews.sol",
  "abi": [
    {
      "inputs": [
        {
          "internalType": "string",
          "name": "videoId",
          "type": "string"
        }
      ],
      "name": "getVideoData",
      "outputs": [
        {
          "internalType": "string",
          "name": "",
          "type": "string"
        },
        {
          "internalType": "uint256",
          "name": "",
          "type": "uint256"
        }
      ],
      "stateMutability": "view",
      "type": "function"
    },
    {
      "inputs": [
        {
          "internalType": "string",
          "name": "videoId",
          "type": "string"
        },
        {
          "internalType": "string",
          "name": "newIpfsHash",
          "type": "string"
        }
      ],
      "name": "updateViewData",
      "outputs": [],
      "stateMutability": "nonpayable",
      "type": "function"
    },
    {
      "inputs": [
        {
          "internalType": "string",
          "name": "",
          "type": "string"
        }
      ],
      "name": "videos",
      "outputs": [
        {
          "internalType": "string",
          "name": "ipfsHash",
          "type": "string"
        },
        {
          "internalType": "uint256",
          "name": "views",
          "type": "uint256"
        }
      ],
      "stateMutability": "view",
      "type": "function"
    }
  ],
  "bytecode": "0x6080604052348015600f57600080fd5b506108e38061001f6000396000f3fe608060405234801561001057600080fd5b50600436106100415760003560e01c8063473bf773146100465780636ef4de9e146100775780637a295ef8146100a8575b600080fd5b610060600480360381019061005b91906103f3565b6100c4565b60405161006e9291906104d4565b60405180910390f35b610091600480360381019061008c91906103f3565b6101a4565b60405161009f9291906104d4565b60405180910390f35b6100c260048036038101906100bd9190610504565b610266565b005b60606000806000846040516100d991906105b8565b9081526020016040518091039020604051806040016040529081600082018054610102906105fe565b80601f016020809104026020016040519081016040528092919081815260200182805461012e906105fe565b801561017b5780601f106101505761010080835404028352916020019161017b565b820191906000526020600020905b81548152906001019060200180831161015e57829003601f168201915b505050505081526020016001820154815250509050806000015181602001519250925050915091565b6000818051602081018201805184825260208301602085012081835280955050505050506000915090508060000180546101dd906105fe565b80601f0160208091040260200160405190810160405280929190818152602001828054610209906105fe565b80156102565780601f1061022b57610100808354040283529160200191610256565b820191906000526020600020905b81548152906001019060200180831161023957829003601f168201915b5050505050908060010154905082565b8060008360405161027791906105b8565b9081526020016040518091039020600001908161029491906107db565b505050565b6000604051905090565b600080fd5b600080fd5b600080fd5b600080fd5b6000601f19601f8301169050919050565b7f4e487b7100000000000000000000000000000000000000000000000000000000600052604160045260246000fd5b610300826102b7565b810181811067ffffffffffffffff8211171561031f5761031e6102c8565b5b80604052505050565b6000610332610299565b905061033e82826102f7565b919050565b600067ffffffffffffffff82111561035e5761035d6102c8565b5b610367826102b7565b9050602081019050919050565b82818337600083830152505050565b600061039661039184610343565b610328565b9050828152602081018484840111156103b2576103b16102b2565b5b6103bd848285610374565b509392505050565b600082601f8301126103da576103d96102ad565b5b81356103ea848260208601610383565b91505092915050565b600060208284031215610409576104086102a3565b5b600082013567ffffffffffffffff811115610427576104266102a8565b5b610433848285016103c5565b91505092915050565b600081519050919050565b600082825260208201905092915050565b60005b8381101561047657808201518184015260208101905061045b565b60008484015250505050565b600061048d8261043c565b6104978185610447565b93506104a7818560208601610458565b6104b0816102b7565b840191505092915050565b6000819050919050565b6104ce816104bb565b82525050565b600060408201905081810360008301526104ee8185610482565b90506104fd60208301846104c5565b9392505050565b6000806040838503121561051b5761051a6102a3565b5b600083013567ffffffffffffffff811115610539576105386102a8565b5b610545858286016103c5565b925050602083013567ffffffffffffffff811115610566576105656102a8565b5b610572858286016103c5565b9150509250929050565b600081905092915050565b60006105928261043c565b61059c818561057c565b93506105ac818560208601610458565b80840191505092915050565b60006105c48284610587565b915081905092915050565b7f4e487b7100000000000000000000000000000000000000000000000000000000600052602260045260246000fd5b6000600282049050600182168061061657607f821691505b602082108103610629576106286105cf565b5b50919050565b60008190508160005260206000209050919050565b60006020601f8301049050919050565b600082821b905092915050565b6000600883026106917fffffffffffffffffffffffffffffffffffffffffffffffffffffffffffffffff82610654565b61069b8683610654565b95508019841693508086168417925050509392505050565b6000819050919050565b60006106d86106d36106ce846104bb565b6106b3565b6104bb565b9050919050565b6000819050919050565b6106f2836106bd565b6107066106fe826106df565b848454610661565b825550505050565b600090565b61071b61070e565b6107268184846106e9565b505050565b5b8181101561074a5761073f600082610713565b60018101905061072c565b5050565b601f82111561078f576107608161062f565b61076984610644565b81016020851015610778578190505b61078c61078485610644565b83018261072b565b50505b505050565b600082821c905092915050565b60006107b260001984600802610794565b1980831691505092915050565b60006107cb83836107a1565b9150826002028217905092915050565b6107e48261043c565b67ffffffffffffffff8111156107fd576107fc6102c8565b5b61080782546105fe565b61081282828561074e565b600060209050601f8311600181146108455760008415610833578287015190505b61083d85826107bf565b8655506108a5565b601f1984166108538661062f565b60005b8281101561087b57848901518255600182019150602085019450602081019050610856565b868310156108985784890151610894601f8916826107a1565b8355505b6001600288020188555050505b50505050505056fea26469706673582212209e24d412636d6c44d6cf1b191f819bd374ea503ec5e3581e86c5ef687a6e64be64736f6c634300081b0033",
  "linkReferences": {},
  "deployedLinkReferences": {}
}