{
  "_format": "hh-sol-artifact-1",
  "contractName": "Content",
  "sourceName": "contracts/Content.sol",
  "abi": [
    {
      "inputs": [],
      "name": "Content__ContentAlreadyPurchased",
      "type": "error"
    },
    {
      "inputs": [],
      "name": "Content__ContentPurchaseError",
      "type": "error"
    },
    {
      "inputs": [],
      "name": "Content__PriceMustNotBeZero",
      "type": "error"
    },
    {
      "inputs": [],
      "name": "Content__TransactionFailed",
      "type": "error"
    },
    {
      "anonymous": false,
      "inputs": [
        {
          "indexed": true,
          "internalType": "address",
          "name": "owner",
          "type": "address"
        },
        {
          "indexed": true,
          "internalType": "uint256",
          "name": "price",
          "type": "uint256"
        }
      ],
      "name": "ContentPriceSet",
      "type": "event"
    },
    {
      "inputs": [
        {
          "internalType": "address",
          "name": "",
          "type": "address"
        }
      ],
      "name": "addressToContent",
      "outputs": [
        {
          "internalType": "uint256",
          "name": "",
          "type": "uint256"
        }
      ],
      "stateMutability": "view",
      "type": "function"
    },
    {
      "inputs": [
        {
          "internalType": "address",
          "name": "",
          "type": "address"
        },
        {
          "internalType": "uint256",
          "name": "",
          "type": "uint256"
        }
      ],
      "name": "addressToContentToPrice",
      "outputs": [
        {
          "internalType": "uint256",
          "name": "",
          "type": "uint256"
        }
      ],
      "stateMutability": "view",
      "type": "function"
    },
    {
      "inputs": [
        {
          "internalType": "address",
          "name": "owner",
          "type": "address"
        },
        {
          "internalType": "uint256",
          "name": "content_id",
          "type": "uint256"
        }
      ],
      "name": "buyContent",
      "outputs": [],
      "stateMutability": "payable",
      "type": "function"
    },
    {
      "inputs": [
        {
          "internalType": "address",
          "name": "",
          "type": "address"
        }
      ],
      "name": "contentPurchased",
      "outputs": [
        {
          "internalType": "bool",
          "name": "",
          "type": "bool"
        }
      ],
      "stateMutability": "view",
      "type": "function"
    },
    {
      "inputs": [
        {
          "internalType": "address",
          "name": "user",
          "type": "address"
        }
      ],
      "name": "getContentAccess",
      "outputs": [
        {
          "internalType": "bool",
          "name": "",
          "type": "bool"
        }
      ],
      "stateMutability": "view",
      "type": "function"
    },
    {
      "inputs": [
        {
          "internalType": "address",
          "name": "user",
          "type": "address"
        }
      ],
      "name": "getContentId",
      "outputs": [
        {
          "internalType": "uint256",
          "name": "",
          "type": "uint256"
        }
      ],
      "stateMutability": "view",
      "type": "function"
    },
    {
      "inputs": [
        {
          "internalType": "address",
          "name": "owner",
          "type": "address"
        },
        {
          "internalType": "uint256",
          "name": "content_id",
          "type": "uint256"
        }
      ],
      "name": "getContentPrice",
      "outputs": [
        {
          "internalType": "uint256",
          "name": "",
          "type": "uint256"
        }
      ],
      "stateMutability": "view",
      "type": "function"
    },
    {
      "inputs": [
        {
          "internalType": "uint256",
          "name": "content_id",
          "type": "uint256"
        },
        {
          "internalType": "uint256",
          "name": "price",
          "type": "uint256"
        }
      ],
      "name": "setContentPrice",
      "outputs": [],
      "stateMutability": "nonpayable",
      "type": "function"
    }
  ],
  "bytecode": "0x6080604052348015600f57600080fd5b506108db8061001f6000396000f3fe60806040526004361061007b5760003560e01c806380c7d5e11161004e57806380c7d5e11461013f578063810b81451461017c578063d9af03ef146101b9578063df82498c146101f65761007b565b80631a8398d41461008057806353a6b9411461009c57806355eef303146100d9578063779f770714610116575b600080fd5b61009a60048036038101906100959190610752565b610233565b005b3480156100a857600080fd5b506100c360048036038101906100be9190610792565b610449565b6040516100d091906107da565b60405180910390f35b3480156100e557600080fd5b5061010060048036038101906100fb9190610752565b610469565b60405161010d9190610804565b60405180910390f35b34801561012257600080fd5b5061013d6004803603810190610138919061081f565b6104c3565b005b34801561014b57600080fd5b5061016660048036038101906101619190610792565b6105dd565b6040516101739190610804565b60405180910390f35b34801561018857600080fd5b506101a3600480360381019061019e9190610752565b6105f5565b6040516101b09190610804565b60405180910390f35b3480156101c557600080fd5b506101e060048036038101906101db9190610792565b61061a565b6040516101ed9190610804565b60405180910390f35b34801561020257600080fd5b5061021d60048036038101906102189190610792565b610663565b60405161022a91906107da565b60405180910390f35b60011515600160003373ffffffffffffffffffffffffffffffffffffffff1673ffffffffffffffffffffffffffffffffffffffff16815260200190815260200160002060009054906101000a900460ff161515036102bd576040517fab09bb1400000000000000000000000000000000000000000000000000000000815260040160405180910390fd5b6000808373ffffffffffffffffffffffffffffffffffffffff1673ffffffffffffffffffffffffffffffffffffffff16815260200190815260200160002060008281526020019081526020016000205434036104135760018060003373ffffffffffffffffffffffffffffffffffffffff1673ffffffffffffffffffffffffffffffffffffffff16815260200190815260200160002060006101000a81548160ff02191690831515021790555060008273ffffffffffffffffffffffffffffffffffffffff163460405161039090610890565b60006040518083038185875af1925050503d80600081146103cd576040519150601f19603f3d011682016040523d82523d6000602084013e6103d2565b606091505b505090508061040d576040517f312585c900000000000000000000000000000000000000000000000000000000815260040160405180910390fd5b50610445565b6040517ffb77229500000000000000000000000000000000000000000000000000000000815260040160405180910390fd5b5050565b60016020528060005260406000206000915054906101000a900460ff1681565b60008060008473ffffffffffffffffffffffffffffffffffffffff1673ffffffffffffffffffffffffffffffffffffffff168152602001908152602001600020600083815260200190815260200160002054905092915050565b600081116104fd576040517f8209ab4f00000000000000000000000000000000000000000000000000000000815260040160405180910390fd5b806000803373ffffffffffffffffffffffffffffffffffffffff1673ffffffffffffffffffffffffffffffffffffffff16815260200190815260200160002060008481526020019081526020016000208190555081600260003373ffffffffffffffffffffffffffffffffffffffff1673ffffffffffffffffffffffffffffffffffffffff16815260200190815260200160002081905550803373ffffffffffffffffffffffffffffffffffffffff167f51991dac21fa3f9c470153885bded81e15400ea0307d507104bd32152aea965860405160405180910390a35050565b60026020528060005260406000206000915090505481565b6000602052816000526040600020602052806000526040600020600091509150505481565b6000600260008373ffffffffffffffffffffffffffffffffffffffff1673ffffffffffffffffffffffffffffffffffffffff168152602001908152602001600020549050919050565b6000600160008373ffffffffffffffffffffffffffffffffffffffff1673ffffffffffffffffffffffffffffffffffffffff16815260200190815260200160002060009054906101000a900460ff169050919050565b600080fd5b600073ffffffffffffffffffffffffffffffffffffffff82169050919050565b60006106e9826106be565b9050919050565b6106f9816106de565b811461070457600080fd5b50565b600081359050610716816106f0565b92915050565b6000819050919050565b61072f8161071c565b811461073a57600080fd5b50565b60008135905061074c81610726565b92915050565b60008060408385031215610769576107686106b9565b5b600061077785828601610707565b92505060206107888582860161073d565b9150509250929050565b6000602082840312156107a8576107a76106b9565b5b60006107b684828501610707565b91505092915050565b60008115159050919050565b6107d4816107bf565b82525050565b60006020820190506107ef60008301846107cb565b92915050565b6107fe8161071c565b82525050565b600060208201905061081960008301846107f5565b92915050565b60008060408385031215610836576108356106b9565b5b60006108448582860161073d565b92505060206108558582860161073d565b9150509250929050565b600081905092915050565b50565b600061087a60008361085f565b91506108858261086a565b600082019050919050565b600061089b8261086d565b915081905091905056fea26469706673582212206213f4ba96643acc7f97ed4847672640962426343f28fb0a222fc5c551a9dd9964736f6c634300081b0033",
  "linkReferences": {},
  "deployedLinkReferences": {}
}