{
  "_format": "hh-sol-artifact-1",
  "contractName": "Nft",
  "sourceName": "contracts/NFT.sol",
  "abi": [
    {
      "inputs": [
        {
          "internalType": "string",
          "name": "name",
          "type": "string"
        },
        {
          "internalType": "string",
          "name": "symbol",
          "type": "string"
        },
        {
          "internalType": "address",
          "name": "initialOwner",
          "type": "address"
        }
      ],
      "stateMutability": "nonpayable",
      "type": "constructor"
    },
    {
      "inputs": [
        {
          "internalType": "address",
          "name": "sender",
          "type": "address"
        },
        {
          "internalType": "uint256",
          "name": "tokenId",
          "type": "uint256"
        },
        {
          "internalType": "address",
          "name": "owner",
          "type": "address"
        }
      ],
      "name": "ERC721IncorrectOwner",
      "type": "error"
    },
    {
      "inputs": [
        {
          "internalType": "address",
          "name": "operator",
          "type": "address"
        },
        {
          "internalType": "uint256",
          "name": "tokenId",
          "type": "uint256"
        }
      ],
      "name": "ERC721InsufficientApproval",
      "type": "error"
    },
    {
      "inputs": [
        {
          "internalType": "address",
          "name": "approver",
          "type": "address"
        }
      ],
      "name": "ERC721InvalidApprover",
      "type": "error"
    },
    {
      "inputs": [
        {
          "internalType": "address",
          "name": "operator",
          "type": "address"
        }
      ],
      "name": "ERC721InvalidOperator",
      "type": "error"
    },
    {
      "inputs": [
        {
          "internalType": "address",
          "name": "owner",
          "type": "address"
        }
      ],
      "name": "ERC721InvalidOwner",
      "type": "error"
    },
    {
      "inputs": [
        {
          "internalType": "address",
          "name": "receiver",
          "type": "address"
        }
      ],
      "name": "ERC721InvalidReceiver",
      "type": "error"
    },
    {
      "inputs": [
        {
          "internalType": "address",
          "name": "sender",
          "type": "address"
        }
      ],
      "name": "ERC721InvalidSender",
      "type": "error"
    },
    {
      "inputs": [
        {
          "internalType": "uint256",
          "name": "tokenId",
          "type": "uint256"
        }
      ],
      "name": "ERC721NonexistentToken",
      "type": "error"
    },
    {
      "inputs": [
        {
          "internalType": "address",
          "name": "owner",
          "type": "address"
        }
      ],
      "name": "OwnableInvalidOwner",
      "type": "error"
    },
    {
      "inputs": [
        {
          "internalType": "address",
          "name": "account",
          "type": "address"
        }
      ],
      "name": "OwnableUnauthorizedAccount",
      "type": "error"
    },
    {
      "anonymous": false,
      "inputs": [
        {
          "indexed": true,
          "internalType": "address",
          "name": "owner",
          "type": "address"
        },
        {
          "indexed": true,
          "internalType": "address",
          "name": "approved",
          "type": "address"
        },
        {
          "indexed": true,
          "internalType": "uint256",
          "name": "tokenId",
          "type": "uint256"
        }
      ],
      "name": "Approval",
      "type": "event"
    },
    {
      "anonymous": false,
      "inputs": [
        {
          "indexed": true,
          "internalType": "address",
          "name": "owner",
          "type": "address"
        },
        {
          "indexed": true,
          "internalType": "address",
          "name": "operator",
          "type": "address"
        },
        {
          "indexed": false,
          "internalType": "bool",
          "name": "approved",
          "type": "bool"
        }
      ],
      "name": "ApprovalForAll",
      "type": "event"
    },
    {
      "anonymous": false,
      "inputs": [
        {
          "indexed": false,
          "internalType": "uint256",
          "name": "_fromTokenId",
          "type": "uint256"
        },
        {
          "indexed": false,
          "internalType": "uint256",
          "name": "_toTokenId",
          "type": "uint256"
        }
      ],
      "name": "BatchMetadataUpdate",
      "type": "event"
    },
    {
      "anonymous": false,
      "inputs": [
        {
          "indexed": false,
          "internalType": "uint256",
          "name": "_tokenId",
          "type": "uint256"
        }
      ],
      "name": "MetadataUpdate",
      "type": "event"
    },
    {
      "anonymous": false,
      "inputs": [
        {
          "indexed": true,
          "internalType": "address",
          "name": "previousOwner",
          "type": "address"
        },
        {
          "indexed": true,
          "internalType": "address",
          "name": "newOwner",
          "type": "address"
        }
      ],
      "name": "OwnershipTransferred",
      "type": "event"
    },
    {
      "anonymous": false,
      "inputs": [
        {
          "indexed": true,
          "internalType": "address",
          "name": "from",
          "type": "address"
        },
        {
          "indexed": true,
          "internalType": "address",
          "name": "to",
          "type": "address"
        },
        {
          "indexed": true,
          "internalType": "uint256",
          "name": "tokenId",
          "type": "uint256"
        }
      ],
      "name": "Transfer",
      "type": "event"
    },
    {
      "inputs": [
        {
          "internalType": "address",
          "name": "to",
          "type": "address"
        },
        {
          "internalType": "uint256",
          "name": "tokenId",
          "type": "uint256"
        }
      ],
      "name": "approve",
      "outputs": [],
      "stateMutability": "nonpayable",
      "type": "function"
    },
    {
      "inputs": [
        {
          "internalType": "address",
          "name": "owner",
          "type": "address"
        }
      ],
      "name": "balanceOf",
      "outputs": [
        {
          "internalType": "uint256",
          "name": "",
          "type": "uint256"
        }
      ],
      "stateMutability": "view",
      "type": "function"
    },
    {
      "inputs": [
        {
          "internalType": "uint256",
          "name": "tokenId",
          "type": "uint256"
        }
      ],
      "name": "getApproved",
      "outputs": [
        {
          "internalType": "address",
          "name": "",
          "type": "address"
        }
      ],
      "stateMutability": "view",
      "type": "function"
    },
    {
      "inputs": [],
      "name": "getNftFeed",
      "outputs": [
        {
          "components": [
            {
              "internalType": "uint256",
              "name": "tokenId",
              "type": "uint256"
            },
            {
              "internalType": "string",
              "name": "name",
              "type": "string"
            },
            {
              "internalType": "string",
              "name": "description",
              "type": "string"
            },
            {
              "internalType": "string",
              "name": "image",
              "type": "string"
            },
            {
              "internalType": "address",
              "name": "creator",
              "type": "address"
            }
          ],
          "internalType": "struct Nft.NftData[]",
          "name": "",
          "type": "tuple[]"
        }
      ],
      "stateMutability": "view",
      "type": "function"
    },
    {
      "inputs": [
        {
          "internalType": "address",
          "name": "owner",
          "type": "address"
        },
        {
          "internalType": "address",
          "name": "operator",
          "type": "address"
        }
      ],
      "name": "isApprovedForAll",
      "outputs": [
        {
          "internalType": "bool",
          "name": "",
          "type": "bool"
        }
      ],
      "stateMutability": "view",
      "type": "function"
    },
    {
      "inputs": [
        {
          "internalType": "address",
          "name": "_to",
          "type": "address"
        },
        {
          "internalType": "uint256",
          "name": "tokenId",
          "type": "uint256"
        },
        {
          "internalType": "string",
          "name": "_uri",
          "type": "string"
        }
      ],
      "name": "mint",
      "outputs": [],
      "stateMutability": "nonpayable",
      "type": "function"
    },
    {
      "inputs": [],
      "name": "name",
      "outputs": [
        {
          "internalType": "string",
          "name": "",
          "type": "string"
        }
      ],
      "stateMutability": "view",
      "type": "function"
    },
    {
      "inputs": [
        {
          "internalType": "uint256",
          "name": "",
          "type": "uint256"
        }
      ],
      "name": "nftFeed",
      "outputs": [
        {
          "internalType": "uint256",
          "name": "tokenId",
          "type": "uint256"
        },
        {
          "internalType": "string",
          "name": "name",
          "type": "string"
        },
        {
          "internalType": "string",
          "name": "description",
          "type": "string"
        },
        {
          "internalType": "string",
          "name": "image",
          "type": "string"
        },
        {
          "internalType": "address",
          "name": "creator",
          "type": "address"
        }
      ],
      "stateMutability": "view",
      "type": "function"
    },
    {
      "inputs": [
        {
          "internalType": "address",
          "name": "owner",
          "type": "address"
        }
      ],
      "name": "nftsMinted",
      "outputs": [
        {
          "internalType": "uint256",
          "name": "",
          "type": "uint256"
        }
      ],
      "stateMutability": "view",
      "type": "function"
    },
    {
      "inputs": [
        {
          "internalType": "address",
          "name": "owner",
          "type": "address"
        }
      ],
      "name": "nftsOwned",
      "outputs": [
        {
          "internalType": "uint256",
          "name": "",
          "type": "uint256"
        }
      ],
      "stateMutability": "view",
      "type": "function"
    },
    {
      "inputs": [],
      "name": "owner",
      "outputs": [
        {
          "internalType": "address",
          "name": "",
          "type": "address"
        }
      ],
      "stateMutability": "view",
      "type": "function"
    },
    {
      "inputs": [
        {
          "internalType": "uint256",
          "name": "tokenId",
          "type": "uint256"
        }
      ],
      "name": "ownerOf",
      "outputs": [
        {
          "internalType": "address",
          "name": "",
          "type": "address"
        }
      ],
      "stateMutability": "view",
      "type": "function"
    },
    {
      "inputs": [],
      "name": "renounceOwnership",
      "outputs": [],
      "stateMutability": "nonpayable",
      "type": "function"
    },
    {
      "inputs": [
        {
          "internalType": "address",
          "name": "from",
          "type": "address"
        },
        {
          "internalType": "address",
          "name": "to",
          "type": "address"
        },
        {
          "internalType": "uint256",
          "name": "tokenId",
          "type": "uint256"
        }
      ],
      "name": "safeTransferFrom",
      "outputs": [],
      "stateMutability": "nonpayable",
      "type": "function"
    },
    {
      "inputs": [
        {
          "internalType": "address",
          "name": "from",
          "type": "address"
        },
        {
          "internalType": "address",
          "name": "to",
          "type": "address"
        },
        {
          "internalType": "uint256",
          "name": "tokenId",
          "type": "uint256"
        },
        {
          "internalType": "bytes",
          "name": "data",
          "type": "bytes"
        }
      ],
      "name": "safeTransferFrom",
      "outputs": [],
      "stateMutability": "nonpayable",
      "type": "function"
    },
    {
      "inputs": [
        {
          "internalType": "address",
          "name": "operator",
          "type": "address"
        },
        {
          "internalType": "bool",
          "name": "approved",
          "type": "bool"
        }
      ],
      "name": "setApprovalForAll",
      "outputs": [],
      "stateMutability": "nonpayable",
      "type": "function"
    },
    {
      "inputs": [
        {
          "internalType": "bytes4",
          "name": "interfaceId",
          "type": "bytes4"
        }
      ],
      "name": "supportsInterface",
      "outputs": [
        {
          "internalType": "bool",
          "name": "",
          "type": "bool"
        }
      ],
      "stateMutability": "view",
      "type": "function"
    },
    {
      "inputs": [],
      "name": "symbol",
      "outputs": [
        {
          "internalType": "string",
          "name": "",
          "type": "string"
        }
      ],
      "stateMutability": "view",
      "type": "function"
    },
    {
      "inputs": [
        {
          "internalType": "address",
          "name": "_owner",
          "type": "address"
        },
        {
          "internalType": "uint256",
          "name": "_index",
          "type": "uint256"
        }
      ],
      "name": "tokenOfOwnerByIndex",
      "outputs": [
        {
          "internalType": "uint256",
          "name": "",
          "type": "uint256"
        }
      ],
      "stateMutability": "view",
      "type": "function"
    },
    {
      "inputs": [
        {
          "internalType": "uint256",
          "name": "tokenId",
          "type": "uint256"
        }
      ],
      "name": "tokenURI",
      "outputs": [
        {
          "internalType": "string",
          "name": "",
          "type": "string"
        }
      ],
      "stateMutability": "view",
      "type": "function"
    },
    {
      "inputs": [
        {
          "internalType": "address",
          "name": "from",
          "type": "address"
        },
        {
          "internalType": "address",
          "name": "to",
          "type": "address"
        },
        {
          "internalType": "uint256",
          "name": "tokenId",
          "type": "uint256"
        }
      ],
      "name": "transferFrom",
      "outputs": [],
      "stateMutability": "nonpayable",
      "type": "function"
    },
    {
      "inputs": [
        {
          "internalType": "address",
          "name": "newOwner",
          "type": "address"
        }
      ],
      "name": "transferOwnership",
      "outputs": [],
      "stateMutability": "nonpayable",
      "type": "function"
    }
  ],
  "bytecode": "0x608060405234801561001057600080fd5b506040516138c73803806138c78339818101604052810190610032919061037a565b80838381600090816100449190610626565b5080600190816100549190610626565b505050600073ffffffffffffffffffffffffffffffffffffffff168173ffffffffffffffffffffffffffffffffffffffff16036100c95760006040517f1e4fbdf70000000000000000000000000000000000000000000000000000000081526004016100c09190610707565b60405180910390fd5b6100d8816100e160201b60201c565b50505050610722565b6000600760009054906101000a900473ffffffffffffffffffffffffffffffffffffffff16905081600760006101000a81548173ffffffffffffffffffffffffffffffffffffffff021916908373ffffffffffffffffffffffffffffffffffffffff1602179055508173ffffffffffffffffffffffffffffffffffffffff168173ffffffffffffffffffffffffffffffffffffffff167f8be0079c531659141344cd1fd0a4f28419497f9722a3daafe3b4186f6b6457e060405160405180910390a35050565b6000604051905090565b600080fd5b600080fd5b600080fd5b600080fd5b6000601f19601f8301169050919050565b7f4e487b7100000000000000000000000000000000000000000000000000000000600052604160045260246000fd5b61020e826101c5565b810181811067ffffffffffffffff8211171561022d5761022c6101d6565b5b80604052505050565b60006102406101a7565b905061024c8282610205565b919050565b600067ffffffffffffffff82111561026c5761026b6101d6565b5b610275826101c5565b9050602081019050919050565b60005b838110156102a0578082015181840152602081019050610285565b60008484015250505050565b60006102bf6102ba84610251565b610236565b9050828152602081018484840111156102db576102da6101c0565b5b6102e6848285610282565b509392505050565b600082601f830112610303576103026101bb565b5b81516103138482602086016102ac565b91505092915050565b600073ffffffffffffffffffffffffffffffffffffffff82169050919050565b60006103478261031c565b9050919050565b6103578161033c565b811461036257600080fd5b50565b6000815190506103748161034e565b92915050565b600080600060608486031215610393576103926101b1565b5b600084015167ffffffffffffffff8111156103b1576103b06101b6565b5b6103bd868287016102ee565b935050602084015167ffffffffffffffff8111156103de576103dd6101b6565b5b6103ea868287016102ee565b92505060406103fb86828701610365565b9150509250925092565b600081519050919050565b7f4e487b7100000000000000000000000000000000000000000000000000000000600052602260045260246000fd5b6000600282049050600182168061045757607f821691505b60208210810361046a57610469610410565b5b50919050565b60008190508160005260206000209050919050565b60006020601f8301049050919050565b600082821b905092915050565b6000600883026104d27fffffffffffffffffffffffffffffffffffffffffffffffffffffffffffffffff82610495565b6104dc8683610495565b95508019841693508086168417925050509392505050565b6000819050919050565b6000819050919050565b600061052361051e610519846104f4565b6104fe565b6104f4565b9050919050565b6000819050919050565b61053d83610508565b6105516105498261052a565b8484546104a2565b825550505050565b600090565b610566610559565b610571818484610534565b505050565b5b818110156105955761058a60008261055e565b600181019050610577565b5050565b601f8211156105da576105ab81610470565b6105b484610485565b810160208510156105c3578190505b6105d76105cf85610485565b830182610576565b50505b505050565b600082821c905092915050565b60006105fd600019846008026105df565b1980831691505092915050565b600061061683836105ec565b9150826002028217905092915050565b61062f82610405565b67ffffffffffffffff811115610648576106476101d6565b5b610652825461043f565b61065d828285610599565b600060209050601f831160018114610690576000841561067e578287015190505b610688858261060a565b8655506106f0565b601f19841661069e86610470565b60005b828110156106c6578489015182556001820191506020850194506020810190506106a1565b868310156106e357848901516106df601f8916826105ec565b8355505b6001600288020188555050505b505050505050565b6107018161033c565b82525050565b600060208201905061071c60008301846106f8565b92915050565b613196806107316000396000f3fe608060405234801561001057600080fd5b50600436106101425760003560e01c80638684e124116100b8578063a91496411161007c578063a91496411461039f578063b88d4fde146103bd578063c87b56dd146103d9578063d3fc986414610409578063e985e9c514610425578063f2fde38b1461045557610142565b80638684e124146102e35780638baafe13146103175780638da5cb5b1461034757806395d89b4114610365578063a22cb4651461038357610142565b80632f745c591161010a5780632f745c59146101fd57806341de982e1461022d57806342842e0e1461025d5780636352211e1461027957806370a08231146102a9578063715018a6146102d957610142565b806301ffc9a71461014757806306fdde0314610177578063081812fc14610195578063095ea7b3146101c557806323b872dd146101e1575b600080fd5b610161600480360381019061015c91906123f3565b610471565b60405161016e919061243b565b60405180910390f35b61017f6104d2565b60405161018c91906124e6565b60405180910390f35b6101af60048036038101906101aa919061253e565b610564565b6040516101bc91906125ac565b60405180910390f35b6101df60048036038101906101da91906125f3565b610580565b005b6101fb60048036038101906101f69190612633565b610596565b005b610217600480360381019061021291906125f3565b610698565b6040516102249190612695565b60405180910390f35b610247600480360381019061024291906126b0565b6106f6565b6040516102549190612695565b60405180910390f35b61027760048036038101906102729190612633565b61073f565b005b610293600480360381019061028e919061253e565b61075f565b6040516102a091906125ac565b60405180910390f35b6102c360048036038101906102be91906126b0565b610771565b6040516102d09190612695565b60405180910390f35b6102e161082b565b005b6102fd60048036038101906102f8919061253e565b61083f565b60405161030e9594939291906126dd565b60405180910390f35b610331600480360381019061032c91906126b0565b610a3d565b60405161033e9190612695565b60405180910390f35b61034f610a86565b60405161035c91906125ac565b60405180910390f35b61036d610ab0565b60405161037a91906124e6565b60405180910390f35b61039d60048036038101906103989190612771565b610b42565b005b6103a7610b58565b6040516103b4919061295f565b60405180910390f35b6103d760048036038101906103d29190612ab6565b610dcd565b005b6103f360048036038101906103ee919061253e565b610dea565b60405161040091906124e6565b60405180910390f35b610423600480360381019061041e9190612b99565b610efd565b005b61043f600480360381019061043a9190612c0d565b611238565b60405161044c919061243b565b60405180910390f35b61046f600480360381019061046a91906126b0565b6112cc565b005b6000634906490660e01b7bffffffffffffffffffffffffffffffffffffffffffffffffffffffff1916827bffffffffffffffffffffffffffffffffffffffffffffffffffffffff191614806104cb57506104ca82611352565b5b9050919050565b6060600080546104e190612c7c565b80601f016020809104026020016040519081016040528092919081815260200182805461050d90612c7c565b801561055a5780601f1061052f5761010080835404028352916020019161055a565b820191906000526020600020905b81548152906001019060200180831161053d57829003601f168201915b5050505050905090565b600061056f82611434565b50610579826114bc565b9050919050565b610592828261058d6114f9565b611501565b5050565b600073ffffffffffffffffffffffffffffffffffffffff168273ffffffffffffffffffffffffffffffffffffffff16036106085760006040517f64a0ae920000000000000000000000000000000000000000000000000000000081526004016105ff91906125ac565b60405180910390fd5b600061061c83836106176114f9565b611513565b90508373ffffffffffffffffffffffffffffffffffffffff168173ffffffffffffffffffffffffffffffffffffffff1614610692578382826040517f64283d7b00000000000000000000000000000000000000000000000000000000815260040161068993929190612cad565b60405180910390fd5b50505050565b6000600b60008473ffffffffffffffffffffffffffffffffffffffff1673ffffffffffffffffffffffffffffffffffffffff168152602001908152602001600020600083815260200190815260200160002060000154905092915050565b6000600960008373ffffffffffffffffffffffffffffffffffffffff1673ffffffffffffffffffffffffffffffffffffffff168152602001908152602001600020549050919050565b61075a83838360405180602001604052806000815250610dcd565b505050565b600061076a82611434565b9050919050565b60008073ffffffffffffffffffffffffffffffffffffffff168273ffffffffffffffffffffffffffffffffffffffff16036107e45760006040517f89c62b640000000000000000000000000000000000000000000000000000000081526004016107db91906125ac565b60405180910390fd5b600360008373ffffffffffffffffffffffffffffffffffffffff1673ffffffffffffffffffffffffffffffffffffffff168152602001908152602001600020549050919050565b61083361172d565b61083d60006117b4565b565b6008818154811061084f57600080fd5b906000526020600020906005020160009150905080600001549080600101805461087890612c7c565b80601f01602080910402602001604051908101604052809291908181526020018280546108a490612c7c565b80156108f15780601f106108c6576101008083540402835291602001916108f1565b820191906000526020600020905b8154815290600101906020018083116108d457829003601f168201915b50505050509080600201805461090690612c7c565b80601f016020809104026020016040519081016040528092919081815260200182805461093290612c7c565b801561097f5780601f106109545761010080835404028352916020019161097f565b820191906000526020600020905b81548152906001019060200180831161096257829003601f168201915b50505050509080600301805461099490612c7c565b80601f01602080910402602001604051908101604052809291908181526020018280546109c090612c7c565b8015610a0d5780601f106109e257610100808354040283529160200191610a0d565b820191906000526020600020905b8154815290600101906020018083116109f057829003601f168201915b5050505050908060040160009054906101000a900473ffffffffffffffffffffffffffffffffffffffff16905085565b6000600a60008373ffffffffffffffffffffffffffffffffffffffff1673ffffffffffffffffffffffffffffffffffffffff168152602001908152602001600020549050919050565b6000600760009054906101000a900473ffffffffffffffffffffffffffffffffffffffff16905090565b606060018054610abf90612c7c565b80601f0160208091040260200160405190810160405280929190818152602001828054610aeb90612c7c565b8015610b385780601f10610b0d57610100808354040283529160200191610b38565b820191906000526020600020905b815481529060010190602001808311610b1b57829003601f168201915b5050505050905090565b610b54610b4d6114f9565b838361187a565b5050565b60606008805480602002602001604051908101604052809291908181526020016000905b82821015610dc457838290600052602060002090600502016040518060a001604052908160008201548152602001600182018054610bb990612c7c565b80601f0160208091040260200160405190810160405280929190818152602001828054610be590612c7c565b8015610c325780601f10610c0757610100808354040283529160200191610c32565b820191906000526020600020905b815481529060010190602001808311610c1557829003601f168201915b50505050508152602001600282018054610c4b90612c7c565b80601f0160208091040260200160405190810160405280929190818152602001828054610c7790612c7c565b8015610cc45780601f10610c9957610100808354040283529160200191610cc4565b820191906000526020600020905b815481529060010190602001808311610ca757829003601f168201915b50505050508152602001600382018054610cdd90612c7c565b80601f0160208091040260200160405190810160405280929190818152602001828054610d0990612c7c565b8015610d565780601f10610d2b57610100808354040283529160200191610d56565b820191906000526020600020905b815481529060010190602001808311610d3957829003601f168201915b505050505081526020016004820160009054906101000a900473ffffffffffffffffffffffffffffffffffffffff1673ffffffffffffffffffffffffffffffffffffffff1673ffffffffffffffffffffffffffffffffffffffff168152505081526020019060010190610b7c565b50505050905090565b610dd8848484610596565b610de4848484846119e9565b50505050565b6060610df582611434565b506000600660008481526020019081526020016000208054610e1690612c7c565b80601f0160208091040260200160405190810160405280929190818152602001828054610e4290612c7c565b8015610e8f5780601f10610e6457610100808354040283529160200191610e8f565b820191906000526020600020905b815481529060010190602001808311610e7257829003601f168201915b505050505090506000610ea0611ba0565b90506000815103610eb5578192505050610ef8565b600082511115610eea578082604051602001610ed2929190612d20565b60405160208183030381529060405292505050610ef8565b610ef384611bb7565b925050505b919050565b610f078484611c20565b610f558383838080601f016020809104026020016040519081016040528093929190818152602001838380828437600081840152601f19601f82011690508083019250505050505050611d19565b60005b610f6133610771565b811015610fe157604051806020016040528085815250600b60008773ffffffffffffffffffffffffffffffffffffffff1673ffffffffffffffffffffffffffffffffffffffff1681526020019081526020016000206000838152602001908152602001600020600082015181600001559050508080600101915050610f58565b506001600960008673ffffffffffffffffffffffffffffffffffffffff1673ffffffffffffffffffffffffffffffffffffffff16815260200190815260200160002060008282546110329190612d73565b925050819055506001600a60008673ffffffffffffffffffffffffffffffffffffffff1673ffffffffffffffffffffffffffffffffffffffff16815260200190815260200160002060008282546110899190612d73565b9250508190555060006040518060a001604052808581526020016040518060400160405280600481526020017f4e616d650000000000000000000000000000000000000000000000000000000081525081526020016040518060400160405280600b81526020017f4465736372697074696f6e00000000000000000000000000000000000000000081525081526020016040518060400160405280600981526020017f496d61676548617368000000000000000000000000000000000000000000000081525081526020013373ffffffffffffffffffffffffffffffffffffffff16815250905060088190806001815401808255809150506001900390600052602060002090600502016000909190919091506000820151816000015560208201518160010190816111bb9190612f53565b5060408201518160020190816111d19190612f53565b5060608201518160030190816111e79190612f53565b5060808201518160040160006101000a81548173ffffffffffffffffffffffffffffffffffffffff021916908373ffffffffffffffffffffffffffffffffffffffff16021790555050505050505050565b6000600560008473ffffffffffffffffffffffffffffffffffffffff1673ffffffffffffffffffffffffffffffffffffffff16815260200190815260200160002060008373ffffffffffffffffffffffffffffffffffffffff1673ffffffffffffffffffffffffffffffffffffffff16815260200190815260200160002060009054906101000a900460ff16905092915050565b6112d461172d565b600073ffffffffffffffffffffffffffffffffffffffff168173ffffffffffffffffffffffffffffffffffffffff16036113465760006040517f1e4fbdf700000000000000000000000000000000000000000000000000000000815260040161133d91906125ac565b60405180910390fd5b61134f816117b4565b50565b60007f80ac58cd000000000000000000000000000000000000000000000000000000007bffffffffffffffffffffffffffffffffffffffffffffffffffffffff1916827bffffffffffffffffffffffffffffffffffffffffffffffffffffffff1916148061141d57507f5b5e139f000000000000000000000000000000000000000000000000000000007bffffffffffffffffffffffffffffffffffffffffffffffffffffffff1916827bffffffffffffffffffffffffffffffffffffffffffffffffffffffff1916145b8061142d575061142c82611d75565b5b9050919050565b60008061144083611ddf565b9050600073ffffffffffffffffffffffffffffffffffffffff168173ffffffffffffffffffffffffffffffffffffffff16036114b357826040517f7e2732890000000000000000000000000000000000000000000000000000000081526004016114aa9190612695565b60405180910390fd5b80915050919050565b60006004600083815260200190815260200160002060009054906101000a900473ffffffffffffffffffffffffffffffffffffffff169050919050565b600033905090565b61150e8383836001611e1c565b505050565b60008061151f84611ddf565b9050600073ffffffffffffffffffffffffffffffffffffffff168373ffffffffffffffffffffffffffffffffffffffff161461156157611560818486611fe1565b5b600073ffffffffffffffffffffffffffffffffffffffff168173ffffffffffffffffffffffffffffffffffffffff16146115f2576115a3600085600080611e1c565b6001600360008373ffffffffffffffffffffffffffffffffffffffff1673ffffffffffffffffffffffffffffffffffffffff168152602001908152602001600020600082825403925050819055505b600073ffffffffffffffffffffffffffffffffffffffff168573ffffffffffffffffffffffffffffffffffffffff1614611675576001600360008773ffffffffffffffffffffffffffffffffffffffff1673ffffffffffffffffffffffffffffffffffffffff168152602001908152602001600020600082825401925050819055505b846002600086815260200190815260200160002060006101000a81548173ffffffffffffffffffffffffffffffffffffffff021916908373ffffffffffffffffffffffffffffffffffffffff160217905550838573ffffffffffffffffffffffffffffffffffffffff168273ffffffffffffffffffffffffffffffffffffffff167fddf252ad1be2c89b69c2b068fc378daa952ba7f163c4a11628f55a4df523b3ef60405160405180910390a4809150509392505050565b6117356114f9565b73ffffffffffffffffffffffffffffffffffffffff16611753610a86565b73ffffffffffffffffffffffffffffffffffffffff16146117b2576117766114f9565b6040517f118cdaa70000000000000000000000000000000000000000000000000000000081526004016117a991906125ac565b60405180910390fd5b565b6000600760009054906101000a900473ffffffffffffffffffffffffffffffffffffffff16905081600760006101000a81548173ffffffffffffffffffffffffffffffffffffffff021916908373ffffffffffffffffffffffffffffffffffffffff1602179055508173ffffffffffffffffffffffffffffffffffffffff168173ffffffffffffffffffffffffffffffffffffffff167f8be0079c531659141344cd1fd0a4f28419497f9722a3daafe3b4186f6b6457e060405160405180910390a35050565b600073ffffffffffffffffffffffffffffffffffffffff168273ffffffffffffffffffffffffffffffffffffffff16036118eb57816040517f5b08ba180000000000000000000000000000000000000000000000000000000081526004016118e291906125ac565b60405180910390fd5b80600560008573ffffffffffffffffffffffffffffffffffffffff1673ffffffffffffffffffffffffffffffffffffffff16815260200190815260200160002060008473ffffffffffffffffffffffffffffffffffffffff1673ffffffffffffffffffffffffffffffffffffffff16815260200190815260200160002060006101000a81548160ff0219169083151502179055508173ffffffffffffffffffffffffffffffffffffffff168373ffffffffffffffffffffffffffffffffffffffff167f17307eab39ab6107e8899845ad3d59bd9653f200f220920489ca2b5937696c31836040516119dc919061243b565b60405180910390a3505050565b60008373ffffffffffffffffffffffffffffffffffffffff163b1115611b9a578273ffffffffffffffffffffffffffffffffffffffff1663150b7a02611a2d6114f9565b8685856040518563ffffffff1660e01b8152600401611a4f949392919061307a565b6020604051808303816000875af1925050508015611a8b57506040513d601f19601f82011682018060405250810190611a8891906130db565b60015b611b0f573d8060008114611abb576040519150601f19603f3d011682016040523d82523d6000602084013e611ac0565b606091505b506000815103611b0757836040517f64a0ae92000000000000000000000000000000000000000000000000000000008152600401611afe91906125ac565b60405180910390fd5b805181602001fd5b63150b7a0260e01b7bffffffffffffffffffffffffffffffffffffffffffffffffffffffff1916817bffffffffffffffffffffffffffffffffffffffffffffffffffffffff191614611b9857836040517f64a0ae92000000000000000000000000000000000000000000000000000000008152600401611b8f91906125ac565b60405180910390fd5b505b50505050565b606060405180602001604052806000815250905090565b6060611bc282611434565b506000611bcd611ba0565b90506000815111611bed5760405180602001604052806000815250611c18565b80611bf7846120a5565b604051602001611c08929190612d20565b6040516020818303038152906040525b915050919050565b600073ffffffffffffffffffffffffffffffffffffffff168273ffffffffffffffffffffffffffffffffffffffff1603611c925760006040517f64a0ae92000000000000000000000000000000000000000000000000000000008152600401611c8991906125ac565b60405180910390fd5b6000611ca083836000611513565b9050600073ffffffffffffffffffffffffffffffffffffffff168173ffffffffffffffffffffffffffffffffffffffff1614611d145760006040517f73c6ac6e000000000000000000000000000000000000000000000000000000008152600401611d0b91906125ac565b60405180910390fd5b505050565b80600660008481526020019081526020016000209081611d399190612f53565b507ff8e1a15aba9398e019f0b49df1a4fde98ee17ae345cb5f6b5e2c27f5033e8ce782604051611d699190612695565b60405180910390a15050565b60007f01ffc9a7000000000000000000000000000000000000000000000000000000007bffffffffffffffffffffffffffffffffffffffffffffffffffffffff1916827bffffffffffffffffffffffffffffffffffffffffffffffffffffffff1916149050919050565b60006002600083815260200190815260200160002060009054906101000a900473ffffffffffffffffffffffffffffffffffffffff169050919050565b8080611e555750600073ffffffffffffffffffffffffffffffffffffffff168273ffffffffffffffffffffffffffffffffffffffff1614155b15611f89576000611e6584611434565b9050600073ffffffffffffffffffffffffffffffffffffffff168373ffffffffffffffffffffffffffffffffffffffff1614158015611ed057508273ffffffffffffffffffffffffffffffffffffffff168173ffffffffffffffffffffffffffffffffffffffff1614155b8015611ee35750611ee18184611238565b155b15611f2557826040517fa9fbf51f000000000000000000000000000000000000000000000000000000008152600401611f1c91906125ac565b60405180910390fd5b8115611f8757838573ffffffffffffffffffffffffffffffffffffffff168273ffffffffffffffffffffffffffffffffffffffff167f8c5be1e5ebec7d5bd14f71427d1e84f3dd0314c0f7b2291e5b200ac8c7c3b92560405160405180910390a45b505b836004600085815260200190815260200160002060006101000a81548173ffffffffffffffffffffffffffffffffffffffff021916908373ffffffffffffffffffffffffffffffffffffffff16021790555050505050565b611fec838383612173565b6120a057600073ffffffffffffffffffffffffffffffffffffffff168373ffffffffffffffffffffffffffffffffffffffff160361206157806040517f7e2732890000000000000000000000000000000000000000000000000000000081526004016120589190612695565b60405180910390fd5b81816040517f177e802f000000000000000000000000000000000000000000000000000000008152600401612097929190613108565b60405180910390fd5b505050565b6060600060016120b484612234565b01905060008167ffffffffffffffff8111156120d3576120d261298b565b5b6040519080825280601f01601f1916602001820160405280156121055781602001600182028036833780820191505090505b509050600082602001820190505b600115612168578080600190039150507f3031323334353637383961626364656600000000000000000000000000000000600a86061a8153600a858161215c5761215b613131565b5b04945060008503612113575b819350505050919050565b60008073ffffffffffffffffffffffffffffffffffffffff168373ffffffffffffffffffffffffffffffffffffffff161415801561222b57508273ffffffffffffffffffffffffffffffffffffffff168473ffffffffffffffffffffffffffffffffffffffff1614806121ec57506121eb8484611238565b5b8061222a57508273ffffffffffffffffffffffffffffffffffffffff16612212836114bc565b73ffffffffffffffffffffffffffffffffffffffff16145b5b90509392505050565b600080600090507a184f03e93ff9f4daa797ed6e38ed64bf6a1f0100000000000000008310612292577a184f03e93ff9f4daa797ed6e38ed64bf6a1f010000000000000000838161228857612287613131565b5b0492506040810190505b6d04ee2d6d415b85acef810000000083106122cf576d04ee2d6d415b85acef810000000083816122c5576122c4613131565b5b0492506020810190505b662386f26fc1000083106122fe57662386f26fc1000083816122f4576122f3613131565b5b0492506010810190505b6305f5e1008310612327576305f5e100838161231d5761231c613131565b5b0492506008810190505b612710831061234c57612710838161234257612341613131565b5b0492506004810190505b6064831061236f576064838161236557612364613131565b5b0492506002810190505b600a831061237e576001810190505b80915050919050565b6000604051905090565b600080fd5b600080fd5b60007fffffffff0000000000000000000000000000000000000000000000000000000082169050919050565b6123d08161239b565b81146123db57600080fd5b50565b6000813590506123ed816123c7565b92915050565b60006020828403121561240957612408612391565b5b6000612417848285016123de565b91505092915050565b60008115159050919050565b61243581612420565b82525050565b6000602082019050612450600083018461242c565b92915050565b600081519050919050565b600082825260208201905092915050565b60005b83811015612490578082015181840152602081019050612475565b60008484015250505050565b6000601f19601f8301169050919050565b60006124b882612456565b6124c28185612461565b93506124d2818560208601612472565b6124db8161249c565b840191505092915050565b6000602082019050818103600083015261250081846124ad565b905092915050565b6000819050919050565b61251b81612508565b811461252657600080fd5b50565b60008135905061253881612512565b92915050565b60006020828403121561255457612553612391565b5b600061256284828501612529565b91505092915050565b600073ffffffffffffffffffffffffffffffffffffffff82169050919050565b60006125968261256b565b9050919050565b6125a68161258b565b82525050565b60006020820190506125c1600083018461259d565b92915050565b6125d08161258b565b81146125db57600080fd5b50565b6000813590506125ed816125c7565b92915050565b6000806040838503121561260a57612609612391565b5b6000612618858286016125de565b925050602061262985828601612529565b9150509250929050565b60008060006060848603121561264c5761264b612391565b5b600061265a868287016125de565b935050602061266b868287016125de565b925050604061267c86828701612529565b9150509250925092565b61268f81612508565b82525050565b60006020820190506126aa6000830184612686565b92915050565b6000602082840312156126c6576126c5612391565b5b60006126d4848285016125de565b91505092915050565b600060a0820190506126f26000830188612686565b818103602083015261270481876124ad565b9050818103604083015261271881866124ad565b9050818103606083015261272c81856124ad565b905061273b608083018461259d565b9695505050505050565b61274e81612420565b811461275957600080fd5b50565b60008135905061276b81612745565b92915050565b6000806040838503121561278857612787612391565b5b6000612796858286016125de565b92505060206127a78582860161275c565b9150509250929050565b600081519050919050565b600082825260208201905092915050565b6000819050602082019050919050565b6127e681612508565b82525050565b600082825260208201905092915050565b600061280882612456565b61281281856127ec565b9350612822818560208601612472565b61282b8161249c565b840191505092915050565b61283f8161258b565b82525050565b600060a08301600083015161285d60008601826127dd565b506020830151848203602086015261287582826127fd565b9150506040830151848203604086015261288f82826127fd565b915050606083015184820360608601526128a982826127fd565b91505060808301516128be6080860182612836565b508091505092915050565b60006128d58383612845565b905092915050565b6000602082019050919050565b60006128f5826127b1565b6128ff81856127bc565b935083602082028501612911856127cd565b8060005b8581101561294d578484038952815161292e85826128c9565b9450612939836128dd565b925060208a01995050600181019050612915565b50829750879550505050505092915050565b6000602082019050818103600083015261297981846128ea565b905092915050565b600080fd5b600080fd5b7f4e487b7100000000000000000000000000000000000000000000000000000000600052604160045260246000fd5b6129c38261249c565b810181811067ffffffffffffffff821117156129e2576129e161298b565b5b80604052505050565b60006129f5612387565b9050612a0182826129ba565b919050565b600067ffffffffffffffff821115612a2157612a2061298b565b5b612a2a8261249c565b9050602081019050919050565b82818337600083830152505050565b6000612a59612a5484612a06565b6129eb565b905082815260208101848484011115612a7557612a74612986565b5b612a80848285612a37565b509392505050565b600082601f830112612a9d57612a9c612981565b5b8135612aad848260208601612a46565b91505092915050565b60008060008060808587031215612ad057612acf612391565b5b6000612ade878288016125de565b9450506020612aef878288016125de565b9350506040612b0087828801612529565b925050606085013567ffffffffffffffff811115612b2157612b20612396565b5b612b2d87828801612a88565b91505092959194509250565b600080fd5b600080fd5b60008083601f840112612b5957612b58612981565b5b8235905067ffffffffffffffff811115612b7657612b75612b39565b5b602083019150836001820283011115612b9257612b91612b3e565b5b9250929050565b60008060008060608587031215612bb357612bb2612391565b5b6000612bc1878288016125de565b9450506020612bd287828801612529565b935050604085013567ffffffffffffffff811115612bf357612bf2612396565b5b612bff87828801612b43565b925092505092959194509250565b60008060408385031215612c2457612c23612391565b5b6000612c32858286016125de565b9250506020612c43858286016125de565b9150509250929050565b7f4e487b7100000000000000000000000000000000000000000000000000000000600052602260045260246000fd5b60006002820490506001821680612c9457607f821691505b602082108103612ca757612ca6612c4d565b5b50919050565b6000606082019050612cc2600083018661259d565b612ccf6020830185612686565b612cdc604083018461259d565b949350505050565b600081905092915050565b6000612cfa82612456565b612d048185612ce4565b9350612d14818560208601612472565b80840191505092915050565b6000612d2c8285612cef565b9150612d388284612cef565b91508190509392505050565b7f4e487b7100000000000000000000000000000000000000000000000000000000600052601160045260246000fd5b6000612d7e82612508565b9150612d8983612508565b9250828201905080821115612da157612da0612d44565b5b92915050565b60008190508160005260206000209050919050565b60006020601f8301049050919050565b600082821b905092915050565b600060088302612e097fffffffffffffffffffffffffffffffffffffffffffffffffffffffffffffffff82612dcc565b612e138683612dcc565b95508019841693508086168417925050509392505050565b6000819050919050565b6000612e50612e4b612e4684612508565b612e2b565b612508565b9050919050565b6000819050919050565b612e6a83612e35565b612e7e612e7682612e57565b848454612dd9565b825550505050565b600090565b612e93612e86565b612e9e818484612e61565b505050565b5b81811015612ec257612eb7600082612e8b565b600181019050612ea4565b5050565b601f821115612f0757612ed881612da7565b612ee184612dbc565b81016020851015612ef0578190505b612f04612efc85612dbc565b830182612ea3565b50505b505050565b600082821c905092915050565b6000612f2a60001984600802612f0c565b1980831691505092915050565b6000612f438383612f19565b9150826002028217905092915050565b612f5c82612456565b67ffffffffffffffff811115612f7557612f7461298b565b5b612f7f8254612c7c565b612f8a828285612ec6565b600060209050601f831160018114612fbd5760008415612fab578287015190505b612fb58582612f37565b86555061301d565b601f198416612fcb86612da7565b60005b82811015612ff357848901518255600182019150602085019450602081019050612fce565b86831015613010578489015161300c601f891682612f19565b8355505b6001600288020188555050505b505050505050565b600081519050919050565b600082825260208201905092915050565b600061304c82613025565b6130568185613030565b9350613066818560208601612472565b61306f8161249c565b840191505092915050565b600060808201905061308f600083018761259d565b61309c602083018661259d565b6130a96040830185612686565b81810360608301526130bb8184613041565b905095945050505050565b6000815190506130d5816123c7565b92915050565b6000602082840312156130f1576130f0612391565b5b60006130ff848285016130c6565b91505092915050565b600060408201905061311d600083018561259d565b61312a6020830184612686565b9392505050565b7f4e487b7100000000000000000000000000000000000000000000000000000000600052601260045260246000fdfea2646970667358221220e57e53829c81626155a219d59539d9429713589d3575fd3e810bd9dae8e73b5264736f6c634300081b0033",
  "linkReferences": {},
  "deployedLinkReferences": {}
}